{"abi":[{"type":"constructor","inputs":[{"name":"asset_","type":"address","internalType":"address"},{"name":"_factory","type":"address","internalType":"address"},{"name":"_treasury","type":"address","internalType":"address"}],"stateMutability":"nonpayable"},{"type":"function","name":"BASE_RATE","inputs":[],"outputs":[{"name":"","type":"uint256","internalType":"uint256"}],"stateMutability":"view"},{"type":"function","name":"DOMAIN_SEPARATOR","inputs":[],"outputs":[{"name":"result","type":"bytes32","internalType":"bytes32"}],"stateMutability":"view"},{"type":"function","name":"KINK","inputs":[],"outputs":[{"name":"","type":"uint256","internalType":"uint256"}],"stateMutability":"view"},{"type":"function","name":"RATE_SLOPE","inputs":[],"outputs":[{"name":"","type":"uint256","internalType":"uint256"}],"stateMutability":"view"},{"type":"function","name":"RESERVE_FACTOR","inputs":[],"outputs":[{"name":"","type":"uint256","internalType":"uint256"}],"stateMutability":"view"},{"type":"function","name":"absorbLoss","inputs":[{"name":"loss","type":"uint256","internalType":"uint256"}],"outputs":[],"stateMutability":"nonpayable"},{"type":"function","name":"accrueInterest","inputs":[],"outputs":[],"stateMutability":"nonpayable"},{"type":"function","name":"allowance","inputs":[{"name":"owner","type":"address","internalType":"address"},{"name":"spender","type":"address","internalType":"address"}],"outputs":[{"name":"result","type":"uint256","internalType":"uint256"}],"stateMutability":"view"},{"type":"function","name":"approve","inputs":[{"name":"spender","type":"address","internalType":"address"},{"name":"amount","type":"uint256","internalType":"uint256"}],"outputs":[{"name":"","type":"bool","internalType":"bool"}],"stateMutability":"nonpayable"},{"type":"function","name":"asset","inputs":[],"outputs":[{"name":"","type":"address","internalType":"address"}],"stateMutability":"view"},{"type":"function","name":"authorize","inputs":[{"name":"vault","type":"address","internalType":"address"}],"outputs":[],"stateMutability":"nonpayable"},{"type":"function","name":"authorized","inputs":[{"name":"","type":"address","internalType":"address"}],"outputs":[{"name":"","type":"bool","internalType":"bool"}],"stateMutability":"view"},{"type":"function","name":"balanceOf","inputs":[{"name":"owner","type":"address","internalType":"address"}],"outputs":[{"name":"result","type":"uint256","internalType":"uint256"}],"stateMutability":"view"},{"type":"function","name":"borrow","inputs":[{"name":"amount","type":"uint256","internalType":"uint256"}],"outputs":[],"stateMutability":"nonpayable"},{"type":"function","name":"borrowIndex","inputs":[],"outputs":[{"name":"","type":"uint256","internalType":"uint256"}],"stateMutability":"view"},{"type":"function","name":"borrowRate","inputs":[],"outputs":[{"name":"","type":"uint256","internalType":"uint256"}],"stateMutability":"view"},{"type":"function","name":"convertToAssets","inputs":[{"name":"shares","type":"uint256","internalType":"uint256"}],"outputs":[{"name":"assets","type":"uint256","internalType":"uint256"}],"stateMutability":"view"},{"type":"function","name":"convertToShares","inputs":[{"name":"assets","type":"uint256","internalType":"uint256"}],"outputs":[{"name":"shares","type":"uint256","internalType":"uint256"}],"stateMutability":"view"},{"type":"function","name":"decimals","inputs":[],"outputs":[{"name":"","type":"uint8","internalType":"uint8"}],"stateMutability":"view"},{"type":"function","name":"deposit","inputs":[{"name":"assets","type":"uint256","internalType":"uint256"},{"name":"to","type":"address","internalType":"address"}],"outputs":[{"name":"shares","type":"uint256","internalType":"uint256"}],"stateMutability":"nonpayable"},{"type":"function","name":"factory","inputs":[],"outputs":[{"name":"","type":"address","internalType":"address"}],"stateMutability":"view"},{"type":"function","name":"lastAccrueTime","inputs":[],"outputs":[{"name":"","type":"uint256","internalType":"uint256"}],"stateMutability":"view"},{"type":"function","name":"maxDeposit","inputs":[{"name":"to","type":"address","internalType":"address"}],"outputs":[{"name":"maxAssets","type":"uint256","internalType":"uint256"}],"stateMutability":"view"},{"type":"function","name":"maxMint","inputs":[{"name":"to","type":"address","internalType":"address"}],"outputs":[{"name":"maxShares","type":"uint256","internalType":"uint256"}],"stateMutability":"view"},{"type":"function","name":"maxRedeem","inputs":[{"name":"owner","type":"address","internalType":"address"}],"outputs":[{"name":"maxShares","type":"uint256","internalType":"uint256"}],"stateMutability":"view"},{"type":"function","name":"maxWithdraw","inputs":[{"name":"owner","type":"address","internalType":"address"}],"outputs":[{"name":"maxAssets","type":"uint256","internalType":"uint256"}],"stateMutability":"view"},{"type":"function","name":"mint","inputs":[{"name":"shares","type":"uint256","internalType":"uint256"},{"name":"to","type":"address","internalType":"address"}],"outputs":[{"name":"assets","type":"uint256","internalType":"uint256"}],"stateMutability":"nonpayable"},{"type":"function","name":"name","inputs":[],"outputs":[{"name":"","type":"string","internalType":"string"}],"stateMutability":"view"},{"type":"function","name":"nonces","inputs":[{"name":"owner","type":"address","internalType":"address"}],"outputs":[{"name":"result","type":"uint256","internalType":"uint256"}],"stateMutability":"view"},{"type":"function","name":"permit","inputs":[{"name":"owner","type":"address","internalType":"address"},{"name":"spender","type":"address","internalType":"address"},{"name":"value","type":"uint256","internalType":"uint256"},{"name":"deadline","type":"uint256","internalType":"uint256"},{"name":"v","type":"uint8","internalType":"uint8"},{"name":"r","type":"bytes32","internalType":"bytes32"},{"name":"s","type":"bytes32","internalType":"bytes32"}],"outputs":[],"stateMutability":"nonpayable"},{"type":"function","name":"previewDeposit","inputs":[{"name":"assets","type":"uint256","internalType":"uint256"}],"outputs":[{"name":"shares","type":"uint256","internalType":"uint256"}],"stateMutability":"view"},{"type":"function","name":"previewMint","inputs":[{"name":"shares","type":"uint256","internalType":"uint256"}],"outputs":[{"name":"assets","type":"uint256","internalType":"uint256"}],"stateMutability":"view"},{"type":"function","name":"previewRedeem","inputs":[{"name":"shares","type":"uint256","internalType":"uint256"}],"outputs":[{"name":"assets","type":"uint256","internalType":"uint256"}],"stateMutability":"view"},{"type":"function","name":"previewWithdraw","inputs":[{"name":"assets","type":"uint256","internalType":"uint256"}],"outputs":[{"name":"shares","type":"uint256","internalType":"uint256"}],"stateMutability":"view"},{"type":"function","name":"redeem","inputs":[{"name":"shares","type":"uint256","internalType":"uint256"},{"name":"to","type":"address","internalType":"address"},{"name":"owner","type":"address","internalType":"address"}],"outputs":[{"name":"assets","type":"uint256","internalType":"uint256"}],"stateMutability":"nonpayable"},{"type":"function","name":"reduceReserves","inputs":[{"name":"amount","type":"uint256","internalType":"uint256"}],"outputs":[],"stateMutability":"nonpayable"},{"type":"function","name":"repay","inputs":[{"name":"amount","type":"uint256","internalType":"uint256"}],"outputs":[],"stateMutability":"nonpayable"},{"type":"function","name":"symbol","inputs":[],"outputs":[{"name":"","type":"string","internalType":"string"}],"stateMutability":"view"},{"type":"function","name":"totalAssets","inputs":[],"outputs":[{"name":"","type":"uint256","internalType":"uint256"}],"stateMutability":"view"},{"type":"function","name":"totalBorrows","inputs":[],"outputs":[{"name":"","type":"uint256","internalType":"uint256"}],"stateMutability":"view"},{"type":"function","name":"totalReserves","inputs":[],"outputs":[{"name":"","type":"uint256","internalType":"uint256"}],"stateMutability":"view"},{"type":"function","name":"totalSupply","inputs":[],"outputs":[{"name":"result","type":"uint256","internalType":"uint256"}],"stateMutability":"view"},{"type":"function","name":"transfer","inputs":[{"name":"to","type":"address","internalType":"address"},{"name":"amount","type":"uint256","internalType":"uint256"}],"outputs":[{"name":"","type":"bool","internalType":"bool"}],"stateMutability":"nonpayable"},{"type":"function","name":"transferFrom","inputs":[{"name":"from","type":"address","internalType":"address"},{"name":"to","type":"address","internalType":"address"},{"name":"amount","type":"uint256","internalType":"uint256"}],"outputs":[{"name":"","type":"bool","internalType":"bool"}],"stateMutability":"nonpayable"},{"type":"function","name":"treasury","inputs":[],"outputs":[{"name":"","type":"address","internalType":"address"}],"stateMutability":"view"},{"type":"function","name":"withdraw","inputs":[{"name":"assets","type":"uint256","internalType":"uint256"},{"name":"to","type":"address","internalType":"address"},{"name":"owner","type":"address","internalType":"address"}],"outputs":[{"name":"shares","type":"uint256","internalType":"uint256"}],"stateMutability":"nonpayable"},{"type":"event","name":"Approval","inputs":[{"name":"owner","type":"address","indexed":true,"internalType":"address"},{"name":"spender","type":"address","indexed":true,"internalType":"address"},{"name":"amount","type":"uint256","indexed":false,"internalType":"uint256"}],"anonymous":false},{"type":"event","name":"Deposit","inputs":[{"name":"by","type":"address","indexed":true,"internalType":"address"},{"name":"owner","type":"address","indexed":true,"internalType":"address"},{"name":"assets","type":"uint256","indexed":false,"internalType":"uint256"},{"name":"shares","type":"uint256","indexed":false,"internalType":"uint256"}],"anonymous":false},{"type":"event","name":"Transfer","inputs":[{"name":"from","type":"address","indexed":true,"internalType":"address"},{"name":"to","type":"address","indexed":true,"internalType":"address"},{"name":"amount","type":"uint256","indexed":false,"internalType":"uint256"}],"anonymous":false},{"type":"event","name":"Withdraw","inputs":[{"name":"by","type":"address","indexed":true,"internalType":"address"},{"name":"to","type":"address","indexed":true,"internalType":"address"},{"name":"owner","type":"address","indexed":true,"internalType":"address"},{"name":"assets","type":"uint256","indexed":false,"internalType":"uint256"},{"name":"shares","type":"uint256","indexed":false,"internalType":"uint256"}],"anonymous":false},{"type":"error","name":"AllowanceOverflow","inputs":[]},{"type":"error","name":"AllowanceUnderflow","inputs":[]},{"type":"error","name":"DepositMoreThanMax","inputs":[]},{"type":"error","name":"InsufficientAllowance","inputs":[]},{"type":"error","name":"InsufficientBalance","inputs":[]},{"type":"error","name":"InvalidPermit","inputs":[]},{"type":"error","name":"MintMoreThanMax","inputs":[]},{"type":"error","name":"Permit2AllowanceIsFixedAtInfinity","inputs":[]},{"type":"error","name":"PermitExpired","inputs":[]},{"type":"error","name":"RedeemMoreThanMax","inputs":[]},{"type":"error","name":"Reentrancy","inputs":[]},{"type":"error","name":"TotalSupplyOverflow","inputs":[]},{"type":"error","name":"WithdrawMoreThanMax","inputs":[]}],"bytecode":{"object":"0x60e0346200010357601f62001b7738819003918201601f19168301916001600160401b03831184841017620001075780849260609460405283398101031262000103576200004d816200011b565b906200006a604062000062602084016200011b565b92016200011b565b91670de0b6b3a764000060035560805260a05260c05242600455604051611a469081620001318239608051818181610360015281816105c6015281816108f901528181610b3501528181610bc701528181610c1d01528181610ee701528181611034015281816111d90152818161179901526118b2015260a05181818161064a0152610731015260c051818181610a740152610e9d0152f35b5f80fd5b634e487b7160e01b5f52604160045260245ffd5b51906001600160a01b0382168203620001035756fe60406080815260049081361015610014575f80fd5b5f3560e01c806301e1d1141461106357806306fdde031461101a57806307a2d13a14610ac457806307e2795914610e83578063095ea7b314610dea5780630a28a47714610dcc57806318160ddd14610da657806323b872dd14610cc5578063313ce56714610caa5780633644e51514610c02578063371fd8e614610b6457806338d52e0f14610b21578063402d267d1461054757806341910f9014610b0057806347bd371814610ae25780634cdad50614610ac45780635fc1419d14610aa357806361d027b314610a605780636e553f6514610a2d57806370a08231146102c75780637ecebe00146109fa5780638f840ddd146109dc57806394bf804d146109a957806395d89b41146108d35780639ffe7973146108b7578063a35cc82814610895578063a6afed951461087b578063a9059cbb14610803578063aa5af0fd146107e5578063b3d7f6b9146107c7578063b460af9414610770578063b6a5d7de14610708578063b9181611146106cd578063ba08765214610679578063c45a015514610636578063c5ebeaec1461054c578063c63d75b614610547578063c6e6f59214610529578063c914b4371461050d578063ce96cb77146104d9578063d505accf146102fa578063d905777e146102c7578063dd62ed3e1461029a578063ea32605b14610278578063ec78412e1461023e5763ef8b30f714610216575f80fd5b3461023a57602036600319011261023a576102336020923561132c565b9051908152f35b5f80fd5b50903461023a57602036600319011261023a5761026a60ff61027393335f525f6020525f2054166112c5565b3560015461128c565b600155005b503461023a575f36600319011261023a576020905167016345785d8a00008152f35b503461023a578060031936011261023a576020906102336102b96110cc565b6102c16110e2565b9061141b565b503461023a57602036600319011261023a576020906102e46110cc565b6387a211a2600c525f5281600c20549051908152f35b503461023a5760e036600319011261023a576103146110cc565b9061031d6110e2565b9060443592606435936084359260ff8416840361023a576001600160a01b03948516956e22d473030f116ddee9f6b43ac78ba3871883191517156104cd576103847f00000000000000000000000000000000000000000000000000000000000000006114c1565b948551602080970120908242116104c15760c0978451961697889665383775081901600e52875f5288600c2094855480957f8b73c3c69bb8fe3d512ecc4cf759cc79239f7b179b0ffacaa9a75d522b39400f84528b84019081528d8985017fc89efdaa54c0f20c7adf612882df0950f5a951637e0307cdcb4c672f298b8bc68152606086019c8d469052608087019330855260a08820602e527f6e71edae12b1b97f4d1f60370fef10105fa2faae0126114a169c64845d6126c988525252898b525260a082015220604e526042602c205f5260ff16865260a435835260c435606052858060805f60015afa90873d51036104b5577f8c5be1e5ebec7d5bd14f71427d1e84f3dd0314c0f7b2291e5b200ac8c7c3b92597989950019055866303faf4f960a51b1790526034602c2055a3005b8963ddafbaef5f52601cfd5b89631a15a3cc5f52601cfd5b87633f68539a5f52601cfd5b503461023a57602036600319011261023a576020906104f66110cc565b6387a211a2600c525f5261023382600c2054611260565b503461023a575f36600319011261023a57602090610233611358565b503461023a57602036600319011261023a576102336020923561132c565b6110f8565b50903461023a57602036600319011261023a578035335f525f60205261057760ff845f2054166112c5565b68929eee149b4bd21268913083541461062b573083556105956115d6565b61059d6111be565b90600154916105ac84846111b1565b116105ef5750906105c0816105ea936111b1565b600155337f00000000000000000000000000000000000000000000000000000000000000006116bc565b389055005b606490602086519162461bcd60e51b83528201526016602482015275494e53554646494349454e545f4c495155494449545960501b6044820152fd5b63ab143c065f52601cfd5b503461023a575f36600319011261023a57517f00000000000000000000000000000000000000000000000000000000000000006001600160a01b03168152602090f35b503461023a576106883661111d565b9291936387a211a2600c52835f526020600c205485116106c25750836106bc916106b3602096611260565b94859133611849565b51908152f35b634656425a5f52601cfd5b503461023a57602036600319011261023a576020906001600160a01b036106f26110cc565b165f525f825260ff815f20541690519015158152f35b503461023a57602036600319011261023a576107226110cc565b6001600160a01b0390610758337f00000000000000000000000000000000000000000000000000000000000000008416146112c5565b165f908152602081905220805460ff19166001179055005b503461023a5761077f3661111d565b929190936387a211a2600c52835f5261079c6020600c2054611260565b82116107bc5750602093816107b36106bc93611299565b94859233611849565b63936941fc5f52601cfd5b503461023a57602036600319011261023a5761023360209235611300565b503461023a575f36600319011261023a576020906003549051908152f35b503461023a578060031936011261023a5761081c6110cc565b602435906387a211a2600c52335f5260209384600c2090815490818511610870575083900390555f5282600c208181540190558252600c5160601c335f805160206119f18339815191528480a35160018152f35b63f4d678b85f52601cfd5b3461023a575f36600319011261023a576108936115d6565b005b503461023a575f36600319011261023a5760209051670b1a2bc2ec5000008152f35b503461023a575f36600319011261023a57602091549051908152f35b50903461023a575f36600319011261023a5781516395d89b4160e01b8152905f908290817f00000000000000000000000000000000000000000000000000000000000000006001600160a01b03165afa90811561099f5791610977925f9261097b575b5061096d602182518094606f60f81b602083015261095d815180926020868601910161107f565b8101036001810185520183611152565b51918291826110a0565b0390f35b6109989192503d805f833e6109908183611152565b810190611458565b905f610936565b82513d5f823e3d90fd5b503461023a578060031936011261023a5760209135906106bc6109ca6110e2565b926109d481611300565b80943361178e565b503461023a575f36600319011261023a576020906002549051908152f35b503461023a57602036600319011261023a57602090610a176110cc565b6338377508600c525f5281600c20549051908152f35b503461023a578060031936011261023a5760209135906106bc610a4e6110e2565b610a578461132c565b9384913361178e565b503461023a575f36600319011261023a57517f00000000000000000000000000000000000000000000000000000000000000006001600160a01b03168152602090f35b503461023a575f36600319011261023a576020905166b1a2bc2ec500008152f35b503461023a57602036600319011261023a5761023360209235611260565b503461023a575f36600319011261023a576020906001549051908152f35b503461023a575f36600319011261023a576020905166470de4df8200008152f35b503461023a575f36600319011261023a57517f00000000000000000000000000000000000000000000000000000000000000006001600160a01b03168152602090f35b503461023a57602036600319011261023a57610b8e60ff833592335f525f6020525f2054166112c5565b68929eee149b4bd21268913083541461062b5750610bf390308355610bb16115d6565b6001549081811115610bfb57505b610beb8130337f0000000000000000000000000000000000000000000000000000000000000000611730565b60015461128c565b600155389055005b9050610bbf565b503461023a575f36600319011261023a5760209060a0610c417f00000000000000000000000000000000000000000000000000000000000000006114c1565b8381519101208251907f8b73c3c69bb8fe3d512ecc4cf759cc79239f7b179b0ffacaa9a75d522b39400f8252848201527fc89efdaa54c0f20c7adf612882df0950f5a951637e0307cdcb4c672f298b8bc683820152466060820152306080820152209051908152f35b503461023a575f36600319011261023a576020905160128152f35b503461023a57606036600319011261023a57610cdf6110cc565b610ce76110e2565b604435908260601b6e22d473030f116ddee9f6b43ac78ba33303610d5d575b6387a211a217600c5260209485600c2090815490818511610870575083900390555f52600c8481208054830190559084525160601c906001600160a01b03165f805160206119f18339815191528480a35160018152f35b33602052637f5e9f208117600c526034600c20908154918219610d83575b509050610d06565b828511610d9a57846387a211a2930390555f610d7b565b876313be252b5f52601cfd5b503461023a575f36600319011261023a576020906805345cdf77eb68f44c549051908152f35b503461023a57602036600319011261023a5761023360209235611299565b503461023a578060031936011261023a57610e036110cc565b602435906001600160a01b0381166e22d473030f116ddee9f6b43ac78ba3188219151715610e7757602080945052637f5e9f20600c52335f52806034600c20555f52602c5160601c337f8c5be1e5ebec7d5bd14f71427d1e84f3dd0314c0f7b2291e5b200ac8c7c3b925845fa35160018152f35b83633f68539a5f52601cfd5b50903461023a576020908160031936011261023a578035917f0000000000000000000000000000000000000000000000000000000000000000916001600160a01b03918284163303610fe857610ed76115d6565b60025495868611610faf576024827f0000000000000000000000000000000000000000000000000000000000000000958351928380926370a0823160e01b8252308983015289165afa90811561099f575f91610f82575b508611610f4d57505050610f45836108939561128c565b6002556116bc565b5162461bcd60e51b81529182015260116024820152700929ca6aa8c8c9286928a9ca8be8682a69607b1b604482015260649150fd5b90508281813d8311610fa8575b610f998183611152565b8101031261023a57515f610f2e565b503d610f8f565b5162461bcd60e51b8152918201526015602482015274494e53554646494349454e545f524553455256455360581b604482015260649150fd5b855162461bcd60e51b815291820152600d60248201526c4f4e4c595f545245415355525960981b604482015260649150fd5b503461023a575f36600319011261023a57610977906110587f00000000000000000000000000000000000000000000000000000000000000006114c1565b9051918291826110a0565b503461023a575f36600319011261023a576020906102336111be565b5f5b8381106110905750505f910152565b8181015183820152602001611081565b604091602082526110c0815180928160208601526020868601910161107f565b601f01601f1916010190565b600435906001600160a01b038216820361023a57565b602435906001600160a01b038216820361023a57565b3461023a57602036600319011261023a576111116110cc565b5060206040515f198152f35b606090600319011261023a57600435906001600160a01b0390602435828116810361023a5791604435908116810361023a5790565b90601f8019910116810190811067ffffffffffffffff82111761117457604052565b634e487b7160e01b5f52604160045260245ffd5b9066f8b0a10e47000091820180921161119d57565b634e487b7160e01b5f52601160045260245ffd5b9190820180921161119d57565b6040516370a0823160e01b81523060048201526020816024817f00000000000000000000000000000000000000000000000000000000000000006001600160a01b03165afa8015611255575f90611221575b61121e9150600154906111b1565b90565b506020813d60201161124d575b8161123b60209383611152565b8101031261023a5761121e9051611210565b3d915061122e565b6040513d5f823e3d90fd5b6112686111be565b906001820180921161119d5761121e9160016805345cdf77eb68f44c540191611548565b9190820391821161119d57565b6805345cdf77eb68f44c54906001820180921161119d5761121e9160016112be6111be565b019161170d565b156112cc57565b60405162461bcd60e51b815260206004820152600c60248201526b15539055551213d49256915160a21b6044820152606490fd5b6113086111be565b906001820180921161119d5761121e9160016805345cdf77eb68f44c54019161170d565b6805345cdf77eb68f44c54906001820180921161119d5761121e9160016113516111be565b0191611548565b6113606111be565b801561140f5760015490670de0b6b3a7640000918183820291848184041490151702156113c9570490670b1a2bc2ec50000082116113d6578066b1a2bc2ec5000092838102938185041490151702156113c95766470de4df8200009104810180911161119d5790565b63ad251c275f526004601cfd5b670b1a2bc2ec4fffff19820191821161119d5780670214e8348c4f000092838102938185041490151702156113c95761121e9104611188565b5066470de4df82000090565b906001600160a01b0381166e22d473030f116ddee9f6b43ac78ba31461145157602052637f5e9f20600c525f526034600c205490565b50505f1990565b60208183031261023a57805167ffffffffffffffff9182821161023a57019082601f8301121561023a57815190811161117457604051926114a3601f8301601f191660200185611152565b8184526020828401011161023a5761121e916020808501910161107f565b6040516306fdde0360e01b8152905f90829060049082906001600160a01b03165afa908115611255575f9161152e575b5061121e6026604051809365027b9b4ba37960d51b602083015261151e815180926020868601910161107f565b8101036006810184520182611152565b61154291503d805f833e6109908183611152565b5f6114f1565b81810292918115828504821417830215611563575050900490565b82905f1981840985811086019003920990825f03831692818111156115c9578390046002816003028118808302820302808302820302808302820302808302820302808302820302809202900302936001848483030494805f0304019211900302170290565b63ae47f7025f526004601cfd5b600480548042146116b8576115f36115ec611926565b914261128c565b6301e133809180820291811591830414178202156116ac570460015481810290670de0b6b3a76400009182848383041483151702156116a05782611639910480926111b1565b6001558167016345785d8a00009182810292818404149015170215611694578161166691046002546111b1565b600255600354918181840291848304148415170215611694579061168c929104906111b1565b600355429055565b8363ad251c275f52601cfd5b8463ad251c275f52601cfd5b8263ad251c275f52601cfd5b5050565b919060145260345263a9059cbb60601b5f5260205f6044601082855af1908160015f511416156116ef575b50505f603452565b3b153d171015611700575f806116e7565b6390b8ec185f526004601cfd5b92919061171b828286611548565b930961172357565b906001019081156115c957565b916040519360605260405260601b602c526323b872dd60601b600c5260205f6064601c82855af1908160015f51141615611770575b50505f606052604052565b3b153d171015611781575f80611765565b637939f4245f526004601cfd5b9190926117bd8230857f0000000000000000000000000000000000000000000000000000000000000000611730565b6805345cdf77eb68f44c80549082820191821061183c57556387a211a2600c52835f526020600c20818154019055602052600c5160601c5f5f805160206119f1833981519152602080a35f5260018060a01b0391821691167fdcbc1c05240f31ff3ad067ef1ee35ce4997762752e3a095284754544f4c709d760405fa3565b63e5cfe9575f526004601cfd5b90936001600160a01b0393919291848316858516819003611916575b6387a211a2600c52835f526020600c209081549182851161190957845f930390556805345cdf77eb68f44c8481540390558382525f805160206119f1833981519152602083a36118d681877f00000000000000000000000000000000000000000000000000000000000000006116bc565b5f52602052821692821691167ffbde797d201c681b91056529119e0b02407c7bb96a4a2c75c01fc9667232c8db60405fa4565b63f4d678b85f526004601cfd5b611921838686611992565b611865565b600154801561140f576119376111be565b670de0b6b3a76400009181838083029283041402156113c9570490670b1a2bc2ec50000082116113d6578066b1a2bc2ec5000092838102938185041490151702156113c95766470de4df8200009104810180911161119d5790565b906001600160a01b0381166e22d473030f116ddee9f6b43ac78ba3146119eb57602052637f5e9f20600c525f526034600c2090815480196119d257505050565b8082116119de57039055565b6313be252b5f526004601cfd5b50505056feddf252ad1be2c89b69c2b068fc378daa952ba7f163c4a11628f55a4df523b3efa2646970667358221220dbe55e3a06d1052275e3bc51fe6affba4013bc37dffae90a58e8940ced1f7ee464736f6c63430008180033","linkReferences":{}},"methodIdentifiers":{"BASE_RATE()":"41910f90","DOMAIN_SEPARATOR()":"3644e515","KINK()":"a35cc828","RATE_SLOPE()":"5fc1419d","RESERVE_FACTOR()":"ea32605b","absorbLoss(uint256)":"ec78412e","accrueInterest()":"a6afed95","allowance(address,address)":"dd62ed3e","approve(address,uint256)":"095ea7b3","asset()":"38d52e0f","authorize(address)":"b6a5d7de","authorized(address)":"b9181611","balanceOf(address)":"70a08231","borrow(uint256)":"c5ebeaec","borrowIndex()":"aa5af0fd","borrowRate()":"c914b437","convertToAssets(uint256)":"07a2d13a","convertToShares(uint256)":"c6e6f592","decimals()":"313ce567","deposit(uint256,address)":"6e553f65","factory()":"c45a0155","lastAccrueTime()":"9ffe7973","maxDeposit(address)":"402d267d","maxMint(address)":"c63d75b6","maxRedeem(address)":"d905777e","maxWithdraw(address)":"ce96cb77","mint(uint256,address)":"94bf804d","name()":"06fdde03","nonces(address)":"7ecebe00","permit(address,address,uint256,uint256,uint8,bytes32,bytes32)":"d505accf","previewDeposit(uint256)":"ef8b30f7","previewMint(uint256)":"b3d7f6b9","previewRedeem(uint256)":"4cdad506","previewWithdraw(uint256)":"0a28a477","redeem(uint256,address,address)":"ba087652","reduceReserves(uint256)":"07e27959","repay(uint256)":"371fd8e6","symbol()":"95d89b41","totalAssets()":"01e1d114","totalBorrows()":"47bd3718","totalReserves()":"8f840ddd","totalSupply()":"18160ddd","transfer(address,uint256)":"a9059cbb","transferFrom(address,address,uint256)":"23b872dd","treasury()":"61d027b3","withdraw(uint256,address,address)":"b460af94"},"id":27}