{"abi":[{"type":"constructor","inputs":[{"name":"asset_","type":"address","internalType":"address"},{"name":"_factory","type":"address","internalType":"address"},{"name":"_treasury","type":"address","internalType":"address"}],"stateMutability":"nonpayable"},{"type":"function","name":"BASE_RATE","inputs":[],"outputs":[{"name":"","type":"uint256","internalType":"uint256"}],"stateMutability":"view"},{"type":"function","name":"DOMAIN_SEPARATOR","inputs":[],"outputs":[{"name":"result","type":"bytes32","internalType":"bytes32"}],"stateMutability":"view"},{"type":"function","name":"KINK","inputs":[],"outputs":[{"name":"","type":"uint256","internalType":"uint256"}],"stateMutability":"view"},{"type":"function","name":"RATE_SLOPE","inputs":[],"outputs":[{"name":"","type":"uint256","internalType":"uint256"}],"stateMutability":"view"},{"type":"function","name":"RESERVE_FACTOR","inputs":[],"outputs":[{"name":"","type":"uint256","internalType":"uint256"}],"stateMutability":"view"},{"type":"function","name":"absorbLoss","inputs":[{"name":"loss","type":"uint256","internalType":"uint256"}],"outputs":[],"stateMutability":"nonpayable"},{"type":"function","name":"accrueInterest","inputs":[],"outputs":[],"stateMutability":"nonpayable"},{"type":"function","name":"allowance","inputs":[{"name":"owner","type":"address","internalType":"address"},{"name":"spender","type":"address","internalType":"address"}],"outputs":[{"name":"result","type":"uint256","internalType":"uint256"}],"stateMutability":"view"},{"type":"function","name":"approve","inputs":[{"name":"spender","type":"address","internalType":"address"},{"name":"amount","type":"uint256","internalType":"uint256"}],"outputs":[{"name":"","type":"bool","internalType":"bool"}],"stateMutability":"nonpayable"},{"type":"function","name":"asset","inputs":[],"outputs":[{"name":"","type":"address","internalType":"address"}],"stateMutability":"view"},{"type":"function","name":"authorize","inputs":[{"name":"vault","type":"address","internalType":"address"}],"outputs":[],"stateMutability":"nonpayable"},{"type":"function","name":"authorized","inputs":[{"name":"","type":"address","internalType":"address"}],"outputs":[{"name":"","type":"bool","internalType":"bool"}],"stateMutability":"view"},{"type":"function","name":"balanceOf","inputs":[{"name":"owner","type":"address","internalType":"address"}],"outputs":[{"name":"result","type":"uint256","internalType":"uint256"}],"stateMutability":"view"},{"type":"function","name":"borrow","inputs":[{"name":"amount","type":"uint256","internalType":"uint256"}],"outputs":[],"stateMutability":"nonpayable"},{"type":"function","name":"borrowIndex","inputs":[],"outputs":[{"name":"","type":"uint256","internalType":"uint256"}],"stateMutability":"view"},{"type":"function","name":"borrowRate","inputs":[],"outputs":[{"name":"","type":"uint256","internalType":"uint256"}],"stateMutability":"view"},{"type":"function","name":"convertToAssets","inputs":[{"name":"shares","type":"uint256","internalType":"uint256"}],"outputs":[{"name":"assets","type":"uint256","internalType":"uint256"}],"stateMutability":"view"},{"type":"function","name":"convertToShares","inputs":[{"name":"assets","type":"uint256","internalType":"uint256"}],"outputs":[{"name":"shares","type":"uint256","internalType":"uint256"}],"stateMutability":"view"},{"type":"function","name":"decimals","inputs":[],"outputs":[{"name":"","type":"uint8","internalType":"uint8"}],"stateMutability":"view"},{"type":"function","name":"deposit","inputs":[{"name":"assets","type":"uint256","internalType":"uint256"},{"name":"to","type":"address","internalType":"address"}],"outputs":[{"name":"shares","type":"uint256","internalType":"uint256"}],"stateMutability":"nonpayable"},{"type":"function","name":"factory","inputs":[],"outputs":[{"name":"","type":"address","internalType":"address"}],"stateMutability":"view"},{"type":"function","name":"lastAccrueTime","inputs":[],"outputs":[{"name":"","type":"uint256","internalType":"uint256"}],"stateMutability":"view"},{"type":"function","name":"maxDeposit","inputs":[{"name":"to","type":"address","internalType":"address"}],"outputs":[{"name":"maxAssets","type":"uint256","internalType":"uint256"}],"stateMutability":"view"},{"type":"function","name":"maxMint","inputs":[{"name":"to","type":"address","internalType":"address"}],"outputs":[{"name":"maxShares","type":"uint256","internalType":"uint256"}],"stateMutability":"view"},{"type":"function","name":"maxRedeem","inputs":[{"name":"owner","type":"address","internalType":"address"}],"outputs":[{"name":"maxShares","type":"uint256","internalType":"uint256"}],"stateMutability":"view"},{"type":"function","name":"maxWithdraw","inputs":[{"name":"owner","type":"address","internalType":"address"}],"outputs":[{"name":"maxAssets","type":"uint256","internalType":"uint256"}],"stateMutability":"view"},{"type":"function","name":"mint","inputs":[{"name":"shares","type":"uint256","internalType":"uint256"},{"name":"to","type":"address","internalType":"address"}],"outputs":[{"name":"assets","type":"uint256","internalType":"uint256"}],"stateMutability":"nonpayable"},{"type":"function","name":"name","inputs":[],"outputs":[{"name":"","type":"string","internalType":"string"}],"stateMutability":"view"},{"type":"function","name":"nonces","inputs":[{"name":"owner","type":"address","internalType":"address"}],"outputs":[{"name":"result","type":"uint256","internalType":"uint256"}],"stateMutability":"view"},{"type":"function","name":"permit","inputs":[{"name":"owner","type":"address","internalType":"address"},{"name":"spender","type":"address","internalType":"address"},{"name":"value","type":"uint256","internalType":"uint256"},{"name":"deadline","type":"uint256","internalType":"uint256"},{"name":"v","type":"uint8","internalType":"uint8"},{"name":"r","type":"bytes32","internalType":"bytes32"},{"name":"s","type":"bytes32","internalType":"bytes32"}],"outputs":[],"stateMutability":"nonpayable"},{"type":"function","name":"previewDeposit","inputs":[{"name":"assets","type":"uint256","internalType":"uint256"}],"outputs":[{"name":"shares","type":"uint256","internalType":"uint256"}],"stateMutability":"view"},{"type":"function","name":"previewMint","inputs":[{"name":"shares","type":"uint256","internalType":"uint256"}],"outputs":[{"name":"assets","type":"uint256","internalType":"uint256"}],"stateMutability":"view"},{"type":"function","name":"previewRedeem","inputs":[{"name":"shares","type":"uint256","internalType":"uint256"}],"outputs":[{"name":"assets","type":"uint256","internalType":"uint256"}],"stateMutability":"view"},{"type":"function","name":"previewWithdraw","inputs":[{"name":"assets","type":"uint256","internalType":"uint256"}],"outputs":[{"name":"shares","type":"uint256","internalType":"uint256"}],"stateMutability":"view"},{"type":"function","name":"redeem","inputs":[{"name":"shares","type":"uint256","internalType":"uint256"},{"name":"to","type":"address","internalType":"address"},{"name":"owner","type":"address","internalType":"address"}],"outputs":[{"name":"assets","type":"uint256","internalType":"uint256"}],"stateMutability":"nonpayable"},{"type":"function","name":"reduceReserves","inputs":[{"name":"amount","type":"uint256","internalType":"uint256"}],"outputs":[],"stateMutability":"nonpayable"},{"type":"function","name":"repay","inputs":[{"name":"amount","type":"uint256","internalType":"uint256"}],"outputs":[],"stateMutability":"nonpayable"},{"type":"function","name":"symbol","inputs":[],"outputs":[{"name":"","type":"string","internalType":"string"}],"stateMutability":"view"},{"type":"function","name":"totalAssets","inputs":[],"outputs":[{"name":"","type":"uint256","internalType":"uint256"}],"stateMutability":"view"},{"type":"function","name":"totalBorrows","inputs":[],"outputs":[{"name":"","type":"uint256","internalType":"uint256"}],"stateMutability":"view"},{"type":"function","name":"totalReserves","inputs":[],"outputs":[{"name":"","type":"uint256","internalType":"uint256"}],"stateMutability":"view"},{"type":"function","name":"totalSupply","inputs":[],"outputs":[{"name":"result","type":"uint256","internalType":"uint256"}],"stateMutability":"view"},{"type":"function","name":"transfer","inputs":[{"name":"to","type":"address","internalType":"address"},{"name":"amount","type":"uint256","internalType":"uint256"}],"outputs":[{"name":"","type":"bool","internalType":"bool"}],"stateMutability":"nonpayable"},{"type":"function","name":"transferFrom","inputs":[{"name":"from","type":"address","internalType":"address"},{"name":"to","type":"address","internalType":"address"},{"name":"amount","type":"uint256","internalType":"uint256"}],"outputs":[{"name":"","type":"bool","internalType":"bool"}],"stateMutability":"nonpayable"},{"type":"function","name":"treasury","inputs":[],"outputs":[{"name":"","type":"address","internalType":"address"}],"stateMutability":"view"},{"type":"function","name":"withdraw","inputs":[{"name":"assets","type":"uint256","internalType":"uint256"},{"name":"to","type":"address","internalType":"address"},{"name":"owner","type":"address","internalType":"address"}],"outputs":[{"name":"shares","type":"uint256","internalType":"uint256"}],"stateMutability":"nonpayable"},{"type":"event","name":"Approval","inputs":[{"name":"owner","type":"address","indexed":true,"internalType":"address"},{"name":"spender","type":"address","indexed":true,"internalType":"address"},{"name":"amount","type":"uint256","indexed":false,"internalType":"uint256"}],"anonymous":false},{"type":"event","name":"Deposit","inputs":[{"name":"by","type":"address","indexed":true,"internalType":"address"},{"name":"owner","type":"address","indexed":true,"internalType":"address"},{"name":"assets","type":"uint256","indexed":false,"internalType":"uint256"},{"name":"shares","type":"uint256","indexed":false,"internalType":"uint256"}],"anonymous":false},{"type":"event","name":"Transfer","inputs":[{"name":"from","type":"address","indexed":true,"internalType":"address"},{"name":"to","type":"address","indexed":true,"internalType":"address"},{"name":"amount","type":"uint256","indexed":false,"internalType":"uint256"}],"anonymous":false},{"type":"event","name":"Withdraw","inputs":[{"name":"by","type":"address","indexed":true,"internalType":"address"},{"name":"to","type":"address","indexed":true,"internalType":"address"},{"name":"owner","type":"address","indexed":true,"internalType":"address"},{"name":"assets","type":"uint256","indexed":false,"internalType":"uint256"},{"name":"shares","type":"uint256","indexed":false,"internalType":"uint256"}],"anonymous":false},{"type":"error","name":"AllowanceOverflow","inputs":[]},{"type":"error","name":"AllowanceUnderflow","inputs":[]},{"type":"error","name":"DepositMoreThanMax","inputs":[]},{"type":"error","name":"InsufficientAllowance","inputs":[]},{"type":"error","name":"InsufficientBalance","inputs":[]},{"type":"error","name":"InvalidPermit","inputs":[]},{"type":"error","name":"MintMoreThanMax","inputs":[]},{"type":"error","name":"Permit2AllowanceIsFixedAtInfinity","inputs":[]},{"type":"error","name":"PermitExpired","inputs":[]},{"type":"error","name":"RedeemMoreThanMax","inputs":[]},{"type":"error","name":"TotalSupplyOverflow","inputs":[]},{"type":"error","name":"WithdrawMoreThanMax","inputs":[]}],"bytecode":{"object":"0x60e0346200010357601f62001b3138819003918201601f19168301916001600160401b03831184841017620001075780849260609460405283398101031262000103576200004d816200011b565b906200006a604062000062602084016200011b565b92016200011b565b91670de0b6b3a764000060035560805260a05260c05242600455604051611a009081620001318239608051818181610360015281816105b0015281816108d301528181610b0f01528181610b8901528181610bd701528181610ea101528181610fee0152818161119301528181611753015261186c015260a051818181610626015261070d015260c051818181610a4e0152610e570152f35b5f80fd5b634e487b7160e01b5f52604160045260245ffd5b51906001600160a01b0382168203620001035756fe60406080815260049081361015610014575f80fd5b5f3560e01c806301e1d1141461101d57806306fdde0314610fd457806307a2d13a14610a9e57806307e2795914610e3d578063095ea7b314610da45780630a28a47714610d8657806318160ddd14610d6057806323b872dd14610c7f578063313ce56714610c645780633644e51514610bbc578063371fd8e614610b3e57806338d52e0f14610afb578063402d267d1461054757806341910f9014610ada57806347bd371814610abc5780634cdad50614610a9e5780635fc1419d14610a7d57806361d027b314610a3a5780636e553f6514610a0757806370a08231146102c75780637ecebe00146109d45780638f840ddd146109b657806394bf804d1461098357806395d89b41146108ad5780639ffe797314610891578063a35cc8281461086f578063a6afed9514610857578063a9059cbb146107df578063aa5af0fd146107c1578063b3d7f6b9146107a3578063b460af941461074c578063b6a5d7de146106e4578063b9181611146106a9578063ba08765214610655578063c45a015514610612578063c5ebeaec1461054c578063c63d75b614610547578063c6e6f59214610529578063c914b4371461050d578063ce96cb77146104d9578063d505accf146102fa578063d905777e146102c7578063dd62ed3e1461029a578063ea32605b14610278578063ec78412e1461023e5763ef8b30f714610216575f80fd5b3461023a57602036600319011261023a57610233602092356112e6565b9051908152f35b5f80fd5b50903461023a57602036600319011261023a5761026a60ff61027393335f525f6020525f20541661127f565b35600154611246565b600155005b503461023a575f36600319011261023a576020905167016345785d8a00008152f35b503461023a578060031936011261023a576020906102336102b9611086565b6102c161109c565b906113d5565b503461023a57602036600319011261023a576020906102e4611086565b6387a211a2600c525f5281600c20549051908152f35b503461023a5760e036600319011261023a57610314611086565b9061031d61109c565b9060443592606435936084359260ff8416840361023a576001600160a01b03948516956e22d473030f116ddee9f6b43ac78ba3871883191517156104cd576103847f000000000000000000000000000000000000000000000000000000000000000061147b565b948551602080970120908242116104c15760c0978451961697889665383775081901600e52875f5288600c2094855480957f8b73c3c69bb8fe3d512ecc4cf759cc79239f7b179b0ffacaa9a75d522b39400f84528b84019081528d8985017fc89efdaa54c0f20c7adf612882df0950f5a951637e0307cdcb4c672f298b8bc68152606086019c8d469052608087019330855260a08820602e527f6e71edae12b1b97f4d1f60370fef10105fa2faae0126114a169c64845d6126c988525252898b525260a082015220604e526042602c205f5260ff16865260a435835260c435606052858060805f60015afa90873d51036104b5577f8c5be1e5ebec7d5bd14f71427d1e84f3dd0314c0f7b2291e5b200ac8c7c3b92597989950019055866303faf4f960a51b1790526034602c2055a3005b8963ddafbaef5f52601cfd5b89631a15a3cc5f52601cfd5b87633f68539a5f52601cfd5b503461023a57602036600319011261023a576020906104f6611086565b6387a211a2600c525f5261023382600c205461121a565b503461023a575f36600319011261023a57602090610233611312565b503461023a57602036600319011261023a57610233602092356112e6565b6110b2565b50903461023a57602036600319011261023a57803590335f525f60205261057860ff845f20541661127f565b610580611590565b610588611178565b9260015493610597848661116b565b116105d6576105d4836105aa818761116b565b600155337f0000000000000000000000000000000000000000000000000000000000000000611676565b005b906020606492519162461bcd60e51b83528201526016602482015275494e53554646494349454e545f4c495155494449545960501b6044820152fd5b503461023a575f36600319011261023a57517f00000000000000000000000000000000000000000000000000000000000000006001600160a01b03168152602090f35b503461023a57610664366110d7565b9291936387a211a2600c52835f526020600c2054851161069e5750836106989161068f60209661121a565b94859133611803565b51908152f35b634656425a5f52601cfd5b503461023a57602036600319011261023a576020906001600160a01b036106ce611086565b165f525f825260ff815f20541690519015158152f35b503461023a57602036600319011261023a576106fe611086565b6001600160a01b0390610734337f000000000000000000000000000000000000000000000000000000000000000084161461127f565b165f908152602081905220805460ff19166001179055005b503461023a5761075b366110d7565b929190936387a211a2600c52835f526107786020600c205461121a565b821161079857506020938161078f61069893611253565b94859233611803565b63936941fc5f52601cfd5b503461023a57602036600319011261023a57610233602092356112ba565b503461023a575f36600319011261023a576020906003549051908152f35b503461023a578060031936011261023a576107f8611086565b602435906387a211a2600c52335f5260209384600c209081549081851161084c575083900390555f5282600c208181540190558252600c5160601c335f805160206119ab8339815191528480a35160018152f35b63f4d678b85f52601cfd5b3461023a575f36600319011261023a576105d4611590565b503461023a575f36600319011261023a5760209051670b1a2bc2ec5000008152f35b503461023a575f36600319011261023a57602091549051908152f35b50903461023a575f36600319011261023a5781516395d89b4160e01b8152905f908290817f00000000000000000000000000000000000000000000000000000000000000006001600160a01b03165afa9081156109795791610951925f92610955575b50610947602182518094606f60f81b60208301526109378151809260208686019101611039565b810103600181018552018361110c565b519182918261105a565b0390f35b6109729192503d805f833e61096a818361110c565b810190611412565b905f610910565b82513d5f823e3d90fd5b503461023a578060031936011261023a5760209135906106986109a461109c565b926109ae816112ba565b809433611748565b503461023a575f36600319011261023a576020906002549051908152f35b503461023a57602036600319011261023a576020906109f1611086565b6338377508600c525f5281600c20549051908152f35b503461023a578060031936011261023a576020913590610698610a2861109c565b610a31846112e6565b93849133611748565b503461023a575f36600319011261023a57517f00000000000000000000000000000000000000000000000000000000000000006001600160a01b03168152602090f35b503461023a575f36600319011261023a576020905166b1a2bc2ec500008152f35b503461023a57602036600319011261023a576102336020923561121a565b503461023a575f36600319011261023a576020906001549051908152f35b503461023a575f36600319011261023a576020905166470de4df8200008152f35b503461023a575f36600319011261023a57517f00000000000000000000000000000000000000000000000000000000000000006001600160a01b03168152602090f35b503461023a57602036600319011261023a57610b6b60ff610273933592335f525f6020525f20541661127f565b610b73611590565b6001549081811115610bb557505b610bad8130337f00000000000000000000000000000000000000000000000000000000000000006116ea565b600154611246565b9050610b81565b503461023a575f36600319011261023a5760209060a0610bfb7f000000000000000000000000000000000000000000000000000000000000000061147b565b8381519101208251907f8b73c3c69bb8fe3d512ecc4cf759cc79239f7b179b0ffacaa9a75d522b39400f8252848201527fc89efdaa54c0f20c7adf612882df0950f5a951637e0307cdcb4c672f298b8bc683820152466060820152306080820152209051908152f35b503461023a575f36600319011261023a576020905160128152f35b503461023a57606036600319011261023a57610c99611086565b610ca161109c565b604435908260601b6e22d473030f116ddee9f6b43ac78ba33303610d17575b6387a211a217600c5260209485600c209081549081851161084c575083900390555f52600c8481208054830190559084525160601c906001600160a01b03165f805160206119ab8339815191528480a35160018152f35b33602052637f5e9f208117600c526034600c20908154918219610d3d575b509050610cc0565b828511610d5457846387a211a2930390555f610d35565b876313be252b5f52601cfd5b503461023a575f36600319011261023a576020906805345cdf77eb68f44c549051908152f35b503461023a57602036600319011261023a5761023360209235611253565b503461023a578060031936011261023a57610dbd611086565b602435906001600160a01b0381166e22d473030f116ddee9f6b43ac78ba3188219151715610e3157602080945052637f5e9f20600c52335f52806034600c20555f52602c5160601c337f8c5be1e5ebec7d5bd14f71427d1e84f3dd0314c0f7b2291e5b200ac8c7c3b925845fa35160018152f35b83633f68539a5f52601cfd5b50903461023a576020908160031936011261023a578035917f0000000000000000000000000000000000000000000000000000000000000000916001600160a01b03918284163303610fa257610e91611590565b60025495868611610f69576024827f0000000000000000000000000000000000000000000000000000000000000000958351928380926370a0823160e01b8252308983015289165afa908115610979575f91610f3c575b508611610f0757505050610eff836105d495611246565b600255611676565b5162461bcd60e51b81529182015260116024820152700929ca6aa8c8c9286928a9ca8be8682a69607b1b604482015260649150fd5b90508281813d8311610f62575b610f53818361110c565b8101031261023a57515f610ee8565b503d610f49565b5162461bcd60e51b8152918201526015602482015274494e53554646494349454e545f524553455256455360581b604482015260649150fd5b855162461bcd60e51b815291820152600d60248201526c4f4e4c595f545245415355525960981b604482015260649150fd5b503461023a575f36600319011261023a57610951906110127f000000000000000000000000000000000000000000000000000000000000000061147b565b90519182918261105a565b503461023a575f36600319011261023a57602090610233611178565b5f5b83811061104a5750505f910152565b818101518382015260200161103b565b6040916020825261107a8151809281602086015260208686019101611039565b601f01601f1916010190565b600435906001600160a01b038216820361023a57565b602435906001600160a01b038216820361023a57565b3461023a57602036600319011261023a576110cb611086565b5060206040515f198152f35b606090600319011261023a57600435906001600160a01b0390602435828116810361023a5791604435908116810361023a5790565b90601f8019910116810190811067ffffffffffffffff82111761112e57604052565b634e487b7160e01b5f52604160045260245ffd5b9066f8b0a10e47000091820180921161115757565b634e487b7160e01b5f52601160045260245ffd5b9190820180921161115757565b6040516370a0823160e01b81523060048201526020816024817f00000000000000000000000000000000000000000000000000000000000000006001600160a01b03165afa801561120f575f906111db575b6111d891506001549061116b565b90565b506020813d602011611207575b816111f56020938361110c565b8101031261023a576111d890516111ca565b3d91506111e8565b6040513d5f823e3d90fd5b611222611178565b9060018201809211611157576111d89160016805345cdf77eb68f44c540191611502565b9190820391821161115757565b6805345cdf77eb68f44c549060018201809211611157576111d8916001611278611178565b01916116c7565b1561128657565b60405162461bcd60e51b815260206004820152600c60248201526b15539055551213d49256915160a21b6044820152606490fd5b6112c2611178565b9060018201809211611157576111d89160016805345cdf77eb68f44c5401916116c7565b6805345cdf77eb68f44c549060018201809211611157576111d891600161130b611178565b0191611502565b61131a611178565b80156113c95760015490670de0b6b3a764000091818382029184818404149015170215611383570490670b1a2bc2ec5000008211611390578066b1a2bc2ec5000092838102938185041490151702156113835766470de4df820000910481018091116111575790565b63ad251c275f526004601cfd5b670b1a2bc2ec4fffff1982019182116111575780670214e8348c4f00009283810293818504149015170215611383576111d89104611142565b5066470de4df82000090565b906001600160a01b0381166e22d473030f116ddee9f6b43ac78ba31461140b57602052637f5e9f20600c525f526034600c205490565b50505f1990565b60208183031261023a57805167ffffffffffffffff9182821161023a57019082601f8301121561023a57815190811161112e576040519261145d601f8301601f19166020018561110c565b8184526020828401011161023a576111d89160208085019101611039565b6040516306fdde0360e01b8152905f90829060049082906001600160a01b03165afa90811561120f575f916114e8575b506111d86026604051809365027b9b4ba37960d51b60208301526114d88151809260208686019101611039565b810103600681018452018261110c565b6114fc91503d805f833e61096a818361110c565b5f6114ab565b8181029291811582850482141783021561151d575050900490565b82905f1981840985811086019003920990825f0383169281811115611583578390046002816003028118808302820302808302820302808302820302808302820302808302820302809202900302936001848483030494805f0304019211900302170290565b63ae47f7025f526004601cfd5b60048054804214611672576115ad6115a66118e0565b9142611246565b6301e13380918082029181159183041417820215611666570460015481810290670de0b6b3a764000091828483830414831517021561165a57826115f39104809261116b565b6001558167016345785d8a0000918281029281840414901517021561164e5781611620910460025461116b565b60025560035491818184029184830414841517021561164e57906116469291049061116b565b600355429055565b8363ad251c275f52601cfd5b8463ad251c275f52601cfd5b8263ad251c275f52601cfd5b5050565b919060145260345263a9059cbb60601b5f5260205f6044601082855af1908160015f511416156116a9575b50505f603452565b3b153d1710156116ba575f806116a1565b6390b8ec185f526004601cfd5b9291906116d5828286611502565b93096116dd57565b9060010190811561158357565b916040519360605260405260601b602c526323b872dd60601b600c5260205f6064601c82855af1908160015f5114161561172a575b50505f606052604052565b3b153d17101561173b575f8061171f565b637939f4245f526004601cfd5b9190926117778230857f00000000000000000000000000000000000000000000000000000000000000006116ea565b6805345cdf77eb68f44c8054908282019182106117f657556387a211a2600c52835f526020600c20818154019055602052600c5160601c5f5f805160206119ab833981519152602080a35f5260018060a01b0391821691167fdcbc1c05240f31ff3ad067ef1ee35ce4997762752e3a095284754544f4c709d760405fa3565b63e5cfe9575f526004601cfd5b90936001600160a01b03939192918483168585168190036118d0575b6387a211a2600c52835f526020600c20908154918285116118c357845f930390556805345cdf77eb68f44c8481540390558382525f805160206119ab833981519152602083a361189081877f0000000000000000000000000000000000000000000000000000000000000000611676565b5f52602052821692821691167ffbde797d201c681b91056529119e0b02407c7bb96a4a2c75c01fc9667232c8db60405fa4565b63f4d678b85f526004601cfd5b6118db83868661194c565b61181f565b60015480156113c9576118f1611178565b670de0b6b3a7640000918183808302928304140215611383570490670b1a2bc2ec5000008211611390578066b1a2bc2ec5000092838102938185041490151702156113835766470de4df820000910481018091116111575790565b906001600160a01b0381166e22d473030f116ddee9f6b43ac78ba3146119a557602052637f5e9f20600c525f526034600c20908154801961198c57505050565b80821161199857039055565b6313be252b5f526004601cfd5b50505056feddf252ad1be2c89b69c2b068fc378daa952ba7f163c4a11628f55a4df523b3efa2646970667358221220984c1d520bf7ed187132da4224ef8b10749d7606a7519502b6bc6f0b988dfc1564736f6c63430008180033","linkReferences":{}},"methodIdentifiers":{"BASE_RATE()":"41910f90","DOMAIN_SEPARATOR()":"3644e515","KINK()":"a35cc828","RATE_SLOPE()":"5fc1419d","RESERVE_FACTOR()":"ea32605b","absorbLoss(uint256)":"ec78412e","accrueInterest()":"a6afed95","allowance(address,address)":"dd62ed3e","approve(address,uint256)":"095ea7b3","asset()":"38d52e0f","authorize(address)":"b6a5d7de","authorized(address)":"b9181611","balanceOf(address)":"70a08231","borrow(uint256)":"c5ebeaec","borrowIndex()":"aa5af0fd","borrowRate()":"c914b437","convertToAssets(uint256)":"07a2d13a","convertToShares(uint256)":"c6e6f592","decimals()":"313ce567","deposit(uint256,address)":"6e553f65","factory()":"c45a0155","lastAccrueTime()":"9ffe7973","maxDeposit(address)":"402d267d","maxMint(address)":"c63d75b6","maxRedeem(address)":"d905777e","maxWithdraw(address)":"ce96cb77","mint(uint256,address)":"94bf804d","name()":"06fdde03","nonces(address)":"7ecebe00","permit(address,address,uint256,uint256,uint8,bytes32,bytes32)":"d505accf","previewDeposit(uint256)":"ef8b30f7","previewMint(uint256)":"b3d7f6b9","previewRedeem(uint256)":"4cdad506","previewWithdraw(uint256)":"0a28a477","redeem(uint256,address,address)":"ba087652","reduceReserves(uint256)":"07e27959","repay(uint256)":"371fd8e6","symbol()":"95d89b41","totalAssets()":"01e1d114","totalBorrows()":"47bd3718","totalReserves()":"8f840ddd","totalSupply()":"18160ddd","transfer(address,uint256)":"a9059cbb","transferFrom(address,address,uint256)":"23b872dd","treasury()":"61d027b3","withdraw(uint256,address,address)":"b460af94"},"id":27}