{"abi":[{"type":"constructor","inputs":[{"name":"asset_","type":"address","internalType":"address"},{"name":"_factory","type":"address","internalType":"address"},{"name":"_treasury","type":"address","internalType":"address"}],"stateMutability":"nonpayable"},{"type":"function","name":"BASE_RATE","inputs":[],"outputs":[{"name":"","type":"uint256","internalType":"uint256"}],"stateMutability":"view"},{"type":"function","name":"DOMAIN_SEPARATOR","inputs":[],"outputs":[{"name":"result","type":"bytes32","internalType":"bytes32"}],"stateMutability":"view"},{"type":"function","name":"KINK","inputs":[],"outputs":[{"name":"","type":"uint256","internalType":"uint256"}],"stateMutability":"view"},{"type":"function","name":"RATE_SLOPE","inputs":[],"outputs":[{"name":"","type":"uint256","internalType":"uint256"}],"stateMutability":"view"},{"type":"function","name":"absorbLoss","inputs":[{"name":"loss","type":"uint256","internalType":"uint256"}],"outputs":[],"stateMutability":"nonpayable"},{"type":"function","name":"accrueInterest","inputs":[],"outputs":[],"stateMutability":"nonpayable"},{"type":"function","name":"allowance","inputs":[{"name":"owner","type":"address","internalType":"address"},{"name":"spender","type":"address","internalType":"address"}],"outputs":[{"name":"result","type":"uint256","internalType":"uint256"}],"stateMutability":"view"},{"type":"function","name":"approve","inputs":[{"name":"spender","type":"address","internalType":"address"},{"name":"amount","type":"uint256","internalType":"uint256"}],"outputs":[{"name":"","type":"bool","internalType":"bool"}],"stateMutability":"nonpayable"},{"type":"function","name":"asset","inputs":[],"outputs":[{"name":"","type":"address","internalType":"address"}],"stateMutability":"view"},{"type":"function","name":"authorize","inputs":[{"name":"vault","type":"address","internalType":"address"}],"outputs":[],"stateMutability":"nonpayable"},{"type":"function","name":"authorized","inputs":[{"name":"","type":"address","internalType":"address"}],"outputs":[{"name":"","type":"bool","internalType":"bool"}],"stateMutability":"view"},{"type":"function","name":"balanceOf","inputs":[{"name":"owner","type":"address","internalType":"address"}],"outputs":[{"name":"result","type":"uint256","internalType":"uint256"}],"stateMutability":"view"},{"type":"function","name":"borrow","inputs":[{"name":"amount","type":"uint256","internalType":"uint256"}],"outputs":[],"stateMutability":"nonpayable"},{"type":"function","name":"borrowIndex","inputs":[],"outputs":[{"name":"","type":"uint256","internalType":"uint256"}],"stateMutability":"view"},{"type":"function","name":"borrowRate","inputs":[],"outputs":[{"name":"","type":"uint256","internalType":"uint256"}],"stateMutability":"view"},{"type":"function","name":"convertToAssets","inputs":[{"name":"shares","type":"uint256","internalType":"uint256"}],"outputs":[{"name":"assets","type":"uint256","internalType":"uint256"}],"stateMutability":"view"},{"type":"function","name":"convertToShares","inputs":[{"name":"assets","type":"uint256","internalType":"uint256"}],"outputs":[{"name":"shares","type":"uint256","internalType":"uint256"}],"stateMutability":"view"},{"type":"function","name":"decimals","inputs":[],"outputs":[{"name":"","type":"uint8","internalType":"uint8"}],"stateMutability":"view"},{"type":"function","name":"deposit","inputs":[{"name":"assets","type":"uint256","internalType":"uint256"},{"name":"to","type":"address","internalType":"address"}],"outputs":[{"name":"shares","type":"uint256","internalType":"uint256"}],"stateMutability":"nonpayable"},{"type":"function","name":"factory","inputs":[],"outputs":[{"name":"","type":"address","internalType":"address"}],"stateMutability":"view"},{"type":"function","name":"lastAccrueTime","inputs":[],"outputs":[{"name":"","type":"uint256","internalType":"uint256"}],"stateMutability":"view"},{"type":"function","name":"maxDeposit","inputs":[{"name":"to","type":"address","internalType":"address"}],"outputs":[{"name":"maxAssets","type":"uint256","internalType":"uint256"}],"stateMutability":"view"},{"type":"function","name":"maxMint","inputs":[{"name":"to","type":"address","internalType":"address"}],"outputs":[{"name":"maxShares","type":"uint256","internalType":"uint256"}],"stateMutability":"view"},{"type":"function","name":"maxRedeem","inputs":[{"name":"owner","type":"address","internalType":"address"}],"outputs":[{"name":"maxShares","type":"uint256","internalType":"uint256"}],"stateMutability":"view"},{"type":"function","name":"maxWithdraw","inputs":[{"name":"owner","type":"address","internalType":"address"}],"outputs":[{"name":"maxAssets","type":"uint256","internalType":"uint256"}],"stateMutability":"view"},{"type":"function","name":"mint","inputs":[{"name":"shares","type":"uint256","internalType":"uint256"},{"name":"to","type":"address","internalType":"address"}],"outputs":[{"name":"assets","type":"uint256","internalType":"uint256"}],"stateMutability":"nonpayable"},{"type":"function","name":"name","inputs":[],"outputs":[{"name":"","type":"string","internalType":"string"}],"stateMutability":"view"},{"type":"function","name":"nonces","inputs":[{"name":"owner","type":"address","internalType":"address"}],"outputs":[{"name":"result","type":"uint256","internalType":"uint256"}],"stateMutability":"view"},{"type":"function","name":"permit","inputs":[{"name":"owner","type":"address","internalType":"address"},{"name":"spender","type":"address","internalType":"address"},{"name":"value","type":"uint256","internalType":"uint256"},{"name":"deadline","type":"uint256","internalType":"uint256"},{"name":"v","type":"uint8","internalType":"uint8"},{"name":"r","type":"bytes32","internalType":"bytes32"},{"name":"s","type":"bytes32","internalType":"bytes32"}],"outputs":[],"stateMutability":"nonpayable"},{"type":"function","name":"previewDeposit","inputs":[{"name":"assets","type":"uint256","internalType":"uint256"}],"outputs":[{"name":"shares","type":"uint256","internalType":"uint256"}],"stateMutability":"view"},{"type":"function","name":"previewMint","inputs":[{"name":"shares","type":"uint256","internalType":"uint256"}],"outputs":[{"name":"assets","type":"uint256","internalType":"uint256"}],"stateMutability":"view"},{"type":"function","name":"previewRedeem","inputs":[{"name":"shares","type":"uint256","internalType":"uint256"}],"outputs":[{"name":"assets","type":"uint256","internalType":"uint256"}],"stateMutability":"view"},{"type":"function","name":"previewWithdraw","inputs":[{"name":"assets","type":"uint256","internalType":"uint256"}],"outputs":[{"name":"shares","type":"uint256","internalType":"uint256"}],"stateMutability":"view"},{"type":"function","name":"redeem","inputs":[{"name":"shares","type":"uint256","internalType":"uint256"},{"name":"to","type":"address","internalType":"address"},{"name":"owner","type":"address","internalType":"address"}],"outputs":[{"name":"assets","type":"uint256","internalType":"uint256"}],"stateMutability":"nonpayable"},{"type":"function","name":"repay","inputs":[{"name":"amount","type":"uint256","internalType":"uint256"}],"outputs":[],"stateMutability":"nonpayable"},{"type":"function","name":"symbol","inputs":[],"outputs":[{"name":"","type":"string","internalType":"string"}],"stateMutability":"view"},{"type":"function","name":"totalAssets","inputs":[],"outputs":[{"name":"","type":"uint256","internalType":"uint256"}],"stateMutability":"view"},{"type":"function","name":"totalBorrows","inputs":[],"outputs":[{"name":"","type":"uint256","internalType":"uint256"}],"stateMutability":"view"},{"type":"function","name":"totalSupply","inputs":[],"outputs":[{"name":"result","type":"uint256","internalType":"uint256"}],"stateMutability":"view"},{"type":"function","name":"transfer","inputs":[{"name":"to","type":"address","internalType":"address"},{"name":"amount","type":"uint256","internalType":"uint256"}],"outputs":[{"name":"","type":"bool","internalType":"bool"}],"stateMutability":"nonpayable"},{"type":"function","name":"transferFrom","inputs":[{"name":"from","type":"address","internalType":"address"},{"name":"to","type":"address","internalType":"address"},{"name":"amount","type":"uint256","internalType":"uint256"}],"outputs":[{"name":"","type":"bool","internalType":"bool"}],"stateMutability":"nonpayable"},{"type":"function","name":"treasury","inputs":[],"outputs":[{"name":"","type":"address","internalType":"address"}],"stateMutability":"view"},{"type":"function","name":"withdraw","inputs":[{"name":"assets","type":"uint256","internalType":"uint256"},{"name":"to","type":"address","internalType":"address"},{"name":"owner","type":"address","internalType":"address"}],"outputs":[{"name":"shares","type":"uint256","internalType":"uint256"}],"stateMutability":"nonpayable"},{"type":"event","name":"Approval","inputs":[{"name":"owner","type":"address","indexed":true,"internalType":"address"},{"name":"spender","type":"address","indexed":true,"internalType":"address"},{"name":"amount","type":"uint256","indexed":false,"internalType":"uint256"}],"anonymous":false},{"type":"event","name":"Deposit","inputs":[{"name":"by","type":"address","indexed":true,"internalType":"address"},{"name":"owner","type":"address","indexed":true,"internalType":"address"},{"name":"assets","type":"uint256","indexed":false,"internalType":"uint256"},{"name":"shares","type":"uint256","indexed":false,"internalType":"uint256"}],"anonymous":false},{"type":"event","name":"Transfer","inputs":[{"name":"from","type":"address","indexed":true,"internalType":"address"},{"name":"to","type":"address","indexed":true,"internalType":"address"},{"name":"amount","type":"uint256","indexed":false,"internalType":"uint256"}],"anonymous":false},{"type":"event","name":"Withdraw","inputs":[{"name":"by","type":"address","indexed":true,"internalType":"address"},{"name":"to","type":"address","indexed":true,"internalType":"address"},{"name":"owner","type":"address","indexed":true,"internalType":"address"},{"name":"assets","type":"uint256","indexed":false,"internalType":"uint256"},{"name":"shares","type":"uint256","indexed":false,"internalType":"uint256"}],"anonymous":false},{"type":"error","name":"AllowanceOverflow","inputs":[]},{"type":"error","name":"AllowanceUnderflow","inputs":[]},{"type":"error","name":"DepositMoreThanMax","inputs":[]},{"type":"error","name":"InsufficientAllowance","inputs":[]},{"type":"error","name":"InsufficientBalance","inputs":[]},{"type":"error","name":"InvalidPermit","inputs":[]},{"type":"error","name":"MintMoreThanMax","inputs":[]},{"type":"error","name":"Permit2AllowanceIsFixedAtInfinity","inputs":[]},{"type":"error","name":"PermitExpired","inputs":[]},{"type":"error","name":"RedeemMoreThanMax","inputs":[]},{"type":"error","name":"Reentrancy","inputs":[]},{"type":"error","name":"TotalSupplyOverflow","inputs":[]},{"type":"error","name":"WithdrawMoreThanMax","inputs":[]}],"bytecode":{"object":"0x60e034620000f557601f620018f838819003918201601f19168301916001600160401b03831184841017620000f957808492606094604052833981010312620000f5576200004d816200010d565b906200006a604062000062602084016200010d565b92016200010d565b91670de0b6b3a764000060025560805260a05260c052426003556040516117d5908162000123823960805181818161031d01528181610583015281816108b801528181610ad601528181610b6801528181610bbe01528181610e3e01528181610fe3015281816114d701526115f0015260a05181818161060701526106ee015260c05181610a150152f35b5f80fd5b634e487b7160e01b5f52604160045260245ffd5b51906001600160a01b0382168203620000f55756fe60406080815260049081361015610014575f80fd5b5f3560e01c806301e1d11414610e6d57806306fdde0314610e2457806307a2d13a14610a65578063095ea7b314610d8b5780630a28a47714610d6d57806318160ddd14610d4757806323b872dd14610c66578063313ce56714610c4b5780633644e51514610ba3578063371fd8e614610b0557806338d52e0f14610ac2578063402d267d1461050457806341910f9014610aa157806347bd371814610a835780634cdad50614610a655780635fc1419d14610a4457806361d027b314610a015780636e553f65146109ce57806370a08231146102845780637ecebe001461099b57806394bf804d1461096857806395d89b41146108925780639ffe797314610874578063a35cc82814610852578063a6afed9514610838578063a9059cbb146107c0578063aa5af0fd146107a2578063b3d7f6b914610784578063b460af941461072d578063b6a5d7de146106c5578063b91816111461068a578063ba08765214610636578063c45a0155146105f3578063c5ebeaec14610509578063c63d75b614610504578063c6e6f592146104e6578063c914b437146104ca578063ce96cb7714610496578063d505accf146102b7578063d905777e14610284578063dd62ed3e14610257578063ec78412e1461021d5763ef8b30f7146101f5575f80fd5b346102195760203660031901126102195761021260209235611136565b9051908152f35b5f80fd5b5090346102195760203660031901126102195761024960ff61025293335f525f6020525f2054166110c2565b356001546110fd565b600155005b5034610219578060031936011261021957602090610212610276610ed6565b61027e610eec565b90611225565b5034610219576020366003190112610219576020906102a1610ed6565b6387a211a2600c525f5281600c20549051908152f35b50346102195760e0366003190112610219576102d1610ed6565b906102da610eec565b9060443592606435936084359260ff84168403610219576001600160a01b03948516956e22d473030f116ddee9f6b43ac78ba38718831915171561048a576103417f00000000000000000000000000000000000000000000000000000000000000006112cb565b9485516020809701209082421161047e5760c0978451961697889665383775081901600e52875f5288600c2094855480957f8b73c3c69bb8fe3d512ecc4cf759cc79239f7b179b0ffacaa9a75d522b39400f84528b84019081528d8985017fc89efdaa54c0f20c7adf612882df0950f5a951637e0307cdcb4c672f298b8bc68152606086019c8d469052608087019330855260a08820602e527f6e71edae12b1b97f4d1f60370fef10105fa2faae0126114a169c64845d6126c988525252898b525260a082015220604e526042602c205f5260ff16865260a435835260c435606052858060805f60015afa90873d5103610472577f8c5be1e5ebec7d5bd14f71427d1e84f3dd0314c0f7b2291e5b200ac8c7c3b92597989950019055866303faf4f960a51b1790526034602c2055a3005b8963ddafbaef5f52601cfd5b89631a15a3cc5f52601cfd5b87633f68539a5f52601cfd5b5034610219576020366003190112610219576020906104b3610ed6565b6387a211a2600c525f5261021282600c205461106a565b5034610219575f36600319011261021957602090610212611162565b50346102195760203660031901126102195761021260209235611136565b610f02565b509034610219576020366003190112610219578035335f525f60205261053460ff845f2054166110c2565b68929eee149b4bd2126891308354146105e857308355610552611403565b61055a610fc8565b90600154916105698484610fbb565b116105ac57509061057d816105a793610fbb565b600155337f0000000000000000000000000000000000000000000000000000000000000000611664565b389055005b606490602086519162461bcd60e51b83528201526016602482015275494e53554646494349454e545f4c495155494449545960501b6044820152fd5b63ab143c065f52601cfd5b5034610219575f36600319011261021957517f00000000000000000000000000000000000000000000000000000000000000006001600160a01b03168152602090f35b50346102195761064536610f27565b9291936387a211a2600c52835f526020600c2054851161067f5750836106799161067060209661106a565b94859133611587565b51908152f35b634656425a5f52601cfd5b5034610219576020366003190112610219576020906001600160a01b036106af610ed6565b165f525f825260ff815f20541690519015158152f35b5034610219576020366003190112610219576106df610ed6565b6001600160a01b0390610715337f00000000000000000000000000000000000000000000000000000000000000008416146110c2565b165f908152602081905220805460ff19166001179055005b50346102195761073c36610f27565b929190936387a211a2600c52835f526107596020600c205461106a565b821161077957506020938161077061067993611096565b94859233611587565b63936941fc5f52601cfd5b5034610219576020366003190112610219576102126020923561110a565b5034610219575f366003190112610219576020906002549051908152f35b50346102195780600319360112610219576107d9610ed6565b602435906387a211a2600c52335f5260209384600c209081549081851161082d575083900390555f5282600c208181540190558252600c5160601c335f805160206117808339815191528480a35160018152f35b63f4d678b85f52601cfd5b34610219575f36600319011261021957610850611403565b005b5034610219575f3660031901126102195760209051670b1a2bc2ec5000008152f35b5034610219575f366003190112610219576020906003549051908152f35b509034610219575f3660031901126102195781516395d89b4160e01b8152905f908290817f00000000000000000000000000000000000000000000000000000000000000006001600160a01b03165afa90811561095e5791610936925f9261093a575b5061092c602182518094606f60f81b602083015261091c8151809260208686019101610e89565b8101036001810185520183610f5c565b5191829182610eaa565b0390f35b6109579192503d805f833e61094f8183610f5c565b810190611262565b905f6108f5565b82513d5f823e3d90fd5b50346102195780600319360112610219576020913590610679610989610eec565b926109938161110a565b8094336114cc565b5034610219576020366003190112610219576020906109b8610ed6565b6338377508600c525f5281600c20549051908152f35b503461021957806003193601126102195760209135906106796109ef610eec565b6109f884611136565b938491336114cc565b5034610219575f36600319011261021957517f00000000000000000000000000000000000000000000000000000000000000006001600160a01b03168152602090f35b5034610219575f366003190112610219576020905166b1a2bc2ec500008152f35b5034610219576020366003190112610219576102126020923561106a565b5034610219575f366003190112610219576020906001549051908152f35b5034610219575f366003190112610219576020905166470de4df8200008152f35b5034610219575f36600319011261021957517f00000000000000000000000000000000000000000000000000000000000000006001600160a01b03168152602090f35b503461021957602036600319011261021957610b2f60ff833592335f525f6020525f2054166110c2565b68929eee149b4bd2126891308354146105e85750610b9490308355610b52611403565b6001549081811115610b9c57505b610b8c8130337f000000000000000000000000000000000000000000000000000000000000000061146e565b6001546110fd565b600155389055005b9050610b60565b5034610219575f3660031901126102195760209060a0610be27f00000000000000000000000000000000000000000000000000000000000000006112cb565b8381519101208251907f8b73c3c69bb8fe3d512ecc4cf759cc79239f7b179b0ffacaa9a75d522b39400f8252848201527fc89efdaa54c0f20c7adf612882df0950f5a951637e0307cdcb4c672f298b8bc683820152466060820152306080820152209051908152f35b5034610219575f366003190112610219576020905160128152f35b503461021957606036600319011261021957610c80610ed6565b610c88610eec565b604435908260601b6e22d473030f116ddee9f6b43ac78ba33303610cfe575b6387a211a217600c5260209485600c209081549081851161082d575083900390555f52600c8481208054830190559084525160601c906001600160a01b03165f805160206117808339815191528480a35160018152f35b33602052637f5e9f208117600c526034600c20908154918219610d24575b509050610ca7565b828511610d3b57846387a211a2930390555f610d1c565b876313be252b5f52601cfd5b5034610219575f366003190112610219576020906805345cdf77eb68f44c549051908152f35b50346102195760203660031901126102195761021260209235611096565b5034610219578060031936011261021957610da4610ed6565b602435906001600160a01b0381166e22d473030f116ddee9f6b43ac78ba3188219151715610e1857602080945052637f5e9f20600c52335f52806034600c20555f52602c5160601c337f8c5be1e5ebec7d5bd14f71427d1e84f3dd0314c0f7b2291e5b200ac8c7c3b925845fa35160018152f35b83633f68539a5f52601cfd5b5034610219575f3660031901126102195761093690610e627f00000000000000000000000000000000000000000000000000000000000000006112cb565b905191829182610eaa565b5034610219575f36600319011261021957602090610212610fc8565b5f5b838110610e9a5750505f910152565b8181015183820152602001610e8b565b60409160208252610eca8151809281602086015260208686019101610e89565b601f01601f1916010190565b600435906001600160a01b038216820361021957565b602435906001600160a01b038216820361021957565b3461021957602036600319011261021957610f1b610ed6565b5060206040515f198152f35b606090600319011261021957600435906001600160a01b03906024358281168103610219579160443590811681036102195790565b90601f8019910116810190811067ffffffffffffffff821117610f7e57604052565b634e487b7160e01b5f52604160045260245ffd5b9066f8b0a10e470000918201809211610fa757565b634e487b7160e01b5f52601160045260245ffd5b91908201809211610fa757565b6040516370a0823160e01b81523060048201526020816024817f00000000000000000000000000000000000000000000000000000000000000006001600160a01b03165afa801561105f575f9061102b575b611028915060015490610fbb565b90565b506020813d602011611057575b8161104560209383610f5c565b8101031261021957611028905161101a565b3d9150611038565b6040513d5f823e3d90fd5b611072610fc8565b9060018201809211610fa7576110289160016805345cdf77eb68f44c540191611352565b6805345cdf77eb68f44c549060018201809211610fa7576110289160016110bb610fc8565b01916113e0565b156110c957565b60405162461bcd60e51b815260206004820152600c60248201526b15539055551213d49256915160a21b6044820152606490fd5b91908203918211610fa757565b611112610fc8565b9060018201809211610fa7576110289160016805345cdf77eb68f44c5401916113e0565b6805345cdf77eb68f44c549060018201809211610fa75761102891600161115b610fc8565b0191611352565b61116a610fc8565b80156112195760015490670de0b6b3a7640000918183820291848184041490151702156111d3570490670b1a2bc2ec50000082116111e0578066b1a2bc2ec5000092838102938185041490151702156111d35766470de4df82000091048101809111610fa75790565b63ad251c275f526004601cfd5b670b1a2bc2ec4fffff198201918211610fa75780670214e8348c4f000092838102938185041490151702156111d3576110289104610f92565b5066470de4df82000090565b906001600160a01b0381166e22d473030f116ddee9f6b43ac78ba31461125b57602052637f5e9f20600c525f526034600c205490565b50505f1990565b60208183031261021957805167ffffffffffffffff9182821161021957019082601f83011215610219578151908111610f7e57604051926112ad601f8301601f191660200185610f5c565b81845260208284010111610219576110289160208085019101610e89565b6040516306fdde0360e01b8152905f90829060049082906001600160a01b03165afa90811561105f575f91611338575b506110286026604051809365027b9b4ba37960d51b60208301526113288151809260208686019101610e89565b8101036006810184520182610f5c565b61134c91503d805f833e61094f8183610f5c565b5f6112fb565b8181029291811582850482141783021561136d575050900490565b82905f1981840985811086019003920990825f03831692818111156113d3578390046002816003028118808302820302808302820302808302820302808302820302808302820302809202900302936001848483030494805f0304019211900302170290565b63ae47f7025f526004601cfd5b9291906113ee828286611352565b93096113f657565b906001019081156113d357565b60035480421461146b5761141f6114186116b5565b91426110fd565b6301e133809180820291811591830414178202156111d3570460025481810291670de0b6b3a764000080918385041483151702156111d357611462920490610fbb565b60025542600355565b50565b916040519360605260405260601b602c526323b872dd60601b600c5260205f6064601c82855af1908160015f511416156114ae575b50505f606052604052565b3b153d1710156114bf575f806114a3565b637939f4245f526004601cfd5b9190926114fb8230857f000000000000000000000000000000000000000000000000000000000000000061146e565b6805345cdf77eb68f44c80549082820191821061157a57556387a211a2600c52835f526020600c20818154019055602052600c5160601c5f5f80516020611780833981519152602080a35f5260018060a01b0391821691167fdcbc1c05240f31ff3ad067ef1ee35ce4997762752e3a095284754544f4c709d760405fa3565b63e5cfe9575f526004601cfd5b90936001600160a01b0393919291848316858516819003611654575b6387a211a2600c52835f526020600c209081549182851161164757845f930390556805345cdf77eb68f44c8481540390558382525f80516020611780833981519152602083a361161481877f0000000000000000000000000000000000000000000000000000000000000000611664565b5f52602052821692821691167ffbde797d201c681b91056529119e0b02407c7bb96a4a2c75c01fc9667232c8db60405fa4565b63f4d678b85f526004601cfd5b61165f838686611721565b6115a3565b919060145260345263a9059cbb60601b5f5260205f6044601082855af1908160015f51141615611697575b50505f603452565b3b153d1710156116a8575f8061168f565b6390b8ec185f526004601cfd5b6001548015611219576116c6610fc8565b670de0b6b3a76400009181838083029283041402156111d3570490670b1a2bc2ec50000082116111e0578066b1a2bc2ec5000092838102938185041490151702156111d35766470de4df82000091048101809111610fa75790565b906001600160a01b0381166e22d473030f116ddee9f6b43ac78ba31461177a57602052637f5e9f20600c525f526034600c20908154801961176157505050565b80821161176d57039055565b6313be252b5f526004601cfd5b50505056feddf252ad1be2c89b69c2b068fc378daa952ba7f163c4a11628f55a4df523b3efa2646970667358221220e19e5acda2761351dce69ede128d7f1f1f39984a768abff981edb3c44935439964736f6c63430008180033","linkReferences":{}},"methodIdentifiers":{"BASE_RATE()":"41910f90","DOMAIN_SEPARATOR()":"3644e515","KINK()":"a35cc828","RATE_SLOPE()":"5fc1419d","absorbLoss(uint256)":"ec78412e","accrueInterest()":"a6afed95","allowance(address,address)":"dd62ed3e","approve(address,uint256)":"095ea7b3","asset()":"38d52e0f","authorize(address)":"b6a5d7de","authorized(address)":"b9181611","balanceOf(address)":"70a08231","borrow(uint256)":"c5ebeaec","borrowIndex()":"aa5af0fd","borrowRate()":"c914b437","convertToAssets(uint256)":"07a2d13a","convertToShares(uint256)":"c6e6f592","decimals()":"313ce567","deposit(uint256,address)":"6e553f65","factory()":"c45a0155","lastAccrueTime()":"9ffe7973","maxDeposit(address)":"402d267d","maxMint(address)":"c63d75b6","maxRedeem(address)":"d905777e","maxWithdraw(address)":"ce96cb77","mint(uint256,address)":"94bf804d","name()":"06fdde03","nonces(address)":"7ecebe00","permit(address,address,uint256,uint256,uint8,bytes32,bytes32)":"d505accf","previewDeposit(uint256)":"ef8b30f7","previewMint(uint256)":"b3d7f6b9","previewRedeem(uint256)":"4cdad506","previewWithdraw(uint256)":"0a28a477","redeem(uint256,address,address)":"ba087652","repay(uint256)":"371fd8e6","symbol()":"95d89b41","totalAssets()":"01e1d114","totalBorrows()":"47bd3718","totalSupply()":"18160ddd","transfer(address,uint256)":"a9059cbb","transferFrom(address,address,uint256)":"23b872dd","treasury()":"61d027b3","withdraw(uint256,address,address)":"b460af94"},"id":37}