{"abi":[{"type":"constructor","inputs":[{"name":"asset_","type":"address","internalType":"address"},{"name":"_factory","type":"address","internalType":"address"}],"stateMutability":"nonpayable"},{"type":"function","name":"BASE_RATE","inputs":[],"outputs":[{"name":"","type":"uint256","internalType":"uint256"}],"stateMutability":"view"},{"type":"function","name":"DOMAIN_SEPARATOR","inputs":[],"outputs":[{"name":"result","type":"bytes32","internalType":"bytes32"}],"stateMutability":"view"},{"type":"function","name":"KINK","inputs":[],"outputs":[{"name":"","type":"uint256","internalType":"uint256"}],"stateMutability":"view"},{"type":"function","name":"RATE_SLOPE","inputs":[],"outputs":[{"name":"","type":"uint256","internalType":"uint256"}],"stateMutability":"view"},{"type":"function","name":"absorbLoss","inputs":[{"name":"loss","type":"uint256","internalType":"uint256"}],"outputs":[],"stateMutability":"nonpayable"},{"type":"function","name":"accrueInterest","inputs":[],"outputs":[],"stateMutability":"nonpayable"},{"type":"function","name":"allowance","inputs":[{"name":"owner","type":"address","internalType":"address"},{"name":"spender","type":"address","internalType":"address"}],"outputs":[{"name":"result","type":"uint256","internalType":"uint256"}],"stateMutability":"view"},{"type":"function","name":"approve","inputs":[{"name":"spender","type":"address","internalType":"address"},{"name":"amount","type":"uint256","internalType":"uint256"}],"outputs":[{"name":"","type":"bool","internalType":"bool"}],"stateMutability":"nonpayable"},{"type":"function","name":"asset","inputs":[],"outputs":[{"name":"","type":"address","internalType":"address"}],"stateMutability":"view"},{"type":"function","name":"authorize","inputs":[{"name":"vault","type":"address","internalType":"address"}],"outputs":[],"stateMutability":"nonpayable"},{"type":"function","name":"authorized","inputs":[{"name":"","type":"address","internalType":"address"}],"outputs":[{"name":"","type":"bool","internalType":"bool"}],"stateMutability":"view"},{"type":"function","name":"balanceOf","inputs":[{"name":"owner","type":"address","internalType":"address"}],"outputs":[{"name":"result","type":"uint256","internalType":"uint256"}],"stateMutability":"view"},{"type":"function","name":"borrow","inputs":[{"name":"amount","type":"uint256","internalType":"uint256"}],"outputs":[],"stateMutability":"nonpayable"},{"type":"function","name":"borrowIndex","inputs":[],"outputs":[{"name":"","type":"uint256","internalType":"uint256"}],"stateMutability":"view"},{"type":"function","name":"borrowRate","inputs":[],"outputs":[{"name":"","type":"uint256","internalType":"uint256"}],"stateMutability":"view"},{"type":"function","name":"convertToAssets","inputs":[{"name":"shares","type":"uint256","internalType":"uint256"}],"outputs":[{"name":"assets","type":"uint256","internalType":"uint256"}],"stateMutability":"view"},{"type":"function","name":"convertToShares","inputs":[{"name":"assets","type":"uint256","internalType":"uint256"}],"outputs":[{"name":"shares","type":"uint256","internalType":"uint256"}],"stateMutability":"view"},{"type":"function","name":"decimals","inputs":[],"outputs":[{"name":"","type":"uint8","internalType":"uint8"}],"stateMutability":"view"},{"type":"function","name":"deposit","inputs":[{"name":"assets","type":"uint256","internalType":"uint256"},{"name":"to","type":"address","internalType":"address"}],"outputs":[{"name":"shares","type":"uint256","internalType":"uint256"}],"stateMutability":"nonpayable"},{"type":"function","name":"factory","inputs":[],"outputs":[{"name":"","type":"address","internalType":"address"}],"stateMutability":"view"},{"type":"function","name":"lastAccrueTime","inputs":[],"outputs":[{"name":"","type":"uint256","internalType":"uint256"}],"stateMutability":"view"},{"type":"function","name":"maxDeposit","inputs":[{"name":"to","type":"address","internalType":"address"}],"outputs":[{"name":"maxAssets","type":"uint256","internalType":"uint256"}],"stateMutability":"view"},{"type":"function","name":"maxMint","inputs":[{"name":"to","type":"address","internalType":"address"}],"outputs":[{"name":"maxShares","type":"uint256","internalType":"uint256"}],"stateMutability":"view"},{"type":"function","name":"maxRedeem","inputs":[{"name":"owner","type":"address","internalType":"address"}],"outputs":[{"name":"maxShares","type":"uint256","internalType":"uint256"}],"stateMutability":"view"},{"type":"function","name":"maxWithdraw","inputs":[{"name":"owner","type":"address","internalType":"address"}],"outputs":[{"name":"maxAssets","type":"uint256","internalType":"uint256"}],"stateMutability":"view"},{"type":"function","name":"mint","inputs":[{"name":"shares","type":"uint256","internalType":"uint256"},{"name":"to","type":"address","internalType":"address"}],"outputs":[{"name":"assets","type":"uint256","internalType":"uint256"}],"stateMutability":"nonpayable"},{"type":"function","name":"name","inputs":[],"outputs":[{"name":"","type":"string","internalType":"string"}],"stateMutability":"view"},{"type":"function","name":"nonces","inputs":[{"name":"owner","type":"address","internalType":"address"}],"outputs":[{"name":"result","type":"uint256","internalType":"uint256"}],"stateMutability":"view"},{"type":"function","name":"permit","inputs":[{"name":"owner","type":"address","internalType":"address"},{"name":"spender","type":"address","internalType":"address"},{"name":"value","type":"uint256","internalType":"uint256"},{"name":"deadline","type":"uint256","internalType":"uint256"},{"name":"v","type":"uint8","internalType":"uint8"},{"name":"r","type":"bytes32","internalType":"bytes32"},{"name":"s","type":"bytes32","internalType":"bytes32"}],"outputs":[],"stateMutability":"nonpayable"},{"type":"function","name":"previewDeposit","inputs":[{"name":"assets","type":"uint256","internalType":"uint256"}],"outputs":[{"name":"shares","type":"uint256","internalType":"uint256"}],"stateMutability":"view"},{"type":"function","name":"previewMint","inputs":[{"name":"shares","type":"uint256","internalType":"uint256"}],"outputs":[{"name":"assets","type":"uint256","internalType":"uint256"}],"stateMutability":"view"},{"type":"function","name":"previewRedeem","inputs":[{"name":"shares","type":"uint256","internalType":"uint256"}],"outputs":[{"name":"assets","type":"uint256","internalType":"uint256"}],"stateMutability":"view"},{"type":"function","name":"previewWithdraw","inputs":[{"name":"assets","type":"uint256","internalType":"uint256"}],"outputs":[{"name":"shares","type":"uint256","internalType":"uint256"}],"stateMutability":"view"},{"type":"function","name":"redeem","inputs":[{"name":"shares","type":"uint256","internalType":"uint256"},{"name":"to","type":"address","internalType":"address"},{"name":"owner","type":"address","internalType":"address"}],"outputs":[{"name":"assets","type":"uint256","internalType":"uint256"}],"stateMutability":"nonpayable"},{"type":"function","name":"repay","inputs":[{"name":"amount","type":"uint256","internalType":"uint256"}],"outputs":[],"stateMutability":"nonpayable"},{"type":"function","name":"symbol","inputs":[],"outputs":[{"name":"","type":"string","internalType":"string"}],"stateMutability":"view"},{"type":"function","name":"totalAssets","inputs":[],"outputs":[{"name":"","type":"uint256","internalType":"uint256"}],"stateMutability":"view"},{"type":"function","name":"totalBorrows","inputs":[],"outputs":[{"name":"","type":"uint256","internalType":"uint256"}],"stateMutability":"view"},{"type":"function","name":"totalSupply","inputs":[],"outputs":[{"name":"result","type":"uint256","internalType":"uint256"}],"stateMutability":"view"},{"type":"function","name":"transfer","inputs":[{"name":"to","type":"address","internalType":"address"},{"name":"amount","type":"uint256","internalType":"uint256"}],"outputs":[{"name":"","type":"bool","internalType":"bool"}],"stateMutability":"nonpayable"},{"type":"function","name":"transferFrom","inputs":[{"name":"from","type":"address","internalType":"address"},{"name":"to","type":"address","internalType":"address"},{"name":"amount","type":"uint256","internalType":"uint256"}],"outputs":[{"name":"","type":"bool","internalType":"bool"}],"stateMutability":"nonpayable"},{"type":"function","name":"withdraw","inputs":[{"name":"assets","type":"uint256","internalType":"uint256"},{"name":"to","type":"address","internalType":"address"},{"name":"owner","type":"address","internalType":"address"}],"outputs":[{"name":"shares","type":"uint256","internalType":"uint256"}],"stateMutability":"nonpayable"},{"type":"event","name":"Approval","inputs":[{"name":"owner","type":"address","indexed":true,"internalType":"address"},{"name":"spender","type":"address","indexed":true,"internalType":"address"},{"name":"amount","type":"uint256","indexed":false,"internalType":"uint256"}],"anonymous":false},{"type":"event","name":"Deposit","inputs":[{"name":"by","type":"address","indexed":true,"internalType":"address"},{"name":"owner","type":"address","indexed":true,"internalType":"address"},{"name":"assets","type":"uint256","indexed":false,"internalType":"uint256"},{"name":"shares","type":"uint256","indexed":false,"internalType":"uint256"}],"anonymous":false},{"type":"event","name":"Transfer","inputs":[{"name":"from","type":"address","indexed":true,"internalType":"address"},{"name":"to","type":"address","indexed":true,"internalType":"address"},{"name":"amount","type":"uint256","indexed":false,"internalType":"uint256"}],"anonymous":false},{"type":"event","name":"Withdraw","inputs":[{"name":"by","type":"address","indexed":true,"internalType":"address"},{"name":"to","type":"address","indexed":true,"internalType":"address"},{"name":"owner","type":"address","indexed":true,"internalType":"address"},{"name":"assets","type":"uint256","indexed":false,"internalType":"uint256"},{"name":"shares","type":"uint256","indexed":false,"internalType":"uint256"}],"anonymous":false},{"type":"error","name":"AllowanceOverflow","inputs":[]},{"type":"error","name":"AllowanceUnderflow","inputs":[]},{"type":"error","name":"DepositMoreThanMax","inputs":[]},{"type":"error","name":"InsufficientAllowance","inputs":[]},{"type":"error","name":"InsufficientBalance","inputs":[]},{"type":"error","name":"InvalidPermit","inputs":[]},{"type":"error","name":"MintMoreThanMax","inputs":[]},{"type":"error","name":"Permit2AllowanceIsFixedAtInfinity","inputs":[]},{"type":"error","name":"PermitExpired","inputs":[]},{"type":"error","name":"RedeemMoreThanMax","inputs":[]},{"type":"error","name":"TotalSupplyOverflow","inputs":[]},{"type":"error","name":"WithdrawMoreThanMax","inputs":[]}],"bytecode":{"object":"0x60c0346100d057601f61186338819003918201601f19168301916001600160401b038311848410176100d45780849260409485528339810103126100d057610052602061004b836100e8565b92016100e8565b90670de0b6b3a764000060025560805260a0524260035560405161176690816100fd8239608051818181610312015281816105620152818161088701528181610a6201528181610adc01528181610b2a01528181610daa01528181610f4f015281816114680152611581015260a0518181816105d801526106bf0152f35b5f80fd5b634e487b7160e01b5f52604160045260245ffd5b51906001600160a01b03821682036100d05756fe60406080815260049081361015610014575f80fd5b5f3560e01c806301e1d11414610dd957806306fdde0314610d9057806307a2d13a146109f1578063095ea7b314610cf75780630a28a47714610cd957806318160ddd14610cb357806323b872dd14610bd2578063313ce56714610bb75780633644e51514610b0f578063371fd8e614610a9157806338d52e0f14610a4e578063402d267d146104f957806341910f9014610a2d57806347bd371814610a0f5780634cdad506146109f15780635fc1419d146109d05780636e553f651461099d57806370a08231146102795780637ecebe001461096a57806394bf804d1461093757806395d89b41146108615780639ffe797314610843578063a35cc82814610821578063a6afed9514610809578063a9059cbb14610791578063aa5af0fd14610773578063b3d7f6b914610755578063b460af94146106fe578063b6a5d7de14610696578063b91816111461065b578063ba08765214610607578063c45a0155146105c4578063c5ebeaec146104fe578063c63d75b6146104f9578063c6e6f592146104db578063c914b437146104bf578063ce96cb771461048b578063d505accf146102ac578063d905777e14610279578063dd62ed3e1461024c578063ec78412e146102125763ef8b30f7146101ea575f80fd5b3461020e57602036600319011261020e57610207602092356110a2565b9051908152f35b5f80fd5b50903461020e57602036600319011261020e5761023e60ff61024793335f525f6020525f20541661102e565b35600154611069565b600155005b503461020e578060031936011261020e5760209061020761026b610e42565b610273610e58565b90611191565b503461020e57602036600319011261020e57602090610296610e42565b6387a211a2600c525f5281600c20549051908152f35b503461020e5760e036600319011261020e576102c6610e42565b906102cf610e58565b9060443592606435936084359260ff8416840361020e576001600160a01b03948516956e22d473030f116ddee9f6b43ac78ba38718831915171561047f576103367f0000000000000000000000000000000000000000000000000000000000000000611237565b948551602080970120908242116104735760c0978451961697889665383775081901600e52875f5288600c2094855480957f8b73c3c69bb8fe3d512ecc4cf759cc79239f7b179b0ffacaa9a75d522b39400f84528b84019081528d8985017fc89efdaa54c0f20c7adf612882df0950f5a951637e0307cdcb4c672f298b8bc68152606086019c8d469052608087019330855260a08820602e527f6e71edae12b1b97f4d1f60370fef10105fa2faae0126114a169c64845d6126c988525252898b525260a082015220604e526042602c205f5260ff16865260a435835260c435606052858060805f60015afa90873d5103610467577f8c5be1e5ebec7d5bd14f71427d1e84f3dd0314c0f7b2291e5b200ac8c7c3b92597989950019055866303faf4f960a51b1790526034602c2055a3005b8963ddafbaef5f52601cfd5b89631a15a3cc5f52601cfd5b87633f68539a5f52601cfd5b503461020e57602036600319011261020e576020906104a8610e42565b6387a211a2600c525f5261020782600c2054610fd6565b503461020e575f36600319011261020e576020906102076110ce565b503461020e57602036600319011261020e57610207602092356110a2565b610e6e565b50903461020e57602036600319011261020e57803590335f525f60205261052a60ff845f20541661102e565b61053261136f565b61053a610f34565b92600154936105498486610f27565b11610588576105868361055c8187610f27565b600155337f00000000000000000000000000000000000000000000000000000000000000006115f5565b005b906020606492519162461bcd60e51b83528201526016602482015275494e53554646494349454e545f4c495155494449545960501b6044820152fd5b503461020e575f36600319011261020e57517f00000000000000000000000000000000000000000000000000000000000000006001600160a01b03168152602090f35b503461020e5761061636610e93565b9291936387a211a2600c52835f526020600c2054851161065057508361064a91610641602096610fd6565b94859133611518565b51908152f35b634656425a5f52601cfd5b503461020e57602036600319011261020e576020906001600160a01b03610680610e42565b165f525f825260ff815f20541690519015158152f35b503461020e57602036600319011261020e576106b0610e42565b6001600160a01b03906106e6337f000000000000000000000000000000000000000000000000000000000000000084161461102e565b165f908152602081905220805460ff19166001179055005b503461020e5761070d36610e93565b929190936387a211a2600c52835f5261072a6020600c2054610fd6565b821161074a57506020938161074161064a93611002565b94859233611518565b63936941fc5f52601cfd5b503461020e57602036600319011261020e5761020760209235611076565b503461020e575f36600319011261020e576020906002549051908152f35b503461020e578060031936011261020e576107aa610e42565b602435906387a211a2600c52335f5260209384600c20908154908185116107fe575083900390555f5282600c208181540190558252600c5160601c335f805160206117118339815191528480a35160018152f35b63f4d678b85f52601cfd5b3461020e575f36600319011261020e5761058661136f565b503461020e575f36600319011261020e5760209051670b1a2bc2ec5000008152f35b503461020e575f36600319011261020e576020906003549051908152f35b50903461020e575f36600319011261020e5781516395d89b4160e01b8152905f908290817f00000000000000000000000000000000000000000000000000000000000000006001600160a01b03165afa90811561092d5791610905925f92610909575b506108fb602182518094606f60f81b60208301526108eb8151809260208686019101610df5565b8101036001810185520183610ec8565b5191829182610e16565b0390f35b6109269192503d805f833e61091e8183610ec8565b8101906111ce565b905f6108c4565b82513d5f823e3d90fd5b503461020e578060031936011261020e57602091359061064a610958610e58565b9261096281611076565b80943361145d565b503461020e57602036600319011261020e57602090610987610e42565b6338377508600c525f5281600c20549051908152f35b503461020e578060031936011261020e57602091359061064a6109be610e58565b6109c7846110a2565b9384913361145d565b503461020e575f36600319011261020e576020905166b1a2bc2ec500008152f35b503461020e57602036600319011261020e5761020760209235610fd6565b503461020e575f36600319011261020e576020906001549051908152f35b503461020e575f36600319011261020e576020905166470de4df8200008152f35b503461020e575f36600319011261020e57517f00000000000000000000000000000000000000000000000000000000000000006001600160a01b03168152602090f35b503461020e57602036600319011261020e57610abe60ff610247933592335f525f6020525f20541661102e565b610ac661136f565b6001549081811115610b0857505b610b008130337f00000000000000000000000000000000000000000000000000000000000000006113ff565b600154611069565b9050610ad4565b503461020e575f36600319011261020e5760209060a0610b4e7f0000000000000000000000000000000000000000000000000000000000000000611237565b8381519101208251907f8b73c3c69bb8fe3d512ecc4cf759cc79239f7b179b0ffacaa9a75d522b39400f8252848201527fc89efdaa54c0f20c7adf612882df0950f5a951637e0307cdcb4c672f298b8bc683820152466060820152306080820152209051908152f35b503461020e575f36600319011261020e576020905160128152f35b503461020e57606036600319011261020e57610bec610e42565b610bf4610e58565b604435908260601b6e22d473030f116ddee9f6b43ac78ba33303610c6a575b6387a211a217600c5260209485600c20908154908185116107fe575083900390555f52600c8481208054830190559084525160601c906001600160a01b03165f805160206117118339815191528480a35160018152f35b33602052637f5e9f208117600c526034600c20908154918219610c90575b509050610c13565b828511610ca757846387a211a2930390555f610c88565b876313be252b5f52601cfd5b503461020e575f36600319011261020e576020906805345cdf77eb68f44c549051908152f35b503461020e57602036600319011261020e5761020760209235611002565b503461020e578060031936011261020e57610d10610e42565b602435906001600160a01b0381166e22d473030f116ddee9f6b43ac78ba3188219151715610d8457602080945052637f5e9f20600c52335f52806034600c20555f52602c5160601c337f8c5be1e5ebec7d5bd14f71427d1e84f3dd0314c0f7b2291e5b200ac8c7c3b925845fa35160018152f35b83633f68539a5f52601cfd5b503461020e575f36600319011261020e5761090590610dce7f0000000000000000000000000000000000000000000000000000000000000000611237565b905191829182610e16565b503461020e575f36600319011261020e57602090610207610f34565b5f5b838110610e065750505f910152565b8181015183820152602001610df7565b60409160208252610e368151809281602086015260208686019101610df5565b601f01601f1916010190565b600435906001600160a01b038216820361020e57565b602435906001600160a01b038216820361020e57565b3461020e57602036600319011261020e57610e87610e42565b5060206040515f198152f35b606090600319011261020e57600435906001600160a01b0390602435828116810361020e5791604435908116810361020e5790565b90601f8019910116810190811067ffffffffffffffff821117610eea57604052565b634e487b7160e01b5f52604160045260245ffd5b9066f8b0a10e470000918201809211610f1357565b634e487b7160e01b5f52601160045260245ffd5b91908201809211610f1357565b6040516370a0823160e01b81523060048201526020816024817f00000000000000000000000000000000000000000000000000000000000000006001600160a01b03165afa8015610fcb575f90610f97575b610f94915060015490610f27565b90565b506020813d602011610fc3575b81610fb160209383610ec8565b8101031261020e57610f949051610f86565b3d9150610fa4565b6040513d5f823e3d90fd5b610fde610f34565b9060018201809211610f1357610f949160016805345cdf77eb68f44c5401916112be565b6805345cdf77eb68f44c549060018201809211610f1357610f94916001611027610f34565b019161134c565b1561103557565b60405162461bcd60e51b815260206004820152600c60248201526b15539055551213d49256915160a21b6044820152606490fd5b91908203918211610f1357565b61107e610f34565b9060018201809211610f1357610f949160016805345cdf77eb68f44c54019161134c565b6805345cdf77eb68f44c549060018201809211610f1357610f949160016110c7610f34565b01916112be565b6110d6610f34565b80156111855760015490670de0b6b3a76400009181838202918481840414901517021561113f570490670b1a2bc2ec500000821161114c578066b1a2bc2ec50000928381029381850414901517021561113f5766470de4df82000091048101809111610f135790565b63ad251c275f526004601cfd5b670b1a2bc2ec4fffff198201918211610f135780670214e8348c4f0000928381029381850414901517021561113f57610f949104610efe565b5066470de4df82000090565b906001600160a01b0381166e22d473030f116ddee9f6b43ac78ba3146111c757602052637f5e9f20600c525f526034600c205490565b50505f1990565b60208183031261020e57805167ffffffffffffffff9182821161020e57019082601f8301121561020e578151908111610eea5760405192611219601f8301601f191660200185610ec8565b8184526020828401011161020e57610f949160208085019101610df5565b6040516306fdde0360e01b8152905f90829060049082906001600160a01b03165afa908115610fcb575f916112a4575b50610f946026604051809365027b9b4ba37960d51b60208301526112948151809260208686019101610df5565b8101036006810184520182610ec8565b6112b891503d805f833e61091e8183610ec8565b5f611267565b818102929181158285048214178302156112d9575050900490565b82905f1981840985811086019003920990825f038316928181111561133f578390046002816003028118808302820302808302820302808302820302808302820302808302820302809202900302936001848483030494805f0304019211900302170290565b63ae47f7025f526004601cfd5b92919061135a8282866112be565b930961136257565b9060010190811561133f57565b6003548042146113fc5761138b611384611646565b9142611069565b6301e1338091808202918115918304141782021561113f5704600154818102670de0b6b3a764000091828482840414821517021561113f57826113cf920490610f27565b60015560025490808383029383850414831517021561113f576113f3920490610f27565b60025542600355565b50565b916040519360605260405260601b602c526323b872dd60601b600c5260205f6064601c82855af1908160015f5114161561143f575b50505f606052604052565b3b153d171015611450575f80611434565b637939f4245f526004601cfd5b91909261148c8230857f00000000000000000000000000000000000000000000000000000000000000006113ff565b6805345cdf77eb68f44c80549082820191821061150b57556387a211a2600c52835f526020600c20818154019055602052600c5160601c5f5f80516020611711833981519152602080a35f5260018060a01b0391821691167fdcbc1c05240f31ff3ad067ef1ee35ce4997762752e3a095284754544f4c709d760405fa3565b63e5cfe9575f526004601cfd5b90936001600160a01b03939192918483168585168190036115e5575b6387a211a2600c52835f526020600c20908154918285116115d857845f930390556805345cdf77eb68f44c8481540390558382525f80516020611711833981519152602083a36115a581877f00000000000000000000000000000000000000000000000000000000000000006115f5565b5f52602052821692821691167ffbde797d201c681b91056529119e0b02407c7bb96a4a2c75c01fc9667232c8db60405fa4565b63f4d678b85f526004601cfd5b6115f08386866116b2565b611534565b919060145260345263a9059cbb60601b5f5260205f6044601082855af1908160015f51141615611628575b50505f603452565b3b153d171015611639575f80611620565b6390b8ec185f526004601cfd5b600154801561118557611657610f34565b670de0b6b3a764000091818380830292830414021561113f570490670b1a2bc2ec500000821161114c578066b1a2bc2ec50000928381029381850414901517021561113f5766470de4df82000091048101809111610f135790565b906001600160a01b0381166e22d473030f116ddee9f6b43ac78ba31461170b57602052637f5e9f20600c525f526034600c2090815480196116f257505050565b8082116116fe57039055565b6313be252b5f526004601cfd5b50505056feddf252ad1be2c89b69c2b068fc378daa952ba7f163c4a11628f55a4df523b3efa26469706673582212202ccefa8bb9774f54c4c78c4548f9fb3214f135ff61fdce7614004bf6b486cd0b64736f6c63430008180033","linkReferences":{}},"methodIdentifiers":{"BASE_RATE()":"41910f90","DOMAIN_SEPARATOR()":"3644e515","KINK()":"a35cc828","RATE_SLOPE()":"5fc1419d","absorbLoss(uint256)":"ec78412e","accrueInterest()":"a6afed95","allowance(address,address)":"dd62ed3e","approve(address,uint256)":"095ea7b3","asset()":"38d52e0f","authorize(address)":"b6a5d7de","authorized(address)":"b9181611","balanceOf(address)":"70a08231","borrow(uint256)":"c5ebeaec","borrowIndex()":"aa5af0fd","borrowRate()":"c914b437","convertToAssets(uint256)":"07a2d13a","convertToShares(uint256)":"c6e6f592","decimals()":"313ce567","deposit(uint256,address)":"6e553f65","factory()":"c45a0155","lastAccrueTime()":"9ffe7973","maxDeposit(address)":"402d267d","maxMint(address)":"c63d75b6","maxRedeem(address)":"d905777e","maxWithdraw(address)":"ce96cb77","mint(uint256,address)":"94bf804d","name()":"06fdde03","nonces(address)":"7ecebe00","permit(address,address,uint256,uint256,uint8,bytes32,bytes32)":"d505accf","previewDeposit(uint256)":"ef8b30f7","previewMint(uint256)":"b3d7f6b9","previewRedeem(uint256)":"4cdad506","previewWithdraw(uint256)":"0a28a477","redeem(uint256,address,address)":"ba087652","repay(uint256)":"371fd8e6","symbol()":"95d89b41","totalAssets()":"01e1d114","totalBorrows()":"47bd3718","totalSupply()":"18160ddd","transfer(address,uint256)":"a9059cbb","transferFrom(address,address,uint256)":"23b872dd","withdraw(uint256,address,address)":"b460af94"},"id":27}