{"abi":[{"type":"constructor","inputs":[{"name":"asset_","type":"address","internalType":"address"},{"name":"_collateralVault","type":"address","internalType":"address"}],"stateMutability":"nonpayable"},{"type":"function","name":"BASE_RATE","inputs":[],"outputs":[{"name":"","type":"uint256","internalType":"uint256"}],"stateMutability":"view"},{"type":"function","name":"DOMAIN_SEPARATOR","inputs":[],"outputs":[{"name":"result","type":"bytes32","internalType":"bytes32"}],"stateMutability":"view"},{"type":"function","name":"KINK","inputs":[],"outputs":[{"name":"","type":"uint256","internalType":"uint256"}],"stateMutability":"view"},{"type":"function","name":"RATE_SLOPE","inputs":[],"outputs":[{"name":"","type":"uint256","internalType":"uint256"}],"stateMutability":"view"},{"type":"function","name":"accrueInterest","inputs":[],"outputs":[],"stateMutability":"nonpayable"},{"type":"function","name":"allowance","inputs":[{"name":"owner","type":"address","internalType":"address"},{"name":"spender","type":"address","internalType":"address"}],"outputs":[{"name":"result","type":"uint256","internalType":"uint256"}],"stateMutability":"view"},{"type":"function","name":"approve","inputs":[{"name":"spender","type":"address","internalType":"address"},{"name":"amount","type":"uint256","internalType":"uint256"}],"outputs":[{"name":"","type":"bool","internalType":"bool"}],"stateMutability":"nonpayable"},{"type":"function","name":"asset","inputs":[],"outputs":[{"name":"","type":"address","internalType":"address"}],"stateMutability":"view"},{"type":"function","name":"authorize","inputs":[{"name":"vault","type":"address","internalType":"address"}],"outputs":[],"stateMutability":"nonpayable"},{"type":"function","name":"authorized","inputs":[{"name":"","type":"address","internalType":"address"}],"outputs":[{"name":"","type":"bool","internalType":"bool"}],"stateMutability":"view"},{"type":"function","name":"balanceOf","inputs":[{"name":"owner","type":"address","internalType":"address"}],"outputs":[{"name":"result","type":"uint256","internalType":"uint256"}],"stateMutability":"view"},{"type":"function","name":"borrow","inputs":[{"name":"amount","type":"uint256","internalType":"uint256"}],"outputs":[],"stateMutability":"nonpayable"},{"type":"function","name":"borrowIndex","inputs":[],"outputs":[{"name":"","type":"uint256","internalType":"uint256"}],"stateMutability":"view"},{"type":"function","name":"borrowRate","inputs":[],"outputs":[{"name":"","type":"uint256","internalType":"uint256"}],"stateMutability":"view"},{"type":"function","name":"convertToAssets","inputs":[{"name":"shares","type":"uint256","internalType":"uint256"}],"outputs":[{"name":"assets","type":"uint256","internalType":"uint256"}],"stateMutability":"view"},{"type":"function","name":"convertToShares","inputs":[{"name":"assets","type":"uint256","internalType":"uint256"}],"outputs":[{"name":"shares","type":"uint256","internalType":"uint256"}],"stateMutability":"view"},{"type":"function","name":"decimals","inputs":[],"outputs":[{"name":"","type":"uint8","internalType":"uint8"}],"stateMutability":"view"},{"type":"function","name":"deposit","inputs":[{"name":"assets","type":"uint256","internalType":"uint256"},{"name":"to","type":"address","internalType":"address"}],"outputs":[{"name":"shares","type":"uint256","internalType":"uint256"}],"stateMutability":"nonpayable"},{"type":"function","name":"factory","inputs":[],"outputs":[{"name":"","type":"address","internalType":"address"}],"stateMutability":"view"},{"type":"function","name":"lastAccrueTime","inputs":[],"outputs":[{"name":"","type":"uint256","internalType":"uint256"}],"stateMutability":"view"},{"type":"function","name":"maxDeposit","inputs":[{"name":"to","type":"address","internalType":"address"}],"outputs":[{"name":"maxAssets","type":"uint256","internalType":"uint256"}],"stateMutability":"view"},{"type":"function","name":"maxMint","inputs":[{"name":"to","type":"address","internalType":"address"}],"outputs":[{"name":"maxShares","type":"uint256","internalType":"uint256"}],"stateMutability":"view"},{"type":"function","name":"maxRedeem","inputs":[{"name":"owner","type":"address","internalType":"address"}],"outputs":[{"name":"maxShares","type":"uint256","internalType":"uint256"}],"stateMutability":"view"},{"type":"function","name":"maxWithdraw","inputs":[{"name":"owner","type":"address","internalType":"address"}],"outputs":[{"name":"maxAssets","type":"uint256","internalType":"uint256"}],"stateMutability":"view"},{"type":"function","name":"mint","inputs":[{"name":"shares","type":"uint256","internalType":"uint256"},{"name":"to","type":"address","internalType":"address"}],"outputs":[{"name":"assets","type":"uint256","internalType":"uint256"}],"stateMutability":"nonpayable"},{"type":"function","name":"name","inputs":[],"outputs":[{"name":"","type":"string","internalType":"string"}],"stateMutability":"view"},{"type":"function","name":"nonces","inputs":[{"name":"owner","type":"address","internalType":"address"}],"outputs":[{"name":"result","type":"uint256","internalType":"uint256"}],"stateMutability":"view"},{"type":"function","name":"permit","inputs":[{"name":"owner","type":"address","internalType":"address"},{"name":"spender","type":"address","internalType":"address"},{"name":"value","type":"uint256","internalType":"uint256"},{"name":"deadline","type":"uint256","internalType":"uint256"},{"name":"v","type":"uint8","internalType":"uint8"},{"name":"r","type":"bytes32","internalType":"bytes32"},{"name":"s","type":"bytes32","internalType":"bytes32"}],"outputs":[],"stateMutability":"nonpayable"},{"type":"function","name":"previewDeposit","inputs":[{"name":"assets","type":"uint256","internalType":"uint256"}],"outputs":[{"name":"shares","type":"uint256","internalType":"uint256"}],"stateMutability":"view"},{"type":"function","name":"previewMint","inputs":[{"name":"shares","type":"uint256","internalType":"uint256"}],"outputs":[{"name":"assets","type":"uint256","internalType":"uint256"}],"stateMutability":"view"},{"type":"function","name":"previewRedeem","inputs":[{"name":"shares","type":"uint256","internalType":"uint256"}],"outputs":[{"name":"assets","type":"uint256","internalType":"uint256"}],"stateMutability":"view"},{"type":"function","name":"previewWithdraw","inputs":[{"name":"assets","type":"uint256","internalType":"uint256"}],"outputs":[{"name":"shares","type":"uint256","internalType":"uint256"}],"stateMutability":"view"},{"type":"function","name":"redeem","inputs":[{"name":"shares","type":"uint256","internalType":"uint256"},{"name":"to","type":"address","internalType":"address"},{"name":"owner","type":"address","internalType":"address"}],"outputs":[{"name":"assets","type":"uint256","internalType":"uint256"}],"stateMutability":"nonpayable"},{"type":"function","name":"repay","inputs":[{"name":"amount","type":"uint256","internalType":"uint256"}],"outputs":[],"stateMutability":"nonpayable"},{"type":"function","name":"symbol","inputs":[],"outputs":[{"name":"","type":"string","internalType":"string"}],"stateMutability":"view"},{"type":"function","name":"totalAssets","inputs":[],"outputs":[{"name":"","type":"uint256","internalType":"uint256"}],"stateMutability":"view"},{"type":"function","name":"totalBorrows","inputs":[],"outputs":[{"name":"","type":"uint256","internalType":"uint256"}],"stateMutability":"view"},{"type":"function","name":"totalSupply","inputs":[],"outputs":[{"name":"result","type":"uint256","internalType":"uint256"}],"stateMutability":"view"},{"type":"function","name":"transfer","inputs":[{"name":"to","type":"address","internalType":"address"},{"name":"amount","type":"uint256","internalType":"uint256"}],"outputs":[{"name":"","type":"bool","internalType":"bool"}],"stateMutability":"nonpayable"},{"type":"function","name":"transferFrom","inputs":[{"name":"from","type":"address","internalType":"address"},{"name":"to","type":"address","internalType":"address"},{"name":"amount","type":"uint256","internalType":"uint256"}],"outputs":[{"name":"","type":"bool","internalType":"bool"}],"stateMutability":"nonpayable"},{"type":"function","name":"withdraw","inputs":[{"name":"assets","type":"uint256","internalType":"uint256"},{"name":"to","type":"address","internalType":"address"},{"name":"owner","type":"address","internalType":"address"}],"outputs":[{"name":"shares","type":"uint256","internalType":"uint256"}],"stateMutability":"nonpayable"},{"type":"event","name":"Approval","inputs":[{"name":"owner","type":"address","indexed":true,"internalType":"address"},{"name":"spender","type":"address","indexed":true,"internalType":"address"},{"name":"amount","type":"uint256","indexed":false,"internalType":"uint256"}],"anonymous":false},{"type":"event","name":"Deposit","inputs":[{"name":"by","type":"address","indexed":true,"internalType":"address"},{"name":"owner","type":"address","indexed":true,"internalType":"address"},{"name":"assets","type":"uint256","indexed":false,"internalType":"uint256"},{"name":"shares","type":"uint256","indexed":false,"internalType":"uint256"}],"anonymous":false},{"type":"event","name":"Transfer","inputs":[{"name":"from","type":"address","indexed":true,"internalType":"address"},{"name":"to","type":"address","indexed":true,"internalType":"address"},{"name":"amount","type":"uint256","indexed":false,"internalType":"uint256"}],"anonymous":false},{"type":"event","name":"Withdraw","inputs":[{"name":"by","type":"address","indexed":true,"internalType":"address"},{"name":"to","type":"address","indexed":true,"internalType":"address"},{"name":"owner","type":"address","indexed":true,"internalType":"address"},{"name":"assets","type":"uint256","indexed":false,"internalType":"uint256"},{"name":"shares","type":"uint256","indexed":false,"internalType":"uint256"}],"anonymous":false},{"type":"error","name":"AllowanceOverflow","inputs":[]},{"type":"error","name":"AllowanceUnderflow","inputs":[]},{"type":"error","name":"DepositMoreThanMax","inputs":[]},{"type":"error","name":"InsufficientAllowance","inputs":[]},{"type":"error","name":"InsufficientBalance","inputs":[]},{"type":"error","name":"InvalidPermit","inputs":[]},{"type":"error","name":"MintMoreThanMax","inputs":[]},{"type":"error","name":"Permit2AllowanceIsFixedAtInfinity","inputs":[]},{"type":"error","name":"PermitExpired","inputs":[]},{"type":"error","name":"RedeemMoreThanMax","inputs":[]},{"type":"error","name":"TotalSupplyOverflow","inputs":[]},{"type":"error","name":"WithdrawMoreThanMax","inputs":[]}],"bytecode":{"object":"0x60c0346100ff57601f6200183138819003918201601f19168301916001600160401b038311848410176101035780849260409485528339810103126100ff57610053602061004c83610117565b9201610117565b670de0b6b3a76400006002556080919091523360a0526001600160a01b0316806100e4575b4260035560405161170590816200012c82396080518181816102cd0152818161051d0152818161084201528181610a1d01528181610a9701528181610aea01528181610d6a01528181610efa01528181611473015261158c015260a051818181610593015261067a0152f35b5f525f60205260405f20600160ff198254161790555f610078565b5f80fd5b634e487b7160e01b5f52604160045260245ffd5b51906001600160a01b03821682036100ff5756fe60406080815260049081361015610014575f80fd5b5f3560e01c806301e1d11414610d9957806306fdde0314610d5057806307a2d13a146109ac578063095ea7b314610cb75780630a28a47714610c9957806318160ddd14610c7357806323b872dd14610b92578063313ce56714610b775780633644e51514610acf578063371fd8e614610a4c57806338d52e0f14610a09578063402d267d146104b457806341910f90146109e857806347bd3718146109ca5780634cdad506146109ac5780635fc1419d1461098b5780636e553f651461095857806370a08231146102345780637ecebe001461092557806394bf804d146108f257806395d89b411461081c5780639ffe7973146107fe578063a35cc828146107dc578063a6afed95146107c4578063a9059cbb1461074c578063aa5af0fd1461072e578063b3d7f6b914610710578063b460af94146106b9578063b6a5d7de14610651578063b918161114610616578063ba087652146105c2578063c45a01551461057f578063c5ebeaec146104b9578063c63d75b6146104b4578063c6e6f59214610496578063c914b4371461047a578063ce96cb7714610446578063d505accf14610267578063d905777e14610234578063dd62ed3e146102075763ef8b30f7146101df575f80fd5b34610203576020366003190112610203576101fc6020923561104d565b9051908152f35b5f80fd5b50346102035780600319360112610203576020906101fc610226610e02565b61022e610e18565b90611148565b503461020357602036600319011261020357602090610251610e02565b6387a211a2600c525f5281600c20549051908152f35b50346102035760e036600319011261020357610281610e02565b9061028a610e18565b9060443592606435936084359260ff84168403610203576001600160a01b03948516956e22d473030f116ddee9f6b43ac78ba38718831915171561043a576102f17f00000000000000000000000000000000000000000000000000000000000000006111ee565b9485516020809701209082421161042e5760c0978451961697889665383775081901600e52875f5288600c2094855480957f8b73c3c69bb8fe3d512ecc4cf759cc79239f7b179b0ffacaa9a75d522b39400f84528b84019081528d8985017fc89efdaa54c0f20c7adf612882df0950f5a951637e0307cdcb4c672f298b8bc68152606086019c8d469052608087019330855260a08820602e527f6e71edae12b1b97f4d1f60370fef10105fa2faae0126114a169c64845d6126c988525252898b525260a082015220604e526042602c205f5260ff16865260a435835260c435606052858060805f60015afa90873d5103610422577f8c5be1e5ebec7d5bd14f71427d1e84f3dd0314c0f7b2291e5b200ac8c7c3b92597989950019055866303faf4f960a51b1790526034602c2055a3005b8963ddafbaef5f52601cfd5b89631a15a3cc5f52601cfd5b87633f68539a5f52601cfd5b503461020357602036600319011261020357602090610463610e02565b6387a211a2600c525f526101fc82600c2054610f81565b5034610203575f366003190112610203576020906101fc611079565b5034610203576020366003190112610203576101fc6020923561104d565b610e2e565b50903461020357602036600319011261020357803590335f525f6020526104e560ff845f205416610fd9565b6104ed611326565b6104f5610edf565b92600154936105048486610ebe565b1161054357610541836105178187610ebe565b600155337f0000000000000000000000000000000000000000000000000000000000000000611600565b005b906020606492519162461bcd60e51b83528201526016602482015275494e53554646494349454e545f4c495155494449545960501b6044820152fd5b5034610203575f36600319011261020357517f00000000000000000000000000000000000000000000000000000000000000006001600160a01b03168152602090f35b5034610203576105d136610e53565b9291936387a211a2600c52835f526020600c2054851161060b575083610605916105fc602096610f81565b94859133611523565b51908152f35b634656425a5f52601cfd5b5034610203576020366003190112610203576020906001600160a01b0361063b610e02565b165f525f825260ff815f20541690519015158152f35b50346102035760203660031901126102035761066b610e02565b6001600160a01b03906106a1337f0000000000000000000000000000000000000000000000000000000000000000841614610fd9565b165f908152602081905220805460ff19166001179055005b5034610203576106c836610e53565b929190936387a211a2600c52835f526106e56020600c2054610f81565b82116107055750602093816106fc61060593610fad565b94859233611523565b63936941fc5f52601cfd5b5034610203576020366003190112610203576101fc60209235611021565b5034610203575f366003190112610203576020906002549051908152f35b5034610203578060031936011261020357610765610e02565b602435906387a211a2600c52335f5260209384600c20908154908185116107b9575083900390555f5282600c208181540190558252600c5160601c335f805160206116b08339815191528480a35160018152f35b63f4d678b85f52601cfd5b34610203575f36600319011261020357610541611326565b5034610203575f3660031901126102035760209051670b1a2bc2ec5000008152f35b5034610203575f366003190112610203576020906003549051908152f35b509034610203575f3660031901126102035781516395d89b4160e01b8152905f908290817f00000000000000000000000000000000000000000000000000000000000000006001600160a01b03165afa9081156108e857916108c0925f926108c4575b506108b6602182518094606f60f81b60208301526108a68151809260208686019101610db5565b8101036001810185520183610e88565b5191829182610dd6565b0390f35b6108e19192503d805f833e6108d98183610e88565b810190611185565b905f61087f565b82513d5f823e3d90fd5b50346102035780600319360112610203576020913590610605610913610e18565b9261091d81611021565b809433611468565b503461020357602036600319011261020357602090610942610e02565b6338377508600c525f5281600c20549051908152f35b50346102035780600319360112610203576020913590610605610979610e18565b6109828461104d565b93849133611468565b5034610203575f366003190112610203576020905166b1a2bc2ec500008152f35b5034610203576020366003190112610203576101fc60209235610f81565b5034610203575f366003190112610203576020906001549051908152f35b5034610203575f366003190112610203576020905166470de4df8200008152f35b5034610203575f36600319011261020357517f00000000000000000000000000000000000000000000000000000000000000006001600160a01b03168152602090f35b503461020357602036600319011261020357610a7960ff610ac3933592335f525f6020525f205416610fd9565b610a81611326565b6001549081811115610ac857505b610abb8130337f000000000000000000000000000000000000000000000000000000000000000061140a565b600154611014565b600155005b9050610a8f565b5034610203575f3660031901126102035760209060a0610b0e7f00000000000000000000000000000000000000000000000000000000000000006111ee565b8381519101208251907f8b73c3c69bb8fe3d512ecc4cf759cc79239f7b179b0ffacaa9a75d522b39400f8252848201527fc89efdaa54c0f20c7adf612882df0950f5a951637e0307cdcb4c672f298b8bc683820152466060820152306080820152209051908152f35b5034610203575f366003190112610203576020905160128152f35b503461020357606036600319011261020357610bac610e02565b610bb4610e18565b604435908260601b6e22d473030f116ddee9f6b43ac78ba33303610c2a575b6387a211a217600c5260209485600c20908154908185116107b9575083900390555f52600c8481208054830190559084525160601c906001600160a01b03165f805160206116b08339815191528480a35160018152f35b33602052637f5e9f208117600c526034600c20908154918219610c50575b509050610bd3565b828511610c6757846387a211a2930390555f610c48565b876313be252b5f52601cfd5b5034610203575f366003190112610203576020906805345cdf77eb68f44c549051908152f35b5034610203576020366003190112610203576101fc60209235610fad565b5034610203578060031936011261020357610cd0610e02565b602435906001600160a01b0381166e22d473030f116ddee9f6b43ac78ba3188219151715610d4457602080945052637f5e9f20600c52335f52806034600c20555f52602c5160601c337f8c5be1e5ebec7d5bd14f71427d1e84f3dd0314c0f7b2291e5b200ac8c7c3b925845fa35160018152f35b83633f68539a5f52601cfd5b5034610203575f366003190112610203576108c090610d8e7f00000000000000000000000000000000000000000000000000000000000000006111ee565b905191829182610dd6565b5034610203575f366003190112610203576020906101fc610edf565b5f5b838110610dc65750505f910152565b8181015183820152602001610db7565b60409160208252610df68151809281602086015260208686019101610db5565b601f01601f1916010190565b600435906001600160a01b038216820361020357565b602435906001600160a01b038216820361020357565b3461020357602036600319011261020357610e47610e02565b5060206040515f198152f35b606090600319011261020357600435906001600160a01b03906024358281168103610203579160443590811681036102035790565b90601f8019910116810190811067ffffffffffffffff821117610eaa57604052565b634e487b7160e01b5f52604160045260245ffd5b91908201809211610ecb57565b634e487b7160e01b5f52601160045260245ffd5b6040516370a0823160e01b81523060048201526020816024817f00000000000000000000000000000000000000000000000000000000000000006001600160a01b03165afa8015610f76575f90610f42575b610f3f915060015490610ebe565b90565b506020813d602011610f6e575b81610f5c60209383610e88565b8101031261020357610f3f9051610f31565b3d9150610f4f565b6040513d5f823e3d90fd5b610f89610edf565b9060018201809211610ecb57610f3f9160016805345cdf77eb68f44c540191611275565b6805345cdf77eb68f44c549060018201809211610ecb57610f3f916001610fd2610edf565b0191611303565b15610fe057565b60405162461bcd60e51b815260206004820152600c60248201526b15539055551213d49256915160a21b6044820152606490fd5b91908203918211610ecb57565b611029610edf565b9060018201809211610ecb57610f3f9160016805345cdf77eb68f44c540191611303565b6805345cdf77eb68f44c549060018201809211610ecb57610f3f916001611072610edf565b0191611275565b611081610edf565b801561113c5760015490670de0b6b3a7640000918183820291848184041490151702156110ea570490670b1a2bc2ec50000082116110f7578066b1a2bc2ec5000092838102938185041490151702156110ea5766470de4df82000091048101809111610ecb5790565b63ad251c275f526004601cfd5b670b1a2bc2ec4fffff198201918211610ecb5780670214e8348c4f000092838102938185041490151702156110ea5766f8b0a10e47000091048101809111610ecb5790565b5066470de4df82000090565b906001600160a01b0381166e22d473030f116ddee9f6b43ac78ba31461117e57602052637f5e9f20600c525f526034600c205490565b50505f1990565b60208183031261020357805167ffffffffffffffff9182821161020357019082601f83011215610203578151908111610eaa57604051926111d0601f8301601f191660200185610e88565b8184526020828401011161020357610f3f9160208085019101610db5565b6040516306fdde0360e01b8152905f90829060049082906001600160a01b03165afa908115610f76575f9161125b575b50610f3f6026604051809365027b9b4ba37960d51b602083015261124b8151809260208686019101610db5565b8101036006810184520182610e88565b61126f91503d805f833e6108d98183610e88565b5f61121e565b81810292918115828504821417830215611290575050900490565b82905f1981840985811086019003920990825f03831692818111156112f6578390046002816003028118808302820302808302820302808302820302808302820302808302820302809202900302936001848483030494805f0304019211900302170290565b63ae47f7025f526004601cfd5b929190611311828286611275565b930961131957565b906001019081156112f657565b6003548042146114075760405163c914b43760e01b815290602082600481305afa918215610f76575f926113d1575b506113609042611014565b6301e133809180820291811591830414178202156110ea5704600154818102670de0b6b3a76400009182848284041482151702156110ea57826113a4920490610ebe565b6001556002549080838302938385041483151702156110ea576113c8920490610ebe565b60025542600355565b9091506020813d6020116113ff575b816113ed60209383610e88565b81010312610203575190611360611355565b3d91506113e0565b50565b916040519360605260405260601b602c526323b872dd60601b600c5260205f6064601c82855af1908160015f5114161561144a575b50505f606052604052565b3b153d17101561145b575f8061143f565b637939f4245f526004601cfd5b9190926114978230857f000000000000000000000000000000000000000000000000000000000000000061140a565b6805345cdf77eb68f44c80549082820191821061151657556387a211a2600c52835f526020600c20818154019055602052600c5160601c5f5f805160206116b0833981519152602080a35f5260018060a01b0391821691167fdcbc1c05240f31ff3ad067ef1ee35ce4997762752e3a095284754544f4c709d760405fa3565b63e5cfe9575f526004601cfd5b90936001600160a01b03939192918483168585168190036115f0575b6387a211a2600c52835f526020600c20908154918285116115e357845f930390556805345cdf77eb68f44c8481540390558382525f805160206116b0833981519152602083a36115b081877f0000000000000000000000000000000000000000000000000000000000000000611600565b5f52602052821692821691167ffbde797d201c681b91056529119e0b02407c7bb96a4a2c75c01fc9667232c8db60405fa4565b63f4d678b85f526004601cfd5b6115fb838686611651565b61153f565b919060145260345263a9059cbb60601b5f5260205f6044601082855af1908160015f51141615611633575b50505f603452565b3b153d171015611644575f8061162b565b6390b8ec185f526004601cfd5b906001600160a01b0381166e22d473030f116ddee9f6b43ac78ba3146116aa57602052637f5e9f20600c525f526034600c20908154801961169157505050565b80821161169d57039055565b6313be252b5f526004601cfd5b50505056feddf252ad1be2c89b69c2b068fc378daa952ba7f163c4a11628f55a4df523b3efa26469706673582212208d46344e8bab32c6935e3be12ab5c3a9c64cda395932d7e0b57f1ee939f16e2164736f6c63430008180033","linkReferences":{}},"methodIdentifiers":{"BASE_RATE()":"41910f90","DOMAIN_SEPARATOR()":"3644e515","KINK()":"a35cc828","RATE_SLOPE()":"5fc1419d","accrueInterest()":"a6afed95","allowance(address,address)":"dd62ed3e","approve(address,uint256)":"095ea7b3","asset()":"38d52e0f","authorize(address)":"b6a5d7de","authorized(address)":"b9181611","balanceOf(address)":"70a08231","borrow(uint256)":"c5ebeaec","borrowIndex()":"aa5af0fd","borrowRate()":"c914b437","convertToAssets(uint256)":"07a2d13a","convertToShares(uint256)":"c6e6f592","decimals()":"313ce567","deposit(uint256,address)":"6e553f65","factory()":"c45a0155","lastAccrueTime()":"9ffe7973","maxDeposit(address)":"402d267d","maxMint(address)":"c63d75b6","maxRedeem(address)":"d905777e","maxWithdraw(address)":"ce96cb77","mint(uint256,address)":"94bf804d","name()":"06fdde03","nonces(address)":"7ecebe00","permit(address,address,uint256,uint256,uint8,bytes32,bytes32)":"d505accf","previewDeposit(uint256)":"ef8b30f7","previewMint(uint256)":"b3d7f6b9","previewRedeem(uint256)":"4cdad506","previewWithdraw(uint256)":"0a28a477","redeem(uint256,address,address)":"ba087652","repay(uint256)":"371fd8e6","symbol()":"95d89b41","totalAssets()":"01e1d114","totalBorrows()":"47bd3718","totalSupply()":"18160ddd","transfer(address,uint256)":"a9059cbb","transferFrom(address,address,uint256)":"23b872dd","withdraw(uint256,address,address)":"b460af94"},"id":27}