{"abi":[{"type":"function","name":"deployVaults","inputs":[{"name":"collateralToken","type":"address","internalType":"address"},{"name":"lendingAsset","type":"address","internalType":"address"},{"name":"pair","type":"address","internalType":"address"}],"outputs":[{"name":"collateralVault","type":"address","internalType":"address"},{"name":"lenderVault","type":"address","internalType":"address"}],"stateMutability":"nonpayable"},{"type":"event","name":"VaultsDeployed","inputs":[{"name":"collateralToken","type":"address","indexed":true,"internalType":"address"},{"name":"lendingAsset","type":"address","indexed":true,"internalType":"address"},{"name":"pair","type":"address","indexed":true,"internalType":"address"},{"name":"collateralVault","type":"address","indexed":false,"internalType":"address"},{"name":"lenderVault","type":"address","indexed":false,"internalType":"address"}],"anonymous":false}],"bytecode":{"object":"0x608080604052346100165761366e908161001b8239f35b5f80fdfe6080604081815260049182361015610015575f80fd5b5f3560e01c636a1d489214610028575f80fd5b346101ac5760603660031901126101ac576001600160a01b03918335838116908190036101ac576024358481168091036101ac57604435918583168093036101ac576118529485810167ffffffffffffffff96828210888311176101d75786918391611de783398581525f60208201520301905ff080156101cd578616958451611bfc80820190828210898311176101ba5760609183916101eb83398581528760208201528a898201520301905ff080156101b0571694863b156101ac578451635b52ebef60e11b8152888101879052905f82602481838c5af180156101a257610179575b505083516001600160a01b03868116825287166020820152959650939461017594907f030f137a392b508916ac26fcadc8f28935ea5587f0e18649c5228e1b7a27663990604090a4516001600160a01b03928316815292909116602083015281906040820190565b0390f35b811161018f57845294955085946101755f61010d565b604188634e487b7160e01b5f525260245ffd5b86513d5f823e3d90fd5b5f80fd5b85513d5f823e3d90fd5b60418b634e487b7160e01b5f525260245ffd5b84513d5f823e3d90fd5b60418a634e487b7160e01b5f525260245ffdfe60e034620000fa57601f62001bfc38819003918201601f19168301916001600160401b03831184841017620000fe57808492606094604052833981010312620000fa576200004d8162000112565b906200006a6040620000626020840162000112565b920162000112565b9160805260a05260c052604051611ad490816200012882396080518181816106860152818161085c01528181610b4d01526110ad015260a051818181610219015281816108a001528181611087015261188e015260c0518181816101b9015281816106160152818161093e01528181610abe01528181610c5001528181610f60015281816116bb015261184e0152f35b5f80fd5b634e487b7160e01b5f52604160045260245ffd5b51906001600160a01b0382168203620000fa5756fe6080604081815260049182361015610015575f80fd5b5f925f3560e01c91826306876d19146116a9575081630cd865ec14610f1d57816329bc969d14610ee4578163371fd8e614610c155781636112fe2e14610a8c5781639ee2735b146108cf578163a8aa1b311461088b578163b2016bd414610847578163b2aaa1541461072e578163bad4a01f146105e6578163bafca75e146105a9578163c1a287e21461058b578163c5ebeaec14610181578163c877bf2b14610138578163d40e8f4a146100f0575063d698eb76146100d2575f80fd5b346100ec57816003193601126100ec576020905160648152f35b5080fd5b90503461013457602036600319011261013457356001600160a01b038116908190036101345791819281526001602052206001815491015482519182526020820152f35b8280fd5b90503461013457602036600319011261013457356001600160a01b0381169081900361013457918192815260026020522060ff6001825492015416825191825215156020820152f35b90503461013457602091826003193601126105875781359268929eee149b4bd21268933085541461057b573085556001600160a01b037f000000000000000000000000000000000000000000000000000000000000000081169490853b1561057757845163a6afed9560e01b8152889081818581838c5af1801561046a57610563575b5050845163114a83a360e11b815295848784817f000000000000000000000000000000000000000000000000000000000000000086165afa96871561055957899761052a575b503389528885528589205487810297670de0b6b3a7640000918291818b0414901517021561051e57338a5260018652868a2090600188519261028b84611712565b805484520154878301908152885163aa5af0fd60e01b8152929088848881885afa938415610514578d946104e1575b505183816104d157505051985b046102d2868a611750565b11610499579089929160016102e7878b611750565b918951926102f484611712565b83528883019081523386528189528986209251835551910155600286525f60018885208281550155803b1561013457865163317afabb60e21b8152848101869052838160248183865af1801561048f5791879186959493610474575b5088516338d52e0f60e01b815295869182905afa93841561046a5792826103a89592889588959461043b575b50895163a9059cbb60e01b81523393810193845260208401959095529395869485939091849160400190565b0393165af1801561043157916103f2917fc491b8e6940cb48fcf9cf813c35e2d45fad221af7d5f4ce18d77dc576e5bf220959493610404575b503388528783528388205495611750565b9082519485528401523392a238905580f35b61042390843d861161042a575b61041b818361172e565b8101906117bb565b505f6103e1565b503d610411565b84513d89823e3d90fd5b61045c919450863d8811610463575b610454818361172e565b8101906117e0565b925f61037c565b503d61044a565b87513d84823e3d90fd5b6104829195508492506116ea565b6100ec578584935f610350565b88513d86823e3d90fd5b865162461bcd60e51b81528085018790526012602482015271455843454544535f504d494e5f56414c554560701b6044820152606490fd5b6104db9251611a37565b986102c7565b9093508881813d831161050d575b6104f9818361172e565b810103126105095751925f6102ba565b5f80fd5b503d6104ef565b8a513d8f823e3d90fd5b8363ad251c278b52601cfd5b9096508481813d8311610552575b610542818361172e565b810103126105095751955f61024a565b503d610538565b86513d8b823e3d90fd5b61056c906116ea565b61057757875f610204565b8780fd5b8363ab143c068752601cfd5b8380fd5b5050346100ec57816003193601126100ec57602090516203f4808152f35b9050346101345760203660031901126101345735916001600160a01b03831683036105e357506105da6020926117ff565b90519015158152f35b80fd5b919050346101345760203660031901126101345781359068929eee149b4bd21268923084541461072357308455847f00000000000000000000000000000000000000000000000000000000000000006001600160a01b0316803b156100ec578180918486518094819363a6afed9560e01b83525af1801561071957610701575b50508151606084815230845233901b602c526323b872dd60601b600c52907f00000000000000000000000000000000000000000000000000000000000000006020876064601c82855af19081600189511416156106e5575b505050906106dd91856060528152338552846020528420918254611750565b905538905580f35b3b153d1710156106f65780806106be565b637939f4248652601cfd5b61070a906116ea565b61071557845f610666565b8480fd5b84513d84823e3d90fd5b63ab143c068552601cfd5b9190503461013457602090816003193601126105875782356001600160a01b038116939084810361084357610762906117ff565b61080f578385526002835260ff60018387200154166107dd575090817f8f17989de614b609a275ea9f16bd81d93bcc76f661c680aae38bebb3f59d27e892516107aa81611712565b4281526001838201918183528688526002855283882090518155019051151560ff8019835416911617905551428152a280f35b82606492519162461bcd60e51b8352820152600e60248201526d1053149150511657d3505492d15160921b6044820152fd5b82606492519162461bcd60e51b8352820152601060248201526f504f534954494f4e5f4845414c54485960801b6044820152fd5b8580fd5b5050346100ec57816003193601126100ec57517f00000000000000000000000000000000000000000000000000000000000000006001600160a01b03168152602090f35b5050346100ec57816003193601126100ec57517f00000000000000000000000000000000000000000000000000000000000000006001600160a01b03168152602090f35b8284346105e357602090816003193601126105e3576001600160a01b0392843584811690818103610587578394828552848152878486205497600183528587209083600188519361091f85611712565b8054855201549181840192835288519485809263aa5af0fd60e01b82527f0000000000000000000000000000000000000000000000000000000000000000165afa908115610a82578891610a51575b5161098393509081610a4157505051926117ff565b9285526002815283852094845161099981611712565b60ff600188549889845201541615158097818584015281610a17575b506109db575b505060a09750835196875286015215159084015260608301526080820152f35b519196506203f4808201918210610a04575060a097506109fc9042906117d3565b9488806109bb565b634e487b7160e01b815260118952602490fd5b90506203f4808101809111610a2e5742108b6109b5565b634e487b7160e01b835260118b52602483fd5b610a4b9251611a37565b926117ff565b90508383813d8311610a7b575b610a68818361172e565b810103126105095761098392519061096e565b503d610a5e565b87513d8a823e3d90fd5b9190503461013457602090816003193601126105875782359168929eee149b4bd212689330855414610c0a57308555857f00000000000000000000000000000000000000000000000000000000000000006001600160a01b0316803b156100ec578180918487518094819363a6afed9560e01b83525af18015610c0057610bec575b50503386526001825282862054610bb857338652858252838387205410610b7757509084610b719392338252528420610b488282546117d3565b9055337f0000000000000000000000000000000000000000000000000000000000000000611a4d565b38905580f35b915162461bcd60e51b815291820152601760248201527f494e53554646494349454e545f434f4c4c41544552414c0000000000000000006044820152606490fd5b915162461bcd60e51b815291820152601060248201526f13d55514d5105391125391d7d111509560821b6044820152606490fd5b610bf5906116ea565b61084357855f610b0e565b85513d84823e3d90fd5b63ab143c068652601cfd5b90503461013457602091826003193601126105875781359268929eee149b4bd21268933085541461057b573085556001600160a01b039386917f000000000000000000000000000000000000000000000000000000000000000086169190823b1561058757855163a6afed9560e01b81528481848183885af18015610eda57908591610ec6575b505033845260018086528685209181885193610cb785611712565b805485520154878401908152885163aa5af0fd60e01b81529390888587818a5afa948515610e74578895610e94575b50518481610e8457505051905b81811115610e7e575080985b88516338d52e0f60e01b8152888187818a5afa908115610e74579089918991610e57575b5060648c8a8d5195869485936323b872dd60e01b8552338d8601523060248601526044850152165af18015610e4d57908a9291610e30575b50818103610dfb5750505f9150338552808652818188872082815501553385526002865286852082815501555b813b156101345785602484928388519586948593631b8fec7360e11b85528401525af1801561071957610de7575b50507fa9e0cdf27a7965d21573ebb808fbcb2c2a1cfd656e1ecf3f82549437b474067791519283523392a238905580f35b610df0906116ea565b61071557845f610db6565b90610e05916117d3565b91875192610e1284611712565b83528683019081523386528187528786209251835551910155610d88565b610e4690893d8b1161042a5761041b818361172e565b505f610d5b565b89513d89823e3d90fd5b610e6e9150823d841161046357610454818361172e565b5f610d23565b8a513d8a823e3d90fd5b98610cff565b610e8e9251611a37565b90610cf3565b975093508787813d8111610ebf575b610ead818361172e565b81010312610509578b9651935f610ce6565b503d610ea3565b610ecf906116ea565b61058757835f610c9c565b87513d87823e3d90fd5b90503461013457602036600319011261013457356001600160a01b03811690819003610134578282916020945280845220549051908152f35b9190503461050957602080600319360112610509576001600160a01b03833581811693908490036105095768929eee149b4bd21268943086541461169e573086557f00000000000000000000000000000000000000000000000000000000000000009383851691823b1561050957835163a6afed9560e01b81525f81838183885af1801561169457611681575b5086895260028252838920948451610fc181611712565b8654815260ff600180980154161580158583015261164d57516203f480810180911161163a57421061160257878a52858352848a208686519161100383611712565b805483520154848201908152865163aa5af0fd60e01b815290858286818a5afa9182156115f8578d926115c9575b505190816115b957505051965b888b528a8452858b2054978815978815806115b0575b1561157a57905f8d928c845280885281818b862082815501558c8452838852838a812055600288528984208281550155837f00000000000000000000000000000000000000000000000000000000000000006110d18c827f0000000000000000000000000000000000000000000000000000000000000000611a4d565b16885199630240bc6b60e21b8b5260608b8881855afa801561157057849b859161153a575b508a5163057078af60e51b81529b898d8a81875afa9c8d1561153057869d611506575b508c916001600160701b039183156114fd57828116935b156114f4575016915b8b51634bafc7a360e11b81528a818b81885afa9687156114e957966114ba575b506127109586038681116114a4578e918188928402938404141702156114965785900490828202928284041482151715611481579061119791611750565b90811561146d5704998e91901561141757803b156100ec578180606489828f958f5196879586946336cd320560e11b865285015260248401523060448401525af1801561140d576113f5575b50505b8089119889156113ed578d82985b8a516338d52e0f60e01b81529689888a81855afa9788156113b4578a918a8e8e93879c6113be575b505163095ea7b360e01b81526001600160a01b038b1691810191825260208201939093529192918391908290879082906040015b03928d165af180156113b457611397575b50803b156100ec57818a60248a838f519586948593631b8fec7360e11b85528401525af1801561138d57611375575b50996112d4575b8d8d8d7f03fc2d4f2e2e4e84069307a4d3a9b7ad25d93e2026627031a87b54a1c61907ce60608f8f8f8f8f8251948552840152820152a238905580f35b6112e29293949599506117d3565b9660648802908260648a8404148a1517021561136a5750916113356060989694927f03fc2d4f2e2e4e84069307a4d3a9b7ad25d93e2026627031a87b54a1c61907ce9a9896940480978161135a576117d3565b9081611349575b8395979985979950611297565b61135292611a4d565b5f808061133c565b611365823387611a4d565b6117d3565b63ad251c278d52601cfd5b61137e906116ea565b611389578d5f611290565b8d80fd5b8b513d84823e3d90fd5b6113ad908a3d8c1161042a5761041b818361172e565b505f611261565b8c513d85823e3d90fd5b8b919c50859493926113e08992611250983d891161046357610454818361172e565b9d9250929394955061121c565b8d81986111f4565b6113fe906116ea565b611409578c5f6111e3565b8c80fd5b8a513d84823e3d90fd5b803b156100ec5781809160648d8d5194859384926336cd320560e11b84528d8401528160248401523060448401525af1801561140d57611459575b50506111e6565b611462906116ea565b611409578c5f611452565b50634e487b7160e01b8f526012875260248ffd5b5050634e487b7160e01b8f526011875260248ffd5b508f63ad251c27899152601cfd5b50505060248f601189634e487b7160e01b835252fd5b9095508981813d83116114e2575b6114d2818361172e565b810103126105095751945f611159565b503d6114c8565b8d51903d90823e3d90fd5b90501691611139565b82821693611130565b6001600160701b0391929d50611528908b3d8d1161042a5761041b818361172e565b9c9190611119565b8c513d88823e3d90fd5b905061155f919b5060603d606011611569575b611557818361172e565b810190611785565b509a909a5f6110f6565b503d61154d565b8a513d86823e3d90fd5b875162461bcd60e51b8152808601879052601060248201526f24a72b20a624a22fa827a9a4aa24a7a760811b6044820152606490fd5b50811515611054565b6115c39251611a37565b9661103e565b9091508581813d83116115f1575b6115e1818361172e565b810103126105095751905f611031565b503d6115d7565b88513d8f823e3d90fd5b5060649184519162461bcd60e51b8352820152601360248201527247524143455f504552494f445f41435449564560681b6044820152fd5b634e487b7160e01b8b526011835260248bfd5b855162461bcd60e51b8152808401859052600e60248201526d4e4f545f4d41524b45445f4f544d60901b6044820152606490fd5b61168c9199506116ea565b5f975f610faa565b85513d5f823e3d90fd5b63ab143c065f52601cfd5b34610509575f366003190112610509577f00000000000000000000000000000000000000000000000000000000000000006001600160a01b03168152602090f35b67ffffffffffffffff81116116fe57604052565b634e487b7160e01b5f52604160045260245ffd5b6040810190811067ffffffffffffffff8211176116fe57604052565b90601f8019910116810190811067ffffffffffffffff8211176116fe57604052565b9190820180921161175d57565b634e487b7160e01b5f52601160045260245ffd5b51906001600160701b038216820361050957565b908160609103126105095761179981611771565b9160406117a860208401611771565b92015163ffffffff811681036105095790565b90816020910312610509575180151581036105095790565b9190820391821161175d57565b9081602091031261050957516001600160a01b03811681036105095790565b60018060a01b03809116805f52602090600182526040805f2081519061182482611712565b600181549182845201549085830191825215611a2c57825163aa5af0fd60e01b81529085826004817f00000000000000000000000000000000000000000000000000000000000000008b165afa918215611a22575f926119f3575b505190816119e357505051935b7f0000000000000000000000000000000000000000000000000000000000000000168151630240bc6b60e21b8152606081600481855afa9182156119b157908560049493925f925f946119bb575b50845163057078af60e51b815295869182905afa9384156119b1575f94611987575b506001600160701b039190841561197e57828116945b156119765750165b821561196c57670de0b6b3a76400009483868302928781850414901517021561195f5785935f9204948252525f20548281029281840414901517021561195f57041190565b63ad251c275f526004601cfd5b5050505050505f90565b90501661191a565b82821694611912565b6001600160701b03929194506119a990873d891161042a5761041b818361172e565b9390916118fc565b83513d5f823e3d90fd5b9093506119d891925060603d60601161156957611557818361172e565b50919091925f6118da565b6119ed9251611a37565b9361188c565b9091508581813d8311611a1b575b611a0b818361172e565b810103126105095751905f61187f565b503d611a01565b84513d5f823e3d90fd5b505050505050600190565b818102918115918304141782021561195f570490565b919060145260345263a9059cbb60601b5f5260205f6044601082855af1908160015f51141615611a80575b50505f603452565b3b153d171015611a91575f80611a78565b6390b8ec185f526004601cfdfea2646970667358221220b45bfd34ebfadbe72b546563e9e86d3f9beb60f305cbf2b97242e2ee14c7780264736f6c6343000818003360c0346100ff57601f6200185238819003918201601f19168301916001600160401b038311848410176101035780849260409485528339810103126100ff57610053602061004c83610117565b9201610117565b670de0b6b3a76400006002556080919091523360a0526001600160a01b0316806100e4575b4260035560405161172690816200012c82396080518181816102cd0152818161051d0152818161084201528181610a1d01528181610a9701528181610aea01528181610d6a01528181610f0f015281816114280152611541015260a051818181610593015261067a0152f35b5f525f60205260405f20600160ff198254161790555f610078565b5f80fd5b634e487b7160e01b5f52604160045260245ffd5b51906001600160a01b03821682036100ff5756fe60406080815260049081361015610014575f80fd5b5f3560e01c806301e1d11414610d9957806306fdde0314610d5057806307a2d13a146109ac578063095ea7b314610cb75780630a28a47714610c9957806318160ddd14610c7357806323b872dd14610b92578063313ce56714610b775780633644e51514610acf578063371fd8e614610a4c57806338d52e0f14610a09578063402d267d146104b457806341910f90146109e857806347bd3718146109ca5780634cdad506146109ac5780635fc1419d1461098b5780636e553f651461095857806370a08231146102345780637ecebe001461092557806394bf804d146108f257806395d89b411461081c5780639ffe7973146107fe578063a35cc828146107dc578063a6afed95146107c4578063a9059cbb1461074c578063aa5af0fd1461072e578063b3d7f6b914610710578063b460af94146106b9578063b6a5d7de14610651578063b918161114610616578063ba087652146105c2578063c45a01551461057f578063c5ebeaec146104b9578063c63d75b6146104b4578063c6e6f59214610496578063c914b4371461047a578063ce96cb7714610446578063d505accf14610267578063d905777e14610234578063dd62ed3e146102075763ef8b30f7146101df575f80fd5b34610203576020366003190112610203576101fc60209235611062565b9051908152f35b5f80fd5b50346102035780600319360112610203576020906101fc610226610e02565b61022e610e18565b90611151565b503461020357602036600319011261020357602090610251610e02565b6387a211a2600c525f5281600c20549051908152f35b50346102035760e036600319011261020357610281610e02565b9061028a610e18565b9060443592606435936084359260ff84168403610203576001600160a01b03948516956e22d473030f116ddee9f6b43ac78ba38718831915171561043a576102f17f00000000000000000000000000000000000000000000000000000000000000006111f7565b9485516020809701209082421161042e5760c0978451961697889665383775081901600e52875f5288600c2094855480957f8b73c3c69bb8fe3d512ecc4cf759cc79239f7b179b0ffacaa9a75d522b39400f84528b84019081528d8985017fc89efdaa54c0f20c7adf612882df0950f5a951637e0307cdcb4c672f298b8bc68152606086019c8d469052608087019330855260a08820602e527f6e71edae12b1b97f4d1f60370fef10105fa2faae0126114a169c64845d6126c988525252898b525260a082015220604e526042602c205f5260ff16865260a435835260c435606052858060805f60015afa90873d5103610422577f8c5be1e5ebec7d5bd14f71427d1e84f3dd0314c0f7b2291e5b200ac8c7c3b92597989950019055866303faf4f960a51b1790526034602c2055a3005b8963ddafbaef5f52601cfd5b89631a15a3cc5f52601cfd5b87633f68539a5f52601cfd5b503461020357602036600319011261020357602090610463610e02565b6387a211a2600c525f526101fc82600c2054610f96565b5034610203575f366003190112610203576020906101fc61108e565b5034610203576020366003190112610203576101fc60209235611062565b610e2e565b50903461020357602036600319011261020357803590335f525f6020526104e560ff845f205416610fee565b6104ed61132f565b6104f5610ef4565b92600154936105048486610ee7565b1161054357610541836105178187610ee7565b600155337f00000000000000000000000000000000000000000000000000000000000000006115b5565b005b906020606492519162461bcd60e51b83528201526016602482015275494e53554646494349454e545f4c495155494449545960501b6044820152fd5b5034610203575f36600319011261020357517f00000000000000000000000000000000000000000000000000000000000000006001600160a01b03168152602090f35b5034610203576105d136610e53565b9291936387a211a2600c52835f526020600c2054851161060b575083610605916105fc602096610f96565b948591336114d8565b51908152f35b634656425a5f52601cfd5b5034610203576020366003190112610203576020906001600160a01b0361063b610e02565b165f525f825260ff815f20541690519015158152f35b50346102035760203660031901126102035761066b610e02565b6001600160a01b03906106a1337f0000000000000000000000000000000000000000000000000000000000000000841614610fee565b165f908152602081905220805460ff19166001179055005b5034610203576106c836610e53565b929190936387a211a2600c52835f526106e56020600c2054610f96565b82116107055750602093816106fc61060593610fc2565b948592336114d8565b63936941fc5f52601cfd5b5034610203576020366003190112610203576101fc60209235611036565b5034610203575f366003190112610203576020906002549051908152f35b5034610203578060031936011261020357610765610e02565b602435906387a211a2600c52335f5260209384600c20908154908185116107b9575083900390555f5282600c208181540190558252600c5160601c335f805160206116d18339815191528480a35160018152f35b63f4d678b85f52601cfd5b34610203575f3660031901126102035761054161132f565b5034610203575f3660031901126102035760209051670b1a2bc2ec5000008152f35b5034610203575f366003190112610203576020906003549051908152f35b509034610203575f3660031901126102035781516395d89b4160e01b8152905f908290817f00000000000000000000000000000000000000000000000000000000000000006001600160a01b03165afa9081156108e857916108c0925f926108c4575b506108b6602182518094606f60f81b60208301526108a68151809260208686019101610db5565b8101036001810185520183610e88565b5191829182610dd6565b0390f35b6108e19192503d805f833e6108d98183610e88565b81019061118e565b905f61087f565b82513d5f823e3d90fd5b50346102035780600319360112610203576020913590610605610913610e18565b9261091d81611036565b80943361141d565b503461020357602036600319011261020357602090610942610e02565b6338377508600c525f5281600c20549051908152f35b50346102035780600319360112610203576020913590610605610979610e18565b61098284611062565b9384913361141d565b5034610203575f366003190112610203576020905166b1a2bc2ec500008152f35b5034610203576020366003190112610203576101fc60209235610f96565b5034610203575f366003190112610203576020906001549051908152f35b5034610203575f366003190112610203576020905166470de4df8200008152f35b5034610203575f36600319011261020357517f00000000000000000000000000000000000000000000000000000000000000006001600160a01b03168152602090f35b503461020357602036600319011261020357610a7960ff610ac3933592335f525f6020525f205416610fee565b610a8161132f565b6001549081811115610ac857505b610abb8130337f00000000000000000000000000000000000000000000000000000000000000006113bf565b600154611029565b600155005b9050610a8f565b5034610203575f3660031901126102035760209060a0610b0e7f00000000000000000000000000000000000000000000000000000000000000006111f7565b8381519101208251907f8b73c3c69bb8fe3d512ecc4cf759cc79239f7b179b0ffacaa9a75d522b39400f8252848201527fc89efdaa54c0f20c7adf612882df0950f5a951637e0307cdcb4c672f298b8bc683820152466060820152306080820152209051908152f35b5034610203575f366003190112610203576020905160128152f35b503461020357606036600319011261020357610bac610e02565b610bb4610e18565b604435908260601b6e22d473030f116ddee9f6b43ac78ba33303610c2a575b6387a211a217600c5260209485600c20908154908185116107b9575083900390555f52600c8481208054830190559084525160601c906001600160a01b03165f805160206116d18339815191528480a35160018152f35b33602052637f5e9f208117600c526034600c20908154918219610c50575b509050610bd3565b828511610c6757846387a211a2930390555f610c48565b876313be252b5f52601cfd5b5034610203575f366003190112610203576020906805345cdf77eb68f44c549051908152f35b5034610203576020366003190112610203576101fc60209235610fc2565b5034610203578060031936011261020357610cd0610e02565b602435906001600160a01b0381166e22d473030f116ddee9f6b43ac78ba3188219151715610d4457602080945052637f5e9f20600c52335f52806034600c20555f52602c5160601c337f8c5be1e5ebec7d5bd14f71427d1e84f3dd0314c0f7b2291e5b200ac8c7c3b925845fa35160018152f35b83633f68539a5f52601cfd5b5034610203575f366003190112610203576108c090610d8e7f00000000000000000000000000000000000000000000000000000000000000006111f7565b905191829182610dd6565b5034610203575f366003190112610203576020906101fc610ef4565b5f5b838110610dc65750505f910152565b8181015183820152602001610db7565b60409160208252610df68151809281602086015260208686019101610db5565b601f01601f1916010190565b600435906001600160a01b038216820361020357565b602435906001600160a01b038216820361020357565b3461020357602036600319011261020357610e47610e02565b5060206040515f198152f35b606090600319011261020357600435906001600160a01b03906024358281168103610203579160443590811681036102035790565b90601f8019910116810190811067ffffffffffffffff821117610eaa57604052565b634e487b7160e01b5f52604160045260245ffd5b9066f8b0a10e470000918201809211610ed357565b634e487b7160e01b5f52601160045260245ffd5b91908201809211610ed357565b6040516370a0823160e01b81523060048201526020816024817f00000000000000000000000000000000000000000000000000000000000000006001600160a01b03165afa8015610f8b575f90610f57575b610f54915060015490610ee7565b90565b506020813d602011610f83575b81610f7160209383610e88565b8101031261020357610f549051610f46565b3d9150610f64565b6040513d5f823e3d90fd5b610f9e610ef4565b9060018201809211610ed357610f549160016805345cdf77eb68f44c54019161127e565b6805345cdf77eb68f44c549060018201809211610ed357610f54916001610fe7610ef4565b019161130c565b15610ff557565b60405162461bcd60e51b815260206004820152600c60248201526b15539055551213d49256915160a21b6044820152606490fd5b91908203918211610ed357565b61103e610ef4565b9060018201809211610ed357610f549160016805345cdf77eb68f44c54019161130c565b6805345cdf77eb68f44c549060018201809211610ed357610f54916001611087610ef4565b019161127e565b611096610ef4565b80156111455760015490670de0b6b3a7640000918183820291848184041490151702156110ff570490670b1a2bc2ec500000821161110c578066b1a2bc2ec5000092838102938185041490151702156110ff5766470de4df82000091048101809111610ed35790565b63ad251c275f526004601cfd5b670b1a2bc2ec4fffff198201918211610ed35780670214e8348c4f000092838102938185041490151702156110ff57610f549104610ebe565b5066470de4df82000090565b906001600160a01b0381166e22d473030f116ddee9f6b43ac78ba31461118757602052637f5e9f20600c525f526034600c205490565b50505f1990565b60208183031261020357805167ffffffffffffffff9182821161020357019082601f83011215610203578151908111610eaa57604051926111d9601f8301601f191660200185610e88565b8184526020828401011161020357610f549160208085019101610db5565b6040516306fdde0360e01b8152905f90829060049082906001600160a01b03165afa908115610f8b575f91611264575b50610f546026604051809365027b9b4ba37960d51b60208301526112548151809260208686019101610db5565b8101036006810184520182610e88565b61127891503d805f833e6108d98183610e88565b5f611227565b81810292918115828504821417830215611299575050900490565b82905f1981840985811086019003920990825f03831692818111156112ff578390046002816003028118808302820302808302820302808302820302808302820302808302820302809202900302936001848483030494805f0304019211900302170290565b63ae47f7025f526004601cfd5b92919061131a82828661127e565b930961132257565b906001019081156112ff57565b6003548042146113bc5761134b611344611606565b9142611029565b6301e133809180820291811591830414178202156110ff5704600154818102670de0b6b3a76400009182848284041482151702156110ff578261138f920490610ee7565b6001556002549080838302938385041483151702156110ff576113b3920490610ee7565b60025542600355565b50565b916040519360605260405260601b602c526323b872dd60601b600c5260205f6064601c82855af1908160015f511416156113ff575b50505f606052604052565b3b153d171015611410575f806113f4565b637939f4245f526004601cfd5b91909261144c8230857f00000000000000000000000000000000000000000000000000000000000000006113bf565b6805345cdf77eb68f44c8054908282019182106114cb57556387a211a2600c52835f526020600c20818154019055602052600c5160601c5f5f805160206116d1833981519152602080a35f5260018060a01b0391821691167fdcbc1c05240f31ff3ad067ef1ee35ce4997762752e3a095284754544f4c709d760405fa3565b63e5cfe9575f526004601cfd5b90936001600160a01b03939192918483168585168190036115a5575b6387a211a2600c52835f526020600c209081549182851161159857845f930390556805345cdf77eb68f44c8481540390558382525f805160206116d1833981519152602083a361156581877f00000000000000000000000000000000000000000000000000000000000000006115b5565b5f52602052821692821691167ffbde797d201c681b91056529119e0b02407c7bb96a4a2c75c01fc9667232c8db60405fa4565b63f4d678b85f526004601cfd5b6115b0838686611672565b6114f4565b919060145260345263a9059cbb60601b5f5260205f6044601082855af1908160015f511416156115e8575b50505f603452565b3b153d1710156115f9575f806115e0565b6390b8ec185f526004601cfd5b600154801561114557611617610ef4565b670de0b6b3a76400009181838083029283041402156110ff570490670b1a2bc2ec500000821161110c578066b1a2bc2ec5000092838102938185041490151702156110ff5766470de4df82000091048101809111610ed35790565b906001600160a01b0381166e22d473030f116ddee9f6b43ac78ba3146116cb57602052637f5e9f20600c525f526034600c2090815480196116b257505050565b8082116116be57039055565b6313be252b5f526004601cfd5b50505056feddf252ad1be2c89b69c2b068fc378daa952ba7f163c4a11628f55a4df523b3efa26469706673582212201877e03a4dfdbf1f0a568566c68ff97930112a58cb8dd463fa93da05de7e773764736f6c63430008180033a264697066735822122070f160bcc71932bc3db107e389227b1a7633a783a4c711c7dde64235b63869ab64736f6c63430008180033","linkReferences":{}},"methodIdentifiers":{"deployVaults(address,address,address)":"6a1d4892"},"id":30}