{"abi":[{"type":"constructor","inputs":[{"name":"lendingAsset","type":"address","internalType":"address"},{"name":"_treasury","type":"address","internalType":"address"}],"stateMutability":"nonpayable"},{"type":"function","name":"allMarkets","inputs":[{"name":"","type":"uint256","internalType":"uint256"}],"outputs":[{"name":"","type":"address","internalType":"address"}],"stateMutability":"view"},{"type":"function","name":"allMarketsLength","inputs":[],"outputs":[{"name":"","type":"uint256","internalType":"uint256"}],"stateMutability":"view"},{"type":"function","name":"collateralVaults","inputs":[{"name":"","type":"address","internalType":"address"}],"outputs":[{"name":"","type":"address","internalType":"address"}],"stateMutability":"view"},{"type":"function","name":"createLendingMarket","inputs":[{"name":"pair","type":"address","internalType":"address"}],"outputs":[{"name":"collateralVault","type":"address","internalType":"address"}],"stateMutability":"nonpayable"},{"type":"function","name":"lenderVault","inputs":[],"outputs":[{"name":"","type":"address","internalType":"address"}],"stateMutability":"view"},{"type":"function","name":"treasury","inputs":[],"outputs":[{"name":"","type":"address","internalType":"address"}],"stateMutability":"view"},{"type":"event","name":"MarketCreated","inputs":[{"name":"pair","type":"address","indexed":true,"internalType":"address"},{"name":"lenderVault","type":"address","indexed":false,"internalType":"address"},{"name":"collateralVault","type":"address","indexed":false,"internalType":"address"},{"name":"marketIndex","type":"uint256","indexed":false,"internalType":"uint256"}],"anonymous":false},{"type":"error","name":"MarketExists","inputs":[]}],"bytecode":{"object":"0x60c0346100e857613d50906001600160401b03601f38849003908101601f1916830190828211848310176100d457808491604096879485528339810103126100e857610056602061004f846100ec565b93016100ec565b918260a0528351916118f89081840190848210908211176100d457606092849261245884396001600160a01b039081168252306020830152948516868201520301905ff080156100ca571660805251612357908161010182396080518181816101420152610453015260a051816103960152f35b82513d5f823e3d90fd5b634e487b7160e01b5f52604160045260245ffd5b5f80fd5b51906001600160a01b03821682036100e85756fe6080604081815260049081361015610015575f80fd5b5f925f3560e01c90816306876d19146104415750806352d84d1e14610401578063547e7b2f146103c557806361d027b31461038257806388dd46a114610364576399b0736e14610063575f80fd5b346102995760209283600319360112610299576001600160a01b0392803584811692919083900361029957825f525f865284845f205416610356578351630dfe168160e01b815286818381875afa90811561034c575f9161032f575b50845163d21220a760e01b815287818481885afa90811561029d575f91610302575b50855163057078af60e51b815288818581895afa9081156102f8575f916102c2575b50156102ba5750915b845195611e01968781019467ffffffffffffffff988287108a8811176102a75790839161052184391685528589860152606081837f00000000000000000000000000000000000000000000000000000000000000001696878a8201520301905ff0801561029d57811696843b15610299578651635b52ebef60e11b8152848101899052905f82602481838a5af1801561028f57610267575b505084825281885285822080546001600160a01b0319168817905560015468010000000000000000811015610254578060016101e39201600155610482565b819291549060031b9187831b921b1916179055600154915f1983019283116102415750507ffe7e33f239f268e882861cae62e631558d814973588d97738cc084b8b3489599916060918551918252868883015285820152a251908152f35b634e487b7160e01b825260119052602490fd5b634e487b7160e01b835260418452602483fd5b90809293501161027c5785525f905f806101a4565b604183634e487b7160e01b5f525260245ffd5b88513d5f823e3d90fd5b5f80fd5b86513d5f823e3d90fd5b604186634e487b7160e01b5f525260245ffd5b90509161010c565b90508881813d83116102f1575b6102d981836104cb565b8101031261029957518015158103610299575f610103565b503d6102cf565b87513d5f823e3d90fd5b6103229150883d8a11610328575b61031a81836104cb565b810190610501565b5f6100e1565b503d610310565b6103469150873d89116103285761031a81836104cb565b5f6100bf565b85513d5f823e3d90fd5b8351638fc6f59b60e01b8152fd5b5034610299575f366003190112610299576020906001549051908152f35b5034610299575f36600319011261029957517f00000000000000000000000000000000000000000000000000000000000000006001600160a01b03168152602090f35b50903461029957602036600319011261029957356001600160a01b038181169291839003610299576020925f525f8352815f2054169051908152f35b5090346102995760203660031901126102995735906001548210156102995761042b602092610482565b905491519160018060a01b039160031b1c168152f35b34610299575f366003190112610299577f00000000000000000000000000000000000000000000000000000000000000006001600160a01b03168152602090f35b6001548110156104b75760015f527fb10e2d527612073b26eecdfd717e6a320cf44b4afac2b0732d9fcbe2b7fa0cf601905f90565b634e487b7160e01b5f52603260045260245ffd5b90601f8019910116810190811067ffffffffffffffff8211176104ed57604052565b634e487b7160e01b5f52604160045260245ffd5b9081602091031261029957516001600160a01b0381168103610299579056fe60e0346200016357601f62001e0138819003918201601f19168301916001600160401b03831184841017620001675780849260609460405283398101031262000163576200004d816200017b565b906200006a604062000062602084016200017b565b92016200017b565b9160805260a05260c052604051611c7090816200019182396080518181816105c7015281816106f0015281816109b40152611105015260a0518181816101d9015281816107350152818161101501528181611066015281816110e40152818161116e015281816111c701528181611589015281816115e20152611a2a015260c05181818161017401528181610571015281816107e20152818161092101528181610aa601528181610ea901528181610eec01528181610f970152818161122101528181611271015281816112c20152818161130e0152818161142e01528181611479015281816114c40152818161184f01526119ea0152f35b5f80fd5b634e487b7160e01b5f52604160045260245ffd5b51906001600160a01b0382168203620001635756fe6080806040526004361015610012575f80fd5b5f905f3560e01c90816306876d191461183d575080630cd865ec14610e6c57806329bc969d14610e30578063371fd8e614610a6d5780636112fe2e146108f25780639ee2735b14610764578063a8aa1b311461071f578063b2016bd4146106da578063bad4a01f14610541578063bafca75e14610506578063c1a287e2146104e8578063c5ebeaec1461013d578063d40e8f4a146100d65763d698eb76146100b8575f80fd5b346100d357806003193601126100d357602060405160648152f35b80fd5b50346100d35760203660031901126100d3576004356001600160a01b0381169081900361013957906040918152600160205220805461013560026001840154930154604051938493846040919493926060820195825260208201520152565b0390f35b5080fd5b50346100d3576020806003193601126101395760043568929eee149b4bd2126891308354146104db573083556001600160a01b03917f0000000000000000000000000000000000000000000000000000000000000000831690813b156103e75760405163a6afed9560e01b81528690818160048183885af180156104d0576104bc575b5050826004946040519586809263114a83a360e11b82527f0000000000000000000000000000000000000000000000000000000000000000165afa9384156103c557869461048d575b50338652858352604086205484810294670de0b6b3a76400009182918188041490151702156104805733875260018452604087209060405161024a816118a6565b825481526002600184015493878301948552015460408201526040519263aa5af0fd60e01b84528684600481895afa938415610475578a94610442575b5051838161043257505051955b0461029f83876118e4565b116103f85760026102b083876118e4565b91604051926102be846118a6565b83528583019081526040830190428252338a526001875260408a209351845551600184015551910155813b156103e75760405163317afabb60e21b81526004810182905286808260248183885af19182156103eb5785926103d0575b50506040516338d52e0f60e01b815292839060049082905afa80156103c5578161035191610362948991610398575b503390611be9565b3386528583526040862054936118e4565b906040519283528201527fc491b8e6940cb48fcf9cf813c35e2d45fad221af7d5f4ce18d77dc576e5bf22060403392a238905580f35b6103b89150863d88116103be575b6103b081836118c2565b810190611967565b5f610349565b503d6103a6565b6040513d88823e3d90fd5b6103db91925061187e565b6103e75782865f61031a565b8580fd5b50604051903d90823e3d90fd5b60405162461bcd60e51b8152600481018590526012602482015271455843454544535f504d494e5f56414c554560701b6044820152606490fd5b61043c9251611bd3565b95610294565b9093508681813d831161046e575b61045a81836118c2565b8101031261046a5751925f610287565b5f80fd5b503d610450565b6040513d8c823e3d90fd5b63ad251c2787526004601cfd5b9093508281813d83116104b5575b6104a581836118c2565b8101031261046a5751925f610209565b503d61049b565b6104c59061187e565b6103e757855f6101c0565b6040513d84823e3d90fd5b63ab143c0684526004601cfd5b50346100d357806003193601126100d35760206040516203f4808152f35b50346100d35760203660031901126100d357600435906001600160a01b03821682036100d357602061053783611993565b6040519015158152f35b50346100d357602080600319360112610139576004359068929eee149b4bd2126891308354146104db57308355837f00000000000000000000000000000000000000000000000000000000000000006001600160a01b0316803b156101395781809160046040518094819363a6afed9560e01b83525af180156104d0576106c2575b50507f00000000000000000000000000000000000000000000000000000000000000006040519082606052306040523360601b602c526323b872dd60601b600c5283866064601c82855af19081600188511416156106a4575b50508460605260405233845283825261063a604085209182546118e4565b90553383526001815260408320604051610653816118a6565b604060028354938484526001810154868501520154910152151580610695575b61067f575b5038905580f35b600190338452524260026040842001555f610678565b5061069f33611993565b610673565b3b153d1710156106b5575f8061061c565b637939f42485526004601cfd5b6106cb9061187e565b6106d657835f6105c3565b8380fd5b50346100d357806003193601126100d3576040517f00000000000000000000000000000000000000000000000000000000000000006001600160a01b03168152602090f35b50346100d357806003193601126100d3576040517f00000000000000000000000000000000000000000000000000000000000000006001600160a01b03168152602090f35b50346100d357602080600319360112610139576004356001600160a01b03818116918281036108ee57849285528484526040852054936001815260408620926004604051946107b2866118a6565b80548652836002600183015492828901938452015493604088019485526040519384809263aa5af0fd60e01b82527f0000000000000000000000000000000000000000000000000000000000000000165afa9182156108e35789926108b4575b5051908161089f575050610827845193611993565b1580948195610894575b50610852575b50608095506040519485528401521560408301526060820152f35b516203f4808101809111610880576080965080421015610837576108799194504290611986565b925f610837565b634e487b7160e01b87526011600452602487fd5b90505115155f610831565b610827916108ae918751611bd3565b93611993565b9091508381813d83116108dc575b6108cc81836118c2565b8101031261046a5751905f610812565b503d6108c2565b6040513d8b823e3d90fd5b8480fd5b50346100d3576020806003193601126101395760043568929eee149b4bd2126891308354146104db57308355837f00000000000000000000000000000000000000000000000000000000000000006001600160a01b0316803b156101395781809160046040518094819363a6afed9560e01b83525af180156104d057610a59575b5050338452600181526040842054610a2257338452838152816040852054106109de5790836109d89233825252604084206109af828254611986565b9055337f0000000000000000000000000000000000000000000000000000000000000000611be9565b38905580f35b6064906040519062461bcd60e51b82526004820152601760248201527f494e53554646494349454e545f434f4c4c41544552414c0000000000000000006044820152fd5b6064906040519062461bcd60e51b82526004820152601060248201526f13d55514d5105391125391d7d111509560821b6044820152fd5b610a629061187e565b6106d657835f610973565b50346100d3576020806003193601126101395760043568929eee149b4bd2126891308354146104db573083556001600160a01b039184907f000000000000000000000000000000000000000000000000000000000000000084811691823b156106d65760405163a6afed9560e01b8152848160048183885af1908115610d29578591610e1c575b50503384526001958686526040852096604051610b10816118a6565b885481526002828a0154998983019a8b52015490604081019182526040519963aa5af0fd60e01b8b52898b6004818b5afa9a8b156108e357899b610de9575b50518a81610dd957505051935b84811115610dd3575083985b6040516338d52e0f60e01b808252958a826004818c5afa9182156104755786928d8d928d92610db1575b506064908d60405196879485936323b872dd60e01b85523360048601523060248601526044850152165af1918215610475578c92610d94575b50818103610d34575050505060025f9133885280895282604089209181835582015501555b6040519182528582600481875afa8015610d2957610c4a9386899389958294610d0a575b5060405163095ea7b360e01b81526001600160a01b03909316600484015260248301949094529094859384929183906044820190565b0393165af18015610cff57610cd2575b50803b1561013957818091602460405180948193631b8fec7360e11b83528960048401525af180156104d057610cbe575b50507fa9e0cdf27a7965d21573ebb808fbcb2c2a1cfd656e1ecf3f82549437b4740677906040519283523392a238905580f35b610cc79061187e565b6106d657835f610c8b565b610cf190843d8611610cf8575b610ce981836118c2565b81019061194f565b505f610c5a565b503d610cdf565b6040513d85823e3d90fd5b610d22919450863d88116103be576103b081836118c2565b925f610c14565b6040513d87823e3d90fd5b6002939491610d4291611986565b93610d4c33611993565b15610d8d575042915b60405194610d62866118a6565b85528a850190815260408501928352338a52818b5260408a2094518555519084015551910155610bf0565b5191610d55565b610daa908c8d3d10610cf857610ce981836118c2565b505f610bcb565b6064919250610dcc90843d86116103be576103b081836118c2565b9190610b92565b98610b68565b610de39251611bd3565b93610b5c565b8a80929c50819a503d8311610e15575b610e0381836118c2565b8101031261046a578b9751995f610b4f565b503d610df9565b610e259061187e565b6106d657835f610af4565b50346100d35760203660031901126100d3576004356001600160a01b038116908190036101395781604091602093528083522054604051908152f35b503461046a57602036600319011261046a576004356001600160a01b038116810361046a5768929eee149b4bd212689030825414611830573082557f00000000000000000000000000000000000000000000000000000000000000006001600160a01b03163b1561046a5760405163a6afed9560e01b81525f81600481837f00000000000000000000000000000000000000000000000000000000000000006001600160a01b03165af1801561182557611812575b506001600160a01b038116835260016020526040808420905190610f44826118a6565b80548252600260018201549160208401928352015460408301908152610f6984611993565b6117da57516203f48081018091116117c657421061178d5760405163aa5af0fd60e01b8152906020826004817f00000000000000000000000000000000000000000000000000000000000000006001600160a01b03165afa9182156103c5578692611759575b5051908161174a575050515b6001600160a01b0382168452602084905260408420549182151580611741575b1561170957604051630240bc6b60e21b81526060816004817f00000000000000000000000000000000000000000000000000000000000000006001600160a01b03165afa9081156103c557869087926116d6575b5060405163057078af60e51b8152916020836004817f00000000000000000000000000000000000000000000000000000000000000006001600160a01b03165afa9283156116cb5788936116a1575b506001600160a01b038416808952600160208181526040808c205f80825593810184905560020192909255918a529089905288208890556001600160701b0390611129877f00000000000000000000000000000000000000000000000000000000000000007f0000000000000000000000000000000000000000000000000000000000000000611be9565b831561169857818316925b841561168f575016905b81860291868304148615171561167b5785611158916118e4565b90811561166757049081156116325715611587577f00000000000000000000000000000000000000000000000000000000000000006001600160a01b03163b156103e7576040516336cd320560e11b8152600481018790526024810182905230604482015286908181606481837f00000000000000000000000000000000000000000000000000000000000000006001600160a01b03165af180156104d057611573575b50505b82811190811561156c57835b6040516338d52e0f60e01b8152916020836004817f00000000000000000000000000000000000000000000000000000000000000006001600160a01b03165afa9283156108e357899361154b575b5060405163095ea7b360e01b81526001600160a01b037f000000000000000000000000000000000000000000000000000000000000000016600482015260248101879052602081806044810103818d6001600160a01b0389165af180156104755761152c575b507f00000000000000000000000000000000000000000000000000000000000000006001600160a01b03163b1561150d57604051631b8fec7360e11b81526004810187905289908181602481837f00000000000000000000000000000000000000000000000000000000000000006001600160a01b03165af180156104d057611518575b50508582111561151157886113588784611986565b80611477575b50936113b9575b505060408051958652602086019490945250918301919091526001600160a01b0316907f03fc2d4f2e2e4e84069307a4d3a9b7ad25d93e2026627031a87b54a1c61907ce9080606081015b0390a238905580f35b6113c4929350611986565b90606482026127109081606485830414851517021561146a57916114177f03fc2d4f2e2e4e84069307a4d3a9b7ad25d93e2026627031a87b54a1c61907ce969594926113b0940480938161145a57611986565b80611428575b508193949550611365565b611453917f000000000000000000000000000000000000000000000000000000000000000090611be9565b5f8061141d565b611465823386611be9565b611986565b63ad251c2789526004601cfd5b7f00000000000000000000000000000000000000000000000000000000000000006001600160a01b03163b156101395760405163763c209760e11b815260048101919091528181602481837f00000000000000000000000000000000000000000000000000000000000000006001600160a01b03165af180156104d0571561135e576115029061187e565b61150d57885f61135e565b8880fd5b8880611358565b6115219061187e565b61150d57885f611343565b6115449060203d602011610cf857610ce981836118c2565b505f6112bf565b61156591935060203d6020116103be576103b081836118c2565b915f611259565b809361120b565b61157c9061187e565b6103e757855f6111fc565b7f00000000000000000000000000000000000000000000000000000000000000006001600160a01b03163b156103e7576040516336cd320560e11b8152600481018290526024810187905230604482015286908181606481837f00000000000000000000000000000000000000000000000000000000000000006001600160a01b03165af180156104d05761161e575b50506111ff565b6116279061187e565b6103e757855f611617565b60405162461bcd60e51b815260206004820152600d60248201526c222aa9aa2fa827a9a4aa24a7a760991b6044820152606490fd5b634e487b7160e01b88526012600452602488fd5b634e487b7160e01b88526011600452602488fd5b9050169061113e565b81811692611134565b6001600160701b039193506116c49060203d602011610cf857610ce981836118c2565b929061109e565b6040513d8a823e3d90fd5b90506116fa915060603d606011611702575b6116f281836118c2565b810190611919565b50905f61104f565b503d6116e8565b60405162461bcd60e51b815260206004820152601060248201526f24a72b20a624a22fa827a9a4aa24a7a760811b6044820152606490fd5b50811515610ffb565b6117549251611bd3565b610fdb565b9091506020813d602011611785575b81611775602093836118c2565b8101031261046a5751905f610fcf565b3d9150611768565b60405162461bcd60e51b815260206004820152601160248201527011d49050d157d393d517d1561412549151607a1b6044820152606490fd5b634e487b7160e01b86526011600452602486fd5b60405162461bcd60e51b815260206004820152601060248201526f504f534954494f4e5f4845414c54485960801b6044820152606490fd5b61181d91935061187e565b5f915f610f21565b6040513d5f823e3d90fd5b63ab143c065f526004601cfd5b3461046a575f36600319011261046a577f00000000000000000000000000000000000000000000000000000000000000006001600160a01b03168152602090f35b67ffffffffffffffff811161189257604052565b634e487b7160e01b5f52604160045260245ffd5b6060810190811067ffffffffffffffff82111761189257604052565b90601f8019910116810190811067ffffffffffffffff82111761189257604052565b919082018092116118f157565b634e487b7160e01b5f52601160045260245ffd5b51906001600160701b038216820361046a57565b9081606091031261046a5761192d81611905565b91604061193c60208401611905565b92015163ffffffff8116810361046a5790565b9081602091031261046a5751801515810361046a5790565b9081602091031261046a57516001600160a01b038116810361046a5790565b919082039182116118f157565b60018060a01b03809116805f52602090600182526040805f208151906119b8826118a6565b8054808352600260018301549287850193845201548484015215611bc857825163aa5af0fd60e01b81529085826004817f00000000000000000000000000000000000000000000000000000000000000008b165afa918215611bbe575f92611b8f575b50519081611b7f57505051935b7f0000000000000000000000000000000000000000000000000000000000000000168151630240bc6b60e21b8152606081600481855afa918215611b4d57908560049493925f925f94611b57575b50845163057078af60e51b815295869182905afa938415611b4d575f94611b23575b506001600160701b0391908415611b1a57828116945b15611b125750165b8215611b0857670de0b6b3a764000094838683029287818504149015170215611afb5785935f9204948252525f205482810292818404149015170215611afb57041190565b63ad251c275f526004601cfd5b5050505050505f90565b905016611ab6565b82821694611aae565b6001600160701b0392919450611b4590873d8911610cf857610ce981836118c2565b939091611a98565b83513d5f823e3d90fd5b909350611b7491925060603d606011611702576116f281836118c2565b50919091925f611a76565b611b899251611bd3565b93611a28565b9091508581813d8311611bb7575b611ba781836118c2565b8101031261046a5751905f611a1b565b503d611b9d565b84513d5f823e3d90fd5b505050505050600190565b8181029181159183041417820215611afb570490565b919060145260345263a9059cbb60601b5f5260205f6044601082855af1908160015f51141615611c1c575b50505f603452565b3b153d171015611c2d575f80611c14565b6390b8ec185f526004601cfdfea26469706673582212208f16d90d06a488b691b4009035baa16eae19ba595e2e59558d1721387a3259bc64736f6c63430008180033a2646970667358221220a97b3fe19c736cb5a48a28d6d86dba0da8758d5b1fffe3747e0bd2fcb8df56da64736f6c6343000818003360e034620000f557601f620018f838819003918201601f19168301916001600160401b03831184841017620000f957808492606094604052833981010312620000f5576200004d816200010d565b906200006a604062000062602084016200010d565b92016200010d565b91670de0b6b3a764000060025560805260a05260c052426003556040516117d5908162000123823960805181818161031d01528181610583015281816108b801528181610ad601528181610b6801528181610bbe01528181610e3e01528181610fe3015281816114d701526115f0015260a05181818161060701526106ee015260c05181610a150152f35b5f80fd5b634e487b7160e01b5f52604160045260245ffd5b51906001600160a01b0382168203620000f55756fe60406080815260049081361015610014575f80fd5b5f3560e01c806301e1d11414610e6d57806306fdde0314610e2457806307a2d13a14610a65578063095ea7b314610d8b5780630a28a47714610d6d57806318160ddd14610d4757806323b872dd14610c66578063313ce56714610c4b5780633644e51514610ba3578063371fd8e614610b0557806338d52e0f14610ac2578063402d267d1461050457806341910f9014610aa157806347bd371814610a835780634cdad50614610a655780635fc1419d14610a4457806361d027b314610a015780636e553f65146109ce57806370a08231146102845780637ecebe001461099b57806394bf804d1461096857806395d89b41146108925780639ffe797314610874578063a35cc82814610852578063a6afed9514610838578063a9059cbb146107c0578063aa5af0fd146107a2578063b3d7f6b914610784578063b460af941461072d578063b6a5d7de146106c5578063b91816111461068a578063ba08765214610636578063c45a0155146105f3578063c5ebeaec14610509578063c63d75b614610504578063c6e6f592146104e6578063c914b437146104ca578063ce96cb7714610496578063d505accf146102b7578063d905777e14610284578063dd62ed3e14610257578063ec78412e1461021d5763ef8b30f7146101f5575f80fd5b346102195760203660031901126102195761021260209235611136565b9051908152f35b5f80fd5b5090346102195760203660031901126102195761024960ff61025293335f525f6020525f2054166110c2565b356001546110fd565b600155005b5034610219578060031936011261021957602090610212610276610ed6565b61027e610eec565b90611225565b5034610219576020366003190112610219576020906102a1610ed6565b6387a211a2600c525f5281600c20549051908152f35b50346102195760e0366003190112610219576102d1610ed6565b906102da610eec565b9060443592606435936084359260ff84168403610219576001600160a01b03948516956e22d473030f116ddee9f6b43ac78ba38718831915171561048a576103417f00000000000000000000000000000000000000000000000000000000000000006112cb565b9485516020809701209082421161047e5760c0978451961697889665383775081901600e52875f5288600c2094855480957f8b73c3c69bb8fe3d512ecc4cf759cc79239f7b179b0ffacaa9a75d522b39400f84528b84019081528d8985017fc89efdaa54c0f20c7adf612882df0950f5a951637e0307cdcb4c672f298b8bc68152606086019c8d469052608087019330855260a08820602e527f6e71edae12b1b97f4d1f60370fef10105fa2faae0126114a169c64845d6126c988525252898b525260a082015220604e526042602c205f5260ff16865260a435835260c435606052858060805f60015afa90873d5103610472577f8c5be1e5ebec7d5bd14f71427d1e84f3dd0314c0f7b2291e5b200ac8c7c3b92597989950019055866303faf4f960a51b1790526034602c2055a3005b8963ddafbaef5f52601cfd5b89631a15a3cc5f52601cfd5b87633f68539a5f52601cfd5b5034610219576020366003190112610219576020906104b3610ed6565b6387a211a2600c525f5261021282600c205461106a565b5034610219575f36600319011261021957602090610212611162565b50346102195760203660031901126102195761021260209235611136565b610f02565b509034610219576020366003190112610219578035335f525f60205261053460ff845f2054166110c2565b68929eee149b4bd2126891308354146105e857308355610552611403565b61055a610fc8565b90600154916105698484610fbb565b116105ac57509061057d816105a793610fbb565b600155337f0000000000000000000000000000000000000000000000000000000000000000611664565b389055005b606490602086519162461bcd60e51b83528201526016602482015275494e53554646494349454e545f4c495155494449545960501b6044820152fd5b63ab143c065f52601cfd5b5034610219575f36600319011261021957517f00000000000000000000000000000000000000000000000000000000000000006001600160a01b03168152602090f35b50346102195761064536610f27565b9291936387a211a2600c52835f526020600c2054851161067f5750836106799161067060209661106a565b94859133611587565b51908152f35b634656425a5f52601cfd5b5034610219576020366003190112610219576020906001600160a01b036106af610ed6565b165f525f825260ff815f20541690519015158152f35b5034610219576020366003190112610219576106df610ed6565b6001600160a01b0390610715337f00000000000000000000000000000000000000000000000000000000000000008416146110c2565b165f908152602081905220805460ff19166001179055005b50346102195761073c36610f27565b929190936387a211a2600c52835f526107596020600c205461106a565b821161077957506020938161077061067993611096565b94859233611587565b63936941fc5f52601cfd5b5034610219576020366003190112610219576102126020923561110a565b5034610219575f366003190112610219576020906002549051908152f35b50346102195780600319360112610219576107d9610ed6565b602435906387a211a2600c52335f5260209384600c209081549081851161082d575083900390555f5282600c208181540190558252600c5160601c335f805160206117808339815191528480a35160018152f35b63f4d678b85f52601cfd5b34610219575f36600319011261021957610850611403565b005b5034610219575f3660031901126102195760209051670b1a2bc2ec5000008152f35b5034610219575f366003190112610219576020906003549051908152f35b509034610219575f3660031901126102195781516395d89b4160e01b8152905f908290817f00000000000000000000000000000000000000000000000000000000000000006001600160a01b03165afa90811561095e5791610936925f9261093a575b5061092c602182518094606f60f81b602083015261091c8151809260208686019101610e89565b8101036001810185520183610f5c565b5191829182610eaa565b0390f35b6109579192503d805f833e61094f8183610f5c565b810190611262565b905f6108f5565b82513d5f823e3d90fd5b50346102195780600319360112610219576020913590610679610989610eec565b926109938161110a565b8094336114cc565b5034610219576020366003190112610219576020906109b8610ed6565b6338377508600c525f5281600c20549051908152f35b503461021957806003193601126102195760209135906106796109ef610eec565b6109f884611136565b938491336114cc565b5034610219575f36600319011261021957517f00000000000000000000000000000000000000000000000000000000000000006001600160a01b03168152602090f35b5034610219575f366003190112610219576020905166b1a2bc2ec500008152f35b5034610219576020366003190112610219576102126020923561106a565b5034610219575f366003190112610219576020906001549051908152f35b5034610219575f366003190112610219576020905166470de4df8200008152f35b5034610219575f36600319011261021957517f00000000000000000000000000000000000000000000000000000000000000006001600160a01b03168152602090f35b503461021957602036600319011261021957610b2f60ff833592335f525f6020525f2054166110c2565b68929eee149b4bd2126891308354146105e85750610b9490308355610b52611403565b6001549081811115610b9c57505b610b8c8130337f000000000000000000000000000000000000000000000000000000000000000061146e565b6001546110fd565b600155389055005b9050610b60565b5034610219575f3660031901126102195760209060a0610be27f00000000000000000000000000000000000000000000000000000000000000006112cb565b8381519101208251907f8b73c3c69bb8fe3d512ecc4cf759cc79239f7b179b0ffacaa9a75d522b39400f8252848201527fc89efdaa54c0f20c7adf612882df0950f5a951637e0307cdcb4c672f298b8bc683820152466060820152306080820152209051908152f35b5034610219575f366003190112610219576020905160128152f35b503461021957606036600319011261021957610c80610ed6565b610c88610eec565b604435908260601b6e22d473030f116ddee9f6b43ac78ba33303610cfe575b6387a211a217600c5260209485600c209081549081851161082d575083900390555f52600c8481208054830190559084525160601c906001600160a01b03165f805160206117808339815191528480a35160018152f35b33602052637f5e9f208117600c526034600c20908154918219610d24575b509050610ca7565b828511610d3b57846387a211a2930390555f610d1c565b876313be252b5f52601cfd5b5034610219575f366003190112610219576020906805345cdf77eb68f44c549051908152f35b50346102195760203660031901126102195761021260209235611096565b5034610219578060031936011261021957610da4610ed6565b602435906001600160a01b0381166e22d473030f116ddee9f6b43ac78ba3188219151715610e1857602080945052637f5e9f20600c52335f52806034600c20555f52602c5160601c337f8c5be1e5ebec7d5bd14f71427d1e84f3dd0314c0f7b2291e5b200ac8c7c3b925845fa35160018152f35b83633f68539a5f52601cfd5b5034610219575f3660031901126102195761093690610e627f00000000000000000000000000000000000000000000000000000000000000006112cb565b905191829182610eaa565b5034610219575f36600319011261021957602090610212610fc8565b5f5b838110610e9a5750505f910152565b8181015183820152602001610e8b565b60409160208252610eca8151809281602086015260208686019101610e89565b601f01601f1916010190565b600435906001600160a01b038216820361021957565b602435906001600160a01b038216820361021957565b3461021957602036600319011261021957610f1b610ed6565b5060206040515f198152f35b606090600319011261021957600435906001600160a01b03906024358281168103610219579160443590811681036102195790565b90601f8019910116810190811067ffffffffffffffff821117610f7e57604052565b634e487b7160e01b5f52604160045260245ffd5b9066f8b0a10e470000918201809211610fa757565b634e487b7160e01b5f52601160045260245ffd5b91908201809211610fa757565b6040516370a0823160e01b81523060048201526020816024817f00000000000000000000000000000000000000000000000000000000000000006001600160a01b03165afa801561105f575f9061102b575b611028915060015490610fbb565b90565b506020813d602011611057575b8161104560209383610f5c565b8101031261021957611028905161101a565b3d9150611038565b6040513d5f823e3d90fd5b611072610fc8565b9060018201809211610fa7576110289160016805345cdf77eb68f44c540191611352565b6805345cdf77eb68f44c549060018201809211610fa7576110289160016110bb610fc8565b01916113e0565b156110c957565b60405162461bcd60e51b815260206004820152600c60248201526b15539055551213d49256915160a21b6044820152606490fd5b91908203918211610fa757565b611112610fc8565b9060018201809211610fa7576110289160016805345cdf77eb68f44c5401916113e0565b6805345cdf77eb68f44c549060018201809211610fa75761102891600161115b610fc8565b0191611352565b61116a610fc8565b80156112195760015490670de0b6b3a7640000918183820291848184041490151702156111d3570490670b1a2bc2ec50000082116111e0578066b1a2bc2ec5000092838102938185041490151702156111d35766470de4df82000091048101809111610fa75790565b63ad251c275f526004601cfd5b670b1a2bc2ec4fffff198201918211610fa75780670214e8348c4f000092838102938185041490151702156111d3576110289104610f92565b5066470de4df82000090565b906001600160a01b0381166e22d473030f116ddee9f6b43ac78ba31461125b57602052637f5e9f20600c525f526034600c205490565b50505f1990565b60208183031261021957805167ffffffffffffffff9182821161021957019082601f83011215610219578151908111610f7e57604051926112ad601f8301601f191660200185610f5c565b81845260208284010111610219576110289160208085019101610e89565b6040516306fdde0360e01b8152905f90829060049082906001600160a01b03165afa90811561105f575f91611338575b506110286026604051809365027b9b4ba37960d51b60208301526113288151809260208686019101610e89565b8101036006810184520182610f5c565b61134c91503d805f833e61094f8183610f5c565b5f6112fb565b8181029291811582850482141783021561136d575050900490565b82905f1981840985811086019003920990825f03831692818111156113d3578390046002816003028118808302820302808302820302808302820302808302820302808302820302809202900302936001848483030494805f0304019211900302170290565b63ae47f7025f526004601cfd5b9291906113ee828286611352565b93096113f657565b906001019081156113d357565b60035480421461146b5761141f6114186116b5565b91426110fd565b6301e133809180820291811591830414178202156111d3570460025481810291670de0b6b3a764000080918385041483151702156111d357611462920490610fbb565b60025542600355565b50565b916040519360605260405260601b602c526323b872dd60601b600c5260205f6064601c82855af1908160015f511416156114ae575b50505f606052604052565b3b153d1710156114bf575f806114a3565b637939f4245f526004601cfd5b9190926114fb8230857f000000000000000000000000000000000000000000000000000000000000000061146e565b6805345cdf77eb68f44c80549082820191821061157a57556387a211a2600c52835f526020600c20818154019055602052600c5160601c5f5f80516020611780833981519152602080a35f5260018060a01b0391821691167fdcbc1c05240f31ff3ad067ef1ee35ce4997762752e3a095284754544f4c709d760405fa3565b63e5cfe9575f526004601cfd5b90936001600160a01b0393919291848316858516819003611654575b6387a211a2600c52835f526020600c209081549182851161164757845f930390556805345cdf77eb68f44c8481540390558382525f80516020611780833981519152602083a361161481877f0000000000000000000000000000000000000000000000000000000000000000611664565b5f52602052821692821691167ffbde797d201c681b91056529119e0b02407c7bb96a4a2c75c01fc9667232c8db60405fa4565b63f4d678b85f526004601cfd5b61165f838686611721565b6115a3565b919060145260345263a9059cbb60601b5f5260205f6044601082855af1908160015f51141615611697575b50505f603452565b3b153d1710156116a8575f8061168f565b6390b8ec185f526004601cfd5b6001548015611219576116c6610fc8565b670de0b6b3a76400009181838083029283041402156111d3570490670b1a2bc2ec50000082116111e0578066b1a2bc2ec5000092838102938185041490151702156111d35766470de4df82000091048101809111610fa75790565b906001600160a01b0381166e22d473030f116ddee9f6b43ac78ba31461177a57602052637f5e9f20600c525f526034600c20908154801961176157505050565b80821161176d57039055565b6313be252b5f526004601cfd5b50505056feddf252ad1be2c89b69c2b068fc378daa952ba7f163c4a11628f55a4df523b3efa2646970667358221220e19e5acda2761351dce69ede128d7f1f1f39984a768abff981edb3c44935439964736f6c63430008180033","linkReferences":{}},"methodIdentifiers":{"allMarkets(uint256)":"52d84d1e","allMarketsLength()":"88dd46a1","collateralVaults(address)":"547e7b2f","createLendingMarket(address)":"99b0736e","lenderVault()":"06876d19","treasury()":"61d027b3"},"id":40}