{"abi":[{"type":"function","name":"allCollateralVaults","inputs":[{"name":"","type":"uint256","internalType":"uint256"}],"outputs":[{"name":"","type":"address","internalType":"address"}],"stateMutability":"view"},{"type":"function","name":"allCollateralVaultsLength","inputs":[],"outputs":[{"name":"","type":"uint256","internalType":"uint256"}],"stateMutability":"view"},{"type":"function","name":"allLenderVaults","inputs":[{"name":"","type":"uint256","internalType":"uint256"}],"outputs":[{"name":"","type":"address","internalType":"address"}],"stateMutability":"view"},{"type":"function","name":"allLenderVaultsLength","inputs":[],"outputs":[{"name":"","type":"uint256","internalType":"uint256"}],"stateMutability":"view"},{"type":"function","name":"deployVaults","inputs":[{"name":"collateralToken","type":"address","internalType":"address"},{"name":"lendingAsset","type":"address","internalType":"address"},{"name":"pair","type":"address","internalType":"address"}],"outputs":[{"name":"collateralVault","type":"address","internalType":"address"},{"name":"lenderVault","type":"address","internalType":"address"}],"stateMutability":"nonpayable"},{"type":"function","name":"getCollateralVault","inputs":[{"name":"","type":"address","internalType":"address"},{"name":"","type":"address","internalType":"address"}],"outputs":[{"name":"","type":"address","internalType":"address"}],"stateMutability":"view"},{"type":"function","name":"getLenderVault","inputs":[{"name":"","type":"address","internalType":"address"},{"name":"","type":"address","internalType":"address"}],"outputs":[{"name":"","type":"address","internalType":"address"}],"stateMutability":"view"},{"type":"event","name":"VaultsDeployed","inputs":[{"name":"collateralToken","type":"address","indexed":true,"internalType":"address"},{"name":"lendingAsset","type":"address","indexed":true,"internalType":"address"},{"name":"pair","type":"address","indexed":true,"internalType":"address"},{"name":"collateralVault","type":"address","indexed":false,"internalType":"address"},{"name":"lenderVault","type":"address","indexed":false,"internalType":"address"}],"anonymous":false}],"bytecode":{"object":"0x6080806040523461001657613aa2908161001b8239f35b5f80fdfe6080604081815260049182361015610015575f80fd5b5f925f3560e01c91826307de34a5146104fd5750816313912282146104df5781633e8bfbd9146104915781636a1d4892146101485781636e736f33146100ee578163deb7135d14610090575063ec8e6ca21461006f575f80fd5b3461008c578160031936011261008c576020906002549051908152f35b5080fd5b9050346100ea5760203660031901126100ea57356003548110156100ea5760035f527fc2575a0e9e593c00f959f8c92f12db2869c3395a3b0502d05e2516446f71f85b015490516001600160a01b03909116815260209150f35b8280fd5b9050346100ea5760203660031901126100ea57356002548110156100ea5760025f527f405787fa12a823e0f2b7631cc41b3ba8828b3321ca811111fa75cd3aa3bb5ace015490516001600160a01b03909116815260209150f35b82843461041057606036600319011261041057610163610547565b9161016c61055d565b6001600160a01b0393604435858116929190839003610410578516805f526020945f865286855f20931692835f52865286855f20541661044e5784516118929081810167ffffffffffffffff928282108483111761043b57889183916121db83398781525f8b8201520301905ff08015610431578816978651611c67808201908282108583111761041e5760609183916105748339878152898c8201528c8b8201520301905ff08015610414571696883b15610410578651635b52ebef60e11b81528a81018990526024925f828581838f5af18015610406576103de575b5050838352828152868320855f52815286805f20936bffffffffffffffffffffffff60a01b948a86825416179055868152600183522090845f5252855f2088838254161790556002549868010000000000000000998a8110156103cc5760018101806002558110156103ba577f405787fa12a823e0f2b7631cc41b3ba8828b3321ca811111fa75cd3aa3bb5ace018884825416179055600354998a10156103a95760018a01806003558a101561039857505060035f527fc2575a0e9e593c00f959f8c92f12db2869c3395a3b0502d05e2516446f71f85b979097018054909716861790965582516001600160a01b038581168252861660208201529495939461039494907f030f137a392b508916ac26fcadc8f28935ea5587f0e18649c5228e1b7a27663990604090a4516001600160a01b03928316815292909116602083015281906040820190565b0390f35b603290634e487b7160e01b5f52525ffd5b604190634e487b7160e01b5f52525ffd5b50603290634e487b7160e01b5f52525ffd5b50604190634e487b7160e01b5f52525ffd5b9080929450116103f35786525f918a8061024a565b50634e487b7160e01b5f90815260418a52fd5b89513d5f823e3d90fd5b5f80fd5b87513d5f823e3d90fd5b60418d634e487b7160e01b5f525260245ffd5b86513d5f823e3d90fd5b60418c634e487b7160e01b5f525260245ffd5b845162461bcd60e51b8152808901879052601c60248201527f4c656e64696e67466163746f72793a205641554c545f455849535453000000006044820152606490fd5b82346104105780600319360112610410576020906104ad610547565b6104b561055d565b6001600160a01b039182165f90815260018552838120918316815290845282902054915191168152f35b8234610410575f366003190112610410576020906003549051908152f35b83903461041057816003193601126104105760209161051a610547565b9061052361055d565b6001600160a01b039283165f90815280865282812091841681529085522054168152f35b600435906001600160a01b038216820361041057565b602435906001600160a01b03821682036104105756fe60e034620000fa57601f62001c6738819003918201601f19168301916001600160401b03831184841017620000fe57808492606094604052833981010312620000fa576200004d8162000112565b906200006a6040620000626020840162000112565b920162000112565b9160805260a05260c052604051611b3f90816200012882396080518181816106860152818161085c01528181610b4d01526110ad015260a051818181610219015281816108a00152818161108701526118f9015260c0518181816101b9015281816106160152818161093e01528181610abe01528181610c5001528181610f600152818161172601526118b90152f35b5f80fd5b634e487b7160e01b5f52604160045260245ffd5b51906001600160a01b0382168203620000fa5756fe6080604081815260049182361015610015575f80fd5b5f925f3560e01c91826306876d1914611714575081630cd865ec14610f1d57816329bc969d14610ee4578163371fd8e614610c155781636112fe2e14610a8c5781639ee2735b146108cf578163a8aa1b311461088b578163b2016bd414610847578163b2aaa1541461072e578163bad4a01f146105e6578163bafca75e146105a9578163c1a287e21461058b578163c5ebeaec14610181578163c877bf2b14610138578163d40e8f4a146100f0575063d698eb76146100d2575f80fd5b346100ec57816003193601126100ec576020905160648152f35b5080fd5b90503461013457602036600319011261013457356001600160a01b038116908190036101345791819281526001602052206001815491015482519182526020820152f35b8280fd5b90503461013457602036600319011261013457356001600160a01b0381169081900361013457918192815260026020522060ff6001825492015416825191825215156020820152f35b90503461013457602091826003193601126105875781359268929eee149b4bd21268933085541461057b573085556001600160a01b037f000000000000000000000000000000000000000000000000000000000000000081169490853b1561057757845163a6afed9560e01b8152889081818581838c5af1801561046a57610563575b5050845163114a83a360e11b815295848784817f000000000000000000000000000000000000000000000000000000000000000086165afa96871561055957899761052a575b503389528885528589205487810297670de0b6b3a7640000918291818b0414901517021561051e57338a5260018652868a2090600188519261028b8461177d565b805484520154878301908152885163aa5af0fd60e01b8152929088848881885afa938415610514578d946104e1575b505183816104d157505051985b046102d2868a6117bb565b11610499579089929160016102e7878b6117bb565b918951926102f48461177d565b83528883019081523386528189528986209251835551910155600286525f60018885208281550155803b1561013457865163317afabb60e21b8152848101869052838160248183865af1801561048f5791879186959493610474575b5088516338d52e0f60e01b815295869182905afa93841561046a5792826103a89592889588959461043b575b50895163a9059cbb60e01b81523393810193845260208401959095529395869485939091849160400190565b0393165af1801561043157916103f2917fc491b8e6940cb48fcf9cf813c35e2d45fad221af7d5f4ce18d77dc576e5bf220959493610404575b5033885287835283882054956117bb565b9082519485528401523392a238905580f35b61042390843d861161042a575b61041b8183611799565b810190611826565b505f6103e1565b503d610411565b84513d89823e3d90fd5b61045c919450863d8811610463575b6104548183611799565b81019061184b565b925f61037c565b503d61044a565b87513d84823e3d90fd5b610482919550849250611755565b6100ec578584935f610350565b88513d86823e3d90fd5b865162461bcd60e51b81528085018790526012602482015271455843454544535f504d494e5f56414c554560701b6044820152606490fd5b6104db9251611aa2565b986102c7565b9093508881813d831161050d575b6104f98183611799565b810103126105095751925f6102ba565b5f80fd5b503d6104ef565b8a513d8f823e3d90fd5b8363ad251c278b52601cfd5b9096508481813d8311610552575b6105428183611799565b810103126105095751955f61024a565b503d610538565b86513d8b823e3d90fd5b61056c90611755565b61057757875f610204565b8780fd5b8363ab143c068752601cfd5b8380fd5b5050346100ec57816003193601126100ec57602090516203f4808152f35b9050346101345760203660031901126101345735916001600160a01b03831683036105e357506105da60209261186a565b90519015158152f35b80fd5b919050346101345760203660031901126101345781359068929eee149b4bd21268923084541461072357308455847f00000000000000000000000000000000000000000000000000000000000000006001600160a01b0316803b156100ec578180918486518094819363a6afed9560e01b83525af1801561071957610701575b50508151606084815230845233901b602c526323b872dd60601b600c52907f00000000000000000000000000000000000000000000000000000000000000006020876064601c82855af19081600189511416156106e5575b505050906106dd918560605281523385528460205284209182546117bb565b905538905580f35b3b153d1710156106f65780806106be565b637939f4248652601cfd5b61070a90611755565b61071557845f610666565b8480fd5b84513d84823e3d90fd5b63ab143c068552601cfd5b9190503461013457602090816003193601126105875782356001600160a01b0381169390848103610843576107629061186a565b61080f578385526002835260ff60018387200154166107dd575090817f8f17989de614b609a275ea9f16bd81d93bcc76f661c680aae38bebb3f59d27e892516107aa8161177d565b4281526001838201918183528688526002855283882090518155019051151560ff8019835416911617905551428152a280f35b82606492519162461bcd60e51b8352820152600e60248201526d1053149150511657d3505492d15160921b6044820152fd5b82606492519162461bcd60e51b8352820152601060248201526f504f534954494f4e5f4845414c54485960801b6044820152fd5b8580fd5b5050346100ec57816003193601126100ec57517f00000000000000000000000000000000000000000000000000000000000000006001600160a01b03168152602090f35b5050346100ec57816003193601126100ec57517f00000000000000000000000000000000000000000000000000000000000000006001600160a01b03168152602090f35b8284346105e357602090816003193601126105e3576001600160a01b0392843584811690818103610587578394828552848152878486205497600183528587209083600188519361091f8561177d565b8054855201549181840192835288519485809263aa5af0fd60e01b82527f0000000000000000000000000000000000000000000000000000000000000000165afa908115610a82578891610a51575b5161098393509081610a41575050519261186a565b928552600281528385209484516109998161177d565b60ff600188549889845201541615158097818584015281610a17575b506109db575b505060a09750835196875286015215159084015260608301526080820152f35b519196506203f4808201918210610a04575060a097506109fc90429061183e565b9488806109bb565b634e487b7160e01b815260118952602490fd5b90506203f4808101809111610a2e5742108b6109b5565b634e487b7160e01b835260118b52602483fd5b610a4b9251611aa2565b9261186a565b90508383813d8311610a7b575b610a688183611799565b810103126105095761098392519061096e565b503d610a5e565b87513d8a823e3d90fd5b9190503461013457602090816003193601126105875782359168929eee149b4bd212689330855414610c0a57308555857f00000000000000000000000000000000000000000000000000000000000000006001600160a01b0316803b156100ec578180918487518094819363a6afed9560e01b83525af18015610c0057610bec575b50503386526001825282862054610bb857338652858252838387205410610b7757509084610b719392338252528420610b4882825461183e565b9055337f0000000000000000000000000000000000000000000000000000000000000000611ab8565b38905580f35b915162461bcd60e51b815291820152601760248201527f494e53554646494349454e545f434f4c4c41544552414c0000000000000000006044820152606490fd5b915162461bcd60e51b815291820152601060248201526f13d55514d5105391125391d7d111509560821b6044820152606490fd5b610bf590611755565b61084357855f610b0e565b85513d84823e3d90fd5b63ab143c068652601cfd5b90503461013457602091826003193601126105875781359268929eee149b4bd21268933085541461057b573085556001600160a01b039386917f000000000000000000000000000000000000000000000000000000000000000086169190823b1561058757855163a6afed9560e01b81528481848183885af18015610eda57908591610ec6575b505033845260018086528685209181885193610cb78561177d565b805485520154878401908152885163aa5af0fd60e01b81529390888587818a5afa948515610e74578895610e94575b50518481610e8457505051905b81811115610e7e575080985b88516338d52e0f60e01b8152888187818a5afa908115610e74579089918991610e57575b5060648c8a8d5195869485936323b872dd60e01b8552338d8601523060248601526044850152165af18015610e4d57908a9291610e30575b50818103610dfb5750505f9150338552808652818188872082815501553385526002865286852082815501555b813b156101345785602484928388519586948593631b8fec7360e11b85528401525af1801561071957610de7575b50507fa9e0cdf27a7965d21573ebb808fbcb2c2a1cfd656e1ecf3f82549437b474067791519283523392a238905580f35b610df090611755565b61071557845f610db6565b90610e059161183e565b91875192610e128461177d565b83528683019081523386528187528786209251835551910155610d88565b610e4690893d8b1161042a5761041b8183611799565b505f610d5b565b89513d89823e3d90fd5b610e6e9150823d8411610463576104548183611799565b5f610d23565b8a513d8a823e3d90fd5b98610cff565b610e8e9251611aa2565b90610cf3565b975093508787813d8111610ebf575b610ead8183611799565b81010312610509578b9651935f610ce6565b503d610ea3565b610ecf90611755565b61058757835f610c9c565b87513d87823e3d90fd5b90503461013457602036600319011261013457356001600160a01b03811690819003610134578282916020945280845220549051908152f35b9190503461050957602080600319360112610509576001600160a01b03833581811693908490036105095768929eee149b4bd212689430865414611709573086557f00000000000000000000000000000000000000000000000000000000000000009383851691823b1561050957835163a6afed9560e01b81525f81838183885af180156116ff576116ec575b5086895260028252838920948451610fc18161177d565b8654815260ff60018098015416158015858301526116b857516203f48081018091116116a557421061166d57878a52858352848a20868651916110038361177d565b805483520154848201908152865163aa5af0fd60e01b815290858286818a5afa918215611663578d92611634575b5051908161162457505051965b888b528a8452858b20549788159788158061161b575b156115e557905f8d928c845280885281818b862082815501558c8452838852838a812055600288528984208281550155837f00000000000000000000000000000000000000000000000000000000000000006110d18c827f0000000000000000000000000000000000000000000000000000000000000000611ab8565b16885199630240bc6b60e21b8b5260608b8881855afa80156115db57849b85916115a5575b508a5163057078af60e51b81529b898d8a81875afa9c8d1561159b57869d611571575b508c916001600160701b0391831561156857828116935b1561155f575016915b8b51634bafc7a360e11b81528a818b81885afa9687156115545796611525575b5061271095860386811161150f578e9181889284029384041417021561150157859004908282029282840414821517156114ec5790611197916117bb565b9081156114d85704998e91901561148257803b156100ec578180606489828f958f5196879586946336cd320560e11b865285015260248401523060448401525af1801561147857611460575b50505b808911988915611458578d82985b8a516338d52e0f60e01b81529689888a81855afa978815611402578a918a8e8e93879c611429575b505163095ea7b360e01b81526001600160a01b038b1691810191825260208201939093529192918391908290879082906040015b03928d165af180156114025761140c575b50803b156100ec578a51631b8fec7360e11b81528881018b9052828160248183865af18015611402579083916113ee575b5050898411156113e8576112a68a8561183e565b80611392575b5050996112f1575b8d8d8d7f03fc2d4f2e2e4e84069307a4d3a9b7ad25d93e2026627031a87b54a1c61907ce60608f8f8f8f8f8251948552840152820152a238905580f35b6112ff92939495995061183e565b9660648802908260648a8404148a151702156113875750916113526060989694927f03fc2d4f2e2e4e84069307a4d3a9b7ad25d93e2026627031a87b54a1c61907ce9a989694048097816113775761183e565b9081611366575b83959799859799506112b4565b61136f92611ab8565b5f8080611359565b611382823387611ab8565b61183e565b63ad251c278d52601cfd5b813b1561013457829060248a838f51958694859363763c209760e11b85528401525af180156113de576113c6575b806112ac565b6113cf90611755565b6113da578d5f6113c0565b8d80fd5b8b513d84823e3d90fd5b816112a6565b6113f790611755565b6100ec57815f611292565b8c513d85823e3d90fd5b611422908a3d8c1161042a5761041b8183611799565b505f611261565b8b919c508594939261144b8992611250983d8911610463576104548183611799565b9d9250929394955061121c565b8d81986111f4565b61146990611755565b611474578c5f6111e3565b8c80fd5b8a513d84823e3d90fd5b803b156100ec5781809160648d8d5194859384926336cd320560e11b84528d8401528160248401523060448401525af18015611478576114c4575b50506111e6565b6114cd90611755565b611474578c5f6114bd565b50634e487b7160e01b8f526012875260248ffd5b5050634e487b7160e01b8f526011875260248ffd5b508f63ad251c27899152601cfd5b50505060248f601189634e487b7160e01b835252fd5b9095508981813d831161154d575b61153d8183611799565b810103126105095751945f611159565b503d611533565b8d51903d90823e3d90fd5b90501691611139565b82821693611130565b6001600160701b0391929d50611593908b3d8d1161042a5761041b8183611799565b9c9190611119565b8c513d88823e3d90fd5b90506115ca919b5060603d6060116115d4575b6115c28183611799565b8101906117f0565b509a909a5f6110f6565b503d6115b8565b8a513d86823e3d90fd5b875162461bcd60e51b8152808601879052601060248201526f24a72b20a624a22fa827a9a4aa24a7a760811b6044820152606490fd5b50811515611054565b61162e9251611aa2565b9661103e565b9091508581813d831161165c575b61164c8183611799565b810103126105095751905f611031565b503d611642565b88513d8f823e3d90fd5b5060649184519162461bcd60e51b8352820152601360248201527247524143455f504552494f445f41435449564560681b6044820152fd5b634e487b7160e01b8b526011835260248bfd5b855162461bcd60e51b8152808401859052600e60248201526d4e4f545f4d41524b45445f4f544d60901b6044820152606490fd5b6116f7919950611755565b5f975f610faa565b85513d5f823e3d90fd5b63ab143c065f52601cfd5b34610509575f366003190112610509577f00000000000000000000000000000000000000000000000000000000000000006001600160a01b03168152602090f35b67ffffffffffffffff811161176957604052565b634e487b7160e01b5f52604160045260245ffd5b6040810190811067ffffffffffffffff82111761176957604052565b90601f8019910116810190811067ffffffffffffffff82111761176957604052565b919082018092116117c857565b634e487b7160e01b5f52601160045260245ffd5b51906001600160701b038216820361050957565b9081606091031261050957611804816117dc565b916040611813602084016117dc565b92015163ffffffff811681036105095790565b90816020910312610509575180151581036105095790565b919082039182116117c857565b9081602091031261050957516001600160a01b03811681036105095790565b60018060a01b03809116805f52602090600182526040805f2081519061188f8261177d565b600181549182845201549085830191825215611a9757825163aa5af0fd60e01b81529085826004817f00000000000000000000000000000000000000000000000000000000000000008b165afa918215611a8d575f92611a5e575b50519081611a4e57505051935b7f0000000000000000000000000000000000000000000000000000000000000000168151630240bc6b60e21b8152606081600481855afa918215611a1c57908560049493925f925f94611a26575b50845163057078af60e51b815295869182905afa938415611a1c575f946119f2575b506001600160701b03919084156119e957828116945b156119e15750165b82156119d757670de0b6b3a7640000948386830292878185041490151702156119ca5785935f9204948252525f2054828102928184041490151702156119ca57041190565b63ad251c275f526004601cfd5b5050505050505f90565b905016611985565b8282169461197d565b6001600160701b0392919450611a1490873d891161042a5761041b8183611799565b939091611967565b83513d5f823e3d90fd5b909350611a4391925060603d6060116115d4576115c28183611799565b50919091925f611945565b611a589251611aa2565b936118f7565b9091508581813d8311611a86575b611a768183611799565b810103126105095751905f6118ea565b503d611a6c565b84513d5f823e3d90fd5b505050505050600190565b81810291811591830414178202156119ca570490565b919060145260345263a9059cbb60601b5f5260205f6044601082855af1908160015f51141615611aeb575b50505f603452565b3b153d171015611afc575f80611ae3565b6390b8ec185f526004601cfdfea26469706673582212204b445ed9633ba2c2a6953e22d649754e37eb15de4b7bf2df0609790e1d3475c864736f6c6343000818003360c0346100ff57601f6200189238819003918201601f19168301916001600160401b038311848410176101035780849260409485528339810103126100ff57610053602061004c83610117565b9201610117565b670de0b6b3a76400006002556080919091523360a0526001600160a01b0316806100e4575b4260035560405161176690816200012c8239608051818181610312015281816105620152818161088701528181610a6201528181610adc01528181610b2a01528181610daa01528181610f4f015281816114680152611581015260a0518181816105d801526106bf0152f35b5f525f60205260405f20600160ff198254161790555f610078565b5f80fd5b634e487b7160e01b5f52604160045260245ffd5b51906001600160a01b03821682036100ff5756fe60406080815260049081361015610014575f80fd5b5f3560e01c806301e1d11414610dd957806306fdde0314610d9057806307a2d13a146109f1578063095ea7b314610cf75780630a28a47714610cd957806318160ddd14610cb357806323b872dd14610bd2578063313ce56714610bb75780633644e51514610b0f578063371fd8e614610a9157806338d52e0f14610a4e578063402d267d146104f957806341910f9014610a2d57806347bd371814610a0f5780634cdad506146109f15780635fc1419d146109d05780636e553f651461099d57806370a08231146102795780637ecebe001461096a57806394bf804d1461093757806395d89b41146108615780639ffe797314610843578063a35cc82814610821578063a6afed9514610809578063a9059cbb14610791578063aa5af0fd14610773578063b3d7f6b914610755578063b460af94146106fe578063b6a5d7de14610696578063b91816111461065b578063ba08765214610607578063c45a0155146105c4578063c5ebeaec146104fe578063c63d75b6146104f9578063c6e6f592146104db578063c914b437146104bf578063ce96cb771461048b578063d505accf146102ac578063d905777e14610279578063dd62ed3e1461024c578063ec78412e146102125763ef8b30f7146101ea575f80fd5b3461020e57602036600319011261020e57610207602092356110a2565b9051908152f35b5f80fd5b50903461020e57602036600319011261020e5761023e60ff61024793335f525f6020525f20541661102e565b35600154611069565b600155005b503461020e578060031936011261020e5760209061020761026b610e42565b610273610e58565b90611191565b503461020e57602036600319011261020e57602090610296610e42565b6387a211a2600c525f5281600c20549051908152f35b503461020e5760e036600319011261020e576102c6610e42565b906102cf610e58565b9060443592606435936084359260ff8416840361020e576001600160a01b03948516956e22d473030f116ddee9f6b43ac78ba38718831915171561047f576103367f0000000000000000000000000000000000000000000000000000000000000000611237565b948551602080970120908242116104735760c0978451961697889665383775081901600e52875f5288600c2094855480957f8b73c3c69bb8fe3d512ecc4cf759cc79239f7b179b0ffacaa9a75d522b39400f84528b84019081528d8985017fc89efdaa54c0f20c7adf612882df0950f5a951637e0307cdcb4c672f298b8bc68152606086019c8d469052608087019330855260a08820602e527f6e71edae12b1b97f4d1f60370fef10105fa2faae0126114a169c64845d6126c988525252898b525260a082015220604e526042602c205f5260ff16865260a435835260c435606052858060805f60015afa90873d5103610467577f8c5be1e5ebec7d5bd14f71427d1e84f3dd0314c0f7b2291e5b200ac8c7c3b92597989950019055866303faf4f960a51b1790526034602c2055a3005b8963ddafbaef5f52601cfd5b89631a15a3cc5f52601cfd5b87633f68539a5f52601cfd5b503461020e57602036600319011261020e576020906104a8610e42565b6387a211a2600c525f5261020782600c2054610fd6565b503461020e575f36600319011261020e576020906102076110ce565b503461020e57602036600319011261020e57610207602092356110a2565b610e6e565b50903461020e57602036600319011261020e57803590335f525f60205261052a60ff845f20541661102e565b61053261136f565b61053a610f34565b92600154936105498486610f27565b11610588576105868361055c8187610f27565b600155337f00000000000000000000000000000000000000000000000000000000000000006115f5565b005b906020606492519162461bcd60e51b83528201526016602482015275494e53554646494349454e545f4c495155494449545960501b6044820152fd5b503461020e575f36600319011261020e57517f00000000000000000000000000000000000000000000000000000000000000006001600160a01b03168152602090f35b503461020e5761061636610e93565b9291936387a211a2600c52835f526020600c2054851161065057508361064a91610641602096610fd6565b94859133611518565b51908152f35b634656425a5f52601cfd5b503461020e57602036600319011261020e576020906001600160a01b03610680610e42565b165f525f825260ff815f20541690519015158152f35b503461020e57602036600319011261020e576106b0610e42565b6001600160a01b03906106e6337f000000000000000000000000000000000000000000000000000000000000000084161461102e565b165f908152602081905220805460ff19166001179055005b503461020e5761070d36610e93565b929190936387a211a2600c52835f5261072a6020600c2054610fd6565b821161074a57506020938161074161064a93611002565b94859233611518565b63936941fc5f52601cfd5b503461020e57602036600319011261020e5761020760209235611076565b503461020e575f36600319011261020e576020906002549051908152f35b503461020e578060031936011261020e576107aa610e42565b602435906387a211a2600c52335f5260209384600c20908154908185116107fe575083900390555f5282600c208181540190558252600c5160601c335f805160206117118339815191528480a35160018152f35b63f4d678b85f52601cfd5b3461020e575f36600319011261020e5761058661136f565b503461020e575f36600319011261020e5760209051670b1a2bc2ec5000008152f35b503461020e575f36600319011261020e576020906003549051908152f35b50903461020e575f36600319011261020e5781516395d89b4160e01b8152905f908290817f00000000000000000000000000000000000000000000000000000000000000006001600160a01b03165afa90811561092d5791610905925f92610909575b506108fb602182518094606f60f81b60208301526108eb8151809260208686019101610df5565b8101036001810185520183610ec8565b5191829182610e16565b0390f35b6109269192503d805f833e61091e8183610ec8565b8101906111ce565b905f6108c4565b82513d5f823e3d90fd5b503461020e578060031936011261020e57602091359061064a610958610e58565b9261096281611076565b80943361145d565b503461020e57602036600319011261020e57602090610987610e42565b6338377508600c525f5281600c20549051908152f35b503461020e578060031936011261020e57602091359061064a6109be610e58565b6109c7846110a2565b9384913361145d565b503461020e575f36600319011261020e576020905166b1a2bc2ec500008152f35b503461020e57602036600319011261020e5761020760209235610fd6565b503461020e575f36600319011261020e576020906001549051908152f35b503461020e575f36600319011261020e576020905166470de4df8200008152f35b503461020e575f36600319011261020e57517f00000000000000000000000000000000000000000000000000000000000000006001600160a01b03168152602090f35b503461020e57602036600319011261020e57610abe60ff610247933592335f525f6020525f20541661102e565b610ac661136f565b6001549081811115610b0857505b610b008130337f00000000000000000000000000000000000000000000000000000000000000006113ff565b600154611069565b9050610ad4565b503461020e575f36600319011261020e5760209060a0610b4e7f0000000000000000000000000000000000000000000000000000000000000000611237565b8381519101208251907f8b73c3c69bb8fe3d512ecc4cf759cc79239f7b179b0ffacaa9a75d522b39400f8252848201527fc89efdaa54c0f20c7adf612882df0950f5a951637e0307cdcb4c672f298b8bc683820152466060820152306080820152209051908152f35b503461020e575f36600319011261020e576020905160128152f35b503461020e57606036600319011261020e57610bec610e42565b610bf4610e58565b604435908260601b6e22d473030f116ddee9f6b43ac78ba33303610c6a575b6387a211a217600c5260209485600c20908154908185116107fe575083900390555f52600c8481208054830190559084525160601c906001600160a01b03165f805160206117118339815191528480a35160018152f35b33602052637f5e9f208117600c526034600c20908154918219610c90575b509050610c13565b828511610ca757846387a211a2930390555f610c88565b876313be252b5f52601cfd5b503461020e575f36600319011261020e576020906805345cdf77eb68f44c549051908152f35b503461020e57602036600319011261020e5761020760209235611002565b503461020e578060031936011261020e57610d10610e42565b602435906001600160a01b0381166e22d473030f116ddee9f6b43ac78ba3188219151715610d8457602080945052637f5e9f20600c52335f52806034600c20555f52602c5160601c337f8c5be1e5ebec7d5bd14f71427d1e84f3dd0314c0f7b2291e5b200ac8c7c3b925845fa35160018152f35b83633f68539a5f52601cfd5b503461020e575f36600319011261020e5761090590610dce7f0000000000000000000000000000000000000000000000000000000000000000611237565b905191829182610e16565b503461020e575f36600319011261020e57602090610207610f34565b5f5b838110610e065750505f910152565b8181015183820152602001610df7565b60409160208252610e368151809281602086015260208686019101610df5565b601f01601f1916010190565b600435906001600160a01b038216820361020e57565b602435906001600160a01b038216820361020e57565b3461020e57602036600319011261020e57610e87610e42565b5060206040515f198152f35b606090600319011261020e57600435906001600160a01b0390602435828116810361020e5791604435908116810361020e5790565b90601f8019910116810190811067ffffffffffffffff821117610eea57604052565b634e487b7160e01b5f52604160045260245ffd5b9066f8b0a10e470000918201809211610f1357565b634e487b7160e01b5f52601160045260245ffd5b91908201809211610f1357565b6040516370a0823160e01b81523060048201526020816024817f00000000000000000000000000000000000000000000000000000000000000006001600160a01b03165afa8015610fcb575f90610f97575b610f94915060015490610f27565b90565b506020813d602011610fc3575b81610fb160209383610ec8565b8101031261020e57610f949051610f86565b3d9150610fa4565b6040513d5f823e3d90fd5b610fde610f34565b9060018201809211610f1357610f949160016805345cdf77eb68f44c5401916112be565b6805345cdf77eb68f44c549060018201809211610f1357610f94916001611027610f34565b019161134c565b1561103557565b60405162461bcd60e51b815260206004820152600c60248201526b15539055551213d49256915160a21b6044820152606490fd5b91908203918211610f1357565b61107e610f34565b9060018201809211610f1357610f949160016805345cdf77eb68f44c54019161134c565b6805345cdf77eb68f44c549060018201809211610f1357610f949160016110c7610f34565b01916112be565b6110d6610f34565b80156111855760015490670de0b6b3a76400009181838202918481840414901517021561113f570490670b1a2bc2ec500000821161114c578066b1a2bc2ec50000928381029381850414901517021561113f5766470de4df82000091048101809111610f135790565b63ad251c275f526004601cfd5b670b1a2bc2ec4fffff198201918211610f135780670214e8348c4f0000928381029381850414901517021561113f57610f949104610efe565b5066470de4df82000090565b906001600160a01b0381166e22d473030f116ddee9f6b43ac78ba3146111c757602052637f5e9f20600c525f526034600c205490565b50505f1990565b60208183031261020e57805167ffffffffffffffff9182821161020e57019082601f8301121561020e578151908111610eea5760405192611219601f8301601f191660200185610ec8565b8184526020828401011161020e57610f949160208085019101610df5565b6040516306fdde0360e01b8152905f90829060049082906001600160a01b03165afa908115610fcb575f916112a4575b50610f946026604051809365027b9b4ba37960d51b60208301526112948151809260208686019101610df5565b8101036006810184520182610ec8565b6112b891503d805f833e61091e8183610ec8565b5f611267565b818102929181158285048214178302156112d9575050900490565b82905f1981840985811086019003920990825f038316928181111561133f578390046002816003028118808302820302808302820302808302820302808302820302808302820302809202900302936001848483030494805f0304019211900302170290565b63ae47f7025f526004601cfd5b92919061135a8282866112be565b930961136257565b9060010190811561133f57565b6003548042146113fc5761138b611384611646565b9142611069565b6301e1338091808202918115918304141782021561113f5704600154818102670de0b6b3a764000091828482840414821517021561113f57826113cf920490610f27565b60015560025490808383029383850414831517021561113f576113f3920490610f27565b60025542600355565b50565b916040519360605260405260601b602c526323b872dd60601b600c5260205f6064601c82855af1908160015f5114161561143f575b50505f606052604052565b3b153d171015611450575f80611434565b637939f4245f526004601cfd5b91909261148c8230857f00000000000000000000000000000000000000000000000000000000000000006113ff565b6805345cdf77eb68f44c80549082820191821061150b57556387a211a2600c52835f526020600c20818154019055602052600c5160601c5f5f80516020611711833981519152602080a35f5260018060a01b0391821691167fdcbc1c05240f31ff3ad067ef1ee35ce4997762752e3a095284754544f4c709d760405fa3565b63e5cfe9575f526004601cfd5b90936001600160a01b03939192918483168585168190036115e5575b6387a211a2600c52835f526020600c20908154918285116115d857845f930390556805345cdf77eb68f44c8481540390558382525f80516020611711833981519152602083a36115a581877f00000000000000000000000000000000000000000000000000000000000000006115f5565b5f52602052821692821691167ffbde797d201c681b91056529119e0b02407c7bb96a4a2c75c01fc9667232c8db60405fa4565b63f4d678b85f526004601cfd5b6115f08386866116b2565b611534565b919060145260345263a9059cbb60601b5f5260205f6044601082855af1908160015f51141615611628575b50505f603452565b3b153d171015611639575f80611620565b6390b8ec185f526004601cfd5b600154801561118557611657610f34565b670de0b6b3a764000091818380830292830414021561113f570490670b1a2bc2ec500000821161114c578066b1a2bc2ec50000928381029381850414901517021561113f5766470de4df82000091048101809111610f135790565b906001600160a01b0381166e22d473030f116ddee9f6b43ac78ba31461170b57602052637f5e9f20600c525f526034600c2090815480196116f257505050565b8082116116fe57039055565b6313be252b5f526004601cfd5b50505056feddf252ad1be2c89b69c2b068fc378daa952ba7f163c4a11628f55a4df523b3efa26469706673582212205e2384f4252b897fb8653ae7a8fc580711cccc1d5fac83366d63b008bc79d4dc64736f6c63430008180033a26469706673582212207a490e9c32f840c707a1e3df89557d8c2e5a7a456aef067727e5bef5fde1830764736f6c63430008180033","linkReferences":{}},"methodIdentifiers":{"allCollateralVaults(uint256)":"6e736f33","allCollateralVaultsLength()":"ec8e6ca2","allLenderVaults(uint256)":"deb7135d","allLenderVaultsLength()":"13912282","deployVaults(address,address,address)":"6a1d4892","getCollateralVault(address,address)":"07de34a5","getLenderVault(address,address)":"3e8bfbd9"},"id":32}