{"abi":[{"type":"constructor","inputs":[{"name":"lendingAsset","type":"address","internalType":"address"},{"name":"_treasury","type":"address","internalType":"address"}],"stateMutability":"nonpayable"},{"type":"function","name":"allMarkets","inputs":[{"name":"","type":"uint256","internalType":"uint256"}],"outputs":[{"name":"","type":"address","internalType":"address"}],"stateMutability":"view"},{"type":"function","name":"allMarketsLength","inputs":[],"outputs":[{"name":"","type":"uint256","internalType":"uint256"}],"stateMutability":"view"},{"type":"function","name":"collateralVaults","inputs":[{"name":"","type":"address","internalType":"address"}],"outputs":[{"name":"","type":"address","internalType":"address"}],"stateMutability":"view"},{"type":"function","name":"createLendingMarket","inputs":[{"name":"pair","type":"address","internalType":"address"}],"outputs":[{"name":"collateralVault","type":"address","internalType":"address"}],"stateMutability":"nonpayable"},{"type":"function","name":"lenderVault","inputs":[],"outputs":[{"name":"","type":"address","internalType":"address"}],"stateMutability":"view"},{"type":"function","name":"treasury","inputs":[],"outputs":[{"name":"","type":"address","internalType":"address"}],"stateMutability":"view"},{"type":"event","name":"MarketCreated","inputs":[{"name":"pair","type":"address","indexed":true,"internalType":"address"},{"name":"lenderVault","type":"address","indexed":false,"internalType":"address"},{"name":"collateralVault","type":"address","indexed":false,"internalType":"address"},{"name":"marketIndex","type":"uint256","indexed":false,"internalType":"uint256"}],"anonymous":false},{"type":"error","name":"MarketExists","inputs":[]}],"bytecode":{"object":"0x60c0346100e857613e99906001600160401b03601f38849003908101601f1916830190828211848310176100d457808491604096879485528339810103126100e857610056602061004f846100ec565b93016100ec565b918260a052835191611b319081840190848210908211176100d457606092849261236884396001600160a01b039081168252306020830152948516868201520301905ff080156100ca571660805251612267908161010182396080518181816101420152610453015260a051816103960152f35b82513d5f823e3d90fd5b634e487b7160e01b5f52604160045260245ffd5b5f80fd5b51906001600160a01b03821682036100e85756fe6080604081815260049081361015610015575f80fd5b5f925f3560e01c90816306876d19146104415750806352d84d1e14610401578063547e7b2f146103c557806361d027b31461038257806388dd46a114610364576399b0736e14610063575f80fd5b346102995760209283600319360112610299576001600160a01b0392803584811692919083900361029957825f525f865284845f205416610356578351630dfe168160e01b815286818381875afa90811561034c575f9161032f575b50845163d21220a760e01b815287818481885afa90811561029d575f91610302575b50855163057078af60e51b815288818581895afa9081156102f8575f916102c2575b50156102ba5750915b845195611d11968781019467ffffffffffffffff988287108a8811176102a75790839161052184391685528589860152606081837f00000000000000000000000000000000000000000000000000000000000000001696878a8201520301905ff0801561029d57811696843b15610299578651635b52ebef60e11b8152848101899052905f82602481838a5af1801561028f57610267575b505084825281885285822080546001600160a01b0319168817905560015468010000000000000000811015610254578060016101e39201600155610482565b819291549060031b9187831b921b1916179055600154915f1983019283116102415750507ffe7e33f239f268e882861cae62e631558d814973588d97738cc084b8b3489599916060918551918252868883015285820152a251908152f35b634e487b7160e01b825260119052602490fd5b634e487b7160e01b835260418452602483fd5b90809293501161027c5785525f905f806101a4565b604183634e487b7160e01b5f525260245ffd5b88513d5f823e3d90fd5b5f80fd5b86513d5f823e3d90fd5b604186634e487b7160e01b5f525260245ffd5b90509161010c565b90508881813d83116102f1575b6102d981836104cb565b8101031261029957518015158103610299575f610103565b503d6102cf565b87513d5f823e3d90fd5b6103229150883d8a11610328575b61031a81836104cb565b810190610501565b5f6100e1565b503d610310565b6103469150873d89116103285761031a81836104cb565b5f6100bf565b85513d5f823e3d90fd5b8351638fc6f59b60e01b8152fd5b5034610299575f366003190112610299576020906001549051908152f35b5034610299575f36600319011261029957517f00000000000000000000000000000000000000000000000000000000000000006001600160a01b03168152602090f35b50903461029957602036600319011261029957356001600160a01b038181169291839003610299576020925f525f8352815f2054169051908152f35b5090346102995760203660031901126102995735906001548210156102995761042b602092610482565b905491519160018060a01b039160031b1c168152f35b34610299575f366003190112610299577f00000000000000000000000000000000000000000000000000000000000000006001600160a01b03168152602090f35b6001548110156104b75760015f527fb10e2d527612073b26eecdfd717e6a320cf44b4afac2b0732d9fcbe2b7fa0cf601905f90565b634e487b7160e01b5f52603260045260245ffd5b90601f8019910116810190811067ffffffffffffffff8211176104ed57604052565b634e487b7160e01b5f52604160045260245ffd5b9081602091031261029957516001600160a01b0381168103610299579056fe60e034620000fa57601f62001d1138819003918201601f19168301916001600160401b03831184841017620000fe57808492606094604052833981010312620000fa576200004d8162000112565b906200006a6040620000626020840162000112565b920162000112565b9160805260a05260c052604051611be990816200012882396080518181816105b80152818161079201528181610a8301526110ca015260a05181818161021e015281816107d6015281816110a40152611952015260c0518181816101b90152818161054801528181610874015281816109f401528181610b8101528181610f740152818161177f01526119120152f35b5f80fd5b634e487b7160e01b5f52604160045260245ffd5b51906001600160a01b0382168203620000fa5756fe6080604081815260049182361015610015575f80fd5b5f925f3560e01c91826306876d191461176d575081630cd865ec14610f3057816329bc969d14610ef7578163371fd8e614610b455781636112fe2e146109c25781639ee2735b14610805578163a8aa1b31146107c1578163b2016bd41461077d578163b2aaa1541461065f578163bad4a01f14610518578163bafca75e146104db578163c1a287e2146104bd578163c5ebeaec14610181578163c877bf2b14610138578163d40e8f4a146100f0575063d698eb76146100d2575f80fd5b346100ec57816003193601126100ec576020905160648152f35b5080fd5b90503461013457602036600319011261013457356001600160a01b038116908190036101345791819281526001602052206001815491015482519182526020820152f35b8280fd5b90503461013457602036600319011261013457356001600160a01b0381169081900361013457918192815260026020522060ff6001825492015416825191825215156020820152f35b90503461013457602091826003193601126104b95781359068929eee149b4bd2126893308554146104ad573085556001600160a01b037f0000000000000000000000000000000000000000000000000000000000000000811690813b1561049f57835163a6afed9560e01b815288908181898183885af180156104a357918893918693610483575b5050855163114a83a360e11b815297889182907f0000000000000000000000000000000000000000000000000000000000000000165afa95861561047957889661044a575b503388528783528388205486810296670de0b6b3a7640000918291818a0414901517021561043e573389526001845284892090600186519261028f846117d6565b805484520154858301908152865163aa5af0fd60e01b8152929086848681895afa938415610434578c94610401575b505183816103f157505051975b046102d68789611814565b116103b9579088929160016102eb888a611814565b918751926102f8846117d6565b83528683019081523386528187528786209251835551910155600284525f60018685208281550155813b15610134578560248492838851958694859363317afabb60e21b85528401525af180156103af57610397575b50506103857fc491b8e6940cb48fcf9cf813c35e2d45fad221af7d5f4ce18d77dc576e5bf220933388528783528388205495611814565b9082519485528401523392a238905580f35b6103a0906117ae565b6103ab57855f61034e565b8580fd5b84513d84823e3d90fd5b845162461bcd60e51b81528083018590526012602482015271455843454544535f504d494e5f56414c554560701b6044820152606490fd5b6103fb9251611b4c565b976102cb565b9093508681813d831161042d575b61041981836117f2565b810103126104295751925f6102be565b5f80fd5b503d61040f565b88513d8e823e3d90fd5b5063ad251c278852601cfd5b9095508281813d8311610472575b61046281836117f2565b810103126104295751945f61024e565b503d610458565b84513d8a823e3d90fd5b9092506104919193506117ae565b61049f57828691895f610209565b8780fd5b86513d84823e3d90fd5b8363ab143c068752601cfd5b8380fd5b5050346100ec57816003193601126100ec57602090516203f4808152f35b9050346101345760203660031901126101345735916001600160a01b0383168303610515575061050c6020926118c3565b90519015158152f35b80fd5b919050346101345760203660031901126101345781359068929eee149b4bd21268923084541461065457308455847f00000000000000000000000000000000000000000000000000000000000000006001600160a01b0316803b156100ec578180918486518094819363a6afed9560e01b83525af180156103af5761063c575b50508151606084815230845233901b602c526323b872dd60601b600c52907f00000000000000000000000000000000000000000000000000000000000000006020876064601c82855af1908160018951141615610620575b5050509061060f91856060528152338552846020528420918254611814565b905561061a33611afb565b38905580f35b3b153d1710156106315780806105f0565b637939f4248652601cfd5b610645906117ae565b61065057845f610598565b8480fd5b63ab143c068552601cfd5b9190503461013457602090816003193601126104b95782356001600160a01b03811693908481036103ab578061069761069c92611afb565b6118c3565b610749578385526002835260ff6001838720015416610717575090817f8f17989de614b609a275ea9f16bd81d93bcc76f661c680aae38bebb3f59d27e892516106e4816117d6565b4281526001838201918183528688526002855283882090518155019051151560ff8019835416911617905551428152a280f35b82606492519162461bcd60e51b8352820152600e60248201526d1053149150511657d3505492d15160921b6044820152fd5b82606492519162461bcd60e51b8352820152601060248201526f504f534954494f4e5f4845414c54485960801b6044820152fd5b5050346100ec57816003193601126100ec57517f00000000000000000000000000000000000000000000000000000000000000006001600160a01b03168152602090f35b5050346100ec57816003193601126100ec57517f00000000000000000000000000000000000000000000000000000000000000006001600160a01b03168152602090f35b8284346105155760209081600319360112610515576001600160a01b03928435848116908181036104b95783948285528481528784862054976001835285872090836001885193610855856117d6565b8054855201549181840192835288519485809263aa5af0fd60e01b82527f0000000000000000000000000000000000000000000000000000000000000000165afa9081156109b8578891610987575b516108b99350908161097757505051926118c3565b928552600281528385209484516108cf816117d6565b60ff60018854988984520154161515809781858401528161094d575b50610911575b505060a09750835196875286015215159084015260608301526080820152f35b519196506203f480820191821061093a575060a09750610932904290611897565b9488806108f1565b634e487b7160e01b815260118952602490fd5b90506203f48081018091116109645742108b6108eb565b634e487b7160e01b835260118b52602483fd5b6109819251611b4c565b926118c3565b90508383813d83116109b1575b61099e81836117f2565b81010312610429576108b99251906108a4565b503d610994565b87513d8a823e3d90fd5b9190503461013457602090816003193601126104b95782359168929eee149b4bd212689330855414610b3a57308555857f00000000000000000000000000000000000000000000000000000000000000006001600160a01b0316803b156100ec578180918487518094819363a6afed9560e01b83525af18015610b3057610b1c575b50503386526001825282862054610ae857338652858252838387205410610aa75750908461061a9392338252528420610a7e828254611897565b9055337f0000000000000000000000000000000000000000000000000000000000000000611b62565b915162461bcd60e51b815291820152601760248201527f494e53554646494349454e545f434f4c4c41544552414c0000000000000000006044820152606490fd5b915162461bcd60e51b815291820152601060248201526f13d55514d5105391125391d7d111509560821b6044820152606490fd5b610b25906117ae565b6103ab57855f610a44565b85513d84823e3d90fd5b63ab143c068652601cfd5b9190503461013457602090816003193601126104b95782359168929eee149b4bd212689330855414610b3a573085556001600160a01b039386917f00000000000000000000000000000000000000000000000000000000000000008681169290833b1561065057865163a6afed9560e01b81528581858183895af18015610e0757908691610ee3575b505033855260019788875287862089895191610be9836117d6565b805483520154888201908152895163aa5af0fd60e01b81529190898388818b5afa928315610ed9578993610ea7575b50518281610e9757505051935b84811115610e91575083995b89516338d52e0f60e01b80825295908a8189818c5afa908115610e6357908b8e8a8f94898f918296610e6d575b506064939495965196879586946323b872dd60e01b865233908601523060248601526044850152165af18015610e6357908d9291610e46575b50818103610e115750505f915033885280895281818b8a2082815501553388526002895289882082815501555b875192835286838581885afa928315610e0757928792878b93610d1d968294610dd8575b508b5163095ea7b360e01b81526001600160a01b03909316888401908152602081019590955291958694859391849160400190565b0393165af18015610dce57610da1575b50813b156101345785602484928388519586948593631b8fec7360e11b85528401525af180156103af57610d8d575b50507fa9e0cdf27a7965d21573ebb808fbcb2c2a1cfd656e1ecf3f82549437b474067791519283523392a238905580f35b610d96906117ae565b61065057845f610d5c565b610dc090853d8711610dc7575b610db881836117f2565b81019061187f565b505f610d2d565b503d610dae565b86513d86823e3d90fd5b610df9919450863d8811610e00575b610df181836117f2565b8101906118a4565b925f610ce8565b503d610de7565b88513d88823e3d90fd5b90610e1b91611897565b918a5192610e28846117d6565b8352898301908152338952818a528a89209251835551910155610cc4565b610e5c908c8d3d10610dc757610db881836117f2565b505f610c97565b8c513d8c823e3d90fd5b859650610e8990606495963d8911610e0057610df181836117f2565b959493610c5e565b99610c31565b610ea19251611b4c565b93610c25565b985091508888813d8111610ed2575b610ec081836117f2565b81010312610429578c9751915f610c18565b503d610eb6565b8b513d8b823e3d90fd5b610eec906117ae565b61065057845f610bce565b90503461013457602036600319011261013457356001600160a01b03811690819003610134578282916020945280845220549051908152f35b919050346104295760209182600319360112610429576001600160a01b03813581811693908481036104295768929eee149b4bd212689530875414611761573087557f00000000000000000000000000000000000000000000000000000000000000009484861692833b1561042957845163a6afed9560e01b81525f81848183895af1801561175757611742575b50610fc890611afb565b86895260028252838920948451610fde816117d6565b8654815260ff600180980154161580158583015261170e57516203f48081018091116116fb5742106116c357878a52858352848a2086865191611020836117d6565b805483520154848201908152865163aa5af0fd60e01b815290858286818a5afa9182156116b9578d9261168a575b5051908161167a57505051965b888b528a8452858b205497881597881580611671575b1561163b57905f8d928c845280885281818b862082815501558c8452838852838a812055600288528984208281550155837f00000000000000000000000000000000000000000000000000000000000000006110ee8c827f0000000000000000000000000000000000000000000000000000000000000000611b62565b16885199630240bc6b60e21b8b5260608b8881855afa801561163157849b85916115fb575b508a5163057078af60e51b81529b898d8a81875afa9c8d156115f157869d6115c7575b508c916001600160701b039183156115be57828116935b156115b5575016915b8b51634bafc7a360e11b81528a818b81885afa9687156115aa579661157b575b50612710958603868111611565578e91818892840293840414170215611557578590049082820292828404148215171561154257906111b491611814565b90811561152e5704998a156114fb578e9190156114a557803b156100ec578180606489828f958f5196879586946336cd320560e11b865285015260248401523060448401525af1801561149b57611483575b50505b80891198891561147b578d82985b8a516338d52e0f60e01b81529689888a81855afa978815611425578a918a8e8e93879c61144c575b505163095ea7b360e01b81526001600160a01b038b1691810191825260208201939093529192918391908290879082906040015b03928d165af180156114255761142f575b50803b156100ec578a51631b8fec7360e11b81528881018b9052828160248183865af1801561142557908391611411575b50508984111561140b576112c98a85611897565b806113b5575b505099611314575b8d8d8d7f03fc2d4f2e2e4e84069307a4d3a9b7ad25d93e2026627031a87b54a1c61907ce60608f8f8f8f8f8251948552840152820152a238905580f35b611322929394959950611897565b9660648802908260648a8404148a151702156113aa5750916113756060989694927f03fc2d4f2e2e4e84069307a4d3a9b7ad25d93e2026627031a87b54a1c61907ce9a9896940480978161139a57611897565b9081611389575b83959799859799506112d7565b61139292611b62565b5f808061137c565b6113a5823387611b62565b611897565b63ad251c278d52601cfd5b813b1561013457829060248a838f51958694859363763c209760e11b85528401525af18015611401576113e9575b806112cf565b6113f2906117ae565b6113fd578d5f6113e3565b8d80fd5b8b513d84823e3d90fd5b816112c9565b61141a906117ae565b6100ec57815f6112b5565b8c513d85823e3d90fd5b611445908a3d8c11610dc757610db881836117f2565b505f611284565b8b919c508594939261146e8992611273983d8911610e0057610df181836117f2565b9d9250929394955061123f565b8d8198611217565b61148c906117ae565b611497578c5f611206565b8c80fd5b8a513d84823e3d90fd5b803b156100ec5781809160648d8d5194859384926336cd320560e11b84528d8401528160248401523060448401525af1801561149b576114e7575b5050611209565b6114f0906117ae565b611497578c5f6114e0565b895162461bcd60e51b8152808801899052600d60248201526c222aa9aa2fa827a9a4aa24a7a760991b6044820152606490fd5b50634e487b7160e01b8f526012875260248ffd5b5050634e487b7160e01b8f526011875260248ffd5b508f63ad251c27899152601cfd5b50505060248f601189634e487b7160e01b835252fd5b9095508981813d83116115a3575b61159381836117f2565b810103126104295751945f611176565b503d611589565b8d51903d90823e3d90fd5b90501691611156565b8282169361114d565b6001600160701b0391929d506115e9908b3d8d11610dc757610db881836117f2565b9c9190611136565b8c513d88823e3d90fd5b9050611620919b5060603d60601161162a575b61161881836117f2565b810190611849565b509a909a5f611113565b503d61160e565b8a513d86823e3d90fd5b875162461bcd60e51b8152808601879052601060248201526f24a72b20a624a22fa827a9a4aa24a7a760811b6044820152606490fd5b50811515611071565b6116849251611b4c565b9661105b565b9091508581813d83116116b2575b6116a281836117f2565b810103126104295751905f61104e565b503d611698565b88513d8f823e3d90fd5b5060649184519162461bcd60e51b8352820152601360248201527247524143455f504552494f445f41435449564560681b6044820152fd5b634e487b7160e01b8b526011835260248bfd5b855162461bcd60e51b8152808401859052600e60248201526d4e4f545f4d41524b45445f4f544d60901b6044820152606490fd5b61174d919a506117ae565b5f98610fc8610fbe565b86513d5f823e3d90fd5b8463ab143c065f52601cfd5b34610429575f366003190112610429577f00000000000000000000000000000000000000000000000000000000000000006001600160a01b03168152602090f35b67ffffffffffffffff81116117c257604052565b634e487b7160e01b5f52604160045260245ffd5b6040810190811067ffffffffffffffff8211176117c257604052565b90601f8019910116810190811067ffffffffffffffff8211176117c257604052565b9190820180921161182157565b634e487b7160e01b5f52601160045260245ffd5b51906001600160701b038216820361042957565b908160609103126104295761185d81611835565b91604061186c60208401611835565b92015163ffffffff811681036104295790565b90816020910312610429575180151581036104295790565b9190820391821161182157565b9081602091031261042957516001600160a01b03811681036104295790565b60018060a01b03809116805f52602090600182526040805f208151906118e8826117d6565b600181549182845201549085830191825215611af057825163aa5af0fd60e01b81529085826004817f00000000000000000000000000000000000000000000000000000000000000008b165afa918215611ae6575f92611ab7575b50519081611aa757505051935b7f0000000000000000000000000000000000000000000000000000000000000000168151630240bc6b60e21b8152606081600481855afa918215611a7557908560049493925f925f94611a7f575b50845163057078af60e51b815295869182905afa938415611a75575f94611a4b575b506001600160701b0391908415611a4257828116945b15611a3a5750165b8215611a3057670de0b6b3a764000094838683029287818504149015170215611a235785935f9204948252525f205482810292818404149015170215611a2357041190565b63ad251c275f526004601cfd5b5050505050505f90565b9050166119de565b828216946119d6565b6001600160701b0392919450611a6d90873d8911610dc757610db881836117f2565b9390916119c0565b83513d5f823e3d90fd5b909350611a9c91925060603d60601161162a5761161881836117f2565b50919091925f61199e565b611ab19251611b4c565b93611950565b9091508581813d8311611adf575b611acf81836117f2565b810103126104295751905f611943565b503d611ac5565b84513d5f823e3d90fd5b505050505050600190565b60018060a01b03811690815f52600260205260ff600160405f200154169081611b3c575b50611b275750565b5f5260026020525f6001604082208281550155565b611b4691506118c3565b5f611b1f565b8181029181159183041417820215611a23570490565b919060145260345263a9059cbb60601b5f5260205f6044601082855af1908160015f51141615611b95575b50505f603452565b3b153d171015611ba6575f80611b8d565b6390b8ec185f526004601cfdfea2646970667358221220443111c01e63cad05911d8b9624803e2a04e64affc5fae02ee176f635d4d752a64736f6c63430008180033a26469706673582212202bbd209e5040034dd9fea3865460bba2e28b9d99d210b649ade0330b5c6e808664736f6c6343000818003360e0346200010357601f62001b3138819003918201601f19168301916001600160401b03831184841017620001075780849260609460405283398101031262000103576200004d816200011b565b906200006a604062000062602084016200011b565b92016200011b565b91670de0b6b3a764000060035560805260a05260c05242600455604051611a009081620001318239608051818181610360015281816105b0015281816108d301528181610b0f01528181610b8901528181610bd701528181610ea101528181610fee0152818161119301528181611753015261186c015260a051818181610626015261070d015260c051818181610a4e0152610e570152f35b5f80fd5b634e487b7160e01b5f52604160045260245ffd5b51906001600160a01b0382168203620001035756fe60406080815260049081361015610014575f80fd5b5f3560e01c806301e1d1141461101d57806306fdde0314610fd457806307a2d13a14610a9e57806307e2795914610e3d578063095ea7b314610da45780630a28a47714610d8657806318160ddd14610d6057806323b872dd14610c7f578063313ce56714610c645780633644e51514610bbc578063371fd8e614610b3e57806338d52e0f14610afb578063402d267d1461054757806341910f9014610ada57806347bd371814610abc5780634cdad50614610a9e5780635fc1419d14610a7d57806361d027b314610a3a5780636e553f6514610a0757806370a08231146102c75780637ecebe00146109d45780638f840ddd146109b657806394bf804d1461098357806395d89b41146108ad5780639ffe797314610891578063a35cc8281461086f578063a6afed9514610857578063a9059cbb146107df578063aa5af0fd146107c1578063b3d7f6b9146107a3578063b460af941461074c578063b6a5d7de146106e4578063b9181611146106a9578063ba08765214610655578063c45a015514610612578063c5ebeaec1461054c578063c63d75b614610547578063c6e6f59214610529578063c914b4371461050d578063ce96cb77146104d9578063d505accf146102fa578063d905777e146102c7578063dd62ed3e1461029a578063ea32605b14610278578063ec78412e1461023e5763ef8b30f714610216575f80fd5b3461023a57602036600319011261023a57610233602092356112e6565b9051908152f35b5f80fd5b50903461023a57602036600319011261023a5761026a60ff61027393335f525f6020525f20541661127f565b35600154611246565b600155005b503461023a575f36600319011261023a576020905167016345785d8a00008152f35b503461023a578060031936011261023a576020906102336102b9611086565b6102c161109c565b906113d5565b503461023a57602036600319011261023a576020906102e4611086565b6387a211a2600c525f5281600c20549051908152f35b503461023a5760e036600319011261023a57610314611086565b9061031d61109c565b9060443592606435936084359260ff8416840361023a576001600160a01b03948516956e22d473030f116ddee9f6b43ac78ba3871883191517156104cd576103847f000000000000000000000000000000000000000000000000000000000000000061147b565b948551602080970120908242116104c15760c0978451961697889665383775081901600e52875f5288600c2094855480957f8b73c3c69bb8fe3d512ecc4cf759cc79239f7b179b0ffacaa9a75d522b39400f84528b84019081528d8985017fc89efdaa54c0f20c7adf612882df0950f5a951637e0307cdcb4c672f298b8bc68152606086019c8d469052608087019330855260a08820602e527f6e71edae12b1b97f4d1f60370fef10105fa2faae0126114a169c64845d6126c988525252898b525260a082015220604e526042602c205f5260ff16865260a435835260c435606052858060805f60015afa90873d51036104b5577f8c5be1e5ebec7d5bd14f71427d1e84f3dd0314c0f7b2291e5b200ac8c7c3b92597989950019055866303faf4f960a51b1790526034602c2055a3005b8963ddafbaef5f52601cfd5b89631a15a3cc5f52601cfd5b87633f68539a5f52601cfd5b503461023a57602036600319011261023a576020906104f6611086565b6387a211a2600c525f5261023382600c205461121a565b503461023a575f36600319011261023a57602090610233611312565b503461023a57602036600319011261023a57610233602092356112e6565b6110b2565b50903461023a57602036600319011261023a57803590335f525f60205261057860ff845f20541661127f565b610580611590565b610588611178565b9260015493610597848661116b565b116105d6576105d4836105aa818761116b565b600155337f0000000000000000000000000000000000000000000000000000000000000000611676565b005b906020606492519162461bcd60e51b83528201526016602482015275494e53554646494349454e545f4c495155494449545960501b6044820152fd5b503461023a575f36600319011261023a57517f00000000000000000000000000000000000000000000000000000000000000006001600160a01b03168152602090f35b503461023a57610664366110d7565b9291936387a211a2600c52835f526020600c2054851161069e5750836106989161068f60209661121a565b94859133611803565b51908152f35b634656425a5f52601cfd5b503461023a57602036600319011261023a576020906001600160a01b036106ce611086565b165f525f825260ff815f20541690519015158152f35b503461023a57602036600319011261023a576106fe611086565b6001600160a01b0390610734337f000000000000000000000000000000000000000000000000000000000000000084161461127f565b165f908152602081905220805460ff19166001179055005b503461023a5761075b366110d7565b929190936387a211a2600c52835f526107786020600c205461121a565b821161079857506020938161078f61069893611253565b94859233611803565b63936941fc5f52601cfd5b503461023a57602036600319011261023a57610233602092356112ba565b503461023a575f36600319011261023a576020906003549051908152f35b503461023a578060031936011261023a576107f8611086565b602435906387a211a2600c52335f5260209384600c209081549081851161084c575083900390555f5282600c208181540190558252600c5160601c335f805160206119ab8339815191528480a35160018152f35b63f4d678b85f52601cfd5b3461023a575f36600319011261023a576105d4611590565b503461023a575f36600319011261023a5760209051670b1a2bc2ec5000008152f35b503461023a575f36600319011261023a57602091549051908152f35b50903461023a575f36600319011261023a5781516395d89b4160e01b8152905f908290817f00000000000000000000000000000000000000000000000000000000000000006001600160a01b03165afa9081156109795791610951925f92610955575b50610947602182518094606f60f81b60208301526109378151809260208686019101611039565b810103600181018552018361110c565b519182918261105a565b0390f35b6109729192503d805f833e61096a818361110c565b810190611412565b905f610910565b82513d5f823e3d90fd5b503461023a578060031936011261023a5760209135906106986109a461109c565b926109ae816112ba565b809433611748565b503461023a575f36600319011261023a576020906002549051908152f35b503461023a57602036600319011261023a576020906109f1611086565b6338377508600c525f5281600c20549051908152f35b503461023a578060031936011261023a576020913590610698610a2861109c565b610a31846112e6565b93849133611748565b503461023a575f36600319011261023a57517f00000000000000000000000000000000000000000000000000000000000000006001600160a01b03168152602090f35b503461023a575f36600319011261023a576020905166b1a2bc2ec500008152f35b503461023a57602036600319011261023a576102336020923561121a565b503461023a575f36600319011261023a576020906001549051908152f35b503461023a575f36600319011261023a576020905166470de4df8200008152f35b503461023a575f36600319011261023a57517f00000000000000000000000000000000000000000000000000000000000000006001600160a01b03168152602090f35b503461023a57602036600319011261023a57610b6b60ff610273933592335f525f6020525f20541661127f565b610b73611590565b6001549081811115610bb557505b610bad8130337f00000000000000000000000000000000000000000000000000000000000000006116ea565b600154611246565b9050610b81565b503461023a575f36600319011261023a5760209060a0610bfb7f000000000000000000000000000000000000000000000000000000000000000061147b565b8381519101208251907f8b73c3c69bb8fe3d512ecc4cf759cc79239f7b179b0ffacaa9a75d522b39400f8252848201527fc89efdaa54c0f20c7adf612882df0950f5a951637e0307cdcb4c672f298b8bc683820152466060820152306080820152209051908152f35b503461023a575f36600319011261023a576020905160128152f35b503461023a57606036600319011261023a57610c99611086565b610ca161109c565b604435908260601b6e22d473030f116ddee9f6b43ac78ba33303610d17575b6387a211a217600c5260209485600c209081549081851161084c575083900390555f52600c8481208054830190559084525160601c906001600160a01b03165f805160206119ab8339815191528480a35160018152f35b33602052637f5e9f208117600c526034600c20908154918219610d3d575b509050610cc0565b828511610d5457846387a211a2930390555f610d35565b876313be252b5f52601cfd5b503461023a575f36600319011261023a576020906805345cdf77eb68f44c549051908152f35b503461023a57602036600319011261023a5761023360209235611253565b503461023a578060031936011261023a57610dbd611086565b602435906001600160a01b0381166e22d473030f116ddee9f6b43ac78ba3188219151715610e3157602080945052637f5e9f20600c52335f52806034600c20555f52602c5160601c337f8c5be1e5ebec7d5bd14f71427d1e84f3dd0314c0f7b2291e5b200ac8c7c3b925845fa35160018152f35b83633f68539a5f52601cfd5b50903461023a576020908160031936011261023a578035917f0000000000000000000000000000000000000000000000000000000000000000916001600160a01b03918284163303610fa257610e91611590565b60025495868611610f69576024827f0000000000000000000000000000000000000000000000000000000000000000958351928380926370a0823160e01b8252308983015289165afa908115610979575f91610f3c575b508611610f0757505050610eff836105d495611246565b600255611676565b5162461bcd60e51b81529182015260116024820152700929ca6aa8c8c9286928a9ca8be8682a69607b1b604482015260649150fd5b90508281813d8311610f62575b610f53818361110c565b8101031261023a57515f610ee8565b503d610f49565b5162461bcd60e51b8152918201526015602482015274494e53554646494349454e545f524553455256455360581b604482015260649150fd5b855162461bcd60e51b815291820152600d60248201526c4f4e4c595f545245415355525960981b604482015260649150fd5b503461023a575f36600319011261023a57610951906110127f000000000000000000000000000000000000000000000000000000000000000061147b565b90519182918261105a565b503461023a575f36600319011261023a57602090610233611178565b5f5b83811061104a5750505f910152565b818101518382015260200161103b565b6040916020825261107a8151809281602086015260208686019101611039565b601f01601f1916010190565b600435906001600160a01b038216820361023a57565b602435906001600160a01b038216820361023a57565b3461023a57602036600319011261023a576110cb611086565b5060206040515f198152f35b606090600319011261023a57600435906001600160a01b0390602435828116810361023a5791604435908116810361023a5790565b90601f8019910116810190811067ffffffffffffffff82111761112e57604052565b634e487b7160e01b5f52604160045260245ffd5b9066f8b0a10e47000091820180921161115757565b634e487b7160e01b5f52601160045260245ffd5b9190820180921161115757565b6040516370a0823160e01b81523060048201526020816024817f00000000000000000000000000000000000000000000000000000000000000006001600160a01b03165afa801561120f575f906111db575b6111d891506001549061116b565b90565b506020813d602011611207575b816111f56020938361110c565b8101031261023a576111d890516111ca565b3d91506111e8565b6040513d5f823e3d90fd5b611222611178565b9060018201809211611157576111d89160016805345cdf77eb68f44c540191611502565b9190820391821161115757565b6805345cdf77eb68f44c549060018201809211611157576111d8916001611278611178565b01916116c7565b1561128657565b60405162461bcd60e51b815260206004820152600c60248201526b15539055551213d49256915160a21b6044820152606490fd5b6112c2611178565b9060018201809211611157576111d89160016805345cdf77eb68f44c5401916116c7565b6805345cdf77eb68f44c549060018201809211611157576111d891600161130b611178565b0191611502565b61131a611178565b80156113c95760015490670de0b6b3a764000091818382029184818404149015170215611383570490670b1a2bc2ec5000008211611390578066b1a2bc2ec5000092838102938185041490151702156113835766470de4df820000910481018091116111575790565b63ad251c275f526004601cfd5b670b1a2bc2ec4fffff1982019182116111575780670214e8348c4f00009283810293818504149015170215611383576111d89104611142565b5066470de4df82000090565b906001600160a01b0381166e22d473030f116ddee9f6b43ac78ba31461140b57602052637f5e9f20600c525f526034600c205490565b50505f1990565b60208183031261023a57805167ffffffffffffffff9182821161023a57019082601f8301121561023a57815190811161112e576040519261145d601f8301601f19166020018561110c565b8184526020828401011161023a576111d89160208085019101611039565b6040516306fdde0360e01b8152905f90829060049082906001600160a01b03165afa90811561120f575f916114e8575b506111d86026604051809365027b9b4ba37960d51b60208301526114d88151809260208686019101611039565b810103600681018452018261110c565b6114fc91503d805f833e61096a818361110c565b5f6114ab565b8181029291811582850482141783021561151d575050900490565b82905f1981840985811086019003920990825f0383169281811115611583578390046002816003028118808302820302808302820302808302820302808302820302808302820302809202900302936001848483030494805f0304019211900302170290565b63ae47f7025f526004601cfd5b60048054804214611672576115ad6115a66118e0565b9142611246565b6301e13380918082029181159183041417820215611666570460015481810290670de0b6b3a764000091828483830414831517021561165a57826115f39104809261116b565b6001558167016345785d8a0000918281029281840414901517021561164e5781611620910460025461116b565b60025560035491818184029184830414841517021561164e57906116469291049061116b565b600355429055565b8363ad251c275f52601cfd5b8463ad251c275f52601cfd5b8263ad251c275f52601cfd5b5050565b919060145260345263a9059cbb60601b5f5260205f6044601082855af1908160015f511416156116a9575b50505f603452565b3b153d1710156116ba575f806116a1565b6390b8ec185f526004601cfd5b9291906116d5828286611502565b93096116dd57565b9060010190811561158357565b916040519360605260405260601b602c526323b872dd60601b600c5260205f6064601c82855af1908160015f5114161561172a575b50505f606052604052565b3b153d17101561173b575f8061171f565b637939f4245f526004601cfd5b9190926117778230857f00000000000000000000000000000000000000000000000000000000000000006116ea565b6805345cdf77eb68f44c8054908282019182106117f657556387a211a2600c52835f526020600c20818154019055602052600c5160601c5f5f805160206119ab833981519152602080a35f5260018060a01b0391821691167fdcbc1c05240f31ff3ad067ef1ee35ce4997762752e3a095284754544f4c709d760405fa3565b63e5cfe9575f526004601cfd5b90936001600160a01b03939192918483168585168190036118d0575b6387a211a2600c52835f526020600c20908154918285116118c357845f930390556805345cdf77eb68f44c8481540390558382525f805160206119ab833981519152602083a361189081877f0000000000000000000000000000000000000000000000000000000000000000611676565b5f52602052821692821691167ffbde797d201c681b91056529119e0b02407c7bb96a4a2c75c01fc9667232c8db60405fa4565b63f4d678b85f526004601cfd5b6118db83868661194c565b61181f565b60015480156113c9576118f1611178565b670de0b6b3a7640000918183808302928304140215611383570490670b1a2bc2ec5000008211611390578066b1a2bc2ec5000092838102938185041490151702156113835766470de4df820000910481018091116111575790565b906001600160a01b0381166e22d473030f116ddee9f6b43ac78ba3146119a557602052637f5e9f20600c525f526034600c20908154801961198c57505050565b80821161199857039055565b6313be252b5f526004601cfd5b50505056feddf252ad1be2c89b69c2b068fc378daa952ba7f163c4a11628f55a4df523b3efa2646970667358221220984c1d520bf7ed187132da4224ef8b10749d7606a7519502b6bc6f0b988dfc1564736f6c63430008180033","linkReferences":{}},"methodIdentifiers":{"allMarkets(uint256)":"52d84d1e","allMarketsLength()":"88dd46a1","collateralVaults(address)":"547e7b2f","createLendingMarket(address)":"99b0736e","lenderVault()":"06876d19","treasury()":"61d027b3"},"id":30}