{"abi":[{"type":"function","name":"deployVaults","inputs":[{"name":"collateralToken","type":"address","internalType":"address"},{"name":"lendingAsset","type":"address","internalType":"address"},{"name":"pair","type":"address","internalType":"address"}],"outputs":[{"name":"collateralVault","type":"address","internalType":"address"},{"name":"lenderVault","type":"address","internalType":"address"}],"stateMutability":"nonpayable"},{"type":"event","name":"VaultsDeployed","inputs":[{"name":"collateralToken","type":"address","indexed":true,"internalType":"address"},{"name":"lendingAsset","type":"address","indexed":true,"internalType":"address"},{"name":"pair","type":"address","indexed":true,"internalType":"address"},{"name":"collateralVault","type":"address","indexed":false,"internalType":"address"},{"name":"lenderVault","type":"address","indexed":false,"internalType":"address"}],"anonymous":false}],"bytecode":{"object":"0x608080604052346100165761300b908161001b8239f35b5f80fdfe6080604081815260049182361015610015575f80fd5b5f3560e01c636a1d489214610028575f80fd5b346101ac5760603660031901126101ac576001600160a01b03918335838116908190036101ac576024358481168091036101ac57604435918583168093036101ac576118529485810167ffffffffffffffff96828210888311176101d7578691839161178483398581525f60208201520301905ff080156101cd57861695845161159980820190828210898311176101ba5760609183916101eb83398581528760208201528a898201520301905ff080156101b0571694863b156101ac578451635b52ebef60e11b8152888101879052905f82602481838c5af180156101a257610179575b505083516001600160a01b03868116825287166020820152959650939461017594907f030f137a392b508916ac26fcadc8f28935ea5587f0e18649c5228e1b7a27663990604090a4516001600160a01b03928316815292909116602083015281906040820190565b0390f35b811161018f57845294955085946101755f61010d565b604188634e487b7160e01b5f525260245ffd5b86513d5f823e3d90fd5b5f80fd5b85513d5f823e3d90fd5b60418b634e487b7160e01b5f525260245ffd5b84513d5f823e3d90fd5b60418a634e487b7160e01b5f525260245ffdfe60e0346100ef57601f61159938819003918201601f19168301916001600160401b038311848410176100f3578084926060946040528339810103126100ef5761004781610107565b90610060604061005960208401610107565b9201610107565b9160805260a05260c05260405161147d908161011c82396080518181816107d301528181610a1101528181610ac40152610be2015260a05181818161063401528181610b080152818161116601526112f1015260c05181818161011b0152818161027801528181610551015281816109a101528181610b6501528181610c7601528181610f3a015261110c0152f35b5f80fd5b634e487b7160e01b5f52604160045260245ffd5b51906001600160a01b03821682036100ef5756fe6080604081815260049081361015610015575f80fd5b5f925f3560e01c90816306876d1914610f285750806317f49e0514610f0c57806329bc969d14610ed6578063371fd8e614610c3d5780634dab4dc014610c205780636112fe2e14610b37578063a8aa1b3114610af3578063b2016bd414610aaf578063bad4a01f14610973578063bcbaf48714610505578063c5ebeaec1461023f578063c66c144a14610222578063d40e8f4a146101dc5763e59e8018146100bb575f80fd5b346101d8576020806003193601126101d4576100d5610f69565b6001600160a01b03818116808752600180855285882086519397929186916100fc86610fa7565b8054865201549781850198895287519384809263aa5af0fd60e01b82527f0000000000000000000000000000000000000000000000000000000000000000165afa9182156101ca578892610190575b5087528684529584902054945160609661016f9291908161018057505051916110b9565b918351948552840152151590820152f35b61018a9251611096565b916110b9565b929150968483813d83116101c3575b6101a98183610fc3565b810103126101bf5791519196909190606061014b565b5f80fd5b503d61019f565b86513d8a823e3d90fd5b8380fd5b8280fd5b83823461021e57602036600319011261021e579081906001600160a01b03610202610f69565b1681526001602052206001815491015482519182526020820152f35b5080fd5b83823461021e578160031936011261021e57602090516129048152f35b5090346101d857602090816003193601126101d45780359268929eee149b4bd2126893308554146104f957308555856001600160a01b037f00000000000000000000000000000000000000000000000000000000000000008116803b156101d857845163a6afed9560e01b81528381888183865af18015610488579084916104e5575b50503383526001875284832060018651916102dc83610fa7565b805483520154888201908152865163aa5af0fd60e01b8152919089838a81875afa9283156104db579087929187946104a1575b509161032a91600193518581155f1461049257505051611089565b9187519261033784610fa7565b8352898301908152338652818a52878620925183555191015561036161035c336110b9565b61103d565b803b156101d857845163317afabb60e21b8152868101859052838160248183865af18015610488579188918895949361046d575b5086516338d52e0f60e01b815297889182905afa95861561046357908291889594939761042d575b5090604492918651978895869463a9059cbb60e01b865233908601526024850152165af190811561042457506103f6575b505038905580f35b8161041592903d1061041d575b61040d8183610fc3565b810190611004565b505f806103ee565b503d610403565b513d86823e3d90fd5b6044939291975061045390863d881161045c575b61044b8183610fc3565b810190610fe5565b969091926103bd565b503d610441565b85513d84823e3d90fd5b61047b919550849250610f7f565b61021e578686935f610395565b86513d86823e3d90fd5b61049c9251611096565b611089565b9250925094508881813d83116104d4575b6104bc8183610fc3565b810103126101bf57518a94909186919061032a61030f565b503d6104b2565b88513d88823e3d90fd5b6104ee90610f7f565b6101d857825f6102c2565b8263ab143c068752601cfd5b5090346101d857816003193601126101d85761051f610f69565b906024359068929eee149b4bd21268933085541461096757308555610543846110b9565b610932576001600160a01b037f0000000000000000000000000000000000000000000000000000000000000000811694853b1561092e57825163a6afed9560e01b8152889081818781838c5af18015610463579084939291610915575b505016948588526020936001855283892060018551916105bf83610fa7565b805483520154868201908152855163aa5af0fd60e01b8152919087838581885afa92831561090b578c936108dc575b505182816108cd575050515b61138897888202612710809a84830414841517021561086e5789900490818111156108c55750975b865163114a83a360e11b8152888186817f00000000000000000000000000000000000000000000000000000000000000008b165afa9081156108bb578d9161088e575b5061066e6112e2565b808211156108865750905b61290481818c02918c8304148c1517021561087a570481670de0b6b3a7640000918281029281840414901517021561086e57908c959493929104958a86528589526106c98887205488111561103d565b87516338d52e0f60e01b815289818681895afa908115610864578a91610722918991610847575b508a516323b872dd60e01b815233888201908152306020820152604081018f90529094859384928c9291849160600190565b0393165af180156104db57600192610741928c9261082a575b5061101c565b9187519261074e84610fa7565b83528883019081528a8652818952878620925183555191015582865284832061077885825461101c565b9055813b156101d85786602484928388519586948593631b8fec7360e11b85528401525af1801561082057610808575b50507ff3fa0eaee8f258c23b013654df25d1527f98a5c7ccd5e951dd77caca400ef972926107f782337f000000000000000000000000000000000000000000000000000000000000000061127d565b82519485528401523392a338905580f35b61081190610f7f565b61081c57865f6107a8565b8680fd5b84513d84823e3d90fd5b610840908c8d3d1061041d5761040d8183610fc3565b505f61073b565b61085e9150833d851161045c5761044b8183610fc3565b5f6106f0565b89513d89823e3d90fd5b8463ad251c278e52601cfd5b8563ad251c278f52601cfd5b905090610679565b90508881813d83116108b4575b6108a58183610fc3565b810103126101bf57515f610665565b503d61089b565b88513d8f823e3d90fd5b905097610622565b6108d79251611096565b6105fa565b9092508781813d8311610904575b6108f48183610fc3565b810103126101bf5751915f6105ee565b503d6108ea565b87513d8e823e3d90fd5b61092191929350610f7f565b61092e578190885f6105a0565b8780fd5b906020606492519162461bcd60e51b8352820152600f60248201526e4143434f554e545f4845414c54485960881b6044820152fd5b5063ab143c068552601cfd5b50346101d85760203660031901126101d85781359068929eee149b4bd212689230845414610aa457308455847f00000000000000000000000000000000000000000000000000000000000000006001600160a01b0316803b1561021e578180918486518094819363a6afed9560e01b83525af1801561082057610a8c575b50508151606084815230845233901b602c526323b872dd60601b600c52907f00000000000000000000000000000000000000000000000000000000000000006020876064601c82855af1908160018951141615610a70575b50505090610a6891856060528152338552846020528420918254611089565b905538905580f35b3b153d171015610a81578080610a49565b637939f4248652601cfd5b610a9590610f7f565b610aa057845f6109f1565b8480fd5b63ab143c068552601cfd5b83823461021e578160031936011261021e57517f00000000000000000000000000000000000000000000000000000000000000006001600160a01b03168152602090f35b83823461021e578160031936011261021e57517f00000000000000000000000000000000000000000000000000000000000000006001600160a01b03168152602090f35b50346101d85760203660031901126101d857813568929eee149b4bd212689230845414610aa45730845584907f00000000000000000000000000000000000000000000000000000000000000006001600160a01b031690813b156101d857845163a6afed9560e01b81529183918391829084905af1801561082057610c0c575b5050610c0691338552846020528420610bd182825461101c565b9055610bdf61035c336110b9565b337f000000000000000000000000000000000000000000000000000000000000000061127d565b38905580f35b610c1590610f7f565b6101d457835f610bb7565b83823461021e578160031936011261021e57602090516113888152f35b509190346101bf57602092836003193601126101bf5781359068929eee149b4bd212689230845414610ecb573084556001600160a01b037f0000000000000000000000000000000000000000000000000000000000000000811693843b156101bf57835163a6afed9560e01b81525f818581838a5af18015610ec157610eac575b5096869796959633875260018252848720906001865192610cde84610fa7565b805484520154838301908152865163aa5af0fd60e01b81529290848488818c5afa938415610e5a578a94610e7a575b50518381610e6a57505051905b81811115610e64575080935b86516338d52e0f60e01b815290848288818c5afa918215610e5a57610d8492888c88948a948294610e3b575b508c516323b872dd60e01b81523393810193845230602085015260408401959095529395869485939091849160600190565b0393165af18015610e315785600194938593610da493610e1b575061101c565b93875194610db186610fa7565b8552808501928352338a52528588209251835551910155833b15610aa057602485928385519687948593631b8fec7360e11b85528401525af1908115610e125750610dfe57505038905580f35b610e0790610f7f565b61021e57815f6103ee565b513d84823e3d90fd5b61084090883d8a1161041d5761040d8183610fc3565b87513d8b823e3d90fd5b610e53919450863d881161045c5761044b8183610fc3565b925f610d52565b88513d8c823e3d90fd5b93610d26565b610e749251611096565b90610d1a565b995092508389813d8111610ea5575b610e938183610fc3565b810103126101bf578a9851925f610d0d565b503d610e89565b610eb891969750610f7f565b5f95945f610cbe565b85513d5f823e3d90fd5b63ab143c065f52601cfd5b50346101bf5760203660031901126101bf576020906001600160a01b03610efb610f69565b165f525f8252805f20549051908152f35b50346101bf575f3660031901126101bf5760209051611f408152f35b346101bf575f3660031901126101bf577f00000000000000000000000000000000000000000000000000000000000000006001600160a01b03168152602090f35b600435906001600160a01b03821682036101bf57565b67ffffffffffffffff8111610f9357604052565b634e487b7160e01b5f52604160045260245ffd5b6040810190811067ffffffffffffffff821117610f9357604052565b90601f8019910116810190811067ffffffffffffffff821117610f9357604052565b908160209103126101bf57516001600160a01b03811681036101bf5790565b908160209103126101bf575180151581036101bf5790565b9190820391821161102957565b634e487b7160e01b5f52601160045260245ffd5b1561104457565b60405162461bcd60e51b815260206004820152601760248201527f494e53554646494349454e545f434f4c4c41544552414c0000000000000000006044820152606490fd5b9190820180921161102957565b81810291811591830414178202156110ac570490565b63ad251c275f526004601cfd5b6001600160a01b039081165f81815260016020908152604091829020825191906110e283610fa7565b60018154918285520154908284019182521561127257835163aa5af0fd60e01b81529082826004817f00000000000000000000000000000000000000000000000000000000000000008b165afa918215610ec1575f92611240575b50928291600494519081155f1461123057505051955b845163114a83a360e11b815293849182907f0000000000000000000000000000000000000000000000000000000000000000165afa8015611226575f906111f9575b5f92506111a06112e2565b80821184146111f15750935b8252525f20549080820290670de0b6b3a76400009283918184041490151702156110ac5704611f40808202906127109283918184041490151702156110ac5704101590565b9050936111ac565b508082813d831161121f575b61120f8183610fc3565b810103126101bf575f9151611195565b503d611205565b83513d5f823e3d90fd5b61123a9251611096565b95611153565b9150928282813d831161126b575b6112588183610fc3565b810103126101bf5790519092600461113d565b503d61124e565b505050505050600190565b919060145260345263a9059cbb60601b5f5260205f6044601082855af1908160015f511416156112b0575b50505f603452565b3b153d1710156112c1575f806112a8565b6390b8ec185f526004601cfd5b51906001600160701b03821682036101bf57565b604051630240bc6b60e21b81527f00000000000000000000000000000000000000000000000000000000000000006001600160a01b0316606082600481845afa9081156113de575f925f926113e9575b509060206004926040519384809263057078af60e51b82525afa9182156113de575f926113b6575b506001600160701b039192835f146113ad57828116935b156113a55750165b811561139f5781670de0b6b3a764000091828102928184041490151702156110ac570490565b50505f90565b905016611379565b82821693611371565b6001600160701b0392506113d89060203d60201161041d5761040d8183610fc3565b9161135a565b6040513d5f823e3d90fd5b925090506060823d60601161143f575b8161140660609383610fc3565b810103126101bf57611417826112ce565b906040611426602085016112ce565b93015163ffffffff8116036101bf579091906020611332565b3d91506113f956fea2646970667358221220c069017e602d2f2f3be354c588030a1bcdf35c0e6b721dc099a0a4c37c56d24864736f6c6343000818003360c0346100ff57601f6200185238819003918201601f19168301916001600160401b038311848410176101035780849260409485528339810103126100ff57610053602061004c83610117565b9201610117565b670de0b6b3a76400006002556080919091523360a0526001600160a01b0316806100e4575b4260035560405161172690816200012c82396080518181816102cd0152818161051d0152818161084201528181610a1d01528181610a9701528181610aea01528181610d6a01528181610f0f015281816114280152611541015260a051818181610593015261067a0152f35b5f525f60205260405f20600160ff198254161790555f610078565b5f80fd5b634e487b7160e01b5f52604160045260245ffd5b51906001600160a01b03821682036100ff5756fe60406080815260049081361015610014575f80fd5b5f3560e01c806301e1d11414610d9957806306fdde0314610d5057806307a2d13a146109ac578063095ea7b314610cb75780630a28a47714610c9957806318160ddd14610c7357806323b872dd14610b92578063313ce56714610b775780633644e51514610acf578063371fd8e614610a4c57806338d52e0f14610a09578063402d267d146104b457806341910f90146109e857806347bd3718146109ca5780634cdad506146109ac5780635fc1419d1461098b5780636e553f651461095857806370a08231146102345780637ecebe001461092557806394bf804d146108f257806395d89b411461081c5780639ffe7973146107fe578063a35cc828146107dc578063a6afed95146107c4578063a9059cbb1461074c578063aa5af0fd1461072e578063b3d7f6b914610710578063b460af94146106b9578063b6a5d7de14610651578063b918161114610616578063ba087652146105c2578063c45a01551461057f578063c5ebeaec146104b9578063c63d75b6146104b4578063c6e6f59214610496578063c914b4371461047a578063ce96cb7714610446578063d505accf14610267578063d905777e14610234578063dd62ed3e146102075763ef8b30f7146101df575f80fd5b34610203576020366003190112610203576101fc60209235611062565b9051908152f35b5f80fd5b50346102035780600319360112610203576020906101fc610226610e02565b61022e610e18565b90611151565b503461020357602036600319011261020357602090610251610e02565b6387a211a2600c525f5281600c20549051908152f35b50346102035760e036600319011261020357610281610e02565b9061028a610e18565b9060443592606435936084359260ff84168403610203576001600160a01b03948516956e22d473030f116ddee9f6b43ac78ba38718831915171561043a576102f17f00000000000000000000000000000000000000000000000000000000000000006111f7565b9485516020809701209082421161042e5760c0978451961697889665383775081901600e52875f5288600c2094855480957f8b73c3c69bb8fe3d512ecc4cf759cc79239f7b179b0ffacaa9a75d522b39400f84528b84019081528d8985017fc89efdaa54c0f20c7adf612882df0950f5a951637e0307cdcb4c672f298b8bc68152606086019c8d469052608087019330855260a08820602e527f6e71edae12b1b97f4d1f60370fef10105fa2faae0126114a169c64845d6126c988525252898b525260a082015220604e526042602c205f5260ff16865260a435835260c435606052858060805f60015afa90873d5103610422577f8c5be1e5ebec7d5bd14f71427d1e84f3dd0314c0f7b2291e5b200ac8c7c3b92597989950019055866303faf4f960a51b1790526034602c2055a3005b8963ddafbaef5f52601cfd5b89631a15a3cc5f52601cfd5b87633f68539a5f52601cfd5b503461020357602036600319011261020357602090610463610e02565b6387a211a2600c525f526101fc82600c2054610f96565b5034610203575f366003190112610203576020906101fc61108e565b5034610203576020366003190112610203576101fc60209235611062565b610e2e565b50903461020357602036600319011261020357803590335f525f6020526104e560ff845f205416610fee565b6104ed61132f565b6104f5610ef4565b92600154936105048486610ee7565b1161054357610541836105178187610ee7565b600155337f00000000000000000000000000000000000000000000000000000000000000006115b5565b005b906020606492519162461bcd60e51b83528201526016602482015275494e53554646494349454e545f4c495155494449545960501b6044820152fd5b5034610203575f36600319011261020357517f00000000000000000000000000000000000000000000000000000000000000006001600160a01b03168152602090f35b5034610203576105d136610e53565b9291936387a211a2600c52835f526020600c2054851161060b575083610605916105fc602096610f96565b948591336114d8565b51908152f35b634656425a5f52601cfd5b5034610203576020366003190112610203576020906001600160a01b0361063b610e02565b165f525f825260ff815f20541690519015158152f35b50346102035760203660031901126102035761066b610e02565b6001600160a01b03906106a1337f0000000000000000000000000000000000000000000000000000000000000000841614610fee565b165f908152602081905220805460ff19166001179055005b5034610203576106c836610e53565b929190936387a211a2600c52835f526106e56020600c2054610f96565b82116107055750602093816106fc61060593610fc2565b948592336114d8565b63936941fc5f52601cfd5b5034610203576020366003190112610203576101fc60209235611036565b5034610203575f366003190112610203576020906002549051908152f35b5034610203578060031936011261020357610765610e02565b602435906387a211a2600c52335f5260209384600c20908154908185116107b9575083900390555f5282600c208181540190558252600c5160601c335f805160206116d18339815191528480a35160018152f35b63f4d678b85f52601cfd5b34610203575f3660031901126102035761054161132f565b5034610203575f3660031901126102035760209051670b1a2bc2ec5000008152f35b5034610203575f366003190112610203576020906003549051908152f35b509034610203575f3660031901126102035781516395d89b4160e01b8152905f908290817f00000000000000000000000000000000000000000000000000000000000000006001600160a01b03165afa9081156108e857916108c0925f926108c4575b506108b6602182518094606f60f81b60208301526108a68151809260208686019101610db5565b8101036001810185520183610e88565b5191829182610dd6565b0390f35b6108e19192503d805f833e6108d98183610e88565b81019061118e565b905f61087f565b82513d5f823e3d90fd5b50346102035780600319360112610203576020913590610605610913610e18565b9261091d81611036565b80943361141d565b503461020357602036600319011261020357602090610942610e02565b6338377508600c525f5281600c20549051908152f35b50346102035780600319360112610203576020913590610605610979610e18565b61098284611062565b9384913361141d565b5034610203575f366003190112610203576020905166b1a2bc2ec500008152f35b5034610203576020366003190112610203576101fc60209235610f96565b5034610203575f366003190112610203576020906001549051908152f35b5034610203575f366003190112610203576020905166470de4df8200008152f35b5034610203575f36600319011261020357517f00000000000000000000000000000000000000000000000000000000000000006001600160a01b03168152602090f35b503461020357602036600319011261020357610a7960ff610ac3933592335f525f6020525f205416610fee565b610a8161132f565b6001549081811115610ac857505b610abb8130337f00000000000000000000000000000000000000000000000000000000000000006113bf565b600154611029565b600155005b9050610a8f565b5034610203575f3660031901126102035760209060a0610b0e7f00000000000000000000000000000000000000000000000000000000000000006111f7565b8381519101208251907f8b73c3c69bb8fe3d512ecc4cf759cc79239f7b179b0ffacaa9a75d522b39400f8252848201527fc89efdaa54c0f20c7adf612882df0950f5a951637e0307cdcb4c672f298b8bc683820152466060820152306080820152209051908152f35b5034610203575f366003190112610203576020905160128152f35b503461020357606036600319011261020357610bac610e02565b610bb4610e18565b604435908260601b6e22d473030f116ddee9f6b43ac78ba33303610c2a575b6387a211a217600c5260209485600c20908154908185116107b9575083900390555f52600c8481208054830190559084525160601c906001600160a01b03165f805160206116d18339815191528480a35160018152f35b33602052637f5e9f208117600c526034600c20908154918219610c50575b509050610bd3565b828511610c6757846387a211a2930390555f610c48565b876313be252b5f52601cfd5b5034610203575f366003190112610203576020906805345cdf77eb68f44c549051908152f35b5034610203576020366003190112610203576101fc60209235610fc2565b5034610203578060031936011261020357610cd0610e02565b602435906001600160a01b0381166e22d473030f116ddee9f6b43ac78ba3188219151715610d4457602080945052637f5e9f20600c52335f52806034600c20555f52602c5160601c337f8c5be1e5ebec7d5bd14f71427d1e84f3dd0314c0f7b2291e5b200ac8c7c3b925845fa35160018152f35b83633f68539a5f52601cfd5b5034610203575f366003190112610203576108c090610d8e7f00000000000000000000000000000000000000000000000000000000000000006111f7565b905191829182610dd6565b5034610203575f366003190112610203576020906101fc610ef4565b5f5b838110610dc65750505f910152565b8181015183820152602001610db7565b60409160208252610df68151809281602086015260208686019101610db5565b601f01601f1916010190565b600435906001600160a01b038216820361020357565b602435906001600160a01b038216820361020357565b3461020357602036600319011261020357610e47610e02565b5060206040515f198152f35b606090600319011261020357600435906001600160a01b03906024358281168103610203579160443590811681036102035790565b90601f8019910116810190811067ffffffffffffffff821117610eaa57604052565b634e487b7160e01b5f52604160045260245ffd5b9066f8b0a10e470000918201809211610ed357565b634e487b7160e01b5f52601160045260245ffd5b91908201809211610ed357565b6040516370a0823160e01b81523060048201526020816024817f00000000000000000000000000000000000000000000000000000000000000006001600160a01b03165afa8015610f8b575f90610f57575b610f54915060015490610ee7565b90565b506020813d602011610f83575b81610f7160209383610e88565b8101031261020357610f549051610f46565b3d9150610f64565b6040513d5f823e3d90fd5b610f9e610ef4565b9060018201809211610ed357610f549160016805345cdf77eb68f44c54019161127e565b6805345cdf77eb68f44c549060018201809211610ed357610f54916001610fe7610ef4565b019161130c565b15610ff557565b60405162461bcd60e51b815260206004820152600c60248201526b15539055551213d49256915160a21b6044820152606490fd5b91908203918211610ed357565b61103e610ef4565b9060018201809211610ed357610f549160016805345cdf77eb68f44c54019161130c565b6805345cdf77eb68f44c549060018201809211610ed357610f54916001611087610ef4565b019161127e565b611096610ef4565b80156111455760015490670de0b6b3a7640000918183820291848184041490151702156110ff570490670b1a2bc2ec500000821161110c578066b1a2bc2ec5000092838102938185041490151702156110ff5766470de4df82000091048101809111610ed35790565b63ad251c275f526004601cfd5b670b1a2bc2ec4fffff198201918211610ed35780670214e8348c4f000092838102938185041490151702156110ff57610f549104610ebe565b5066470de4df82000090565b906001600160a01b0381166e22d473030f116ddee9f6b43ac78ba31461118757602052637f5e9f20600c525f526034600c205490565b50505f1990565b60208183031261020357805167ffffffffffffffff9182821161020357019082601f83011215610203578151908111610eaa57604051926111d9601f8301601f191660200185610e88565b8184526020828401011161020357610f549160208085019101610db5565b6040516306fdde0360e01b8152905f90829060049082906001600160a01b03165afa908115610f8b575f91611264575b50610f546026604051809365027b9b4ba37960d51b60208301526112548151809260208686019101610db5565b8101036006810184520182610e88565b61127891503d805f833e6108d98183610e88565b5f611227565b81810292918115828504821417830215611299575050900490565b82905f1981840985811086019003920990825f03831692818111156112ff578390046002816003028118808302820302808302820302808302820302808302820302808302820302809202900302936001848483030494805f0304019211900302170290565b63ae47f7025f526004601cfd5b92919061131a82828661127e565b930961132257565b906001019081156112ff57565b6003548042146113bc5761134b611344611606565b9142611029565b6301e133809180820291811591830414178202156110ff5704600154818102670de0b6b3a76400009182848284041482151702156110ff578261138f920490610ee7565b6001556002549080838302938385041483151702156110ff576113b3920490610ee7565b60025542600355565b50565b916040519360605260405260601b602c526323b872dd60601b600c5260205f6064601c82855af1908160015f511416156113ff575b50505f606052604052565b3b153d171015611410575f806113f4565b637939f4245f526004601cfd5b91909261144c8230857f00000000000000000000000000000000000000000000000000000000000000006113bf565b6805345cdf77eb68f44c8054908282019182106114cb57556387a211a2600c52835f526020600c20818154019055602052600c5160601c5f5f805160206116d1833981519152602080a35f5260018060a01b0391821691167fdcbc1c05240f31ff3ad067ef1ee35ce4997762752e3a095284754544f4c709d760405fa3565b63e5cfe9575f526004601cfd5b90936001600160a01b03939192918483168585168190036115a5575b6387a211a2600c52835f526020600c209081549182851161159857845f930390556805345cdf77eb68f44c8481540390558382525f805160206116d1833981519152602083a361156581877f00000000000000000000000000000000000000000000000000000000000000006115b5565b5f52602052821692821691167ffbde797d201c681b91056529119e0b02407c7bb96a4a2c75c01fc9667232c8db60405fa4565b63f4d678b85f526004601cfd5b6115b0838686611672565b6114f4565b919060145260345263a9059cbb60601b5f5260205f6044601082855af1908160015f511416156115e8575b50505f603452565b3b153d1710156115f9575f806115e0565b6390b8ec185f526004601cfd5b600154801561114557611617610ef4565b670de0b6b3a76400009181838083029283041402156110ff570490670b1a2bc2ec500000821161110c578066b1a2bc2ec5000092838102938185041490151702156110ff5766470de4df82000091048101809111610ed35790565b906001600160a01b0381166e22d473030f116ddee9f6b43ac78ba3146116cb57602052637f5e9f20600c525f526034600c2090815480196116b257505050565b8082116116be57039055565b6313be252b5f526004601cfd5b50505056feddf252ad1be2c89b69c2b068fc378daa952ba7f163c4a11628f55a4df523b3efa26469706673582212201877e03a4dfdbf1f0a568566c68ff97930112a58cb8dd463fa93da05de7e773764736f6c63430008180033a2646970667358221220ab639428f017a0e98b69f515c7bfda5c1e82962771879211d5fa11ea81b1214864736f6c63430008180033","linkReferences":{}},"methodIdentifiers":{"deployVaults(address,address,address)":"6a1d4892"},"id":30}