{"abi":[{"type":"function","name":"addPair","inputs":[{"name":"pair","type":"address","internalType":"address"}],"outputs":[],"stateMutability":"nonpayable"},{"type":"function","name":"allPairs","inputs":[{"name":"","type":"uint256","internalType":"uint256"}],"outputs":[{"name":"","type":"address","internalType":"address"}],"stateMutability":"view"},{"type":"function","name":"allPairsLength","inputs":[],"outputs":[{"name":"","type":"uint256","internalType":"uint256"}],"stateMutability":"view"},{"type":"function","name":"getLendingMarket","inputs":[{"name":"token","type":"address","internalType":"address"}],"outputs":[{"name":"lenderVault","type":"address","internalType":"address"},{"name":"collateralVault","type":"address","internalType":"address"},{"name":"totalDeposits","type":"uint256","internalType":"uint256"},{"name":"totalBorrows","type":"uint256","internalType":"uint256"},{"name":"utilization","type":"uint256","internalType":"uint256"},{"name":"depositAPY","type":"uint256","internalType":"uint256"},{"name":"borrowAPY","type":"uint256","internalType":"uint256"}],"stateMutability":"view"},{"type":"function","name":"getUserPosition","inputs":[{"name":"user","type":"address","internalType":"address"},{"name":"collateralVault","type":"address","internalType":"address"}],"outputs":[{"name":"collateral","type":"uint256","internalType":"uint256"},{"name":"debt","type":"uint256","internalType":"uint256"},{"name":"borrowingPower","type":"uint256","internalType":"uint256"},{"name":"canBorrow","type":"bool","internalType":"bool"},{"name":"canWithdraw","type":"bool","internalType":"bool"}],"stateMutability":"view"},{"type":"function","name":"isPair","inputs":[{"name":"","type":"address","internalType":"address"}],"outputs":[{"name":"","type":"bool","internalType":"bool"}],"stateMutability":"view"},{"type":"function","name":"markets","inputs":[{"name":"from","type":"uint256","internalType":"uint256"},{"name":"count","type":"uint256","internalType":"uint256"}],"outputs":[{"name":"out","type":"tuple[]","internalType":"struct LensLite.M[]","components":[{"name":"core","type":"address","internalType":"address"},{"name":"token","type":"address","internalType":"address"},{"name":"T","type":"uint128","internalType":"uint128"},{"name":"Q","type":"uint128","internalType":"uint128"},{"name":"B","type":"uint128","internalType":"uint128"},{"name":"pMin","type":"uint256","internalType":"uint256"},{"name":"feeBp","type":"uint256","internalType":"uint256"},{"name":"spotPrice","type":"uint256","internalType":"uint256"},{"name":"tvl","type":"uint256","internalType":"uint256"},{"name":"utilization","type":"uint256","internalType":"uint256"},{"name":"apy","type":"uint256","internalType":"uint256"},{"name":"totalSupply","type":"uint256","internalType":"uint256"},{"name":"totalSupplyImmutable","type":"uint256","internalType":"uint256"},{"name":"name","type":"string","internalType":"string"},{"name":"symbol","type":"string","internalType":"string"},{"name":"metadataURI","type":"string","internalType":"string"}]}],"stateMutability":"view"}],"bytecode":{"object":"0x6080806040523461001657610ca7908161001b8239f35b5f80fdfe60406080815260049081361015610014575f80fd5b60e0915f3560e01c80631e3dd18b146103fb578063574f2ba3146103de57806392a576e614610391578063bc1e2a0914610349578063c2b7bbb6146101ff578063e5e31b13146101c35763fe11edc91461006c575f80fd5b346101bf57816003193601126101bf5761008b83916024359035610611565b825191602080840190808552835180925285850181878460051b8801019501935f975b8489106100bb5787870388f35b90919293949584806101ad600193603f198c82030188528a51610199610185610200888060a01b03808551168652878501511687860152898401516001600160801b038091168b87015260608181870151169087015260809081860151169086015260a0808501519086015260c080850151908601528a8401518b860152610100808501519086015261012080850151908601526101408085015190860152610160808501519086015261018080850151908601526101a0908082860151928701528501906104b7565b6101c08084015190858303908601526104b7565b916101e080920151918184039101526104b7565b980194019801979190949392946100ae565b5f80fd5b82346101bf5760203660031901126101bf576020906001600160a01b036101e8610480565b165f526001825260ff815f20541690519015158152f35b50346101bf576020806003193601126101bf576001600160a01b039283610224610480565b16805f526001835260ff825f205416610317578151630dfe168160e01b815283818681855afa90816102ea575b5061028757505162461bcd60e51b815291820152600c60248201526b24a72b20a624a22fa820a4a960a11b604482015260649150fd5b9291600190845f52525f20600160ff198254161790555f5490680100000000000000008210156102d757508060016102c192015f55610439565b909283549160031b92831b921b19161790555f80f35b604190634e487b7160e01b5f525260245ffd5b61030990853d8711610310575b61030181836104dc565b810190610512565b5086610251565b503d6102f7565b505162461bcd60e51b815291820152600d60248201526c1053149150511657d051111151609a1b604482015260649150fd5b82346101bf5760203660031901126101bf5760e090610366610480565b505f8151918183528160208401528201525f60608201525f60808201525f60a08201525f60c0820152f35b82346101bf57806003193601126101bf576103aa610480565b506024356001600160a01b038116036101bf57805f60a09251918183528160208401528201525f60608201525f6080820152f35b82346101bf575f3660031901126101bf576020905f549051908152f35b50346101bf5760203660031901126101bf5735905f548210156101bf57610423602092610439565b905491519160018060a01b039160031b1c168152f35b5f5481101561046c575f80527f290decd9548b62a8d60345a988386fc84ba6bc95484008f6362f93160ef3e56301905f90565b634e487b7160e01b5f52603260045260245ffd5b600435906001600160a01b03821682036101bf57565b5f5b8381106104a75750505f910152565b8181015183820152602001610498565b906020916104d081518092818552858086019101610496565b601f01601f1916010190565b90601f8019910116810190811067ffffffffffffffff8211176104fe57604052565b634e487b7160e01b5f52604160045260245ffd5b908160209103126101bf57516001600160a01b03811681036101bf5790565b9190820180921161053e57565b634e487b7160e01b5f52601160045260245ffd5b9190820391821161053e57565b67ffffffffffffffff81116104fe5760051b60200190565b60405190610200820182811067ffffffffffffffff8211176104fe5760405260606101e0835f81525f60208201525f60408201525f838201525f60808201525f60a08201525f60c08201525f60e08201525f6101008201525f6101208201525f6101408201525f6101608201525f610180820152826101a0820152826101c08201520152565b805182101561046c5760209160051b010190565b91905f549081841015610be9576106289084610531565b90808211610be1575b5061063c8382610552565b906106468261055f565b604092610655845192836104dc565b808252610664601f199161055f565b015f5b818110610bca5750508094805b838110610682575050505050565b61068b81610439565b90546001600160a01b039160031b1c81166106a4610577565b8181528751630dfe168160e01b8152909260209260049284818581855afa908115610980575f91610bad575b508a5163d21220a760e01b81529085828681865afa918215610ba3575f92610b84575b508b5163057078af60e51b81529186838781875afa928315610a1b575f93610b4c575b508215610b445750915b83868801931683528b5191630240bc6b60e21b835260609283818881865afa908115610a5a578e9392915f918291610aee575b508215610ae75780925b15610ae057505b6001600160701b0380921680948b01521680938901528c51630de370f760e21b815287818881855afa908115610a5a5790888f89935f93610aad575b50875190516318160ddd60e01b815293849182908b165afa918215610aa3575f92610a74575b50806101808b0152816101608b01528181115f14610a64576001600160801b03916107f091610552565b1660808901528c5163114a83a360e11b815287818881855afa908115610a5a57918e899289945f91610a25575b5060a08c015251634bafc7a360e11b815292839182905afa908115610a1b575f916109ee575b5060c08801528015801561099d575b60e088015180830292830414171561098a5790670de0b6b3a7640000610879920490610531565b610100860152825f838351168c51928380926306fdde0360e01b82525afa90811561098057918493915f938491610966575b506101a088015251168a51928380926395d89b4160e01b82525afa90811561095c575f9161093a575b506101c084015287519182019082821067ffffffffffffffff8311176102d7575091610933916001949389525f81526101e08201525f6101208201525f6101408201526109218584610552565b9061092c82886105fd565b52856105fd565b5001610674565b61095691503d805f833e61094e81836104dc565b810190610c05565b5f6108d4565b89513d5f823e3d90fd5b61097a91503d8086833e61094e81836104dc565b5f6108ab565b8b513d5f823e3d90fd5b601185634e487b7160e01b5f525260245ffd5b670de0b6b3a76400008084029084820414841517156109db57816109c85782900460e0890152610852565b601287634e487b7160e01b5f525260245ffd5b601187634e487b7160e01b5f525260245ffd5b90508681813d8311610a14575b610a0581836104dc565b810103126101bf57515f610843565b503d6109fb565b8d513d5f823e3d90fd5b93929450505081813d8311610a53575b610a3f81836104dc565b810103126101bf5786918e8992515f61081d565b503d610a35565b8e513d5f823e3d90fd5b50506001600160801b035f6107f0565b9091508881813d8311610a9c575b610a8c81836104dc565b810103126101bf5751905f6107c6565b503d610a82565b8f513d5f823e3d90fd5b935050905081813d8311610ad9575b610ac681836104dc565b810103126101bf57518690888f5f6107a0565b503d610abc565b9050610764565b819261075d565b945050508383813d8311610b3d575b610b0781836104dc565b810103126101bf5782610b1a8f94610bf1565b93610b268a8301610bf1565b91015163ffffffff8116036101bf578e935f610753565b503d610afd565b905091610720565b9092508681813d8311610b7d575b610b6481836104dc565b810103126101bf575180151581036101bf57915f610716565b503d610b5a565b610b9c919250863d88116103105761030181836104dc565b905f6106f3565b8c513d5f823e3d90fd5b610bc49150853d87116103105761030181836104dc565b5f6106d0565b602090610bd5610577565b82828601015201610667565b90505f610631565b506060925050565b51906001600160701b03821682036101bf57565b6020818303126101bf57805167ffffffffffffffff918282116101bf57019082601f830112156101bf5781519081116104fe5760405192610c50601f8301601f1916602001856104dc565b818452602082840101116101bf57610c6e9160208085019101610496565b9056fea264697066735822122070a229ed2331ea5ec4d48feb11cf871a89db0011f12fe6ecdd7db28205c5a4b464736f6c63430008180033","linkReferences":{}},"methodIdentifiers":{"addPair(address)":"c2b7bbb6","allPairs(uint256)":"1e3dd18b","allPairsLength()":"574f2ba3","getLendingMarket(address)":"bc1e2a09","getUserPosition(address,address)":"92a576e6","isPair(address)":"e5e31b13","markets(uint256,uint256)":"fe11edc9"},"id":33}