{"abi":[{"type":"function","name":"addPair","inputs":[{"name":"pair","type":"address","internalType":"address"}],"outputs":[],"stateMutability":"nonpayable"},{"type":"function","name":"allPairs","inputs":[{"name":"","type":"uint256","internalType":"uint256"}],"outputs":[{"name":"","type":"address","internalType":"address"}],"stateMutability":"view"},{"type":"function","name":"allPairsLength","inputs":[],"outputs":[{"name":"","type":"uint256","internalType":"uint256"}],"stateMutability":"view"},{"type":"function","name":"getLendingMarket","inputs":[{"name":"token","type":"address","internalType":"address"}],"outputs":[{"name":"lenderVault","type":"address","internalType":"address"},{"name":"collateralVault","type":"address","internalType":"address"},{"name":"totalDeposits","type":"uint256","internalType":"uint256"},{"name":"totalBorrows","type":"uint256","internalType":"uint256"},{"name":"utilization","type":"uint256","internalType":"uint256"},{"name":"depositAPY","type":"uint256","internalType":"uint256"},{"name":"borrowAPY","type":"uint256","internalType":"uint256"}],"stateMutability":"view"},{"type":"function","name":"getUserPosition","inputs":[{"name":"user","type":"address","internalType":"address"},{"name":"collateralVault","type":"address","internalType":"address"}],"outputs":[{"name":"collateral","type":"uint256","internalType":"uint256"},{"name":"debt","type":"uint256","internalType":"uint256"},{"name":"borrowingPower","type":"uint256","internalType":"uint256"},{"name":"canBorrow","type":"bool","internalType":"bool"},{"name":"canWithdraw","type":"bool","internalType":"bool"}],"stateMutability":"view"},{"type":"function","name":"isPair","inputs":[{"name":"","type":"address","internalType":"address"}],"outputs":[{"name":"","type":"bool","internalType":"bool"}],"stateMutability":"view"},{"type":"function","name":"markets","inputs":[{"name":"from","type":"uint256","internalType":"uint256"},{"name":"count","type":"uint256","internalType":"uint256"}],"outputs":[{"name":"out","type":"tuple[]","internalType":"struct LensLite.M[]","components":[{"name":"core","type":"address","internalType":"address"},{"name":"token","type":"address","internalType":"address"},{"name":"T","type":"uint128","internalType":"uint128"},{"name":"Q","type":"uint128","internalType":"uint128"},{"name":"B","type":"uint128","internalType":"uint128"},{"name":"pMin","type":"uint256","internalType":"uint256"},{"name":"feeBp","type":"uint256","internalType":"uint256"},{"name":"spotPrice","type":"uint256","internalType":"uint256"},{"name":"tvl","type":"uint256","internalType":"uint256"},{"name":"utilization","type":"uint256","internalType":"uint256"},{"name":"apy","type":"uint256","internalType":"uint256"},{"name":"totalSupply","type":"uint256","internalType":"uint256"},{"name":"totalSupplyImmutable","type":"uint256","internalType":"uint256"},{"name":"name","type":"string","internalType":"string"},{"name":"symbol","type":"string","internalType":"string"},{"name":"metadataURI","type":"string","internalType":"string"}]}],"stateMutability":"view"}],"bytecode":{"object":"0x6080806040523461001657610e64908161001b8239f35b5f80fdfe60406080815260049081361015610014575f80fd5b60e0915f3560e01c80631e3dd18b14610409578063574f2ba3146103ec57806392a576e614610391578063bc1e2a0914610349578063c2b7bbb6146101ff578063e5e31b13146101c35763fe11edc91461006c575f80fd5b346101bf57816003193601126101bf5761008b839160243590356107dc565b825191602080840190808552835180925285850181878460051b8801019501935f975b8489106100bb5787870388f35b90919293949584806101ad600193603f198c82030188528a51610199610185610200888060a01b03808551168652878501511687860152898401516001600160801b038091168b87015260608181870151169087015260809081860151169086015260a0808501519086015260c080850151908601528a8401518b860152610100808501519086015261012080850151908601526101408085015190860152610160808501519086015261018080850151908601526101a0908082860151928701528501906104c5565b6101c08084015190858303908601526104c5565b916101e080920151918184039101526104c5565b980194019801979190949392946100ae565b5f80fd5b82346101bf5760203660031901126101bf576020906001600160a01b036101e861048e565b165f526001825260ff815f20541690519015158152f35b50346101bf576020806003193601126101bf576001600160a01b03928361022461048e565b16805f526001835260ff825f205416610317578151630dfe168160e01b815283818681855afa90816102ea575b5061028757505162461bcd60e51b815291820152600c60248201526b24a72b20a624a22fa820a4a960a11b604482015260649150fd5b9291600190845f52525f20600160ff198254161790555f5490680100000000000000008210156102d757508060016102c192015f55610447565b909283549160031b92831b921b19161790555f80f35b604190634e487b7160e01b5f525260245ffd5b61030990853d8711610310575b61030181836104ea565b81019061052d565b5086610251565b503d6102f7565b505162461bcd60e51b815291820152600d60248201526c1053149150511657d051111151609a1b604482015260649150fd5b82346101bf5760203660031901126101bf5760e09061036661048e565b505f8151918183528160208401528201525f60608201525f60808201525f60a08201525f60c0820152f35b82346101bf57806003193601126101bf576103aa61048e565b60243591906001600160a01b03831683036101bf5760a0926103cb91610573565b93949092815195865260208601528401521515606083015215156080820152f35b82346101bf575f3660031901126101bf576020905f549051908152f35b50346101bf5760203660031901126101bf5735905f548210156101bf57610431602092610447565b905491519160018060a01b039160031b1c168152f35b5f5481101561047a575f80527f290decd9548b62a8d60345a988386fc84ba6bc95484008f6362f93160ef3e56301905f90565b634e487b7160e01b5f52603260045260245ffd5b600435906001600160a01b03821682036101bf57565b5f5b8381106104b55750505f910152565b81810151838201526020016104a6565b906020916104de815180928185528580860191016104a4565b601f01601f1916010190565b90601f8019910116810190811067ffffffffffffffff82111761050c57604052565b634e487b7160e01b5f52604160045260245ffd5b519081151582036101bf57565b908160209103126101bf57516001600160a01b03811681036101bf5790565b8181029291811591840414171561055f57565b634e487b7160e01b5f52601160045260245ffd5b6001600160a01b03918216919082156107015760408051639ee2735b60e01b8152918316600483015260a082602481875afa9283156106f7575f945f935f9561069e575b508251809163a8aa1b3160e01b825281600460209485935afa908115610694579082915f91610677575b50600485518095819363114a83a360e11b8352165afa92831561066e57505f92610636575b505061061b670de0b6b3a7640000918561054c565b04928261062c575b93819392911590565b8382109250610623565b90809250813d8311610667575b61064d81836104ea565b810103126101bf575161061b670de0b6b3a7640000610606565b503d610643565b513d5f823e3d90fd5b61068e9150823d84116103105761030181836104ea565b5f6105e1565b84513d5f823e3d90fd5b93509350935060a0823d60a0116106ef575b816106bd60a093836104ea565b810103126101bf578151936020830151946106e560606106de858701610520565b9501610520565b509492935f6105b7565b3d91506106b0565b50513d5f823e3d90fd5b5050505f905f905f905f905f90565b9190820180921161055f57565b9190820391821161055f57565b67ffffffffffffffff811161050c5760051b60200190565b60405190610200820182811067ffffffffffffffff82111761050c5760405260606101e0835f81525f60208201525f60408201525f838201525f60808201525f60a08201525f60c08201525f60e08201525f6101008201525f6101208201525f6101408201525f6101608201525f610180820152826101a0820152826101c08201520152565b805182101561047a5760209160051b010190565b91905f549081841015610da6576107f39084610710565b90808211610d9e575b50610807838261071d565b906108118261072a565b604092610820845192836104ea565b80825261082f601f199161072a565b015f5b818110610d875750508094805b83811061084d575050505050565b61085681610447565b90546001600160a01b039160031b1c811661086f610742565b8181528751630dfe168160e01b8152909260209260049284818581855afa908115610b48575f91610d6a575b508a5163d21220a760e01b81529085828681865afa918215610d60575f92610d41575b508b5163057078af60e51b81529186838781875afa928315610bd9575f93610d0a575b508215610d025750915b83868801931683528b5191630240bc6b60e21b835260609283818881865afa908115610c18578e9392915f918291610cac575b508215610ca55780925b15610c9e57505b6001600160701b0380921680948b01521680938901528c51630de370f760e21b815287818881855afa908115610c185790888f89935f93610c6b575b50875190516318160ddd60e01b815293849182908b165afa918215610c61575f92610c32575b50806101808b0152816101608b01528181115f14610c22576001600160801b03916109bb9161071d565b1660808901528c5163114a83a360e11b815287818881855afa908115610c1857918e899289945f91610be3575b5060a08c015251634bafc7a360e11b815292839182905afa908115610bd9575f91610bac575b5060c088015280158015610b52575b5090670de0b6b3a7640000610a3a610a419360e08a01519061054c565b0490610710565b610100860152825f838351168c51928380926306fdde0360e01b82525afa908115610b4857918493915f938491610b2e575b506101a088015251168a51928380926395d89b4160e01b82525afa908115610b24575f91610b02575b506101c084015287519182019082821067ffffffffffffffff8311176102d7575091610afb916001949389525f81526101e08201525f6101208201525f610140820152610ae9858461071d565b90610af482886107c8565b52856107c8565b500161083f565b610b1e91503d805f833e610b1681836104ea565b810190610dc2565b5f610a9c565b89513d5f823e3d90fd5b610b4291503d8086833e610b1681836104ea565b5f610a73565b8b513d5f823e3d90fd5b670de0b6b3a764000090818402918483041484151715610b9957610b865781900460e0880152670de0b6b3a7640000610a1d565b601286634e487b7160e01b5f525260245ffd5b601187634e487b7160e01b5f525260245ffd5b90508681813d8311610bd2575b610bc381836104ea565b810103126101bf57515f610a0e565b503d610bb9565b8d513d5f823e3d90fd5b93929450505081813d8311610c11575b610bfd81836104ea565b810103126101bf5786918e8992515f6109e8565b503d610bf3565b8e513d5f823e3d90fd5b50506001600160801b035f6109bb565b9091508881813d8311610c5a575b610c4a81836104ea565b810103126101bf5751905f610991565b503d610c40565b8f513d5f823e3d90fd5b935050905081813d8311610c97575b610c8481836104ea565b810103126101bf57518690888f5f61096b565b503d610c7a565b905061092f565b8192610928565b945050508383813d8311610cfb575b610cc581836104ea565b810103126101bf5782610cd88f94610dae565b93610ce48a8301610dae565b91015163ffffffff8116036101bf578e935f61091e565b503d610cbb565b9050916108eb565b9092508681813d8311610d3a575b610d2281836104ea565b810103126101bf57610d3390610520565b915f6108e1565b503d610d18565b610d59919250863d88116103105761030181836104ea565b905f6108be565b8c513d5f823e3d90fd5b610d819150853d87116103105761030181836104ea565b5f61089b565b602090610d92610742565b82828601015201610832565b90505f6107fc565b506060925050565b51906001600160701b03821682036101bf57565b6020818303126101bf57805167ffffffffffffffff918282116101bf57019082601f830112156101bf57815190811161050c5760405192610e0d601f8301601f1916602001856104ea565b818452602082840101116101bf57610e2b91602080850191016104a4565b9056fea26469706673582212202e3d0b6c83f5e56da1ab03afbf2bee3f1e13849453576bcd19ce669fc3c1c16e64736f6c63430008180033","linkReferences":{}},"methodIdentifiers":{"addPair(address)":"c2b7bbb6","allPairs(uint256)":"1e3dd18b","allPairsLength()":"574f2ba3","getLendingMarket(address)":"bc1e2a09","getUserPosition(address,address)":"92a576e6","isPair(address)":"e5e31b13","markets(uint256,uint256)":"fe11edc9"},"id":34}