{"abi":[{"type":"constructor","inputs":[{"name":"_wbera","type":"address","internalType":"address"}],"stateMutability":"nonpayable"},{"type":"receive","stateMutability":"payable"},{"type":"function","name":"WBERA","inputs":[],"outputs":[{"name":"","type":"address","internalType":"address"}],"stateMutability":"view"},{"type":"function","name":"getAmountOut","inputs":[{"name":"pair","type":"address","internalType":"address"},{"name":"amountIn","type":"uint256","internalType":"uint256"},{"name":"tokIn","type":"bool","internalType":"bool"}],"outputs":[{"name":"amountOut","type":"uint256","internalType":"uint256"}],"stateMutability":"view"},{"type":"function","name":"getAmountsOut","inputs":[{"name":"amountIn","type":"uint256","internalType":"uint256"},{"name":"path","type":"address[]","internalType":"address[]"},{"name":"pair","type":"address","internalType":"address"}],"outputs":[{"name":"amounts","type":"uint256[]","internalType":"uint256[]"}],"stateMutability":"view"},{"type":"function","name":"swapExactETHForTokens","inputs":[{"name":"pair","type":"address","internalType":"address"},{"name":"amountOutMin","type":"uint256","internalType":"uint256"},{"name":"to","type":"address","internalType":"address"},{"name":"deadline","type":"uint256","internalType":"uint256"}],"outputs":[{"name":"amounts","type":"uint256[]","internalType":"uint256[]"}],"stateMutability":"payable"},{"type":"function","name":"swapExactTokensForETH","inputs":[{"name":"pair","type":"address","internalType":"address"},{"name":"amountIn","type":"uint256","internalType":"uint256"},{"name":"amountOutMin","type":"uint256","internalType":"uint256"},{"name":"to","type":"address","internalType":"address"},{"name":"deadline","type":"uint256","internalType":"uint256"}],"outputs":[{"name":"amounts","type":"uint256[]","internalType":"uint256[]"}],"stateMutability":"nonpayable"},{"type":"event","name":"SwapETHForTokens","inputs":[{"name":"pair","type":"address","indexed":true,"internalType":"address"},{"name":"amountIn","type":"uint256","indexed":false,"internalType":"uint256"},{"name":"amountOut","type":"uint256","indexed":false,"internalType":"uint256"},{"name":"to","type":"address","indexed":true,"internalType":"address"}],"anonymous":false},{"type":"event","name":"SwapTokensForETH","inputs":[{"name":"pair","type":"address","indexed":true,"internalType":"address"},{"name":"amountIn","type":"uint256","indexed":false,"internalType":"uint256"},{"name":"amountOut","type":"uint256","indexed":false,"internalType":"uint256"},{"name":"to","type":"address","indexed":true,"internalType":"address"}],"anonymous":false},{"type":"error","name":"ExcessiveInputAmount","inputs":[]},{"type":"error","name":"InsufficientETH","inputs":[]},{"type":"error","name":"InsufficientOutputAmount","inputs":[]},{"type":"error","name":"InvalidPath","inputs":[]},{"type":"error","name":"Reentrancy","inputs":[]},{"type":"error","name":"SwapFailed","inputs":[]},{"type":"error","name":"TransferFailed","inputs":[]}],"bytecode":{"object":"0x60a03461007e57601f61116138819003918201601f19168301916001600160401b038311848410176100825780849260209460405283398101031261007e57516001600160a01b038116810361007e576080526040516110ca908161009782396080518181816020015281816104cd01528181610800015261087f0152f35b5f80fd5b634e487b7160e01b5f52604160045260245ffdfe60806040908082526004908136101561007f575b50361561001e575f80fd5b7f00000000000000000000000000000000000000000000000000000000000000006001600160a01b0316330361005057005b6020606492519162461bcd60e51b8352820152600a6024820152694f6e6c7920574245524160b01b6044820152fd5b5f905f3560e01c908163708789261461082f57508063a0417bad146107eb578063bde8ad4b146102fe578063d2b364c6146101045763f2d6561703610013578234610100576060366003190112610100576100d8610b15565b6044359283151584036100fd57506020926100f69160243590610dde565b9051908152f35b80fd5b5080fd5b5082346101005760603660031901126101005782356024359267ffffffffffffffff9485851161010057366023860112156101005784810135958611610100573660248760051b870101116101005761015b610b2b565b95600281036102ef5784519561017087610ba4565b600287526020928636858a01378561018789610bfa565b52865163057078af60e51b81526001600160a01b0394908a86169082818581855afa9081156102e55791839185938a916102b8575b5015610272578a51630dfe168160e01b815292839182905afa91821561026857879261023b575b5050925b15610228575060240135928284168094036100fd57509161021093916102249793161491610dde565b61021983610c1b565b525191829182610b41565b0390f35b634e487b7160e01b855260329052602484fd5b61025a9250803d10610261575b6102528183610bc0565b810190610c2b565b8a806101e3565b503d610248565b89513d89823e3d90fd5b8a5163d21220a760e01b815292839182905afa91821561026857879261029b575b5050926101e7565b6102b19250803d10610261576102528183610bc0565b8a80610293565b6102d89150833d85116102de575b6102d08183610bc0565b810190610be2565b8e6101bc565b503d6102c6565b8a513d8a823e3d90fd5b5083516320db826760e01b8152fd5b5082346101005760a036600319011261010057610319610b15565b602435936001600160a01b039391606435858116929091908383036106755768929eee149b4bd2126894308654146107e05730865588156107d1578783169387519863057078af60e51b808b5260209a8b8187818b5afa9081156107295785916107b4575b501561076d578951630dfe168160e01b81528b8187818b5afa90811561072957908d918691610750575b505b8b516060928352978c5233821b602c526323b872dd60601b600c528c866064601c82855af1908160018851141615610733575b5050848152868b528187528b8787818b5afa96871561072957859761070a575b508a51630240bc6b60e21b815290808288818c5afa918215610680575f915f936106b7575b50508b519283528c8388818c5afa928315610680575f93610698575b5082156106915780925b1561068a57505b8a51634bafc7a360e11b8152908c8288818c5afa918215610680578e905f93610648575b509261047e93610f8d565b94604435861061063857156105e257853b156105c05788516336cd320560e11b815283858201528560248201523060448201528381606481838b5af180156105d8579084916105c4575b50505b7f000000000000000000000000000000000000000000000000000000000000000016803b156105c05782809160248b5180948193632e1a7d4d60e01b83528a8a8401525af180156105b6579083916105a2575b509081808638935af11561059757505084610224977f4a15d7f1e56ad723aeea1b93b3bc5b9f185fd6e5edbe78f51c237b7cca444eb1928251986105618a610ba4565b60028a528336828c0137826105758b610bfa565b52816105808b610c1b565b528351928352820152a33890555191829182610b41565b63b12d13eb9052601cfd5b6105ab90610b7c565b61010057818b61051e565b89513d85823e3d90fd5b8280fd5b6105cd90610b7c565b6105c057828c6104c8565b8a513d86823e3d90fd5b853b156105c05788516336cd320560e11b815285858201528360248201523060448201528381606481838b5af180156105d857908491610624575b50506104cb565b61062d90610b7c565b6105c057828c61061d565b89516342301c2360e01b81528590fd5b8093508e8092503d8311610679575b6106618183610bc0565b81010312610675579051908d61047e610473565b5f80fd5b503d610657565b8c513d5f823e3d90fd5b905061044f565b8192610448565b6106b09193508d803d106102de576102d08183610bc0565b918e61043e565b8193508092503d8311610703575b6106cf8183610bc0565b81010312610675578b8b6106ed6106e584610c4a565b928401610c4a565b92015163ffffffff811603610675578e80610422565b503d6106c5565b6107229197508c8d3d106102de576102d08183610bc0565b958d6103fd565b8b513d87823e3d90fd5b3b153d171015610744578d806103dd565b85637939f4248652601cfd5b61076791508d803d10610261576102528183610bc0565b8e6103a8565b895163d21220a760e01b81528b8187818b5afa90811561072957908d918691610797575b506103aa565b6107ae91508d803d10610261576102528183610bc0565b8e610791565b6107cb91508c8d3d106102de576102d08183610bc0565b8d61037e565b5085516342301c2360e01b8152fd5b63ab143c069052601cfd5b508234610100578160031936011261010057517f00000000000000000000000000000000000000000000000000000000000000006001600160a01b03168152602090f35b849150608036600319011261067557610846610b15565b9260243593610853610b2b565b68929eee149b4bd212689330855414610b09573085553415610afb57506001600160a01b0396828816927f00000000000000000000000000000000000000000000000000000000000000008916803b15610675578751630d0e30db60e41b81525f81858134865af18015610af157610ada575b509085929188519063a9059cbb60e01b825286848301523460248301528160448160209a8b945af18015610ab357610abd575b50875163057078af60e51b815286818481895afa908115610ab3578491610a96575b5015610a085761092c903490610c5e565b9788106109fa57833b1561010057878751916336cd320560e11b83528201528160248201528883166044820152818160648183885af180156109f0576109dc575b505084610224977fee6fe6361d9c7821cccbff7551fd85fc649f753259a1b3ea7ea766fd3a79ee1f925b8251986109a38a610ba4565b60028a528336888c0137346109b78b610bfa565b52806109c28b610c1b565b528351963488528701521693a33890555191829182610b41565b6109e68291610b7c565b6100fd578061096d565b87513d84823e3d90fd5b86516342301c2360e01b8152fd5b610a13903490610c5e565b9788106109fa57833b1561010057818751916336cd320560e11b83528201528760248201528883166044820152818160648183885af180156109f057610a82575b505084610224977fee6fe6361d9c7821cccbff7551fd85fc649f753259a1b3ea7ea766fd3a79ee1f92610997565b610a8c8291610b7c565b6100fd5780610a54565b610aad9150873d89116102de576102d08183610bc0565b8b61091b565b89513d86823e3d90fd5b610ad390873d89116102de576102d08183610bc0565b508a6108f9565b610ae79193929650610b7c565b5f9490918a6108c6565b89513d5f823e3d90fd5b631a84bc4160e21b81528790fd5b8763ab143c065f52601cfd5b600435906001600160a01b038216820361067557565b604435906001600160a01b038216820361067557565b60209060206040818301928281528551809452019301915f5b828110610b68575050505090565b835185529381019392810192600101610b5a565b67ffffffffffffffff8111610b9057604052565b634e487b7160e01b5f52604160045260245ffd5b6060810190811067ffffffffffffffff821117610b9057604052565b90601f8019910116810190811067ffffffffffffffff821117610b9057604052565b90816020910312610675575180151581036106755790565b805115610c075760200190565b634e487b7160e01b5f52603260045260245ffd5b805160011015610c075760400190565b9081602091031261067557516001600160a01b03811681036106755790565b51906001600160701b038216820361067557565b60408051630240bc6b60e21b815292939290916001600160a01b0316606082600481845afa948515610dd4575f925f96610d7a575b50835163057078af60e51b8152956020908188600481875afa948515610d7057600497985f96610d4d575b508291908615610d465780965b15610d3e5750935b8651634bafc7a360e11b815297889182905afa948515610d3557505f94610d03575b50610d009450610f8d565b90565b90935084813d8311610d2e575b610d1a8183610bc0565b8101031261067557610d009351925f610cf5565b503d610d10565b513d5f823e3d90fd5b905093610cd3565b8196610ccb565b8392919650610d6890833d85116102de576102d08183610bc0565b959091610cbe565b86513d5f823e3d90fd5b925094506060823d606011610dcc575b81610d9760609383610bc0565b8101031261067557610da882610c4a565b83610db560208501610c4a565b93015163ffffffff8116036106755791945f610c93565b3d9150610d8a565b83513d5f823e3d90fd5b60408051630240bc6b60e21b8152929390926001600160a01b039092169190606082600481865afa908115610f5c575f925f92610f02575b50845163057078af60e51b8152916020908184600481895afa938415610ef8575f94610ed2575b5081906004939495865f14610ecb5780965b15610ec35750955b8751634bafc7a360e11b815293849182905afa958615610d3557505f95610e93575b505015610e8957610d0093610f8d565b90610d0093610f8d565b9080929550813d8311610ebc575b610eab8183610bc0565b810103126106755751925f80610e79565b503d610ea1565b905095610e57565b8196610e4f565b600493945090610eef8392833d85116102de576102d08183610bc0565b94935090610e3d565b87513d5f823e3d90fd5b925090506060823d606011610f54575b81610f1f60609383610bc0565b8101031261067557610f3082610c4a565b84610f3d60208501610c4a565b93015163ffffffff8116036106755791905f610e16565b3d9150610f12565b84513d5f823e3d90fd5b81810292918115918404141715610f7957565b634e487b7160e01b5f52601160045260245ffd5b919092821561104f576001600160701b038094169283151580611044575b1561100657612710918203828111610f7957610fcb8691610fd393610f66565b931683610f66565b9202928316928303610f79578201809211610f79578115610ff2570490565b634e487b7160e01b5f52601260045260245ffd5b60405162461bcd60e51b8152602060048201526016602482015275494e53554646494349454e545f4c495155494449545960501b6044820152606490fd5b508483161515610fab565b60405162461bcd60e51b815260206004820152601960248201527f494e53554646494349454e545f494e5055545f414d4f554e54000000000000006044820152606490fdfea26469706673582212200dff170ee1250f897043c81705702ef0bbf6af2f9047c6b64e37304a26fe404b64736f6c63430008180033","linkReferences":{}},"methodIdentifiers":{"WBERA()":"a0417bad","getAmountOut(address,uint256,bool)":"f2d65617","getAmountsOut(uint256,address[],address)":"d2b364c6","swapExactETHForTokens(address,uint256,address,uint256)":"70878926","swapExactTokensForETH(address,uint256,uint256,address,uint256)":"bde8ad4b"},"id":45}