{"abi":[{"type":"constructor","inputs":[{"name":"_weth","type":"address","internalType":"address"},{"name":"_treasury","type":"address","internalType":"address"}],"stateMutability":"nonpayable"},{"type":"function","name":"launchToken","inputs":[{"name":"name","type":"string","internalType":"string"},{"name":"symbol","type":"string","internalType":"string"},{"name":"supply","type":"uint256","internalType":"uint256"},{"name":"wethAmount","type":"uint256","internalType":"uint256"},{"name":"startFeeBps","type":"uint256","internalType":"uint256"},{"name":"endFeeBps","type":"uint256","internalType":"uint256"},{"name":"feeDecayTarget","type":"uint256","internalType":"uint256"}],"outputs":[{"name":"token","type":"address","internalType":"address"},{"name":"pair","type":"address","internalType":"address"},{"name":"feeRouter","type":"address","internalType":"address"}],"stateMutability":"nonpayable"},{"type":"function","name":"treasury","inputs":[],"outputs":[{"name":"","type":"address","internalType":"address"}],"stateMutability":"view"},{"type":"function","name":"weth","inputs":[],"outputs":[{"name":"","type":"address","internalType":"address"}],"stateMutability":"view"},{"type":"event","name":"TokenLaunched","inputs":[{"name":"token","type":"address","indexed":true,"internalType":"address"},{"name":"pair","type":"address","indexed":true,"internalType":"address"},{"name":"feeRouter","type":"address","indexed":true,"internalType":"address"},{"name":"name","type":"string","indexed":false,"internalType":"string"},{"name":"symbol","type":"string","indexed":false,"internalType":"string"},{"name":"supply","type":"uint256","indexed":false,"internalType":"uint256"}],"anonymous":false}],"bytecode":{"object":"0x60c03461008757601f613ead38819003918201601f19168301916001600160401b0383118484101761008b57808492604094855283398101031261008757610052602061004b8361009f565b920161009f565b9060805260a052604051613df990816100b4823960805181818160de01526104cd015260a051818181610157015261048a0152f35b5f80fd5b634e487b7160e01b5f52604160045260245ffd5b51906001600160a01b03821682036100875756fe60806040908082526004918236101562000017575f80fd5b5f915f3560e01c9081633fc8cef314620004b95750806361d027b314620004745763da9a16471462000047575f80fd5b34620004025760e0366003190112620004025767ffffffffffffffff90833582811162000402576200007d903690860162000548565b9360248035848111620004025762000099903690840162000548565b604435906084359660a435948589106200043e5786519461232495868101968188108b8911176200042c5762000d0482395f875280602097600160a01b60019003998a7f0000000000000000000000000000000000000000000000000000000000000000169d8e8b8401528c83015f90526060830152608082015260c43560a082015260c08101600190520360e001905ff0801562000422578716968851610720808201908282108d83111762000410578b918391620005e48339847f00000000000000000000000000000000000000000000000000000000000000001681528b8b8201520301905ff080156200040657811699883b1562000402578951633099eb6960e21b81528481018c90525f818581838e5af18015620003f857620003e2575b50895190610d9c80830191821183831017620003d0578a8f84938b8f948e620001fb6060956200020a93620030288b39608086526080860190620005a3565b90848203908501528d620005a3565b948201520152039085f080156200039f571699873b156200039357885163189acdbd60e31b81528381018c905284818481838d5af18015620003c6579188918693620003a9575b5060648b51809481936323b872dd60e01b835233898401528d88840152833560448401525af180156200039f5791849391889362000356575b5089519384926335313c2160e11b845283015281858a5af180156200034c5762000319575b5050867ffbc2208107bf7df90abee76bf0fc7ccd04797858f418a4794797239da28cf0a3620002f660609a89956200030489968b51948f94869586526060860190620005a3565b908482038b860152620005a3565b908a8301520390a48251948552840152820152f35b8490813d831162000344575b62000331818362000525565b81010312620003415780620002af565b80fd5b503d62000325565b87513d84823e3d90fd5b9193509181813d811162000397575b62000371818362000525565b81010312620003935751801515036200038f57829186915f6200028a565b8280fd5b8380fd5b503d62000365565b89513d86823e3d90fd5b620003b791939250620004fc565b62000393578684915f62000251565b8a513d87823e3d90fd5b634e487b7160e01b8752604186528487fd5b620003ef919550620004fc565b5f935f620001bc565b8b513d5f823e3d90fd5b5f80fd5b89513d5f823e3d90fd5b84604187634e487b7160e01b5f52525ffd5b88513d5f823e3d90fd5b82604185634e487b7160e01b5f52525ffd5b60649060118660208a519362461bcd60e51b855284015282015270494e56414c49445f4645455f52414e474560781b6044820152fd5b503462000402575f3660031901126200040257517f00000000000000000000000000000000000000000000000000000000000000006001600160a01b03168152602090f35b3462000402575f36600319011262000402577f00000000000000000000000000000000000000000000000000000000000000006001600160a01b03168152602090f35b67ffffffffffffffff81116200051157604052565b634e487b7160e01b5f52604160045260245ffd5b90601f8019910116810190811067ffffffffffffffff8211176200051157604052565b81601f82011215620004025780359067ffffffffffffffff821162000511576040519262000581601f8401601f19166020018562000525565b828452602083830101116200040257815f926020809301838601378301015290565b91908251928382525f5b848110620005ce575050825f602080949584010152601f8019910116010190565b602081830181015184830182015201620005ad56fe60e03461009357601f61072038819003918201601f19168301916001600160401b0383118484101761009757808492604094855283398101031261009357610052602061004b836100ab565b92016100ab565b906080523360a05260c05260405161066090816100c082396080518181816101000152610362015260a05181607b015260c05181818160bf01526101ba0152f35b5f80fd5b634e487b7160e01b5f52604160045260245ffd5b51906001600160a01b03821682036100935756fe6080806040526004361015610012575f80fd5b5f3560e01c90816361d027b3146100ee57508063a8aa1b31146100aa578063c45a0155146100665763c879657214610048575f80fd5b34610062575f366003190112610062576100606101b0565b005b5f80fd5b34610062575f366003190112610062576040517f00000000000000000000000000000000000000000000000000000000000000006001600160a01b03168152602090f35b34610062575f366003190112610062576040517f00000000000000000000000000000000000000000000000000000000000000006001600160a01b03168152602090f35b34610062575f366003190112610062577f00000000000000000000000000000000000000000000000000000000000000006001600160a01b03168152602090f35b67ffffffffffffffff811161014357604052565b634e487b7160e01b5f52604160045260245ffd5b90601f8019910116810190811067ffffffffffffffff82111761014357604052565b90816020910312610062575180151581036100625790565b9081602091031261006257516001600160a01b03811681036100625790565b6001600160a01b037f000000000000000000000000000000000000000000000000000000000000000081169190823b156100625760409081519363643cb2b960e11b85525f6004955f81888183875af180156106205761060f575b5083516370a0823160e01b81523087820152602091908281602481875afa9081156105b15782916105e2575b5080156105d85785519063a9059cbb60e01b825284898301526024820152828160448185885af180156105b1576105bb575b50845163226bf2d160e21b81523088820152858160248185885af19485156105b1578291839661057b575b50865163057078af60e51b81529584878b81895afa968715610571578497610542575b5086156104f9578751630dfe168160e01b815285818c818a5afa90811561048d578b91879187916104dc575b50975b8915610497578a5163d21220a760e01b815292839182905afa90811561048d578591610460575b50925b87156104595780975b156104515750945b866103f9575b505083610360575b50507f49d512bf9cb224241c05691e73eb9fab078cf350c7dbcbcf66788f1fc0cc8b0b9495508351928352820152a1565b7f0000000000000000000000000000000000000000000000000000000000000000601452603484905263a9059cbb60601b825282826044601082855af19081600184511416156103dc575b50507f49d512bf9cb224241c05691e73eb9fab078cf350c7dbcbcf66788f1fc0cc8b0b95965060345285945f61032f565b3b153d1710156103ed5786806103ab565b6390b8ec18879152601cfd5b16803b1561044d57828660248b838b519586948593630852cd8d60e31b85528401525af180156104435790839115610327576104349061012f565b61043f57815f610327565b5080fd5b87513d85823e3d90fd5b8280fd5b905094610321565b8197610319565b6104809150863d8811610486575b6104788183610157565b810190610191565b5f61030d565b503d61046e565b89513d87823e3d90fd5b8a51630dfe168160e01b815292839182905afa90811561048d5785916104bf575b5092610310565b6104d69150863d8811610486576104788183610157565b5f6104b8565b6104f39150823d8411610486576104788183610157565b5f6102e3565b875163d21220a760e01b815285818c818a5afa90811561048d578b9187918791610525575b50976102e6565b61053c9150823d8411610486576104788183610157565b5f61051e565b610563919750853d871161056a575b61055b8183610157565b810190610179565b955f6102b7565b503d610551565b88513d86823e3d90fd5b87809297508193503d83116105aa575b6105958183610157565b8101031261043f57828151910151945f610294565b503d61058b565b86513d84823e3d90fd5b6105d190833d851161056a5761055b8183610157565b505f610269565b5050505050509050565b90508281813d8311610608575b6105f98183610157565b8101031261043f57515f610237565b503d6105ef565b610619915061012f565b5f8061020b565b85513d5f823e3d90fdfea26469706673582212203488b54159f898f14a413a9913724159d6be6d6436ce19655bdd379a43dd838064736f6c634300081800336101408060405234620001e65760e08162002324803803809162000024828562000206565b833981010312620001e6576200003a816200023e565b9062000049602082016200023e565b9162000058604083016200023e565b60608301519160808401519460c060a0860151950151928315158403620001e6573360805260018060a01b0394858416918660018060a01b031991848360025416176002558560a0521690600354161760035560e0526101009687526101209586528360c05262000178575b6040516120d0908688836200025484396080518381816105120152818161064d01526106a6015260a051838181610419015281816105dc015281816108d601528181610d80015281816110070152818161113f0152818161167d0152611bfe015260c05183818161055801528181610736015281816115a20152611a88015260e05183818161175d0152611b360152518281816116d501528181611b5b0152611b910152518181816101f60152611b020152f35b60209215620001fe57505b6004604051809481936318160ddd60e01b8352165afa908115620001f3575f91620001b7575b506004555f808080620000c4565b90506020813d602011620001ea575b81620001d56020938362000206565b81010312620001e657515f620001a9565b5f80fd5b3d9150620001c6565b6040513d5f823e3d90fd5b905062000183565b601f909101601f19168101906001600160401b038211908210176200022a57604052565b634e487b7160e01b5f52604160045260245ffd5b51906001600160a01b0382168203620001e65756fe6080604090808252600480361015610015575f80fd5b5f3560e01c91826306fdde031461186a575081630902f1ac14611819578163095ea7b3146117805781630c1e3847146117465781630dfe16811461171e57816318160ddd146116f85781631e2f9931146116be578163229507461461158657816323b872dd1461147e578163313ce567146114635781633644e515146113ac578163378dc3dc146113905781636a627842146110a05781636d9a640a14610ca857816370a0823114610c755781637464fc3d14610c5757816375172a8b14610c1a5781637ecebe0014610be757816389afcb441461086157816395d89b411461081e578163975f8f4614610802578163a9059cbb1461075b578163ae0f15e01461071f578163c267ada41461067c578163c45a015514610639578163c4d66de8146104e6578163c879657214610448578163d21220a714610405578163d505accf1461021957508063d9f51a43146101df578063dd62ed3e146101ab5763f29ebf6114610180575f80fd5b346101a7575f3660031901126101a75760035490516001600160a01b039091168152602090f35b5f80fd5b50346101a757806003193601126101a7576020906101d86101ca6118eb565b6101d2611901565b90611c5d565b9051908152f35b50346101a7575f3660031901126101a757602090517f00000000000000000000000000000000000000000000000000000000000000008152f35b82346101a75760e03660031901126101a7576102336118eb565b9061023c611901565b60443591606435926084359160ff831683036101a7576001600160a01b03938416956e22d473030f116ddee9f6b43ac78ba3871883191517156103f95781519461028586611947565b600886526704f7369746f204c560c41b6020809701528642116103ed578251911695869465383775081901600e52855f5260c087600c20938454937f8b73c3c69bb8fe3d512ecc4cf759cc79239f7b179b0ffacaa9a75d522b39400f8252848a83017f432403850d0c026bcf6eb0567acc5f7ed78017e4821d92ee99418a1819fb058981528d8985017fc89efdaa54c0f20c7adf612882df0950f5a951637e0307cdcb4c672f298b8bc68152606086019c8d469052608087019330855260a08820602e527f6e71edae12b1b97f4d1f60370fef10105fa2faae0126114a169c64845d6126c988525252898b525260a082015220604e526042602c205f5260ff16865260a435835260c435606052858060805f60015afa90873d51036103e1577f8c5be1e5ebec7d5bd14f71427d1e84f3dd0314c0f7b2291e5b200ac8c7c3b92597989950019055866303faf4f960a51b1790526034602c2055a3005b8963ddafbaef5f52601cfd5b88631a15a3cc5f52601cfd5b87633f68539a5f52601cfd5b82346101a7575f3660031901126101a757517f00000000000000000000000000000000000000000000000000000000000000006001600160a01b03168152602090f35b9050346101a7575f3660031901126101a7576003546001600160a01b031633036104b257610474611985565b6001600160701b03808251169061049360208401928284511690611da2565b5060015461049d57005b806104ad93511691511690611a10565b600155005b6020606492519162461bcd60e51b8352820152600f60248201526e27a7262cafa322a2afa927aaaa22a960891b6044820152fd5b9050346101a7576020806003193601126101a7576105026118eb565b6001600160a01b039190610539337f0000000000000000000000000000000000000000000000000000000000000000851614611c22565b600254838116610600576001600160a01b0319168382161760025581907f0000000000000000000000000000000000000000000000000000000000000000156105d9575b848651809581936318160ddd60e01b8352165afa9384156105d057505f936105a457505055005b9080929350813d83116105c9575b6105bc8183611963565b810103126101a757519055005b503d6105b2565b513d5f823e3d90fd5b507f000000000000000000000000000000000000000000000000000000000000000061057d565b855162461bcd60e51b815280860184905260136024820152721053149150511657d253925512505312569151606a1b6044820152606490fd5b82346101a7575f3660031901126101a757517f00000000000000000000000000000000000000000000000000000000000000006001600160a01b03168152602090f35b9050346101a75760203660031901126101a7576106976118eb565b6001600160a01b03916106cd337f0000000000000000000000000000000000000000000000000000000000000000851614611c22565b600354938385166106ee5750506001600160a01b0319909216911617600355005b906020606492519162461bcd60e51b8352820152600b60248201526a1053149150511657d4d15560aa1b6044820152fd5b82346101a7575f3660031901126101a757602090517f000000000000000000000000000000000000000000000000000000000000000015158152f35b82346101a757806003193601126101a7576107746118eb565b600354602435919061079d906001600160a01b03808416911681149081156107f8575b506119b6565b6387a211a2600c52335f5260209384600c20908154908185116107ed575083900390555f5282600c208181540190558252600c5160601c335f8051602061207b8339815191528480a35160018152f35b63f4d678b85f52601cfd5b9050301486610797565b82346101a7575f3660031901126101a7576020906101d8611a86565b82346101a7575f3660031901126101a757805161085d9161083e82611947565b600882526704f5349544f2d4c560c41b602083015251918291826118a4565b0390f35b9050346101a757602090816003193601126101a75761087e6118eb565b9168929eee149b4bd2126830815414610bdb5730815561089c611985565b9360018060a01b0380600254169587519685886024816370a0823160e01b94858252308c8301525afa978815610bd1575f98610ba2575b507f000000000000000000000000000000000000000000000000000000000000000090838216908a5198818a5230818b0152888a602481865afa998a15610b98575f9a610b69575b506387a211a29384600c52305f5289600c20546001600160701b0396878c818351169201511661094a91611da2565b956805345cdf77eb68f44c9081549e8f906109659085611a10565b9061096f91611a23565b9e8f9e61097c9085611a10565b9061098691611a23565b9d151580610b60575b15610b1d57600c52305f528b600c208054808411610b1157938f8f93908f5f908f95976109e7946109ec998260249d9c03905581815403905582525f8051602061207b833981519152309183a3838d60025416612004565b612004565b898d886002541690519384809287825230868301525afa928d84156105d0578b935f95610add575b5090602491519586938492835230908301525afa908115610ad3575f91610aa2575b610a409250611f6a565b610a85575b50865191868352858584015216907fdccd412f0b1252819cb1fd330b93224ca42612892bb3f4f789976e6d81936496873392a33890558351928352820152f35b610a99905f5490808260701c169116611a10565b6001555f610a45565b90508782813d8311610acc575b610ab98183611963565b810103126101a757610a40915190610a36565b503d610aaf565b8b513d5f823e3d90fd5b9450509183813d8311610b0a575b610af58183611963565b810103126101a75791519189918d6024610a14565b503d610aeb565b8563f4d678b85f52601cfd5b8f5162461bcd60e51b81528086018e9052601d60248201527f494e53554646494349454e545f4c49515549444954595f4255524e45440000006044820152606490fd5b508d151561098f565b9099508881813d8311610b91575b610b818183611963565b810103126101a75751985f61091b565b503d610b77565b8c513d5f823e3d90fd5b9097508581813d8311610bca575b610bba8183611963565b810103126101a75751965f6108d3565b503d610bb0565b89513d5f823e3d90fd5b8263ab143c065f52601cfd5b82346101a75760203660031901126101a757602090610c046118eb565b6338377508600c525f5281600c20549051908152f35b82346101a7575f3660031901126101a7575f5490516001600160701b038083168252607083901c16602082015260e09190911c6040820152606090f35b82346101a7575f3660031901126101a7576020906001549051908152f35b82346101a75760203660031901126101a757602090610c926118eb565b6387a211a2600c525f5281600c20549051908152f35b82346101a75760603660031901126101a7576001600160a01b0391604435838116929091602480359282359290918686036101a75768929eee149b4bd212689730895414610bdb5730895584159283158094611097575b1561105557610d0c611985565b976001600160701b0394858a5116881080611046575b610d2b90611a41565b611032575b8780611001575b505081600254169085519384926370a0823160e01b908185523084860152848360209889935afa938415610ff7579086915f95610fc6575b5082895180978193825230878301527f0000000000000000000000000000000000000000000000000000000000000000165afa938415610fbc575f94610f8d575b50610dbe88878c51166119ef565b831115610f8657610ddb610dd589888d51166119ef565b846119ef565b995b858101610ded8b898351166119ef565b861115610f7f57610e0a610e048c8a8451166119ef565b876119ef565b975b8c15801590610f76575b15610f3457610e23611a86565b612710808802888104821489151715610f22578f90610e4584610e4b93611a10565b906119ef565b91818a02918a8304148a151715610f22578392610e75610e87969593610e458f94610e7b95611a10565b90611a10565b94511691511690611a10565b906305f5e10091828102928184041490151715610f105710610eea57505090610eaf91611f6a565b825195865285015283015260608201527fd78ad95fa46c994b6551d0da85fc275fe613ce37657fb8d5e3d130840159d82260803392a3389055005b865162461bcd60e51b8152918201859052600190820152604b60f81b6044820152606490fd5b82601185634e487b7160e01b5f52525ffd5b86601189634e487b7160e01b5f52525ffd5b895162461bcd60e51b81528086018990526019818601527f494e53554646494349454e545f494e5055545f414d4f554e54000000000000006044820152606490fd5b50881515610e16565b5f97610e0c565b5f99610ddd565b9093508481813d8311610fb5575b610fa58183611963565b810103126101a75751928c610db0565b503d610f9b565b87513d5f823e3d90fd5b8281939296503d8311610ff0575b610fde8183611963565b810103126101a757859051938e610d6f565b503d610fd4565b88513d5f823e3d90fd5b61102b917f0000000000000000000000000000000000000000000000000000000000000000612004565b8a87610d37565b61104187828560025416612004565b610d30565b5060208a015186168910610d22565b606490601a84602088519362461bcd60e51b85528401528201527f494e53554646494349454e545f4f55545055545f414d4f554e540000000000006044820152fd5b50861515610cff565b9050346101a757602091826003193601126101a7576110bd6118eb565b9168929eee149b4bd212689030825414611385573082556001600160a01b03906110f2858316801590811561137757506119b6565b6110fa611985565b9180600254169285519388856024816370a0823160e01b9485825230898301525afa948515610fbc579089915f96611346575b506024885180958193825230888301527f0000000000000000000000000000000000000000000000000000000000000000165afa91821561133c575f9261130d575b506001600160701b039161118683835116866119ef565b9489830198611198858b5116846119ef565b956111aa86865116878d511690611da2565b946805345cdf77eb68f44c9b8c549182155f146112c05750506111d56111d0898b611a10565b611e86565b6103e71981019081116112ad579b6103e8928383019283106112a2575092611243928e8e93611248989796556387a211a2600c5261dead5f5280600c20828154019055528d5f5f8051602061207b833981519152600c5160601c9280a35b61123e821515611a41565b611f12565b611f6a565b611285575b508351918252858201527f4c209b5fc8ad50758f13e2e1088ba56a560dff690a1c6fef26394f4c03821c4f833392a238905551908152f35b611299905f5490808260701c169116611a10565b6001555f61124d565b63e5cfe9575f52601cfd5b601183634e487b7160e01b5f525260245ffd5b6112489695949d50611243935090886112e56112ee6112f594838f886112e591611a10565b91511690611a23565b948c611a10565b8082101561130657505b809b611233565b90506112ff565b9091508781813d8311611335575b6113258183611963565b810103126101a75751905f61116f565b503d61131b565b86513d5f823e3d90fd5b8281939297503d8311611370575b61135e8183611963565b810103126101a757889051945f61112d565b503d611354565b90508360035416145f610797565b63ab143c065f52601cfd5b82346101a7575f3660031901126101a757602091549051908152f35b82346101a7575f3660031901126101a757806704f7369746f204c560c41b60208093516113d881611947565b60088152015260a081517f8b73c3c69bb8fe3d512ecc4cf759cc79239f7b179b0ffacaa9a75d522b39400f81527f432403850d0c026bcf6eb0567acc5f7ed78017e4821d92ee99418a1819fb0589848201527fc89efdaa54c0f20c7adf612882df0950f5a951637e0307cdcb4c672f298b8bc683820152466060820152306080820152209051908152f35b82346101a7575f3660031901126101a7576020905160128152f35b82346101a75760603660031901126101a7576114986118eb565b6114a0611901565b6003546001600160a01b0391604435916114c990828516908516811490811561157c57506119b6565b8360601b6e22d473030f116ddee9f6b43ac78ba33303611533575b6387a211a217600c5260209586600c20908154908185116107ed575083900390555f5284600c208181540190558452600c5160601c91165f8051602061207b8339815191528480a35160018152f35b33602052637f5e9f208117600c526034600c20908154918219611559575b5090506114e4565b82851161157057846387a211a29303905588611551565b886313be252b5f52601cfd5b9050301488610797565b82346101a7575f3660031901126101a75761159f611985565b917f000000000000000000000000000000000000000000000000000000000000000080156116a9576001600160701b0380855116945b82156116a1576020015116905b15611679576002546020906001600160a01b03165b84516318160ddd60e01b815293849182906001600160a01b03165afa91821561166f575f92611638575b50926101d891602094611632611a86565b92611c9a565b9150926020823d602011611667575b8161165460209383611963565b810103126101a757905190926020611621565b3d9150611647565b83513d5f823e3d90fd5b60207f00000000000000000000000000000000000000000000000000000000000000006115f7565b5116906115e2565b6001600160701b0380602086015116946115d5565b82346101a7575f3660031901126101a757602090517f00000000000000000000000000000000000000000000000000000000000000008152f35b82346101a7575f3660031901126101a7576020906805345cdf77eb68f44c549051908152f35b82346101a7575f3660031901126101a75760025490516001600160a01b039091168152602090f35b82346101a7575f3660031901126101a757602090517f00000000000000000000000000000000000000000000000000000000000000008152f35b82346101a757806003193601126101a7576117996118eb565b602435906001600160a01b0381166e22d473030f116ddee9f6b43ac78ba318821915171561180d57602080945052637f5e9f20600c52335f52806034600c20555f52602c5160601c337f8c5be1e5ebec7d5bd14f71427d1e84f3dd0314c0f7b2291e5b200ac8c7c3b925845fa35160018152f35b83633f68539a5f52601cfd5b82346101a7575f3660031901126101a757611832611985565b80516020808301519284015193516001600160701b039283168152919092169181019190915263ffffffff9091166040820152606090f35b8390346101a7575f3660031901126101a75761085d9161188982611947565b600882526704f7369746f204c560c41b602083015251918291825b602080825282518183018190529093925f5b8281106118d757505060409293505f838284010152601f8019910116010190565b8181018601518482016040015285016118b6565b600435906001600160a01b03821682036101a757565b602435906001600160a01b03821682036101a757565b6060810190811067ffffffffffffffff82111761193357604052565b634e487b7160e01b5f52604160045260245ffd5b6040810190811067ffffffffffffffff82111761193357604052565b90601f8019910116810190811067ffffffffffffffff82111761193357604052565b6040519061199282611917565b8160405f546001600160701b0380821684528160701c16602084015260e01c910152565b156119bd57565b60405162461bcd60e51b815260206004820152600a602482015269149154d5149250d5115160b21b6044820152606490fd5b919082039182116119fc57565b634e487b7160e01b5f52601160045260245ffd5b818102929181159184041417156119fc57565b8115611a2d570490565b634e487b7160e01b5f52601260045260245ffd5b15611a4857565b60405162461bcd60e51b8152602060048201526016602482015275494e53554646494349454e545f4c495155494449545960501b6044820152606490fd5b7f000000000000000000000000000000000000000000000000000000000000000015611bf8576002546004906020906001600160a01b03165b6040516318160ddd60e01b815292839182906001600160a01b03165afa908115611bed575f91611bbb575b506004549080821115611bb357611b00916119ef565b7f00000000000000000000000000000000000000000000000000000000000000009081811015611b8d57610e45611b8a92611b857f000000000000000000000000000000000000000000000000000000000000000093611b807f0000000000000000000000000000000000000000000000000000000000000000866119ef565b611a10565b611a23565b90565b50507f000000000000000000000000000000000000000000000000000000000000000090565b50505f611b00565b90506020813d602011611be5575b81611bd660209383611963565b810103126101a757515f611aea565b3d9150611bc9565b6040513d5f823e3d90fd5b600460207f0000000000000000000000000000000000000000000000000000000000000000611abf565b15611c2957565b60405162461bcd60e51b815260206004820152600c60248201526b15539055551213d49256915160a21b6044820152606490fd5b906001600160a01b0381166e22d473030f116ddee9f6b43ac78ba314611c9357602052637f5e9f20600c525f526034600c205490565b50505f1990565b91908115611d9a5781831015611d5b57611cbe83611cb88382611a10565b936119ef565b612710948503908582116119fc578181029181159183041417850215611d47578490048301928381116119fc57611cf59083611a23565b03611d5457670de0b6b3a764000090828282029183818404149015170215611d47578280910482810292818404149015170215611d475704816126de9182810292818404149015170215611d47570490565b63ad251c275f526004601cfd5b5050505f90565b9192505081670de0b6b3a76400009182810292818404149015170215611d4757046126de80820290612710928391818404149015170215611d47570490565b505050505f90565b6003546001546001600160a01b03909116801580159594919390611e765782611dcc575b50505050565b611de2916001600160701b038091169116611a10565b818111611df0575b80611dc6565b611dfc611e0291611e86565b91611e86565b906805345cdf77eb68f44c54828211611e1c575b50611dea565b610e7583611e29936119ef565b90605a820291808304605a14901517156119fc576064810290808204606414901517156119fc57611e5991611a23565b80611e66575b8080611e16565b611e6f91611f12565b5f80611e5f565b50509050611e8057565b5f600155565b8070ffffffffffffffffffffffffffffffffff1060071b81811c68ffffffffffffffffff1060061b1781811c64ffffffffff1060051b1781811c62ffffff1060041b1760019060b56201000084831c0191831c1b0260121c80830401811c80830401811c80830401811c80830401811c80830401811c80830401811c80830401901c8080920410900390565b6805345cdf77eb68f44c805490838201918210611f5d57556387a211a2600c525f526020600c20818154019055602052600c5160601c5f5f8051602061207b833981519152602080a3565b63e5cfe9575f526004601cfd5b7f1c411e9a96e071241c2f21f7726b17ae89e3cab4c78be50e062b03a9fffbbad191611fa0611f9a604093612055565b91612055565b90825191611fad83611917565b6001600160701b038092169283815282821660208201528463ffffffff42169101528263ffffffff60e01b4260e01b16916001600160701b0360701b9060701b161717805f55835192835260701c166020820152a1565b919060145260345263a9059cbb60601b5f5260205f6044601082855af1908160015f51141615612037575b50505f603452565b3b153d171015612048575f8061202f565b6390b8ec185f526004601cfd5b600160701b81101561206d576001600160701b031690565b6335278d125f526004601cfdfeddf252ad1be2c89b69c2b068fc378daa952ba7f163c4a11628f55a4df523b3efa26469706673582212205de0fc33411d89f96742c85da0ef24c3c61ac89acc77986a9782b22c9e125c5964736f6c634300081800336080604052346200037c5762000d9c803803806200001d8162000380565b9283398101906080818303126200037c5780516001600160401b03908181116200037c57836200004f918401620003a6565b60209384840151908382116200037c576200006c918501620003a6565b604084015160609094015192906001600160a01b03841684036200037c5782518281116200029a575f54906001948583811c9316801562000371575b898410146200027b578190601f938481116200031e575b508990848311600114620002ba575f92620002ae575b50505f19600383901b1c191690851b175f555b81519283116200029a578354918483811c931680156200028f575b888410146200027b57828285941162000226575b5087918311600114620001c2575f92620001b6575b50505f19600383901b1c191690821b1790555b6805345cdf77eb68f44c805490838201918210620001a957556387a211a2600c525f5281600c2081815401905581525f7fddf252ad1be2c89b69c2b068fc378daa952ba7f163c4a11628f55a4df523b3ef600c5160601c9280a36040516109859081620004178239f35b63e5cfe9575f526004601cfd5b015190505f806200012c565b90849350601f19831691845f52885f20925f5b8a8282106200020f5750508411620001f6575b505050811b0190556200013f565b01515f1960f88460031b161c191690555f8080620001e8565b8385015186558897909501949384019301620001d5565b90919250845f52875f208380860160051c8201928a871062000271575b91869588929594930160051c01915b8281106200026257505062000117565b5f815586955087910162000252565b9250819262000243565b634e487b7160e01b5f52602260045260245ffd5b92607f169262000103565b634e487b7160e01b5f52604160045260245ffd5b015190505f80620000d5565b90879350601f198316915f80528b5f20925f5b8d828210620003075750508411620002ee575b505050811b015f55620000e8565b01515f1960f88460031b161c191690555f8080620002e0565b8385015186558b97909501949384019301620002cd565b9091505f8052895f208480850160051c8201928c861062000367575b918991869594930160051c01915b82811062000358575050620000bf565b5f815585945089910162000348565b925081926200033a565b92607f1692620000a8565b5f80fd5b6040519190601f01601f191682016001600160401b038111838210176200029a57604052565b919080601f840112156200037c5782516001600160401b0381116200029a57602090620003dc601f8201601f1916830162000380565b928184528282870101116200037c575f5b818110620004025750825f9394955001015290565b8581018301518482018401528201620003ed56fe604060808152600480361015610013575f80fd5b5f3560e01c90816306fdde0314610779578163095ea7b3146106e057816318160ddd146106ba57816323b872dd146105c6578163313ce567146105ab5781633644e5151461052457816342966c68146104b457816370a08231146104815781637ecebe001461044e57816395d89b411461032c578163a9059cbb146102a1578163d505accf146100e3575063dd62ed3e146100ac575f80fd5b346100df57806003193601126100df576020906100d86100ca6107e4565b6100d26107fa565b90610912565b9051908152f35b5f80fd5b82346100df5760e03660031901126100df576100fd6107e4565b906101066107fa565b9060443592606435936084359260ff841684036100df576001600160a01b03948516956e22d473030f116ddee9f6b43ac78ba3871883191517156102955761014c610810565b948551602080970120908242116102895760c0978451961697889665383775081901600e52875f5288600c2094855480957f8b73c3c69bb8fe3d512ecc4cf759cc79239f7b179b0ffacaa9a75d522b39400f84528b84019081528d8985017fc89efdaa54c0f20c7adf612882df0950f5a951637e0307cdcb4c672f298b8bc68152606086019c8d469052608087019330855260a08820602e527f6e71edae12b1b97f4d1f60370fef10105fa2faae0126114a169c64845d6126c988525252898b525260a082015220604e526042602c205f5260ff16865260a435835260c435606052858060805f60015afa90873d510361027d577f8c5be1e5ebec7d5bd14f71427d1e84f3dd0314c0f7b2291e5b200ac8c7c3b92597989950019055866303faf4f960a51b1790526034602c2055a3005b8963ddafbaef5f52601cfd5b89631a15a3cc5f52601cfd5b87633f68539a5f52601cfd5b82346100df57806003193601126100df576102ba6107e4565b602435906387a211a2600c52335f5260209384600c2090815490818511610321575083900390555f5282600c208181540190558252600c5160601c337fddf252ad1be2c89b69c2b068fc378daa952ba7f163c4a11628f55a4df523b3ef8480a35160018152f35b63f4d678b85f52601cfd5b82346100df575f3660031901126100df578051905f60018054908160011c9060018316928315610444575b60209384841081146104315783885290811561041557506001146103bf575b505050829003601f01601f191682019267ffffffffffffffff8411838510176103ac57508291826103a892528261079d565b0390f35b604190634e487b7160e01b5f525260245ffd5b60015f908152929350837fb10e2d527612073b26eecdfd717e6a320cf44b4afac2b0732d9fcbe2b7fa0cf65b8385106104015750505050830101848080610376565b8054888601830152930192849082016103eb565b60ff1916878501525050151560051b8401019050848080610376565b602289634e487b7160e01b5f525260245ffd5b91607f1691610357565b82346100df5760203660031901126100df5760209061046b6107e4565b6338377508600c525f5281600c20549051908152f35b82346100df5760203660031901126100df5760209061049e6107e4565b6387a211a2600c525f5281600c20549051908152f35b346100df5760203660031901126100df578035906387a211a2600c52335f526020600c2090815490818411610321575082900390556805345cdf77eb68f44c8181540390555f525f337fddf252ad1be2c89b69c2b068fc378daa952ba7f163c4a11628f55a4df523b3ef602083a3005b82346100df575f3660031901126100df5760209060a0610542610810565b8381519101208251907f8b73c3c69bb8fe3d512ecc4cf759cc79239f7b179b0ffacaa9a75d522b39400f8252848201527fc89efdaa54c0f20c7adf612882df0950f5a951637e0307cdcb4c672f298b8bc683820152466060820152306080820152209051908152f35b82346100df575f3660031901126100df576020905160128152f35b82346100df5760603660031901126100df576105e06107e4565b6105e86107fa565b604435908260601b6e22d473030f116ddee9f6b43ac78ba33303610671575b6387a211a217600c5260209485600c2090815490818511610321575083900390555f52600c8481208054830190559084525160601c906001600160a01b03167fddf252ad1be2c89b69c2b068fc378daa952ba7f163c4a11628f55a4df523b3ef8480a35160018152f35b33602052637f5e9f208117600c526034600c20908154918219610697575b509050610607565b8285116106ae57846387a211a2930390558761068f565b876313be252b5f52601cfd5b82346100df575f3660031901126100df576020906805345cdf77eb68f44c549051908152f35b82346100df57806003193601126100df576106f96107e4565b602435906001600160a01b0381166e22d473030f116ddee9f6b43ac78ba318821915171561076d57602080945052637f5e9f20600c52335f52806034600c20555f52602c5160601c337f8c5be1e5ebec7d5bd14f71427d1e84f3dd0314c0f7b2291e5b200ac8c7c3b925845fa35160018152f35b83633f68539a5f52601cfd5b82346100df575f3660031901126100df576103a890610796610810565b9051918291825b602080825282518183018190529093925f5b8281106107d057505060409293505f838284010152601f8019910116010190565b8181018601518482016040015285016107af565b600435906001600160a01b03821682036100df57565b602435906001600160a01b03821682036100df57565b604051905f805460018160011c9060018316928315610908575b60209384841081146108f4578388529081156108d85750600114610884575b505050829003601f01601f1916820167ffffffffffffffff81118382101761087057604052565b634e487b7160e01b5f52604160045260245ffd5b5f808052929350837f290decd9548b62a8d60345a988386fc84ba6bc95484008f6362f93160ef3e5635b8385106108c457505050508301015f8080610849565b8054888601830152930192849082016108ae565b60ff1916878501525050151560051b84010190505f8080610849565b634e487b7160e01b5f52602260045260245ffd5b91607f169161082a565b906001600160a01b0381166e22d473030f116ddee9f6b43ac78ba31461094857602052637f5e9f20600c525f526034600c205490565b50505f199056fea26469706673582212201139f12d0b2dc498254f7b920ead55793c5e5288d2cc59b0e83d1456e45744d964736f6c63430008180033a26469706673582212209fe4d87b79516f93616733b45fe192f579d25b5820bef95038856f3ff84d1f7b64736f6c63430008180033","linkReferences":{}},"methodIdentifiers":{"launchToken(string,string,uint256,uint256,uint256,uint256,uint256)":"da9a1647","treasury()":"61d027b3","weth()":"3fc8cef3"},"id":33}