{"abi":[{"type":"constructor","inputs":[{"name":"_weth","type":"address","internalType":"address"},{"name":"_treasury","type":"address","internalType":"address"}],"stateMutability":"nonpayable"},{"type":"function","name":"launchToken","inputs":[{"name":"name","type":"string","internalType":"string"},{"name":"symbol","type":"string","internalType":"string"},{"name":"supply","type":"uint256","internalType":"uint256"},{"name":"metadataURI","type":"string","internalType":"string"},{"name":"wethAmount","type":"uint256","internalType":"uint256"},{"name":"startFeeBps","type":"uint256","internalType":"uint256"},{"name":"endFeeBps","type":"uint256","internalType":"uint256"},{"name":"feeDecayTarget","type":"uint256","internalType":"uint256"}],"outputs":[{"name":"token","type":"address","internalType":"address"},{"name":"pair","type":"address","internalType":"address"},{"name":"feeRouter","type":"address","internalType":"address"}],"stateMutability":"nonpayable"},{"type":"function","name":"treasury","inputs":[],"outputs":[{"name":"","type":"address","internalType":"address"}],"stateMutability":"view"},{"type":"function","name":"weth","inputs":[],"outputs":[{"name":"","type":"address","internalType":"address"}],"stateMutability":"view"},{"type":"event","name":"TokenLaunched","inputs":[{"name":"token","type":"address","indexed":true,"internalType":"address"},{"name":"pair","type":"address","indexed":true,"internalType":"address"},{"name":"feeRouter","type":"address","indexed":true,"internalType":"address"},{"name":"name","type":"string","indexed":false,"internalType":"string"},{"name":"symbol","type":"string","indexed":false,"internalType":"string"},{"name":"supply","type":"uint256","indexed":false,"internalType":"uint256"},{"name":"metadataURI","type":"string","indexed":false,"internalType":"string"}],"anonymous":false}],"bytecode":{"object":"0x60c03461008657601f61419238819003918201601f19168301916001600160401b0383118484101761008a57808492604094855283398101031261008657610052602061004b8361009e565b920161009e565b9060805260a0526040516140df90816100b3823960805181818160a30152610187015260a051818181605a01526102010152f35b5f80fd5b634e487b7160e01b5f52604160045260245ffd5b51906001600160a01b03821682036100865756fe6040608081526004908136101562000015575f80fd5b5f915f3560e01c90816321391f7314620000d2575080633fc8cef3146200008d576361d027b31462000045575f80fd5b346200008957816003193601126200008957517f00000000000000000000000000000000000000000000000000000000000000006001600160a01b03168152602090f35b5080fd5b50346200008957816003193601126200008957517f00000000000000000000000000000000000000000000000000000000000000006001600160a01b03168152602090f35b838334620004d657610100366003190112620004d65767ffffffffffffffff908335828111620004d6576200010b903690860162000594565b9360248035848111620004d65762000127903690840162000594565b60443590606435868111620004d65762000145903690860162000594565b9060a4359760c43595868a10620005125787519561239796878101978189108c8a1117620005005762000d5082395f885280602098600160a01b600190039a8b7f0000000000000000000000000000000000000000000000000000000000000000169e8f8c8401528d83015f90526060830152608082015260e43560a082015260c08101600190520360e001905ff08015620004f6578816978951610720808201908d83831090831117620004e4578c918391620006308339847f00000000000000000000000000000000000000000000000000000000000000001681528c8c8201520301905ff08015620004da5781169a893b15620004d6578a51633099eb6960e21b81528481018d90525f818581838f5af18015620004cc57620004b6575b508a5190610fc380830191821183831017620004a457908f6080620002cd8f8f938f8f91908e620002ac620002ba938c9b620030e78d3960a08b5260a08b0190620005ef565b91898303908a0152620005ef565b9186015284810360608601528c620005ef565b920152039085f080156200047357169a883b156200046757895163189acdbd60e31b81528381018d905284818481838e5af180156200049a5791899186936200047d575b5060648b8d5194859384926323b872dd60e01b8452338a8501528884015260843560448401525af1801562000473579184939189936200042a575b508a519384926335313c2160e11b845283015281858b5af180156200042057620003ed575b50507f406a74cd2fb1e3ce703ae2e428ed249cfdad2daf83ce6f78285164658f6add6b620003bd60609a620003dd8a968996620003cb8e978d51968796608088526080880190620005ef565b908682038d880152620005ef565b918c8501528382038f850152620005ef565b0390a48251948552840152820152f35b8590813d831162000418575b62000405818362000571565b8101031262000415578062000371565b80fd5b503d620003f9565b88513d84823e3d90fd5b9193509181813d81116200046b575b62000445818362000571565b81010312620004675751801515036200046357829187918e6200034c565b8280fd5b8380fd5b503d62000439565b8a513d86823e3d90fd5b6200048b9193925062000548565b62000467578784918f62000311565b8b513d87823e3d90fd5b634e487b7160e01b8752604186528487fd5b620004c391955062000548565b5f938e62000266565b8c513d5f823e3d90fd5b5f80fd5b8a513d5f823e3d90fd5b84604187634e487b7160e01b5f52525ffd5b89513d5f823e3d90fd5b82604185634e487b7160e01b5f52525ffd5b60649060118760208b519362461bcd60e51b855284015282015270494e56414c49445f4645455f52414e474560781b6044820152fd5b67ffffffffffffffff81116200055d57604052565b634e487b7160e01b5f52604160045260245ffd5b90601f8019910116810190811067ffffffffffffffff8211176200055d57604052565b81601f82011215620004d65780359067ffffffffffffffff82116200055d5760405192620005cd601f8401601f19166020018562000571565b82845260208383010111620004d657815f926020809301838601378301015290565b91908251928382525f5b8481106200061a575050825f602080949584010152601f8019910116010190565b602081830181015184830182015201620005f956fe60e03461009357601f61072038819003918201601f19168301916001600160401b0383118484101761009757808492604094855283398101031261009357610052602061004b836100ab565b92016100ab565b906080523360a05260c05260405161066090816100c082396080518181816101000152610362015260a05181607b015260c05181818160bf01526101ba0152f35b5f80fd5b634e487b7160e01b5f52604160045260245ffd5b51906001600160a01b03821682036100935756fe6080806040526004361015610012575f80fd5b5f3560e01c90816361d027b3146100ee57508063a8aa1b31146100aa578063c45a0155146100665763c879657214610048575f80fd5b34610062575f366003190112610062576100606101b0565b005b5f80fd5b34610062575f366003190112610062576040517f00000000000000000000000000000000000000000000000000000000000000006001600160a01b03168152602090f35b34610062575f366003190112610062576040517f00000000000000000000000000000000000000000000000000000000000000006001600160a01b03168152602090f35b34610062575f366003190112610062577f00000000000000000000000000000000000000000000000000000000000000006001600160a01b03168152602090f35b67ffffffffffffffff811161014357604052565b634e487b7160e01b5f52604160045260245ffd5b90601f8019910116810190811067ffffffffffffffff82111761014357604052565b90816020910312610062575180151581036100625790565b9081602091031261006257516001600160a01b03811681036100625790565b6001600160a01b037f000000000000000000000000000000000000000000000000000000000000000081169190823b156100625760409081519363643cb2b960e11b85525f6004955f81888183875af180156106205761060f575b5083516370a0823160e01b81523087820152602091908281602481875afa9081156105b15782916105e2575b5080156105d85785519063a9059cbb60e01b825284898301526024820152828160448185885af180156105b1576105bb575b50845163226bf2d160e21b81523088820152858160248185885af19485156105b1578291839661057b575b50865163057078af60e51b81529584878b81895afa968715610571578497610542575b5086156104f9578751630dfe168160e01b815285818c818a5afa90811561048d578b91879187916104dc575b50975b8915610497578a5163d21220a760e01b815292839182905afa90811561048d578591610460575b50925b87156104595780975b156104515750945b866103f9575b505083610360575b50507f49d512bf9cb224241c05691e73eb9fab078cf350c7dbcbcf66788f1fc0cc8b0b9495508351928352820152a1565b7f0000000000000000000000000000000000000000000000000000000000000000601452603484905263a9059cbb60601b825282826044601082855af19081600184511416156103dc575b50507f49d512bf9cb224241c05691e73eb9fab078cf350c7dbcbcf66788f1fc0cc8b0b95965060345285945f61032f565b3b153d1710156103ed5786806103ab565b6390b8ec18879152601cfd5b16803b1561044d57828660248b838b519586948593630852cd8d60e31b85528401525af180156104435790839115610327576104349061012f565b61043f57815f610327565b5080fd5b87513d85823e3d90fd5b8280fd5b905094610321565b8197610319565b6104809150863d8811610486575b6104788183610157565b810190610191565b5f61030d565b503d61046e565b89513d87823e3d90fd5b8a51630dfe168160e01b815292839182905afa90811561048d5785916104bf575b5092610310565b6104d69150863d8811610486576104788183610157565b5f6104b8565b6104f39150823d8411610486576104788183610157565b5f6102e3565b875163d21220a760e01b815285818c818a5afa90811561048d578b9187918791610525575b50976102e6565b61053c9150823d8411610486576104788183610157565b5f61051e565b610563919750853d871161056a575b61055b8183610157565b810190610179565b955f6102b7565b503d610551565b88513d86823e3d90fd5b87809297508193503d83116105aa575b6105958183610157565b8101031261043f57828151910151945f610294565b503d61058b565b86513d84823e3d90fd5b6105d190833d851161056a5761055b8183610157565b505f610269565b5050505050509050565b90508281813d8311610608575b6105f98183610157565b8101031261043f57515f610237565b503d6105ef565b610619915061012f565b5f8061020b565b85513d5f823e3d90fdfea26469706673582212205924daa62c6fe7ddf3e65497a941dfa37c6de5e97f6047a60e0be7f006e63c0064736f6c634300081800336101408060405234620001e65760e08162002397803803809162000024828562000206565b833981010312620001e6576200003a816200023e565b9062000049602082016200023e565b9162000058604083016200023e565b60608301519160808401519460c060a0860151950151928315158403620001e6573360805260018060a01b0394858416918660018060a01b031991848360025416176002558560a0521690600354161760035560e0526101009687526101209586528360c05262000178575b6040516121439086888362000254843960805183818161053f0152818161067a01526106d2015260a051838181610419015281816106090152818161092e01528181610dd80152818161105f01528181611197015281816116d50152611c56015260c0518381816105850152818161078e015281816115fa0152611ae0015260e0518381816117b50152611b8e01525182818161172d01528181611bb30152611be90152518181816101f60152611b5a0152f35b60209215620001fe57505b6004604051809481936318160ddd60e01b8352165afa908115620001f3575f91620001b7575b506004555f808080620000c4565b90506020813d602011620001ea575b81620001d56020938362000206565b81010312620001e657515f620001a9565b5f80fd5b3d9150620001c6565b6040513d5f823e3d90fd5b905062000183565b601f909101601f19168101906001600160401b038211908210176200022a57604052565b634e487b7160e01b5f52604160045260245ffd5b51906001600160a01b0382168203620001e65756fe6080604090808252600480361015610015575f80fd5b5f3560e01c91826306fdde03146118c2575081630902f1ac14611871578163095ea7b3146117d85781630c1e38471461179e5781630dfe16811461177657816318160ddd146117505781631e2f99311461171657816322950746146115de57816323b872dd146114d6578163313ce567146114bb5781633644e51514611404578163378dc3dc146113e85781636a627842146110f85781636d9a640a14610d0057816370a0823114610ccd5781637464fc3d14610caf57816375172a8b14610c725781637ecebe0014610c3f57816389afcb44146108b957816395d89b4114610876578163975f8f461461085a578163a9059cbb146107b3578163ae0f15e014610777578163c267ada4146106a9578163c45a015514610666578163c4d66de814610513578163c879657214610448578163d21220a714610405578163d505accf1461021957508063d9f51a43146101df578063dd62ed3e146101ab5763f29ebf6114610180575f80fd5b346101a7575f3660031901126101a75760035490516001600160a01b039091168152602090f35b5f80fd5b50346101a757806003193601126101a7576020906101d86101ca611943565b6101d2611959565b90611cb5565b9051908152f35b50346101a7575f3660031901126101a757602090517f00000000000000000000000000000000000000000000000000000000000000008152f35b82346101a75760e03660031901126101a757610233611943565b9061023c611959565b60443591606435926084359160ff831683036101a7576001600160a01b03938416956e22d473030f116ddee9f6b43ac78ba3871883191517156103f9578151946102858661199f565b600886526704f7369746f204c560c41b6020809701528642116103ed578251911695869465383775081901600e52855f5260c087600c20938454937f8b73c3c69bb8fe3d512ecc4cf759cc79239f7b179b0ffacaa9a75d522b39400f8252848a83017f432403850d0c026bcf6eb0567acc5f7ed78017e4821d92ee99418a1819fb058981528d8985017fc89efdaa54c0f20c7adf612882df0950f5a951637e0307cdcb4c672f298b8bc68152606086019c8d469052608087019330855260a08820602e527f6e71edae12b1b97f4d1f60370fef10105fa2faae0126114a169c64845d6126c988525252898b525260a082015220604e526042602c205f5260ff16865260a435835260c435606052858060805f60015afa90873d51036103e1577f8c5be1e5ebec7d5bd14f71427d1e84f3dd0314c0f7b2291e5b200ac8c7c3b92597989950019055866303faf4f960a51b1790526034602c2055a3005b8963ddafbaef5f52601cfd5b88631a15a3cc5f52601cfd5b87633f68539a5f52601cfd5b82346101a7575f3660031901126101a757517f00000000000000000000000000000000000000000000000000000000000000006001600160a01b03168152602090f35b9050346101a7575f3660031901126101a75768929eee149b4bd212689130835414610507573083556003546001600160a01b031633036104d2578261048b6119dd565b6001600160701b0380825116906104aa60208401928284511690611e06565b506001546104b757388455005b806104c793511691511690611a68565b600155818080388455005b906020606492519162461bcd60e51b8352820152600f60248201526e27a7262cafa322a2afa927aaaa22a960891b6044820152fd5b5063ab143c065f52601cfd5b9050346101a7576020806003193601126101a75761052f611943565b6001600160a01b039190610566337f0000000000000000000000000000000000000000000000000000000000000000851614611c7a565b60025483811661062d576001600160a01b0319168382161760025581907f000000000000000000000000000000000000000000000000000000000000000015610606575b848651809581936318160ddd60e01b8352165afa9384156105fd57505f936105d157505055005b9080929350813d83116105f6575b6105e981836119bb565b810103126101a757519055005b503d6105df565b513d5f823e3d90fd5b507f00000000000000000000000000000000000000000000000000000000000000006105aa565b855162461bcd60e51b815280860184905260136024820152721053149150511657d253925512505312569151606a1b6044820152606490fd5b82346101a7575f3660031901126101a757517f00000000000000000000000000000000000000000000000000000000000000006001600160a01b03168152602090f35b82346101a75760203660031901126101a7576106c3611943565b6001600160a01b03906106f9337f0000000000000000000000000000000000000000000000000000000000000000841614611c7a565b6003549382851693846107465750501680926bffffffffffffffffffffffff60a01b16176003557fe7f2ec24c1dc728e0b1df4cd4a80b136f2b519236115f081809e6b8b0becc0f65f80a3005b906020606492519162461bcd60e51b8352820152600b60248201526a1053149150511657d4d15560aa1b6044820152fd5b82346101a7575f3660031901126101a757602090517f000000000000000000000000000000000000000000000000000000000000000015158152f35b82346101a757806003193601126101a7576107cc611943565b60035460243591906107f5906001600160a01b0380841691168114908115610850575b50611a0e565b6387a211a2600c52335f5260209384600c2090815490818511610845575083900390555f5282600c208181540190558252600c5160601c335f805160206120ee8339815191528480a35160018152f35b63f4d678b85f52601cfd5b90503014866107ef565b82346101a7575f3660031901126101a7576020906101d8611ade565b82346101a7575f3660031901126101a75780516108b5916108968261199f565b600882526704f5349544f2d4c560c41b602083015251918291826118fc565b0390f35b9050346101a757602090816003193601126101a7576108d6611943565b9168929eee149b4bd2126830815414610c33573081556108f46119dd565b9360018060a01b0380600254169587519685886024816370a0823160e01b94858252308c8301525afa978815610c29575f98610bfa575b507f000000000000000000000000000000000000000000000000000000000000000090838216908a5198818a5230818b0152888a602481865afa998a15610bf0575f9a610bc1575b506387a211a29384600c52305f5289600c20546001600160701b0396878c81835116920151166109a291611e06565b956805345cdf77eb68f44c9081549e8f906109bd9085611a68565b906109c791611a7b565b9e8f9e6109d49085611a68565b906109de91611a7b565b9d151580610bb8575b15610b7557600c52305f528b600c208054808411610b6957938f8f93908f5f908f9597610a3f94610a44998260249d9c03905581815403905582525f805160206120ee833981519152309183a3838d60025416612077565b612077565b898d886002541690519384809287825230868301525afa928d84156105fd578b935f95610b35575b5090602491519586938492835230908301525afa908115610b2b575f91610afa575b610a989250611fdd565b610add575b50865191868352858584015216907fdccd412f0b1252819cb1fd330b93224ca42612892bb3f4f789976e6d81936496873392a33890558351928352820152f35b610af1905f5490808260701c169116611a68565b6001555f610a9d565b90508782813d8311610b24575b610b1181836119bb565b810103126101a757610a98915190610a8e565b503d610b07565b8b513d5f823e3d90fd5b9450509183813d8311610b62575b610b4d81836119bb565b810103126101a75791519189918d6024610a6c565b503d610b43565b8563f4d678b85f52601cfd5b8f5162461bcd60e51b81528086018e9052601d60248201527f494e53554646494349454e545f4c49515549444954595f4255524e45440000006044820152606490fd5b508d15156109e7565b9099508881813d8311610be9575b610bd981836119bb565b810103126101a75751985f610973565b503d610bcf565b8c513d5f823e3d90fd5b9097508581813d8311610c22575b610c1281836119bb565b810103126101a75751965f61092b565b503d610c08565b89513d5f823e3d90fd5b8263ab143c065f52601cfd5b82346101a75760203660031901126101a757602090610c5c611943565b6338377508600c525f5281600c20549051908152f35b82346101a7575f3660031901126101a7575f5490516001600160701b038083168252607083901c16602082015260e09190911c6040820152606090f35b82346101a7575f3660031901126101a7576020906001549051908152f35b82346101a75760203660031901126101a757602090610cea611943565b6387a211a2600c525f5281600c20549051908152f35b82346101a75760603660031901126101a7576001600160a01b0391604435838116929091602480359282359290918686036101a75768929eee149b4bd212689730895414610c3357308955841592831580946110ef575b156110ad57610d646119dd565b976001600160701b0394858a511688108061109e575b610d8390611a99565b61108a575b8780611059575b505081600254169085519384926370a0823160e01b908185523084860152848360209889935afa93841561104f579086915f9561101e575b5082895180978193825230878301527f0000000000000000000000000000000000000000000000000000000000000000165afa938415611014575f94610fe5575b50610e1688878c5116611a47565b831115610fde57610e33610e2d89888d5116611a47565b84611a47565b995b858101610e458b89835116611a47565b861115610fd757610e62610e5c8c8a845116611a47565b87611a47565b975b8c15801590610fce575b15610f8c57610e7b611ade565b612710808802888104821489151715610f7a578f90610e9d84610ea393611a68565b90611a47565b91818a02918a8304148a151715610f7a578392610ecd610edf969593610e9d8f94610ed395611a68565b90611a68565b94511691511690611a68565b906305f5e10091828102928184041490151715610f685710610f4257505090610f0791611fdd565b825195865285015283015260608201527fd78ad95fa46c994b6551d0da85fc275fe613ce37657fb8d5e3d130840159d82260803392a3389055005b865162461bcd60e51b8152918201859052600190820152604b60f81b6044820152606490fd5b82601185634e487b7160e01b5f52525ffd5b86601189634e487b7160e01b5f52525ffd5b895162461bcd60e51b81528086018990526019818601527f494e53554646494349454e545f494e5055545f414d4f554e54000000000000006044820152606490fd5b50881515610e6e565b5f97610e64565b5f99610e35565b9093508481813d831161100d575b610ffd81836119bb565b810103126101a75751928c610e08565b503d610ff3565b87513d5f823e3d90fd5b8281939296503d8311611048575b61103681836119bb565b810103126101a757859051938e610dc7565b503d61102c565b88513d5f823e3d90fd5b611083917f0000000000000000000000000000000000000000000000000000000000000000612077565b8a87610d8f565b61109987828560025416612077565b610d88565b5060208a015186168910610d7a565b606490601a84602088519362461bcd60e51b85528401528201527f494e53554646494349454e545f4f55545055545f414d4f554e540000000000006044820152fd5b50861515610d57565b9050346101a757602091826003193601126101a757611115611943565b9168929eee149b4bd2126890308254146113dd573082556001600160a01b039061114a85831680159081156113cf5750611a0e565b6111526119dd565b9180600254169285519388856024816370a0823160e01b9485825230898301525afa948515611014579089915f9661139e575b506024885180958193825230888301527f0000000000000000000000000000000000000000000000000000000000000000165afa918215611394575f92611365575b506001600160701b03916111de8383511686611a47565b94898301986111f0858b511684611a47565b9561120286865116878d511690611e06565b946805345cdf77eb68f44c9b8c549182155f1461131857505061122d611228898b611a68565b611ef9565b6103e7198101908111611305579b6103e8928383019283106112fa57509261129b928e8e936112a0989796556387a211a2600c5261dead5f5280600c20828154019055528d5f5f805160206120ee833981519152600c5160601c9280a35b611296821515611a99565b611f85565b611fdd565b6112dd575b508351918252858201527f4c209b5fc8ad50758f13e2e1088ba56a560dff690a1c6fef26394f4c03821c4f833392a238905551908152f35b6112f1905f5490808260701c169116611a68565b6001555f6112a5565b63e5cfe9575f52601cfd5b601183634e487b7160e01b5f525260245ffd5b6112a09695949d5061129b9350908861133d61134661134d94838f8861133d91611a68565b91511690611a7b565b948c611a68565b8082101561135e57505b809b61128b565b9050611357565b9091508781813d831161138d575b61137d81836119bb565b810103126101a75751905f6111c7565b503d611373565b86513d5f823e3d90fd5b8281939297503d83116113c8575b6113b681836119bb565b810103126101a757889051945f611185565b503d6113ac565b90508360035416145f6107ef565b63ab143c065f52601cfd5b82346101a7575f3660031901126101a757602091549051908152f35b82346101a7575f3660031901126101a757806704f7369746f204c560c41b60208093516114308161199f565b60088152015260a081517f8b73c3c69bb8fe3d512ecc4cf759cc79239f7b179b0ffacaa9a75d522b39400f81527f432403850d0c026bcf6eb0567acc5f7ed78017e4821d92ee99418a1819fb0589848201527fc89efdaa54c0f20c7adf612882df0950f5a951637e0307cdcb4c672f298b8bc683820152466060820152306080820152209051908152f35b82346101a7575f3660031901126101a7576020905160128152f35b82346101a75760603660031901126101a7576114f0611943565b6114f8611959565b6003546001600160a01b0391604435916115219082851690851681149081156115d45750611a0e565b8360601b6e22d473030f116ddee9f6b43ac78ba3330361158b575b6387a211a217600c5260209586600c2090815490818511610845575083900390555f5284600c208181540190558452600c5160601c91165f805160206120ee8339815191528480a35160018152f35b33602052637f5e9f208117600c526034600c209081549182196115b1575b50905061153c565b8285116115c857846387a211a293039055886115a9565b886313be252b5f52601cfd5b90503014886107ef565b82346101a7575f3660031901126101a7576115f76119dd565b917f00000000000000000000000000000000000000000000000000000000000000008015611701576001600160701b0380855116945b82156116f9576020015116905b156116d1576002546020906001600160a01b03165b84516318160ddd60e01b815293849182906001600160a01b03165afa9182156116c7575f92611690575b50926101d89160209461168a611ade565b92611cff565b9150926020823d6020116116bf575b816116ac602093836119bb565b810103126101a757905190926020611679565b3d915061169f565b83513d5f823e3d90fd5b60207f000000000000000000000000000000000000000000000000000000000000000061164f565b51169061163a565b6001600160701b03806020860151169461162d565b82346101a7575f3660031901126101a757602090517f00000000000000000000000000000000000000000000000000000000000000008152f35b82346101a7575f3660031901126101a7576020906805345cdf77eb68f44c549051908152f35b82346101a7575f3660031901126101a75760025490516001600160a01b039091168152602090f35b82346101a7575f3660031901126101a757602090517f00000000000000000000000000000000000000000000000000000000000000008152f35b82346101a757806003193601126101a7576117f1611943565b602435906001600160a01b0381166e22d473030f116ddee9f6b43ac78ba318821915171561186557602080945052637f5e9f20600c52335f52806034600c20555f52602c5160601c337f8c5be1e5ebec7d5bd14f71427d1e84f3dd0314c0f7b2291e5b200ac8c7c3b925845fa35160018152f35b83633f68539a5f52601cfd5b82346101a7575f3660031901126101a75761188a6119dd565b80516020808301519284015193516001600160701b039283168152919092169181019190915263ffffffff9091166040820152606090f35b8390346101a7575f3660031901126101a7576108b5916118e18261199f565b600882526704f7369746f204c560c41b602083015251918291825b602080825282518183018190529093925f5b82811061192f57505060409293505f838284010152601f8019910116010190565b81810186015184820160400152850161190e565b600435906001600160a01b03821682036101a757565b602435906001600160a01b03821682036101a757565b6060810190811067ffffffffffffffff82111761198b57604052565b634e487b7160e01b5f52604160045260245ffd5b6040810190811067ffffffffffffffff82111761198b57604052565b90601f8019910116810190811067ffffffffffffffff82111761198b57604052565b604051906119ea8261196f565b8160405f546001600160701b0380821684528160701c16602084015260e01c910152565b15611a1557565b60405162461bcd60e51b815260206004820152600a602482015269149154d5149250d5115160b21b6044820152606490fd5b91908203918211611a5457565b634e487b7160e01b5f52601160045260245ffd5b81810292918115918404141715611a5457565b8115611a85570490565b634e487b7160e01b5f52601260045260245ffd5b15611aa057565b60405162461bcd60e51b8152602060048201526016602482015275494e53554646494349454e545f4c495155494449545960501b6044820152606490fd5b7f000000000000000000000000000000000000000000000000000000000000000015611c50576002546004906020906001600160a01b03165b6040516318160ddd60e01b815292839182906001600160a01b03165afa908115611c45575f91611c13575b506004549080821115611c0b57611b5891611a47565b7f00000000000000000000000000000000000000000000000000000000000000009081811015611be557610e9d611be292611bdd7f000000000000000000000000000000000000000000000000000000000000000093611bd87f000000000000000000000000000000000000000000000000000000000000000086611a47565b611a68565b611a7b565b90565b50507f000000000000000000000000000000000000000000000000000000000000000090565b50505f611b58565b90506020813d602011611c3d575b81611c2e602093836119bb565b810103126101a757515f611b42565b3d9150611c21565b6040513d5f823e3d90fd5b600460207f0000000000000000000000000000000000000000000000000000000000000000611b17565b15611c8157565b60405162461bcd60e51b815260206004820152600c60248201526b15539055551213d49256915160a21b6044820152606490fd5b906001600160a01b0381166e22d473030f116ddee9f6b43ac78ba314611ceb57602052637f5e9f20600c525f526034600c205490565b50505f1990565b91908201809211611a5457565b91908115611dfe5781831015611dbf57611d2383611d1d8382611a68565b93611a47565b61271094850390858211611a54578181029181159183041417850215611dab57611d5285611d59920485611cf2565b9383611a7b565b03611db857670de0b6b3a764000090828282029183818404149015170215611dab578280910482810292818404149015170215611dab5704816126de9182810292818404149015170215611dab570490565b63ad251c275f526004601cfd5b5050505f90565b9192505081670de0b6b3a76400009182810292818404149015170215611dab57046126de80820290612710928391818404149015170215611dab570490565b505050505f90565b6003546001546001600160a01b03909116801580159594919390611ee95782611e30575b50505050565b611e46916001600160701b038091169116611a68565b818111611e54575b80611e2a565b611e60611e6691611ef9565b91611ef9565b906805345cdf77eb68f44c54828211611e80575b50611e4e565b611e8e90610ecd8484611a47565b90600581029080820460051490151715611a5457611eb592611eaf91611cf2565b90611a7b565b603681029080820460361490151715611a5457600a900480611ed9575b8080611e7a565b611ee291611f85565b5f80611ed2565b50509050611ef357565b5f600155565b8070ffffffffffffffffffffffffffffffffff1060071b81811c68ffffffffffffffffff1060061b1781811c64ffffffffff1060051b1781811c62ffffff1060041b1760019060b56201000084831c0191831c1b0260121c80830401811c80830401811c80830401811c80830401811c80830401811c80830401811c80830401901c8080920410900390565b6805345cdf77eb68f44c805490838201918210611fd057556387a211a2600c525f526020600c20818154019055602052600c5160601c5f5f805160206120ee833981519152602080a3565b63e5cfe9575f526004601cfd5b7f1c411e9a96e071241c2f21f7726b17ae89e3cab4c78be50e062b03a9fffbbad19161201361200d6040936120c8565b916120c8565b908251916120208361196f565b6001600160701b038092169283815282821660208201528463ffffffff42169101528263ffffffff60e01b4260e01b16916001600160701b0360701b9060701b161717805f55835192835260701c166020820152a1565b919060145260345263a9059cbb60601b5f5260205f6044601082855af1908160015f511416156120aa575b50505f603452565b3b153d1710156120bb575f806120a2565b6390b8ec185f526004601cfd5b600160701b8110156120e0576001600160701b031690565b6335278d125f526004601cfdfeddf252ad1be2c89b69c2b068fc378daa952ba7f163c4a11628f55a4df523b3efa2646970667358221220b93506066afc90845628b19d90bfa853506f485b4d31de2d4c6ee139da4a647664736f6c63430008180033608060405234620004b95762000fc3803803806200001d81620004bd565b928339810160a082820312620004b95781516001600160401b039290838111620004b957826200004f918301620004e3565b60209384830151818111620004b957846200006c918501620004e3565b6040840151946060850151838111620004b9576080916200008f918701620004e3565b940151936001600160a01b0385168503620004b95783519183831162000307575f54926001958685811c95168015620004ae575b8a861014620002e8578190601f958681116200045b575b508a90868311600114620003f5575f92620003e9575b50505f19600383901b1c191690861b175f555b80519084821162000307578554908682811c92168015620003de575b8a831014620002e85781858493116200038b575b50899085831160011462000327575f926200031b575b50505f19600383901b1c191690851b1784555b805192831162000307576002548481811c91168015620002fc575b88821014620002e8578281116200029f575b508691831160011462000239579282939183925f946200022d575b50501b915f199060031b1c1916176002555b6805345cdf77eb68f44c8054908382019182106200022057556387a211a2600c525f5281600c2081815401905581525f7fddf252ad1be2c89b69c2b068fc378daa952ba7f163c4a11628f55a4df523b3ef600c5160601c9280a3604051610a6f9081620005548239f35b63e5cfe9575f526004601cfd5b015192505f80620001a4565b90601f1983169160025f5283885f20935f5b8a888383106200028757505050106200026e575b505050811b01600255620001b6565b01515f1960f88460031b161c191690555f80806200025f565b8686015188559096019594850194879350016200024b565b60025f52875f208380860160051c8201928a8710620002de575b0160051c019085905b828110620002d257505062000189565b5f8155018590620002c2565b92508192620002b9565b634e487b7160e01b5f52602260045260245ffd5b90607f169062000177565b634e487b7160e01b5f52604160045260245ffd5b015190505f8062000149565b90879350601f19831691845f528b5f20925f5b8d8282106200037457505084116200035b575b505050811b0184556200015c565b01515f1960f88460031b161c191690555f80806200034d565b8385015186558b979095019493840193016200033a565b909150865f52895f208580850160051c8201928c8610620003d4575b918991869594930160051c01915b828110620003c557505062000133565b5f8155859450899101620003b5565b92508192620003a7565b91607f16916200011f565b015190505f80620000f0565b5f8080528c81208a9550929190601f198516908e5b8282106200044357505084116200042a575b505050811b015f5562000103565b01515f1960f88460031b161c191690555f80806200041c565b8385015186558c979095019493840193018e6200040a565b9091505f80528a5f208680850160051c8201928d8610620004a4575b918a91869594930160051c01915b82811062000495575050620000da565b5f81558594508a910162000485565b9250819262000477565b94607f1694620000c3565b5f80fd5b6040519190601f01601f191682016001600160401b038111838210176200030757604052565b919080601f84011215620004b95782516001600160401b038111620003075760209062000519601f8201601f19168301620004bd565b92818452828287010111620004b9575f5b8181106200053f5750825f9394955001015290565b85810183015184820184015282016200052a56fe6080604090808252600480361015610015575f80fd5b5f3560e01c91826303ee438c146107af5750816306fdde0314610787578163095ea7b3146106ee57816318160ddd146106c857816323b872dd146105d4578163313ce567146105b95781633644e5151461053257816342966c68146104c257816370a082311461048f5781637ecebe001461045c57816395d89b411461033a578163a9059cbb146102af578163d505accf146100f1575063dd62ed3e146100ba575f80fd5b346100ed57806003193601126100ed576020906100e66100d86108ce565b6100e06108e4565b906109fc565b9051908152f35b5f80fd5b82346100ed5760e03660031901126100ed5761010b6108ce565b906101146108e4565b9060443592606435936084359260ff841684036100ed576001600160a01b03948516956e22d473030f116ddee9f6b43ac78ba3871883191517156102a35761015a6108fa565b948551602080970120908242116102975760c0978451961697889665383775081901600e52875f5288600c2094855480957f8b73c3c69bb8fe3d512ecc4cf759cc79239f7b179b0ffacaa9a75d522b39400f84528b84019081528d8985017fc89efdaa54c0f20c7adf612882df0950f5a951637e0307cdcb4c672f298b8bc68152606086019c8d469052608087019330855260a08820602e527f6e71edae12b1b97f4d1f60370fef10105fa2faae0126114a169c64845d6126c988525252898b525260a082015220604e526042602c205f5260ff16865260a435835260c435606052858060805f60015afa90873d510361028b577f8c5be1e5ebec7d5bd14f71427d1e84f3dd0314c0f7b2291e5b200ac8c7c3b92597989950019055866303faf4f960a51b1790526034602c2055a3005b8963ddafbaef5f52601cfd5b89631a15a3cc5f52601cfd5b87633f68539a5f52601cfd5b82346100ed57806003193601126100ed576102c86108ce565b602435906387a211a2600c52335f5260209384600c209081549081851161032f575083900390555f5282600c208181540190558252600c5160601c337fddf252ad1be2c89b69c2b068fc378daa952ba7f163c4a11628f55a4df523b3ef8480a35160018152f35b63f4d678b85f52601cfd5b82346100ed575f3660031901126100ed578051905f60018054908160011c9060018316928315610452575b602093848410811461043f5783885290811561042357506001146103cd575b505050829003601f01601f191682019267ffffffffffffffff8411838510176103ba57508291826103b6925282610887565b0390f35b604190634e487b7160e01b5f525260245ffd5b60015f908152929350837fb10e2d527612073b26eecdfd717e6a320cf44b4afac2b0732d9fcbe2b7fa0cf65b83851061040f5750505050830101848080610384565b8054888601830152930192849082016103f9565b60ff1916878501525050151560051b8401019050848080610384565b602289634e487b7160e01b5f525260245ffd5b91607f1691610365565b82346100ed5760203660031901126100ed576020906104796108ce565b6338377508600c525f5281600c20549051908152f35b82346100ed5760203660031901126100ed576020906104ac6108ce565b6387a211a2600c525f5281600c20549051908152f35b346100ed5760203660031901126100ed578035906387a211a2600c52335f526020600c209081549081841161032f575082900390556805345cdf77eb68f44c8181540390555f525f337fddf252ad1be2c89b69c2b068fc378daa952ba7f163c4a11628f55a4df523b3ef602083a3005b82346100ed575f3660031901126100ed5760209060a06105506108fa565b8381519101208251907f8b73c3c69bb8fe3d512ecc4cf759cc79239f7b179b0ffacaa9a75d522b39400f8252848201527fc89efdaa54c0f20c7adf612882df0950f5a951637e0307cdcb4c672f298b8bc683820152466060820152306080820152209051908152f35b82346100ed575f3660031901126100ed576020905160128152f35b82346100ed5760603660031901126100ed576105ee6108ce565b6105f66108e4565b604435908260601b6e22d473030f116ddee9f6b43ac78ba3330361067f575b6387a211a217600c5260209485600c209081549081851161032f575083900390555f52600c8481208054830190559084525160601c906001600160a01b03167fddf252ad1be2c89b69c2b068fc378daa952ba7f163c4a11628f55a4df523b3ef8480a35160018152f35b33602052637f5e9f208117600c526034600c209081549182196106a5575b509050610615565b8285116106bc57846387a211a2930390558761069d565b876313be252b5f52601cfd5b82346100ed575f3660031901126100ed576020906805345cdf77eb68f44c549051908152f35b82346100ed57806003193601126100ed576107076108ce565b602435906001600160a01b0381166e22d473030f116ddee9f6b43ac78ba318821915171561077b57602080945052637f5e9f20600c52335f52806034600c20555f52602c5160601c337f8c5be1e5ebec7d5bd14f71427d1e84f3dd0314c0f7b2291e5b200ac8c7c3b925845fa35160018152f35b83633f68539a5f52601cfd5b82346100ed575f3660031901126100ed576103b6906107a46108fa565b905191829182610887565b83346100ed575f3660031901126100ed575f60025460018160011c906001831692831561087d575b602093848410811461043f57838852908115610423575060011461082757505050829003601f01601f191682019267ffffffffffffffff8411838510176103ba57508291826103b6925282610887565b60025f908152929350837f405787fa12a823e0f2b7631cc41b3ba8828b3321ca811111fa75cd3aa3bb5ace5b8385106108695750505050830101848080610384565b805488860183015293019284908201610853565b91607f16916107d7565b602080825282518183018190529093925f5b8281106108ba57505060409293505f838284010152601f8019910116010190565b818101860151848201604001528501610899565b600435906001600160a01b03821682036100ed57565b602435906001600160a01b03821682036100ed57565b604051905f805460018160011c90600183169283156109f2575b60209384841081146109de578388529081156109c2575060011461096e575b505050829003601f01601f1916820167ffffffffffffffff81118382101761095a57604052565b634e487b7160e01b5f52604160045260245ffd5b5f808052929350837f290decd9548b62a8d60345a988386fc84ba6bc95484008f6362f93160ef3e5635b8385106109ae57505050508301015f8080610933565b805488860183015293019284908201610998565b60ff1916878501525050151560051b84010190505f8080610933565b634e487b7160e01b5f52602260045260245ffd5b91607f1691610914565b906001600160a01b0381166e22d473030f116ddee9f6b43ac78ba314610a3257602052637f5e9f20600c525f526034600c205490565b50505f199056fea2646970667358221220e904d54c27075ca588494729f102332c98b781091c469bd019e0e10ee715567864736f6c63430008180033a2646970667358221220d579b14c7d279f1507d83649c75ed67f3a3902ed62b07d66c64daecf0f2ad07964736f6c63430008180033","linkReferences":{}},"methodIdentifiers":{"launchToken(string,string,uint256,string,uint256,uint256,uint256,uint256)":"21391f73","treasury()":"61d027b3","weth()":"3fc8cef3"},"id":31}