{"abi":[{"type":"constructor","inputs":[{"name":"_weth","type":"address","internalType":"address"},{"name":"_treasury","type":"address","internalType":"address"}],"stateMutability":"nonpayable"},{"type":"function","name":"launchToken","inputs":[{"name":"name","type":"string","internalType":"string"},{"name":"symbol","type":"string","internalType":"string"},{"name":"supply","type":"uint256","internalType":"uint256"},{"name":"metadataURI","type":"string","internalType":"string"},{"name":"wethAmount","type":"uint256","internalType":"uint256"},{"name":"startFeeBps","type":"uint256","internalType":"uint256"},{"name":"endFeeBps","type":"uint256","internalType":"uint256"},{"name":"feeDecayTarget","type":"uint256","internalType":"uint256"}],"outputs":[{"name":"token","type":"address","internalType":"address"},{"name":"pair","type":"address","internalType":"address"},{"name":"feeRouter","type":"address","internalType":"address"}],"stateMutability":"nonpayable"},{"type":"function","name":"treasury","inputs":[],"outputs":[{"name":"","type":"address","internalType":"address"}],"stateMutability":"view"},{"type":"function","name":"weth","inputs":[],"outputs":[{"name":"","type":"address","internalType":"address"}],"stateMutability":"view"},{"type":"event","name":"TokenLaunched","inputs":[{"name":"token","type":"address","indexed":true,"internalType":"address"},{"name":"pair","type":"address","indexed":true,"internalType":"address"},{"name":"feeRouter","type":"address","indexed":true,"internalType":"address"},{"name":"name","type":"string","indexed":false,"internalType":"string"},{"name":"symbol","type":"string","indexed":false,"internalType":"string"},{"name":"supply","type":"uint256","indexed":false,"internalType":"uint256"},{"name":"metadataURI","type":"string","indexed":false,"internalType":"string"}],"anonymous":false}],"bytecode":{"object":"0x60c03461008657601f6142a738819003918201601f19168301916001600160401b0383118484101761008a57808492604094855283398101031261008657610052602061004b8361009e565b920161009e565b9060805260a0526040516141f490816100b3823960805181818160a30152610187015260a051818181605a01526102010152f35b5f80fd5b634e487b7160e01b5f52604160045260245ffd5b51906001600160a01b03821682036100865756fe6040608081526004908136101562000015575f80fd5b5f915f3560e01c90816321391f7314620000d2575080633fc8cef3146200008d576361d027b31462000045575f80fd5b346200008957816003193601126200008957517f00000000000000000000000000000000000000000000000000000000000000006001600160a01b03168152602090f35b5080fd5b50346200008957816003193601126200008957517f00000000000000000000000000000000000000000000000000000000000000006001600160a01b03168152602090f35b838334620004d657610100366003190112620004d65767ffffffffffffffff908335828111620004d6576200010b903690860162000594565b9360248035848111620004d65762000127903690840162000594565b60443590606435868111620004d65762000145903690860162000594565b9060a4359760c43595868a1062000512578751956123e096878101978189108c8a1117620005005762000d5082395f885280602098600160a01b600190039a8b7f0000000000000000000000000000000000000000000000000000000000000000169e8f8c8401528d83015f90526060830152608082015260e43560a082015260c08101600190520360e001905ff08015620004f6578816978951610720808201908d83831090831117620004e4578c918391620006308339847f00000000000000000000000000000000000000000000000000000000000000001681528c8c8201520301905ff08015620004da5781169a893b15620004d6578a51633099eb6960e21b81528481018d90525f818581838f5af18015620004cc57620004b6575b508a519061108f80830191821183831017620004a457908f6080620002cd8f8f938f8f91908e620002ac620002ba938c9b620031308d3960a08b5260a08b0190620005ef565b91898303908a0152620005ef565b9186015284810360608601528c620005ef565b920152039085f080156200047357169a883b156200046757895163189acdbd60e31b81528381018d905284818481838e5af180156200049a5791899186936200047d575b5060648b8d5194859384926323b872dd60e01b8452338a8501528884015260843560448401525af1801562000473579184939189936200042a575b508a519384926335313c2160e11b845283015281858b5af180156200042057620003ed575b50507f406a74cd2fb1e3ce703ae2e428ed249cfdad2daf83ce6f78285164658f6add6b620003bd60609a620003dd8a968996620003cb8e978d51968796608088526080880190620005ef565b908682038d880152620005ef565b918c8501528382038f850152620005ef565b0390a48251948552840152820152f35b8590813d831162000418575b62000405818362000571565b8101031262000415578062000371565b80fd5b503d620003f9565b88513d84823e3d90fd5b9193509181813d81116200046b575b62000445818362000571565b81010312620004675751801515036200046357829187918e6200034c565b8280fd5b8380fd5b503d62000439565b8a513d86823e3d90fd5b6200048b9193925062000548565b62000467578784918f62000311565b8b513d87823e3d90fd5b634e487b7160e01b8752604186528487fd5b620004c391955062000548565b5f938e62000266565b8c513d5f823e3d90fd5b5f80fd5b8a513d5f823e3d90fd5b84604187634e487b7160e01b5f52525ffd5b89513d5f823e3d90fd5b82604185634e487b7160e01b5f52525ffd5b60649060118760208b519362461bcd60e51b855284015282015270494e56414c49445f4645455f52414e474560781b6044820152fd5b67ffffffffffffffff81116200055d57604052565b634e487b7160e01b5f52604160045260245ffd5b90601f8019910116810190811067ffffffffffffffff8211176200055d57604052565b81601f82011215620004d65780359067ffffffffffffffff82116200055d5760405192620005cd601f8401601f19166020018562000571565b82845260208383010111620004d657815f926020809301838601378301015290565b91908251928382525f5b8481106200061a575050825f602080949584010152601f8019910116010190565b602081830181015184830182015201620005f956fe60e03461009357601f61072038819003918201601f19168301916001600160401b0383118484101761009757808492604094855283398101031261009357610052602061004b836100ab565b92016100ab565b906080523360a05260c05260405161066090816100c082396080518181816101000152610362015260a05181607b015260c05181818160bf01526101ba0152f35b5f80fd5b634e487b7160e01b5f52604160045260245ffd5b51906001600160a01b03821682036100935756fe6080806040526004361015610012575f80fd5b5f3560e01c90816361d027b3146100ee57508063a8aa1b31146100aa578063c45a0155146100665763c879657214610048575f80fd5b34610062575f366003190112610062576100606101b0565b005b5f80fd5b34610062575f366003190112610062576040517f00000000000000000000000000000000000000000000000000000000000000006001600160a01b03168152602090f35b34610062575f366003190112610062576040517f00000000000000000000000000000000000000000000000000000000000000006001600160a01b03168152602090f35b34610062575f366003190112610062577f00000000000000000000000000000000000000000000000000000000000000006001600160a01b03168152602090f35b67ffffffffffffffff811161014357604052565b634e487b7160e01b5f52604160045260245ffd5b90601f8019910116810190811067ffffffffffffffff82111761014357604052565b90816020910312610062575180151581036100625790565b9081602091031261006257516001600160a01b03811681036100625790565b6001600160a01b037f000000000000000000000000000000000000000000000000000000000000000081169190823b156100625760409081519363643cb2b960e11b85525f6004955f81888183875af180156106205761060f575b5083516370a0823160e01b81523087820152602091908281602481875afa9081156105b15782916105e2575b5080156105d85785519063a9059cbb60e01b825284898301526024820152828160448185885af180156105b1576105bb575b50845163226bf2d160e21b81523088820152858160248185885af19485156105b1578291839661057b575b50865163057078af60e51b81529584878b81895afa968715610571578497610542575b5086156104f9578751630dfe168160e01b815285818c818a5afa90811561048d578b91879187916104dc575b50975b8915610497578a5163d21220a760e01b815292839182905afa90811561048d578591610460575b50925b87156104595780975b156104515750945b866103f9575b505083610360575b50507f49d512bf9cb224241c05691e73eb9fab078cf350c7dbcbcf66788f1fc0cc8b0b9495508351928352820152a1565b7f0000000000000000000000000000000000000000000000000000000000000000601452603484905263a9059cbb60601b825282826044601082855af19081600184511416156103dc575b50507f49d512bf9cb224241c05691e73eb9fab078cf350c7dbcbcf66788f1fc0cc8b0b95965060345285945f61032f565b3b153d1710156103ed5786806103ab565b6390b8ec18879152601cfd5b16803b1561044d57828660248b838b519586948593630852cd8d60e31b85528401525af180156104435790839115610327576104349061012f565b61043f57815f610327565b5080fd5b87513d85823e3d90fd5b8280fd5b905094610321565b8197610319565b6104809150863d8811610486575b6104788183610157565b810190610191565b5f61030d565b503d61046e565b89513d87823e3d90fd5b8a51630dfe168160e01b815292839182905afa90811561048d5785916104bf575b5092610310565b6104d69150863d8811610486576104788183610157565b5f6104b8565b6104f39150823d8411610486576104788183610157565b5f6102e3565b875163d21220a760e01b815285818c818a5afa90811561048d578b9187918791610525575b50976102e6565b61053c9150823d8411610486576104788183610157565b5f61051e565b610563919750853d871161056a575b61055b8183610157565b810190610179565b955f6102b7565b503d610551565b88513d86823e3d90fd5b87809297508193503d83116105aa575b6105958183610157565b8101031261043f57828151910151945f610294565b503d61058b565b86513d84823e3d90fd5b6105d190833d851161056a5761055b8183610157565b505f610269565b5050505050509050565b90508281813d8311610608575b6105f98183610157565b8101031261043f57515f610237565b503d6105ef565b610619915061012f565b5f8061020b565b85513d5f823e3d90fdfea2646970667358221220c8209488a3ea1eb64c7d56bb6731327df6989ebd70118f81f222c8aa2b99b12264736f6c634300081800336101408060405234620001e65760e081620023e0803803809162000024828562000206565b833981010312620001e6576200003a816200023e565b9062000049602082016200023e565b9162000058604083016200023e565b60608301519160808401519460c060a0860151950151928315158403620001e6573360805260018060a01b0394858416918660018060a01b031991848360025416176002558560a0521690600354161760035560e0526101009687526101209586528360c05262000178575b60405161218c9086888362000254843960805183818161050801528181610616015261066e015260a051838181610419015281816105de015281816108ca01528181610d7401528181610ffb0152818161113b015281816116b40152611cb5015260c0518381816105510152818161072a015281816115d90152611b3f015260e0518381816117940152611bed01525182818161170c01528181611c120152611c480152518181816101f60152611bb90152f35b60209215620001fe57505b6004604051809481936318160ddd60e01b8352165afa908115620001f3575f91620001b7575b506004555f808080620000c4565b90506020813d602011620001ea575b81620001d56020938362000206565b81010312620001e657515f620001a9565b5f80fd5b3d9150620001c6565b6040513d5f823e3d90fd5b905062000183565b601f909101601f19168101906001600160401b038211908210176200022a57604052565b634e487b7160e01b5f52604160045260245ffd5b51906001600160a01b0382168203620001e65756fe6080604090808252600480361015610015575f80fd5b5f3560e01c91826306fdde03146118a1575081630902f1ac14611850578163095ea7b3146117b75781630c1e38471461177d5781630dfe16811461175557816318160ddd1461172f5781631e2f9931146116f557816322950746146115bd57816323b872dd146114b5578163313ce5671461149a5781633644e515146113e3578163378dc3dc146113c75781636a627842146110945781636d9a640a14610c9c57816370a0823114610c695781637464fc3d14610c4b57816375172a8b14610c0e5781637ecebe0014610bdb57816389afcb441461085557816395d89b4114610812578163975f8f46146107f6578163a9059cbb1461074f578163ae0f15e014610713578163c267ada414610645578163c45a015514610602578163c4d66de8146104de578163c879657214610448578163d21220a714610405578163d505accf1461021957508063d9f51a43146101df578063dd62ed3e146101ab5763f29ebf6114610180575f80fd5b346101a7575f3660031901126101a75760035490516001600160a01b039091168152602090f35b5f80fd5b50346101a757806003193601126101a7576020906101d86101ca611922565b6101d2611938565b90611d14565b9051908152f35b50346101a7575f3660031901126101a757602090517f00000000000000000000000000000000000000000000000000000000000000008152f35b82346101a75760e03660031901126101a757610233611922565b9061023c611938565b60443591606435926084359160ff831683036101a7576001600160a01b03938416956e22d473030f116ddee9f6b43ac78ba3871883191517156103f9578151946102858661197e565b600886526704f7369746f204c560c41b6020809701528642116103ed578251911695869465383775081901600e52855f5260c087600c20938454937f8b73c3c69bb8fe3d512ecc4cf759cc79239f7b179b0ffacaa9a75d522b39400f8252848a83017f432403850d0c026bcf6eb0567acc5f7ed78017e4821d92ee99418a1819fb058981528d8985017fc89efdaa54c0f20c7adf612882df0950f5a951637e0307cdcb4c672f298b8bc68152606086019c8d469052608087019330855260a08820602e527f6e71edae12b1b97f4d1f60370fef10105fa2faae0126114a169c64845d6126c988525252898b525260a082015220604e526042602c205f5260ff16865260a435835260c435606052858060805f60015afa90873d51036103e1577f8c5be1e5ebec7d5bd14f71427d1e84f3dd0314c0f7b2291e5b200ac8c7c3b92597989950019055866303faf4f960a51b1790526034602c2055a3005b8963ddafbaef5f52601cfd5b88631a15a3cc5f52601cfd5b87633f68539a5f52601cfd5b82346101a7575f3660031901126101a757517f00000000000000000000000000000000000000000000000000000000000000006001600160a01b03168152602090f35b346101a7575f3660031901126101a75768929eee149b4bd2126890308254146104d3575030815561048460018060a01b03600354163314611a26565b61048c6119bc565b6001600160701b0380825116906104ab60208401928284511690611e4f565b506001546104b857388455005b806104c893511691511690611ac7565b600155818080388455005b63ab143c065f52601cfd5b9050346101a75760203660031901126101a7576104f9611922565b6001600160a01b039061052f337f0000000000000000000000000000000000000000000000000000000000000000841614611cd9565b60025461053e83821615611a64565b6001600160a01b031916818316176002557f0000000000000000000000000000000000000000000000000000000000000000156105d9576020905b838551809481936318160ddd60e01b8352165afa9283156105d057505f9261059f575055005b9091506020813d6020116105c8575b816105bb6020938361199a565b810103126101a757519055005b3d91506105ae565b513d5f823e3d90fd5b5060207f0000000000000000000000000000000000000000000000000000000000000000610579565b82346101a7575f3660031901126101a757517f00000000000000000000000000000000000000000000000000000000000000006001600160a01b03168152602090f35b82346101a75760203660031901126101a75761065f611922565b6001600160a01b0390610695337f0000000000000000000000000000000000000000000000000000000000000000841614611cd9565b6003549382851693846106e25750501680926bffffffffffffffffffffffff60a01b16176003557fe7f2ec24c1dc728e0b1df4cd4a80b136f2b519236115f081809e6b8b0becc0f65f80a3005b906020606492519162461bcd60e51b8352820152600b60248201526a1053149150511657d4d15560aa1b6044820152fd5b82346101a7575f3660031901126101a757602090517f000000000000000000000000000000000000000000000000000000000000000015158152f35b82346101a757806003193601126101a757610768611922565b6003546024359190610791906001600160a01b03808416911681149081156107ec575b506119ed565b6387a211a2600c52335f5260209384600c20908154908185116107e1575083900390555f5282600c208181540190558252600c5160601c335f805160206121378339815191528480a35160018152f35b63f4d678b85f52601cfd5b905030148661078b565b82346101a7575f3660031901126101a7576020906101d8611b3d565b82346101a7575f3660031901126101a7578051610851916108328261197e565b600882526704f5349544f2d4c560c41b602083015251918291826118db565b0390f35b9050346101a757602090816003193601126101a757610872611922565b9168929eee149b4bd2126830815414610bcf573081556108906119bc565b9360018060a01b0380600254169587519685886024816370a0823160e01b94858252308c8301525afa978815610bc5575f98610b96575b507f000000000000000000000000000000000000000000000000000000000000000090838216908a5198818a5230818b0152888a602481865afa998a15610b8c575f9a610b5d575b506387a211a29384600c52305f5289600c20546001600160701b0396878c818351169201511661093e91611e4f565b956805345cdf77eb68f44c9081549e8f906109599085611ac7565b9061096391611ada565b9e8f9e6109709085611ac7565b9061097a91611ada565b9d151580610b54575b15610b1157600c52305f528b600c208054808411610b0557938f8f93908f5f908f95976109db946109e0998260249d9c03905581815403905582525f80516020612137833981519152309183a3838d600254166120c0565b6120c0565b898d886002541690519384809287825230868301525afa928d84156105d0578b935f95610ad1575b5090602491519586938492835230908301525afa908115610ac7575f91610a96575b610a349250612026565b610a79575b50865191868352858584015216907fdccd412f0b1252819cb1fd330b93224ca42612892bb3f4f789976e6d81936496873392a33890558351928352820152f35b610a8d905f5490808260701c169116611ac7565b6001555f610a39565b90508782813d8311610ac0575b610aad818361199a565b810103126101a757610a34915190610a2a565b503d610aa3565b8b513d5f823e3d90fd5b9450509183813d8311610afe575b610ae9818361199a565b810103126101a75791519189918d6024610a08565b503d610adf565b8563f4d678b85f52601cfd5b8f5162461bcd60e51b81528086018e9052601d60248201527f494e53554646494349454e545f4c49515549444954595f4255524e45440000006044820152606490fd5b508d1515610983565b9099508881813d8311610b85575b610b75818361199a565b810103126101a75751985f61090f565b503d610b6b565b8c513d5f823e3d90fd5b9097508581813d8311610bbe575b610bae818361199a565b810103126101a75751965f6108c7565b503d610ba4565b89513d5f823e3d90fd5b8263ab143c065f52601cfd5b82346101a75760203660031901126101a757602090610bf8611922565b6338377508600c525f5281600c20549051908152f35b82346101a7575f3660031901126101a7575f5490516001600160701b038083168252607083901c16602082015260e09190911c6040820152606090f35b82346101a7575f3660031901126101a7576020906001549051908152f35b82346101a75760203660031901126101a757602090610c86611922565b6387a211a2600c525f5281600c20549051908152f35b82346101a75760603660031901126101a7576001600160a01b0391604435838116929091602480359282359290918686036101a75768929eee149b4bd212689730895414610bcf573089558415928315809461108b575b1561104957610d006119bc565b976001600160701b0394858a511688108061103a575b610d1f90611af8565b611026575b8780610ff5575b505081600254169085519384926370a0823160e01b908185523084860152848360209889935afa938415610feb579086915f95610fba575b5082895180978193825230878301527f0000000000000000000000000000000000000000000000000000000000000000165afa938415610fb0575f94610f81575b50610db288878c5116611aa6565b831115610f7a57610dcf610dc989888d5116611aa6565b84611aa6565b995b858101610de18b89835116611aa6565b861115610f7357610dfe610df88c8a845116611aa6565b87611aa6565b975b8c15801590610f6a575b15610f2857610e17611b3d565b612710808802888104821489151715610f16578f90610e3984610e3f93611ac7565b90611aa6565b91818a02918a8304148a151715610f16578392610e69610e7b969593610e398f94610e6f95611ac7565b90611ac7565b94511691511690611ac7565b906305f5e10091828102928184041490151715610f045710610ede57505090610ea391612026565b825195865285015283015260608201527fd78ad95fa46c994b6551d0da85fc275fe613ce37657fb8d5e3d130840159d82260803392a3389055005b865162461bcd60e51b8152918201859052600190820152604b60f81b6044820152606490fd5b82601185634e487b7160e01b5f52525ffd5b86601189634e487b7160e01b5f52525ffd5b895162461bcd60e51b81528086018990526019818601527f494e53554646494349454e545f494e5055545f414d4f554e54000000000000006044820152606490fd5b50881515610e0a565b5f97610e00565b5f99610dd1565b9093508481813d8311610fa9575b610f99818361199a565b810103126101a75751928c610da4565b503d610f8f565b87513d5f823e3d90fd5b8281939296503d8311610fe4575b610fd2818361199a565b810103126101a757859051938e610d63565b503d610fc8565b88513d5f823e3d90fd5b61101f917f00000000000000000000000000000000000000000000000000000000000000006120c0565b8a87610d2b565b611035878285600254166120c0565b610d24565b5060208a015186168910610d16565b606490601a84602088519362461bcd60e51b85528401528201527f494e53554646494349454e545f4f55545055545f414d4f554e540000000000006044820152fd5b50861515610cf3565b9050346101a757602091826003193601126101a7576110b1611922565b9168929eee149b4bd2126890308254146104d3573082556001600160a01b03908482168061137357506110ee6805345cdf77eb68f44c5415611a64565b6110f66119bc565b9180600254169285519388856024816370a0823160e01b9485825230898301525afa948515610fb0579089915f96611342575b506024885180958193825230888301527f0000000000000000000000000000000000000000000000000000000000000000165afa918215611338575f92611309575b506001600160701b03916111828383511686611aa6565b9489830198611194858b511684611aa6565b956111a686865116878d511690611e4f565b946805345cdf77eb68f44c9b8c549182155f146112bc5750506111d16111cc898b611ac7565b611f42565b6103e71981019081116112a9579b6103e89283830192831061129e57509261123f928e8e93611244989796556387a211a2600c5261dead5f5280600c20828154019055528d5f5f80516020612137833981519152600c5160601c9280a35b61123a821515611af8565b611fce565b612026565b611281575b508351918252858201527f4c209b5fc8ad50758f13e2e1088ba56a560dff690a1c6fef26394f4c03821c4f833392a238905551908152f35b611295905f5490808260701c169116611ac7565b6001555f611249565b63e5cfe9575f52601cfd5b601183634e487b7160e01b5f525260245ffd5b6112449695949d5061123f935090886112e16112ea6112f194838f886112e191611ac7565b91511690611ada565b948c611ac7565b8082101561130257505b809b61122f565b90506112fb565b9091508781813d8311611331575b611321818361199a565b810103126101a75751905f61116b565b503d611317565b86513d5f823e3d90fd5b8281939297503d831161136c575b61135a818361199a565b810103126101a757889051945f611129565b503d611350565b600354831690810361138f5761138a903314611a26565b6110ee565b845162461bcd60e51b81526020818401818152600a9181019190915269149154d5149250d5115160b21b604082015281906060010390fd5b82346101a7575f3660031901126101a757602091549051908152f35b82346101a7575f3660031901126101a757806704f7369746f204c560c41b602080935161140f8161197e565b60088152015260a081517f8b73c3c69bb8fe3d512ecc4cf759cc79239f7b179b0ffacaa9a75d522b39400f81527f432403850d0c026bcf6eb0567acc5f7ed78017e4821d92ee99418a1819fb0589848201527fc89efdaa54c0f20c7adf612882df0950f5a951637e0307cdcb4c672f298b8bc683820152466060820152306080820152209051908152f35b82346101a7575f3660031901126101a7576020905160128152f35b82346101a75760603660031901126101a7576114cf611922565b6114d7611938565b6003546001600160a01b0391604435916115009082851690851681149081156115b357506119ed565b8360601b6e22d473030f116ddee9f6b43ac78ba3330361156a575b6387a211a217600c5260209586600c20908154908185116107e1575083900390555f5284600c208181540190558452600c5160601c91165f805160206121378339815191528480a35160018152f35b33602052637f5e9f208117600c526034600c20908154918219611590575b50905061151b565b8285116115a757846387a211a29303905588611588565b886313be252b5f52601cfd5b905030148861078b565b82346101a7575f3660031901126101a7576115d66119bc565b917f000000000000000000000000000000000000000000000000000000000000000080156116e0576001600160701b0380855116945b82156116d8576020015116905b156116b0576002546020906001600160a01b03165b84516318160ddd60e01b815293849182906001600160a01b03165afa9182156116a6575f9261166f575b50926101d891602094611669611b3d565b92611d5e565b9150926020823d60201161169e575b8161168b6020938361199a565b810103126101a757905190926020611658565b3d915061167e565b83513d5f823e3d90fd5b60207f000000000000000000000000000000000000000000000000000000000000000061162e565b511690611619565b6001600160701b03806020860151169461160c565b82346101a7575f3660031901126101a757602090517f00000000000000000000000000000000000000000000000000000000000000008152f35b82346101a7575f3660031901126101a7576020906805345cdf77eb68f44c549051908152f35b82346101a7575f3660031901126101a75760025490516001600160a01b039091168152602090f35b82346101a7575f3660031901126101a757602090517f00000000000000000000000000000000000000000000000000000000000000008152f35b82346101a757806003193601126101a7576117d0611922565b602435906001600160a01b0381166e22d473030f116ddee9f6b43ac78ba318821915171561184457602080945052637f5e9f20600c52335f52806034600c20555f52602c5160601c337f8c5be1e5ebec7d5bd14f71427d1e84f3dd0314c0f7b2291e5b200ac8c7c3b925845fa35160018152f35b83633f68539a5f52601cfd5b82346101a7575f3660031901126101a7576118696119bc565b80516020808301519284015193516001600160701b039283168152919092169181019190915263ffffffff9091166040820152606090f35b8390346101a7575f3660031901126101a757610851916118c08261197e565b600882526704f7369746f204c560c41b602083015251918291825b602080825282518183018190529093925f5b82811061190e57505060409293505f838284010152601f8019910116010190565b8181018601518482016040015285016118ed565b600435906001600160a01b03821682036101a757565b602435906001600160a01b03821682036101a757565b6060810190811067ffffffffffffffff82111761196a57604052565b634e487b7160e01b5f52604160045260245ffd5b6040810190811067ffffffffffffffff82111761196a57604052565b90601f8019910116810190811067ffffffffffffffff82111761196a57604052565b604051906119c98261194e565b8160405f546001600160701b0380821684528160701c16602084015260e01c910152565b156119f457565b60405162461bcd60e51b815260206004820152600a602482015269149154d5149250d5115160b21b6044820152606490fd5b15611a2d57565b60405162461bcd60e51b815260206004820152600f60248201526e27a7262cafa322a2afa927aaaa22a960891b6044820152606490fd5b15611a6b57565b60405162461bcd60e51b81526020600482015260136024820152721053149150511657d253925512505312569151606a1b6044820152606490fd5b91908203918211611ab357565b634e487b7160e01b5f52601160045260245ffd5b81810292918115918404141715611ab357565b8115611ae4570490565b634e487b7160e01b5f52601260045260245ffd5b15611aff57565b60405162461bcd60e51b8152602060048201526016602482015275494e53554646494349454e545f4c495155494449545960501b6044820152606490fd5b7f000000000000000000000000000000000000000000000000000000000000000015611caf576002546004906020906001600160a01b03165b6040516318160ddd60e01b815292839182906001600160a01b03165afa908115611ca4575f91611c72575b506004549080821115611c6a57611bb791611aa6565b7f00000000000000000000000000000000000000000000000000000000000000009081811015611c4457610e39611c4192611c3c7f000000000000000000000000000000000000000000000000000000000000000093611c377f000000000000000000000000000000000000000000000000000000000000000086611aa6565b611ac7565b611ada565b90565b50507f000000000000000000000000000000000000000000000000000000000000000090565b50505f611bb7565b90506020813d602011611c9c575b81611c8d6020938361199a565b810103126101a757515f611ba1565b3d9150611c80565b6040513d5f823e3d90fd5b600460207f0000000000000000000000000000000000000000000000000000000000000000611b76565b15611ce057565b60405162461bcd60e51b815260206004820152600c60248201526b15539055551213d49256915160a21b6044820152606490fd5b906001600160a01b0381166e22d473030f116ddee9f6b43ac78ba314611d4a57602052637f5e9f20600c525f526034600c205490565b50505f1990565b91908201809211611ab357565b909181811115611e475781611d7291611aa6565b91612710938403848111611ab3578481850291858304148515170215611e1c5784611d9e910483611d51565b91611da98282611ac7565b90828115159182611e32575b5050611e2957670de0b6b3a764000092808483029285818504149015170215611e1c57839104049081811115611e29578391611df091611aa6565b82810292818404149015170215611e1c5704816126de9182810292818404149015170215611e1c570490565b63ad251c275f526004601cfd5b50505050505f90565b611e3e91925083611ada565b1415825f611db5565b505050505f90565b6003546001546001600160a01b03909116801580159594919390611f325782611e79575b50505050565b611e8f916001600160701b038091169116611ac7565b818111611e9d575b80611e73565b611ea9611eaf91611f42565b91611f42565b906805345cdf77eb68f44c54828211611ec9575b50611e97565b611ed790610e698484611aa6565b90600581029080820460051490151715611ab357611efe92611ef891611d51565b90611ada565b603681029080820460361490151715611ab357600a900480611f22575b8080611ec3565b611f2b91611fce565b5f80611f1b565b50509050611f3c57565b5f600155565b8070ffffffffffffffffffffffffffffffffff1060071b81811c68ffffffffffffffffff1060061b1781811c64ffffffffff1060051b1781811c62ffffff1060041b1760019060b56201000084831c0191831c1b0260121c80830401811c80830401811c80830401811c80830401811c80830401811c80830401811c80830401901c8080920410900390565b6805345cdf77eb68f44c80549083820191821061201957556387a211a2600c525f526020600c20818154019055602052600c5160601c5f5f80516020612137833981519152602080a3565b63e5cfe9575f526004601cfd5b7f1c411e9a96e071241c2f21f7726b17ae89e3cab4c78be50e062b03a9fffbbad19161205c612056604093612111565b91612111565b908251916120698361194e565b6001600160701b038092169283815282821660208201528463ffffffff42169101528263ffffffff60e01b4260e01b16916001600160701b0360701b9060701b161717805f55835192835260701c166020820152a1565b919060145260345263a9059cbb60601b5f5260205f6044601082855af1908160015f511416156120f3575b50505f603452565b3b153d171015612104575f806120eb565b6390b8ec185f526004601cfd5b600160701b811015612129576001600160701b031690565b6335278d125f526004601cfdfeddf252ad1be2c89b69c2b068fc378daa952ba7f163c4a11628f55a4df523b3efa26469706673582212203aa7f176f550c6814efaf0b9e246d2533147045a8eedb31ac737590585b5655b64736f6c6343000818003360a06040523462000515576200108f803803806200001d8162000519565b928339810160a082820312620005155781516001600160401b0392908381116200051557826200004f9183016200053f565b602093848301518181116200051557846200006c9185016200053f565b9160408401519460608501518381116200051557608091620000909187016200053f565b940151936001600160a01b03851685036200051557600193846080526d80000000000000000000000000008711620004db57825184811162000329575f54938685811c95168015620004d0575b8a8610146200030a578190601f958681116200047d575b508a9086831160011462000417575f926200040b575b50505f19600383901b1c191690861b175f555b80519084821162000329578554908682811c9216801562000400575b8a8310146200030a578185849311620003ad575b50899085831160011462000349575f926200033d575b50505f19600383901b1c191690851b1784555b805192831162000329576002548481811c911680156200031e575b888210146200030a57828111620002c1575b50869183116001146200025b579282939183925f946200024f575b50501b915f199060031b1c1916176002555b6805345cdf77eb68f44c8054908382019182106200024257556387a211a2600c525f5281600c2081815401905581525f7fddf252ad1be2c89b69c2b068fc378daa952ba7f163c4a11628f55a4df523b3ef600c5160601c9280a3604051610adf9081620005b082396080518160e60152f35b63e5cfe9575f526004601cfd5b015192505f80620001be565b90601f1983169160025f5283885f20935f5b8a88838310620002a9575050501062000290575b505050811b01600255620001d0565b01515f1960f88460031b161c191690555f808062000281565b8686015188559096019594850194879350016200026d565b60025f52875f208380860160051c8201928a871062000300575b0160051c019085905b828110620002f4575050620001a3565b5f8155018590620002e4565b92508192620002db565b634e487b7160e01b5f52602260045260245ffd5b90607f169062000191565b634e487b7160e01b5f52604160045260245ffd5b015190505f8062000163565b90879350601f19831691845f528b5f20925f5b8d8282106200039657505084116200037d575b505050811b01845562000176565b01515f1960f88460031b161c191690555f80806200036f565b8385015186558b979095019493840193016200035c565b909150865f52895f208580850160051c8201928c8610620003f6575b918991869594930160051c01915b828110620003e75750506200014d565b5f8155859450899101620003d7565b92508192620003c9565b91607f169162000139565b015190505f806200010a565b5f8080528c81208a9550929190601f198516908e5b8282106200046557505084116200044c575b505050811b015f556200011d565b01515f1960f88460031b161c191690555f80806200043e565b8385015186558c979095019493840193018e6200042c565b9091505f80528a5f208680850160051c8201928d8610620004c6575b918a91869594930160051c01915b828110620004b7575050620000f4565b5f81558594508a9101620004a7565b9250819262000499565b94607f1694620000dd565b60405162461bcd60e51b8152600481018990526012602482015271455843454544535f4d41585f535550504c5960701b6044820152606490fd5b5f80fd5b6040519190601f01601f191682016001600160401b038111838210176200032957604052565b919080601f84011215620005155782516001600160401b038111620003295760209062000575601f8201601f1916830162000519565b9281845282828701011162000515575f5b8181106200059b5750825f9394955001015290565b85810183015184820184015282016200058656fe6080604090808252600480361015610015575f80fd5b5f3560e01c91826303ee438c1461081f5750816306fdde03146107f7578163095ea7b31461075e57816318160ddd1461073857816323b872dd14610644578163313ce5671461062957816332cb6b0c1461060b5781633644e5151461058457816342966c681461051457816370a08231146104e15781637ecebe00146104ae57816395d89b411461038c578163a9059cbb14610301578163d505accf1461014357508063dd62ed3e1461010f5763df3c3a30146100d0575f80fd5b3461010b575f36600319011261010b57602090517f000000000000000000000000000000000000000000000000000000000000000015158152f35b5f80fd5b503461010b578060031936011261010b5760209061013c61012e61093e565b610136610954565b90610a6c565b9051908152f35b823461010b5760e036600319011261010b5761015d61093e565b90610166610954565b9060443592606435936084359260ff8416840361010b576001600160a01b03948516956e22d473030f116ddee9f6b43ac78ba3871883191517156102f5576101ac61096a565b948551602080970120908242116102e95760c0978451961697889665383775081901600e52875f5288600c2094855480957f8b73c3c69bb8fe3d512ecc4cf759cc79239f7b179b0ffacaa9a75d522b39400f84528b84019081528d8985017fc89efdaa54c0f20c7adf612882df0950f5a951637e0307cdcb4c672f298b8bc68152606086019c8d469052608087019330855260a08820602e527f6e71edae12b1b97f4d1f60370fef10105fa2faae0126114a169c64845d6126c988525252898b525260a082015220604e526042602c205f5260ff16865260a435835260c435606052858060805f60015afa90873d51036102dd577f8c5be1e5ebec7d5bd14f71427d1e84f3dd0314c0f7b2291e5b200ac8c7c3b92597989950019055866303faf4f960a51b1790526034602c2055a3005b8963ddafbaef5f52601cfd5b89631a15a3cc5f52601cfd5b87633f68539a5f52601cfd5b823461010b578060031936011261010b5761031a61093e565b602435906387a211a2600c52335f5260209384600c2090815490818511610381575083900390555f5282600c208181540190558252600c5160601c337fddf252ad1be2c89b69c2b068fc378daa952ba7f163c4a11628f55a4df523b3ef8480a35160018152f35b63f4d678b85f52601cfd5b823461010b575f36600319011261010b578051905f60018054908160011c90600183169283156104a4575b602093848410811461049157838852908115610475575060011461041f575b505050829003601f01601f191682019267ffffffffffffffff84118385101761040c57508291826104089252826108f7565b0390f35b604190634e487b7160e01b5f525260245ffd5b60015f908152929350837fb10e2d527612073b26eecdfd717e6a320cf44b4afac2b0732d9fcbe2b7fa0cf65b83851061046157505050508301018480806103d6565b80548886018301529301928490820161044b565b60ff1916878501525050151560051b84010190508480806103d6565b602289634e487b7160e01b5f525260245ffd5b91607f16916103b7565b823461010b57602036600319011261010b576020906104cb61093e565b6338377508600c525f5281600c20549051908152f35b823461010b57602036600319011261010b576020906104fe61093e565b6387a211a2600c525f5281600c20549051908152f35b3461010b57602036600319011261010b578035906387a211a2600c52335f526020600c2090815490818411610381575082900390556805345cdf77eb68f44c8181540390555f525f337fddf252ad1be2c89b69c2b068fc378daa952ba7f163c4a11628f55a4df523b3ef602083a3005b823461010b575f36600319011261010b5760209060a06105a261096a565b8381519101208251907f8b73c3c69bb8fe3d512ecc4cf759cc79239f7b179b0ffacaa9a75d522b39400f8252848201527fc89efdaa54c0f20c7adf612882df0950f5a951637e0307cdcb4c672f298b8bc683820152466060820152306080820152209051908152f35b823461010b575f36600319011261010b57516001606f1b8152602090f35b823461010b575f36600319011261010b576020905160128152f35b823461010b57606036600319011261010b5761065e61093e565b610666610954565b604435908260601b6e22d473030f116ddee9f6b43ac78ba333036106ef575b6387a211a217600c5260209485600c2090815490818511610381575083900390555f52600c8481208054830190559084525160601c906001600160a01b03167fddf252ad1be2c89b69c2b068fc378daa952ba7f163c4a11628f55a4df523b3ef8480a35160018152f35b33602052637f5e9f208117600c526034600c20908154918219610715575b509050610685565b82851161072c57846387a211a2930390558761070d565b876313be252b5f52601cfd5b823461010b575f36600319011261010b576020906805345cdf77eb68f44c549051908152f35b823461010b578060031936011261010b5761077761093e565b602435906001600160a01b0381166e22d473030f116ddee9f6b43ac78ba31882191517156107eb57602080945052637f5e9f20600c52335f52806034600c20555f52602c5160601c337f8c5be1e5ebec7d5bd14f71427d1e84f3dd0314c0f7b2291e5b200ac8c7c3b925845fa35160018152f35b83633f68539a5f52601cfd5b823461010b575f36600319011261010b576104089061081461096a565b9051918291826108f7565b833461010b575f36600319011261010b575f60025460018160011c90600183169283156108ed575b602093848410811461049157838852908115610475575060011461089757505050829003601f01601f191682019267ffffffffffffffff84118385101761040c57508291826104089252826108f7565b60025f908152929350837f405787fa12a823e0f2b7631cc41b3ba8828b3321ca811111fa75cd3aa3bb5ace5b8385106108d957505050508301018480806103d6565b8054888601830152930192849082016108c3565b91607f1691610847565b602080825282518183018190529093925f5b82811061092a57505060409293505f838284010152601f8019910116010190565b818101860151848201604001528501610909565b600435906001600160a01b038216820361010b57565b602435906001600160a01b038216820361010b57565b604051905f805460018160011c9060018316928315610a62575b6020938484108114610a4e57838852908115610a3257506001146109de575b505050829003601f01601f1916820167ffffffffffffffff8111838210176109ca57604052565b634e487b7160e01b5f52604160045260245ffd5b5f808052929350837f290decd9548b62a8d60345a988386fc84ba6bc95484008f6362f93160ef3e5635b838510610a1e57505050508301015f80806109a3565b805488860183015293019284908201610a08565b60ff1916878501525050151560051b84010190505f80806109a3565b634e487b7160e01b5f52602260045260245ffd5b91607f1691610984565b906001600160a01b0381166e22d473030f116ddee9f6b43ac78ba314610aa257602052637f5e9f20600c525f526034600c205490565b50505f199056fea26469706673582212200dcf2dea7df0133c70a44d165cf379338cb34e4cc9de7ef811a0f25777bfbfff64736f6c63430008180033a26469706673582212200ca433b5efde9158462f1070d2f1fbc55fa0e124515adfc4d3a2c371e31a7da764736f6c63430008180033","linkReferences":{}},"methodIdentifiers":{"launchToken(string,string,uint256,string,uint256,uint256,uint256,uint256)":"21391f73","treasury()":"61d027b3","weth()":"3fc8cef3"},"id":31}