{"abi":[{"type":"constructor","inputs":[{"name":"name_","type":"string","internalType":"string"},{"name":"symbol_","type":"string","internalType":"string"},{"name":"supply","type":"uint256","internalType":"uint256"},{"name":"metadataURI_","type":"string","internalType":"string"},{"name":"recipient","type":"address","internalType":"address"}],"stateMutability":"nonpayable"},{"type":"function","name":"DOMAIN_SEPARATOR","inputs":[],"outputs":[{"name":"result","type":"bytes32","internalType":"bytes32"}],"stateMutability":"view"},{"type":"function","name":"MAX_SUPPLY","inputs":[],"outputs":[{"name":"","type":"uint256","internalType":"uint256"}],"stateMutability":"view"},{"type":"function","name":"allowance","inputs":[{"name":"owner","type":"address","internalType":"address"},{"name":"spender","type":"address","internalType":"address"}],"outputs":[{"name":"result","type":"uint256","internalType":"uint256"}],"stateMutability":"view"},{"type":"function","name":"approve","inputs":[{"name":"spender","type":"address","internalType":"address"},{"name":"amount","type":"uint256","internalType":"uint256"}],"outputs":[{"name":"","type":"bool","internalType":"bool"}],"stateMutability":"nonpayable"},{"type":"function","name":"balanceOf","inputs":[{"name":"owner","type":"address","internalType":"address"}],"outputs":[{"name":"result","type":"uint256","internalType":"uint256"}],"stateMutability":"view"},{"type":"function","name":"burn","inputs":[{"name":"amount","type":"uint256","internalType":"uint256"}],"outputs":[],"stateMutability":"nonpayable"},{"type":"function","name":"decimals","inputs":[],"outputs":[{"name":"","type":"uint8","internalType":"uint8"}],"stateMutability":"pure"},{"type":"function","name":"metadataURI","inputs":[],"outputs":[{"name":"","type":"string","internalType":"string"}],"stateMutability":"view"},{"type":"function","name":"name","inputs":[],"outputs":[{"name":"","type":"string","internalType":"string"}],"stateMutability":"view"},{"type":"function","name":"nonces","inputs":[{"name":"owner","type":"address","internalType":"address"}],"outputs":[{"name":"result","type":"uint256","internalType":"uint256"}],"stateMutability":"view"},{"type":"function","name":"permit","inputs":[{"name":"owner","type":"address","internalType":"address"},{"name":"spender","type":"address","internalType":"address"},{"name":"value","type":"uint256","internalType":"uint256"},{"name":"deadline","type":"uint256","internalType":"uint256"},{"name":"v","type":"uint8","internalType":"uint8"},{"name":"r","type":"bytes32","internalType":"bytes32"},{"name":"s","type":"bytes32","internalType":"bytes32"}],"outputs":[],"stateMutability":"nonpayable"},{"type":"function","name":"symbol","inputs":[],"outputs":[{"name":"","type":"string","internalType":"string"}],"stateMutability":"view"},{"type":"function","name":"totalSupply","inputs":[],"outputs":[{"name":"result","type":"uint256","internalType":"uint256"}],"stateMutability":"view"},{"type":"function","name":"transfer","inputs":[{"name":"to","type":"address","internalType":"address"},{"name":"amount","type":"uint256","internalType":"uint256"}],"outputs":[{"name":"","type":"bool","internalType":"bool"}],"stateMutability":"nonpayable"},{"type":"function","name":"transferFrom","inputs":[{"name":"from","type":"address","internalType":"address"},{"name":"to","type":"address","internalType":"address"},{"name":"amount","type":"uint256","internalType":"uint256"}],"outputs":[{"name":"","type":"bool","internalType":"bool"}],"stateMutability":"nonpayable"},{"type":"event","name":"Approval","inputs":[{"name":"owner","type":"address","indexed":true,"internalType":"address"},{"name":"spender","type":"address","indexed":true,"internalType":"address"},{"name":"amount","type":"uint256","indexed":false,"internalType":"uint256"}],"anonymous":false},{"type":"event","name":"Transfer","inputs":[{"name":"from","type":"address","indexed":true,"internalType":"address"},{"name":"to","type":"address","indexed":true,"internalType":"address"},{"name":"amount","type":"uint256","indexed":false,"internalType":"uint256"}],"anonymous":false},{"type":"error","name":"AllowanceOverflow","inputs":[]},{"type":"error","name":"AllowanceUnderflow","inputs":[]},{"type":"error","name":"InsufficientAllowance","inputs":[]},{"type":"error","name":"InsufficientBalance","inputs":[]},{"type":"error","name":"InvalidPermit","inputs":[]},{"type":"error","name":"Permit2AllowanceIsFixedAtInfinity","inputs":[]},{"type":"error","name":"PermitExpired","inputs":[]},{"type":"error","name":"TotalSupplyOverflow","inputs":[]}],"bytecode":{"object":"0x60806040523462000509576200103c803803806200001d816200050d565b928339810160a082820312620005095781516001600160401b0392908381116200050957826200004f91830162000533565b602093848301518181116200050957846200006c91850162000533565b604084015194606085015183811162000509576080916200008f91870162000533565b940151936001600160a01b038516850362000509576d80000000000000000000000000008611620004cf578351918383116200031d575f54926001958685811c95168015620004c4575b8a861014620002fe578190601f9586811162000471575b508a908683116001146200040b575f92620003ff575b50505f19600383901b1c191690861b175f555b8051908482116200031d578554908682811c92168015620003f4575b8a831014620002fe578185849311620003a1575b5089908583116001146200033d575f9262000331575b50505f19600383901b1c191690851b1784555b80519283116200031d576002548481811c9116801562000312575b88821014620002fe57828111620002b5575b50869183116001146200024f579282939183925f9462000243575b50501b915f199060031b1c1916176002555b6805345cdf77eb68f44c8054908382019182106200023657556387a211a2600c525f5281600c2081815401905581525f7fddf252ad1be2c89b69c2b068fc378daa952ba7f163c4a11628f55a4df523b3ef600c5160601c9280a3604051610a989081620005a48239f35b63e5cfe9575f526004601cfd5b015192505f80620001ba565b90601f1983169160025f5283885f20935f5b8a888383106200029d575050501062000284575b505050811b01600255620001cc565b01515f1960f88460031b161c191690555f808062000275565b86860151885590960195948501948793500162000261565b60025f52875f208380860160051c8201928a8710620002f4575b0160051c019085905b828110620002e85750506200019f565b5f8155018590620002d8565b92508192620002cf565b634e487b7160e01b5f52602260045260245ffd5b90607f16906200018d565b634e487b7160e01b5f52604160045260245ffd5b015190505f806200015f565b90879350601f19831691845f528b5f20925f5b8d8282106200038a575050841162000371575b505050811b01845562000172565b01515f1960f88460031b161c191690555f808062000363565b8385015186558b9790950194938401930162000350565b909150865f52895f208580850160051c8201928c8610620003ea575b918991869594930160051c01915b828110620003db57505062000149565b5f8155859450899101620003cb565b92508192620003bd565b91607f169162000135565b015190505f8062000106565b5f8080528c81208a9550929190601f198516908e5b82821062000459575050841162000440575b505050811b015f5562000119565b01515f1960f88460031b161c191690555f808062000432565b8385015186558c979095019493840193018e62000420565b9091505f80528a5f208680850160051c8201928d8610620004ba575b918a91869594930160051c01915b828110620004ab575050620000f0565b5f81558594508a91016200049b565b925081926200048d565b94607f1694620000d9565b60405162461bcd60e51b8152600481018890526012602482015271455843454544535f4d41585f535550504c5960701b6044820152606490fd5b5f80fd5b6040519190601f01601f191682016001600160401b038111838210176200031d57604052565b919080601f84011215620005095782516001600160401b0381116200031d5760209062000569601f8201601f191683016200050d565b9281845282828701011162000509575f5b8181106200058f5750825f9394955001015290565b85810183015184820184015282016200057a56fe6080604090808252600480361015610015575f80fd5b5f3560e01c91826303ee438c146107d85750816306fdde03146107b0578163095ea7b31461071757816318160ddd146106f157816323b872dd146105fd578163313ce567146105e257816332cb6b0c146105c45781633644e5151461053d57816342966c68146104cd57816370a082311461049a5781637ecebe001461046757816395d89b4114610345578163a9059cbb146102ba578163d505accf146100fc575063dd62ed3e146100c5575f80fd5b346100f857806003193601126100f8576020906100f16100e36108f7565b6100eb61090d565b90610a25565b9051908152f35b5f80fd5b82346100f85760e03660031901126100f8576101166108f7565b9061011f61090d565b9060443592606435936084359260ff841684036100f8576001600160a01b03948516956e22d473030f116ddee9f6b43ac78ba3871883191517156102ae57610165610923565b948551602080970120908242116102a25760c0978451961697889665383775081901600e52875f5288600c2094855480957f8b73c3c69bb8fe3d512ecc4cf759cc79239f7b179b0ffacaa9a75d522b39400f84528b84019081528d8985017fc89efdaa54c0f20c7adf612882df0950f5a951637e0307cdcb4c672f298b8bc68152606086019c8d469052608087019330855260a08820602e527f6e71edae12b1b97f4d1f60370fef10105fa2faae0126114a169c64845d6126c988525252898b525260a082015220604e526042602c205f5260ff16865260a435835260c435606052858060805f60015afa90873d5103610296577f8c5be1e5ebec7d5bd14f71427d1e84f3dd0314c0f7b2291e5b200ac8c7c3b92597989950019055866303faf4f960a51b1790526034602c2055a3005b8963ddafbaef5f52601cfd5b89631a15a3cc5f52601cfd5b87633f68539a5f52601cfd5b82346100f857806003193601126100f8576102d36108f7565b602435906387a211a2600c52335f5260209384600c209081549081851161033a575083900390555f5282600c208181540190558252600c5160601c337fddf252ad1be2c89b69c2b068fc378daa952ba7f163c4a11628f55a4df523b3ef8480a35160018152f35b63f4d678b85f52601cfd5b82346100f8575f3660031901126100f8578051905f60018054908160011c906001831692831561045d575b602093848410811461044a5783885290811561042e57506001146103d8575b505050829003601f01601f191682019267ffffffffffffffff8411838510176103c557508291826103c19252826108b0565b0390f35b604190634e487b7160e01b5f525260245ffd5b60015f908152929350837fb10e2d527612073b26eecdfd717e6a320cf44b4afac2b0732d9fcbe2b7fa0cf65b83851061041a575050505083010184808061038f565b805488860183015293019284908201610404565b60ff1916878501525050151560051b840101905084808061038f565b602289634e487b7160e01b5f525260245ffd5b91607f1691610370565b82346100f85760203660031901126100f8576020906104846108f7565b6338377508600c525f5281600c20549051908152f35b82346100f85760203660031901126100f8576020906104b76108f7565b6387a211a2600c525f5281600c20549051908152f35b346100f85760203660031901126100f8578035906387a211a2600c52335f526020600c209081549081841161033a575082900390556805345cdf77eb68f44c8181540390555f525f337fddf252ad1be2c89b69c2b068fc378daa952ba7f163c4a11628f55a4df523b3ef602083a3005b82346100f8575f3660031901126100f85760209060a061055b610923565b8381519101208251907f8b73c3c69bb8fe3d512ecc4cf759cc79239f7b179b0ffacaa9a75d522b39400f8252848201527fc89efdaa54c0f20c7adf612882df0950f5a951637e0307cdcb4c672f298b8bc683820152466060820152306080820152209051908152f35b82346100f8575f3660031901126100f857516001606f1b8152602090f35b82346100f8575f3660031901126100f8576020905160128152f35b82346100f85760603660031901126100f8576106176108f7565b61061f61090d565b604435908260601b6e22d473030f116ddee9f6b43ac78ba333036106a8575b6387a211a217600c5260209485600c209081549081851161033a575083900390555f52600c8481208054830190559084525160601c906001600160a01b03167fddf252ad1be2c89b69c2b068fc378daa952ba7f163c4a11628f55a4df523b3ef8480a35160018152f35b33602052637f5e9f208117600c526034600c209081549182196106ce575b50905061063e565b8285116106e557846387a211a293039055876106c6565b876313be252b5f52601cfd5b82346100f8575f3660031901126100f8576020906805345cdf77eb68f44c549051908152f35b82346100f857806003193601126100f8576107306108f7565b602435906001600160a01b0381166e22d473030f116ddee9f6b43ac78ba31882191517156107a457602080945052637f5e9f20600c52335f52806034600c20555f52602c5160601c337f8c5be1e5ebec7d5bd14f71427d1e84f3dd0314c0f7b2291e5b200ac8c7c3b925845fa35160018152f35b83633f68539a5f52601cfd5b82346100f8575f3660031901126100f8576103c1906107cd610923565b9051918291826108b0565b83346100f8575f3660031901126100f8575f60025460018160011c90600183169283156108a6575b602093848410811461044a5783885290811561042e575060011461085057505050829003601f01601f191682019267ffffffffffffffff8411838510176103c557508291826103c19252826108b0565b60025f908152929350837f405787fa12a823e0f2b7631cc41b3ba8828b3321ca811111fa75cd3aa3bb5ace5b838510610892575050505083010184808061038f565b80548886018301529301928490820161087c565b91607f1691610800565b602080825282518183018190529093925f5b8281106108e357505060409293505f838284010152601f8019910116010190565b8181018601518482016040015285016108c2565b600435906001600160a01b03821682036100f857565b602435906001600160a01b03821682036100f857565b604051905f805460018160011c9060018316928315610a1b575b6020938484108114610a07578388529081156109eb5750600114610997575b505050829003601f01601f1916820167ffffffffffffffff81118382101761098357604052565b634e487b7160e01b5f52604160045260245ffd5b5f808052929350837f290decd9548b62a8d60345a988386fc84ba6bc95484008f6362f93160ef3e5635b8385106109d757505050508301015f808061095c565b8054888601830152930192849082016109c1565b60ff1916878501525050151560051b84010190505f808061095c565b634e487b7160e01b5f52602260045260245ffd5b91607f169161093d565b906001600160a01b0381166e22d473030f116ddee9f6b43ac78ba314610a5b57602052637f5e9f20600c525f526034600c205490565b50505f199056fea26469706673582212202589ddb0ec668d6155f4d03343e9a2e2f35c6283cbd4f1494b0b4b04c171019c64736f6c63430008180033","linkReferences":{}},"methodIdentifiers":{"DOMAIN_SEPARATOR()":"3644e515","MAX_SUPPLY()":"32cb6b0c","allowance(address,address)":"dd62ed3e","approve(address,uint256)":"095ea7b3","balanceOf(address)":"70a08231","burn(uint256)":"42966c68","decimals()":"313ce567","metadataURI()":"03ee438c","name()":"06fdde03","nonces(address)":"7ecebe00","permit(address,address,uint256,uint256,uint8,bytes32,bytes32)":"d505accf","symbol()":"95d89b41","totalSupply()":"18160ddd","transfer(address,uint256)":"a9059cbb","transferFrom(address,address,uint256)":"23b872dd"},"id":29}