{"abi":[{"type":"constructor","inputs":[{"name":"name_","type":"string","internalType":"string"},{"name":"symbol_","type":"string","internalType":"string"},{"name":"supply","type":"uint256","internalType":"uint256"},{"name":"metadataURI_","type":"string","internalType":"string"},{"name":"recipient","type":"address","internalType":"address"}],"stateMutability":"nonpayable"},{"type":"function","name":"DOMAIN_SEPARATOR","inputs":[],"outputs":[{"name":"result","type":"bytes32","internalType":"bytes32"}],"stateMutability":"view"},{"type":"function","name":"MAX_SUPPLY","inputs":[],"outputs":[{"name":"","type":"uint256","internalType":"uint256"}],"stateMutability":"view"},{"type":"function","name":"allowance","inputs":[{"name":"owner","type":"address","internalType":"address"},{"name":"spender","type":"address","internalType":"address"}],"outputs":[{"name":"result","type":"uint256","internalType":"uint256"}],"stateMutability":"view"},{"type":"function","name":"approve","inputs":[{"name":"spender","type":"address","internalType":"address"},{"name":"amount","type":"uint256","internalType":"uint256"}],"outputs":[{"name":"","type":"bool","internalType":"bool"}],"stateMutability":"nonpayable"},{"type":"function","name":"balanceOf","inputs":[{"name":"owner","type":"address","internalType":"address"}],"outputs":[{"name":"result","type":"uint256","internalType":"uint256"}],"stateMutability":"view"},{"type":"function","name":"burn","inputs":[{"name":"amount","type":"uint256","internalType":"uint256"}],"outputs":[],"stateMutability":"nonpayable"},{"type":"function","name":"decimals","inputs":[],"outputs":[{"name":"","type":"uint8","internalType":"uint8"}],"stateMutability":"pure"},{"type":"function","name":"metadataURI","inputs":[],"outputs":[{"name":"","type":"string","internalType":"string"}],"stateMutability":"view"},{"type":"function","name":"mintLocked","inputs":[],"outputs":[{"name":"","type":"bool","internalType":"bool"}],"stateMutability":"view"},{"type":"function","name":"name","inputs":[],"outputs":[{"name":"","type":"string","internalType":"string"}],"stateMutability":"view"},{"type":"function","name":"nonces","inputs":[{"name":"owner","type":"address","internalType":"address"}],"outputs":[{"name":"result","type":"uint256","internalType":"uint256"}],"stateMutability":"view"},{"type":"function","name":"permit","inputs":[{"name":"owner","type":"address","internalType":"address"},{"name":"spender","type":"address","internalType":"address"},{"name":"value","type":"uint256","internalType":"uint256"},{"name":"deadline","type":"uint256","internalType":"uint256"},{"name":"v","type":"uint8","internalType":"uint8"},{"name":"r","type":"bytes32","internalType":"bytes32"},{"name":"s","type":"bytes32","internalType":"bytes32"}],"outputs":[],"stateMutability":"nonpayable"},{"type":"function","name":"symbol","inputs":[],"outputs":[{"name":"","type":"string","internalType":"string"}],"stateMutability":"view"},{"type":"function","name":"totalSupply","inputs":[],"outputs":[{"name":"result","type":"uint256","internalType":"uint256"}],"stateMutability":"view"},{"type":"function","name":"transfer","inputs":[{"name":"to","type":"address","internalType":"address"},{"name":"amount","type":"uint256","internalType":"uint256"}],"outputs":[{"name":"","type":"bool","internalType":"bool"}],"stateMutability":"nonpayable"},{"type":"function","name":"transferFrom","inputs":[{"name":"from","type":"address","internalType":"address"},{"name":"to","type":"address","internalType":"address"},{"name":"amount","type":"uint256","internalType":"uint256"}],"outputs":[{"name":"","type":"bool","internalType":"bool"}],"stateMutability":"nonpayable"},{"type":"event","name":"Approval","inputs":[{"name":"owner","type":"address","indexed":true,"internalType":"address"},{"name":"spender","type":"address","indexed":true,"internalType":"address"},{"name":"amount","type":"uint256","indexed":false,"internalType":"uint256"}],"anonymous":false},{"type":"event","name":"Transfer","inputs":[{"name":"from","type":"address","indexed":true,"internalType":"address"},{"name":"to","type":"address","indexed":true,"internalType":"address"},{"name":"amount","type":"uint256","indexed":false,"internalType":"uint256"}],"anonymous":false},{"type":"error","name":"AllowanceOverflow","inputs":[]},{"type":"error","name":"AllowanceUnderflow","inputs":[]},{"type":"error","name":"InsufficientAllowance","inputs":[]},{"type":"error","name":"InsufficientBalance","inputs":[]},{"type":"error","name":"InvalidPermit","inputs":[]},{"type":"error","name":"Permit2AllowanceIsFixedAtInfinity","inputs":[]},{"type":"error","name":"PermitExpired","inputs":[]},{"type":"error","name":"TotalSupplyOverflow","inputs":[]}],"bytecode":{"object":"0x60a06040523462000515576200108f803803806200001d8162000519565b928339810160a082820312620005155781516001600160401b0392908381116200051557826200004f9183016200053f565b602093848301518181116200051557846200006c9185016200053f565b9160408401519460608501518381116200051557608091620000909187016200053f565b940151936001600160a01b03851685036200051557600193846080526d80000000000000000000000000008711620004db57825184811162000329575f54938685811c95168015620004d0575b8a8610146200030a578190601f958681116200047d575b508a9086831160011462000417575f926200040b575b50505f19600383901b1c191690861b175f555b80519084821162000329578554908682811c9216801562000400575b8a8310146200030a578185849311620003ad575b50899085831160011462000349575f926200033d575b50505f19600383901b1c191690851b1784555b805192831162000329576002548481811c911680156200031e575b888210146200030a57828111620002c1575b50869183116001146200025b579282939183925f946200024f575b50501b915f199060031b1c1916176002555b6805345cdf77eb68f44c8054908382019182106200024257556387a211a2600c525f5281600c2081815401905581525f7fddf252ad1be2c89b69c2b068fc378daa952ba7f163c4a11628f55a4df523b3ef600c5160601c9280a3604051610adf9081620005b082396080518160e60152f35b63e5cfe9575f526004601cfd5b015192505f80620001be565b90601f1983169160025f5283885f20935f5b8a88838310620002a9575050501062000290575b505050811b01600255620001d0565b01515f1960f88460031b161c191690555f808062000281565b8686015188559096019594850194879350016200026d565b60025f52875f208380860160051c8201928a871062000300575b0160051c019085905b828110620002f4575050620001a3565b5f8155018590620002e4565b92508192620002db565b634e487b7160e01b5f52602260045260245ffd5b90607f169062000191565b634e487b7160e01b5f52604160045260245ffd5b015190505f8062000163565b90879350601f19831691845f528b5f20925f5b8d8282106200039657505084116200037d575b505050811b01845562000176565b01515f1960f88460031b161c191690555f80806200036f565b8385015186558b979095019493840193016200035c565b909150865f52895f208580850160051c8201928c8610620003f6575b918991869594930160051c01915b828110620003e75750506200014d565b5f8155859450899101620003d7565b92508192620003c9565b91607f169162000139565b015190505f806200010a565b5f8080528c81208a9550929190601f198516908e5b8282106200046557505084116200044c575b505050811b015f556200011d565b01515f1960f88460031b161c191690555f80806200043e565b8385015186558c979095019493840193018e6200042c565b9091505f80528a5f208680850160051c8201928d8610620004c6575b918a91869594930160051c01915b828110620004b7575050620000f4565b5f81558594508a9101620004a7565b9250819262000499565b94607f1694620000dd565b60405162461bcd60e51b8152600481018990526012602482015271455843454544535f4d41585f535550504c5960701b6044820152606490fd5b5f80fd5b6040519190601f01601f191682016001600160401b038111838210176200032957604052565b919080601f84011215620005155782516001600160401b038111620003295760209062000575601f8201601f1916830162000519565b9281845282828701011162000515575f5b8181106200059b5750825f9394955001015290565b85810183015184820184015282016200058656fe6080604090808252600480361015610015575f80fd5b5f3560e01c91826303ee438c1461081f5750816306fdde03146107f7578163095ea7b31461075e57816318160ddd1461073857816323b872dd14610644578163313ce5671461062957816332cb6b0c1461060b5781633644e5151461058457816342966c681461051457816370a08231146104e15781637ecebe00146104ae57816395d89b411461038c578163a9059cbb14610301578163d505accf1461014357508063dd62ed3e1461010f5763df3c3a30146100d0575f80fd5b3461010b575f36600319011261010b57602090517f000000000000000000000000000000000000000000000000000000000000000015158152f35b5f80fd5b503461010b578060031936011261010b5760209061013c61012e61093e565b610136610954565b90610a6c565b9051908152f35b823461010b5760e036600319011261010b5761015d61093e565b90610166610954565b9060443592606435936084359260ff8416840361010b576001600160a01b03948516956e22d473030f116ddee9f6b43ac78ba3871883191517156102f5576101ac61096a565b948551602080970120908242116102e95760c0978451961697889665383775081901600e52875f5288600c2094855480957f8b73c3c69bb8fe3d512ecc4cf759cc79239f7b179b0ffacaa9a75d522b39400f84528b84019081528d8985017fc89efdaa54c0f20c7adf612882df0950f5a951637e0307cdcb4c672f298b8bc68152606086019c8d469052608087019330855260a08820602e527f6e71edae12b1b97f4d1f60370fef10105fa2faae0126114a169c64845d6126c988525252898b525260a082015220604e526042602c205f5260ff16865260a435835260c435606052858060805f60015afa90873d51036102dd577f8c5be1e5ebec7d5bd14f71427d1e84f3dd0314c0f7b2291e5b200ac8c7c3b92597989950019055866303faf4f960a51b1790526034602c2055a3005b8963ddafbaef5f52601cfd5b89631a15a3cc5f52601cfd5b87633f68539a5f52601cfd5b823461010b578060031936011261010b5761031a61093e565b602435906387a211a2600c52335f5260209384600c2090815490818511610381575083900390555f5282600c208181540190558252600c5160601c337fddf252ad1be2c89b69c2b068fc378daa952ba7f163c4a11628f55a4df523b3ef8480a35160018152f35b63f4d678b85f52601cfd5b823461010b575f36600319011261010b578051905f60018054908160011c90600183169283156104a4575b602093848410811461049157838852908115610475575060011461041f575b505050829003601f01601f191682019267ffffffffffffffff84118385101761040c57508291826104089252826108f7565b0390f35b604190634e487b7160e01b5f525260245ffd5b60015f908152929350837fb10e2d527612073b26eecdfd717e6a320cf44b4afac2b0732d9fcbe2b7fa0cf65b83851061046157505050508301018480806103d6565b80548886018301529301928490820161044b565b60ff1916878501525050151560051b84010190508480806103d6565b602289634e487b7160e01b5f525260245ffd5b91607f16916103b7565b823461010b57602036600319011261010b576020906104cb61093e565b6338377508600c525f5281600c20549051908152f35b823461010b57602036600319011261010b576020906104fe61093e565b6387a211a2600c525f5281600c20549051908152f35b3461010b57602036600319011261010b578035906387a211a2600c52335f526020600c2090815490818411610381575082900390556805345cdf77eb68f44c8181540390555f525f337fddf252ad1be2c89b69c2b068fc378daa952ba7f163c4a11628f55a4df523b3ef602083a3005b823461010b575f36600319011261010b5760209060a06105a261096a565b8381519101208251907f8b73c3c69bb8fe3d512ecc4cf759cc79239f7b179b0ffacaa9a75d522b39400f8252848201527fc89efdaa54c0f20c7adf612882df0950f5a951637e0307cdcb4c672f298b8bc683820152466060820152306080820152209051908152f35b823461010b575f36600319011261010b57516001606f1b8152602090f35b823461010b575f36600319011261010b576020905160128152f35b823461010b57606036600319011261010b5761065e61093e565b610666610954565b604435908260601b6e22d473030f116ddee9f6b43ac78ba333036106ef575b6387a211a217600c5260209485600c2090815490818511610381575083900390555f52600c8481208054830190559084525160601c906001600160a01b03167fddf252ad1be2c89b69c2b068fc378daa952ba7f163c4a11628f55a4df523b3ef8480a35160018152f35b33602052637f5e9f208117600c526034600c20908154918219610715575b509050610685565b82851161072c57846387a211a2930390558761070d565b876313be252b5f52601cfd5b823461010b575f36600319011261010b576020906805345cdf77eb68f44c549051908152f35b823461010b578060031936011261010b5761077761093e565b602435906001600160a01b0381166e22d473030f116ddee9f6b43ac78ba31882191517156107eb57602080945052637f5e9f20600c52335f52806034600c20555f52602c5160601c337f8c5be1e5ebec7d5bd14f71427d1e84f3dd0314c0f7b2291e5b200ac8c7c3b925845fa35160018152f35b83633f68539a5f52601cfd5b823461010b575f36600319011261010b576104089061081461096a565b9051918291826108f7565b833461010b575f36600319011261010b575f60025460018160011c90600183169283156108ed575b602093848410811461049157838852908115610475575060011461089757505050829003601f01601f191682019267ffffffffffffffff84118385101761040c57508291826104089252826108f7565b60025f908152929350837f405787fa12a823e0f2b7631cc41b3ba8828b3321ca811111fa75cd3aa3bb5ace5b8385106108d957505050508301018480806103d6565b8054888601830152930192849082016108c3565b91607f1691610847565b602080825282518183018190529093925f5b82811061092a57505060409293505f838284010152601f8019910116010190565b818101860151848201604001528501610909565b600435906001600160a01b038216820361010b57565b602435906001600160a01b038216820361010b57565b604051905f805460018160011c9060018316928315610a62575b6020938484108114610a4e57838852908115610a3257506001146109de575b505050829003601f01601f1916820167ffffffffffffffff8111838210176109ca57604052565b634e487b7160e01b5f52604160045260245ffd5b5f808052929350837f290decd9548b62a8d60345a988386fc84ba6bc95484008f6362f93160ef3e5635b838510610a1e57505050508301015f80806109a3565b805488860183015293019284908201610a08565b60ff1916878501525050151560051b84010190505f80806109a3565b634e487b7160e01b5f52602260045260245ffd5b91607f1691610984565b906001600160a01b0381166e22d473030f116ddee9f6b43ac78ba314610aa257602052637f5e9f20600c525f526034600c205490565b50505f199056fea26469706673582212200dcf2dea7df0133c70a44d165cf379338cb34e4cc9de7ef811a0f25777bfbfff64736f6c63430008180033","linkReferences":{}},"methodIdentifiers":{"DOMAIN_SEPARATOR()":"3644e515","MAX_SUPPLY()":"32cb6b0c","allowance(address,address)":"dd62ed3e","approve(address,uint256)":"095ea7b3","balanceOf(address)":"70a08231","burn(uint256)":"42966c68","decimals()":"313ce567","metadataURI()":"03ee438c","mintLocked()":"df3c3a30","name()":"06fdde03","nonces(address)":"7ecebe00","permit(address,address,uint256,uint256,uint8,bytes32,bytes32)":"d505accf","symbol()":"95d89b41","totalSupply()":"18160ddd","transfer(address,uint256)":"a9059cbb","transferFrom(address,address,uint256)":"23b872dd"},"id":29}