{"abi":[{"type":"constructor","inputs":[{"name":"name_","type":"string","internalType":"string"},{"name":"symbol_","type":"string","internalType":"string"},{"name":"supply","type":"uint256","internalType":"uint256"},{"name":"metadataURI_","type":"string","internalType":"string"},{"name":"recipient","type":"address","internalType":"address"}],"stateMutability":"nonpayable"},{"type":"function","name":"DOMAIN_SEPARATOR","inputs":[],"outputs":[{"name":"result","type":"bytes32","internalType":"bytes32"}],"stateMutability":"view"},{"type":"function","name":"allowance","inputs":[{"name":"owner","type":"address","internalType":"address"},{"name":"spender","type":"address","internalType":"address"}],"outputs":[{"name":"result","type":"uint256","internalType":"uint256"}],"stateMutability":"view"},{"type":"function","name":"approve","inputs":[{"name":"spender","type":"address","internalType":"address"},{"name":"amount","type":"uint256","internalType":"uint256"}],"outputs":[{"name":"","type":"bool","internalType":"bool"}],"stateMutability":"nonpayable"},{"type":"function","name":"balanceOf","inputs":[{"name":"owner","type":"address","internalType":"address"}],"outputs":[{"name":"result","type":"uint256","internalType":"uint256"}],"stateMutability":"view"},{"type":"function","name":"burn","inputs":[{"name":"amount","type":"uint256","internalType":"uint256"}],"outputs":[],"stateMutability":"nonpayable"},{"type":"function","name":"decimals","inputs":[],"outputs":[{"name":"","type":"uint8","internalType":"uint8"}],"stateMutability":"pure"},{"type":"function","name":"metadataURI","inputs":[],"outputs":[{"name":"","type":"string","internalType":"string"}],"stateMutability":"view"},{"type":"function","name":"name","inputs":[],"outputs":[{"name":"","type":"string","internalType":"string"}],"stateMutability":"view"},{"type":"function","name":"nonces","inputs":[{"name":"owner","type":"address","internalType":"address"}],"outputs":[{"name":"result","type":"uint256","internalType":"uint256"}],"stateMutability":"view"},{"type":"function","name":"permit","inputs":[{"name":"owner","type":"address","internalType":"address"},{"name":"spender","type":"address","internalType":"address"},{"name":"value","type":"uint256","internalType":"uint256"},{"name":"deadline","type":"uint256","internalType":"uint256"},{"name":"v","type":"uint8","internalType":"uint8"},{"name":"r","type":"bytes32","internalType":"bytes32"},{"name":"s","type":"bytes32","internalType":"bytes32"}],"outputs":[],"stateMutability":"nonpayable"},{"type":"function","name":"symbol","inputs":[],"outputs":[{"name":"","type":"string","internalType":"string"}],"stateMutability":"view"},{"type":"function","name":"totalSupply","inputs":[],"outputs":[{"name":"result","type":"uint256","internalType":"uint256"}],"stateMutability":"view"},{"type":"function","name":"transfer","inputs":[{"name":"to","type":"address","internalType":"address"},{"name":"amount","type":"uint256","internalType":"uint256"}],"outputs":[{"name":"","type":"bool","internalType":"bool"}],"stateMutability":"nonpayable"},{"type":"function","name":"transferFrom","inputs":[{"name":"from","type":"address","internalType":"address"},{"name":"to","type":"address","internalType":"address"},{"name":"amount","type":"uint256","internalType":"uint256"}],"outputs":[{"name":"","type":"bool","internalType":"bool"}],"stateMutability":"nonpayable"},{"type":"event","name":"Approval","inputs":[{"name":"owner","type":"address","indexed":true,"internalType":"address"},{"name":"spender","type":"address","indexed":true,"internalType":"address"},{"name":"amount","type":"uint256","indexed":false,"internalType":"uint256"}],"anonymous":false},{"type":"event","name":"Transfer","inputs":[{"name":"from","type":"address","indexed":true,"internalType":"address"},{"name":"to","type":"address","indexed":true,"internalType":"address"},{"name":"amount","type":"uint256","indexed":false,"internalType":"uint256"}],"anonymous":false},{"type":"error","name":"AllowanceOverflow","inputs":[]},{"type":"error","name":"AllowanceUnderflow","inputs":[]},{"type":"error","name":"InsufficientAllowance","inputs":[]},{"type":"error","name":"InsufficientBalance","inputs":[]},{"type":"error","name":"InvalidPermit","inputs":[]},{"type":"error","name":"Permit2AllowanceIsFixedAtInfinity","inputs":[]},{"type":"error","name":"PermitExpired","inputs":[]},{"type":"error","name":"TotalSupplyOverflow","inputs":[]}],"bytecode":{"object":"0x608060405234620004b95762000fc3803803806200001d81620004bd565b928339810160a082820312620004b95781516001600160401b039290838111620004b957826200004f918301620004e3565b60209384830151818111620004b957846200006c918501620004e3565b6040840151946060850151838111620004b9576080916200008f918701620004e3565b940151936001600160a01b0385168503620004b95783519183831162000307575f54926001958685811c95168015620004ae575b8a861014620002e8578190601f958681116200045b575b508a90868311600114620003f5575f92620003e9575b50505f19600383901b1c191690861b175f555b80519084821162000307578554908682811c92168015620003de575b8a831014620002e85781858493116200038b575b50899085831160011462000327575f926200031b575b50505f19600383901b1c191690851b1784555b805192831162000307576002548481811c91168015620002fc575b88821014620002e8578281116200029f575b508691831160011462000239579282939183925f946200022d575b50501b915f199060031b1c1916176002555b6805345cdf77eb68f44c8054908382019182106200022057556387a211a2600c525f5281600c2081815401905581525f7fddf252ad1be2c89b69c2b068fc378daa952ba7f163c4a11628f55a4df523b3ef600c5160601c9280a3604051610a6f9081620005548239f35b63e5cfe9575f526004601cfd5b015192505f80620001a4565b90601f1983169160025f5283885f20935f5b8a888383106200028757505050106200026e575b505050811b01600255620001b6565b01515f1960f88460031b161c191690555f80806200025f565b8686015188559096019594850194879350016200024b565b60025f52875f208380860160051c8201928a8710620002de575b0160051c019085905b828110620002d257505062000189565b5f8155018590620002c2565b92508192620002b9565b634e487b7160e01b5f52602260045260245ffd5b90607f169062000177565b634e487b7160e01b5f52604160045260245ffd5b015190505f8062000149565b90879350601f19831691845f528b5f20925f5b8d8282106200037457505084116200035b575b505050811b0184556200015c565b01515f1960f88460031b161c191690555f80806200034d565b8385015186558b979095019493840193016200033a565b909150865f52895f208580850160051c8201928c8610620003d4575b918991869594930160051c01915b828110620003c557505062000133565b5f8155859450899101620003b5565b92508192620003a7565b91607f16916200011f565b015190505f80620000f0565b5f8080528c81208a9550929190601f198516908e5b8282106200044357505084116200042a575b505050811b015f5562000103565b01515f1960f88460031b161c191690555f80806200041c565b8385015186558c979095019493840193018e6200040a565b9091505f80528a5f208680850160051c8201928d8610620004a4575b918a91869594930160051c01915b82811062000495575050620000da565b5f81558594508a910162000485565b9250819262000477565b94607f1694620000c3565b5f80fd5b6040519190601f01601f191682016001600160401b038111838210176200030757604052565b919080601f84011215620004b95782516001600160401b038111620003075760209062000519601f8201601f19168301620004bd565b92818452828287010111620004b9575f5b8181106200053f5750825f9394955001015290565b85810183015184820184015282016200052a56fe6080604090808252600480361015610015575f80fd5b5f3560e01c91826303ee438c146107af5750816306fdde0314610787578163095ea7b3146106ee57816318160ddd146106c857816323b872dd146105d4578163313ce567146105b95781633644e5151461053257816342966c68146104c257816370a082311461048f5781637ecebe001461045c57816395d89b411461033a578163a9059cbb146102af578163d505accf146100f1575063dd62ed3e146100ba575f80fd5b346100ed57806003193601126100ed576020906100e66100d86108ce565b6100e06108e4565b906109fc565b9051908152f35b5f80fd5b82346100ed5760e03660031901126100ed5761010b6108ce565b906101146108e4565b9060443592606435936084359260ff841684036100ed576001600160a01b03948516956e22d473030f116ddee9f6b43ac78ba3871883191517156102a35761015a6108fa565b948551602080970120908242116102975760c0978451961697889665383775081901600e52875f5288600c2094855480957f8b73c3c69bb8fe3d512ecc4cf759cc79239f7b179b0ffacaa9a75d522b39400f84528b84019081528d8985017fc89efdaa54c0f20c7adf612882df0950f5a951637e0307cdcb4c672f298b8bc68152606086019c8d469052608087019330855260a08820602e527f6e71edae12b1b97f4d1f60370fef10105fa2faae0126114a169c64845d6126c988525252898b525260a082015220604e526042602c205f5260ff16865260a435835260c435606052858060805f60015afa90873d510361028b577f8c5be1e5ebec7d5bd14f71427d1e84f3dd0314c0f7b2291e5b200ac8c7c3b92597989950019055866303faf4f960a51b1790526034602c2055a3005b8963ddafbaef5f52601cfd5b89631a15a3cc5f52601cfd5b87633f68539a5f52601cfd5b82346100ed57806003193601126100ed576102c86108ce565b602435906387a211a2600c52335f5260209384600c209081549081851161032f575083900390555f5282600c208181540190558252600c5160601c337fddf252ad1be2c89b69c2b068fc378daa952ba7f163c4a11628f55a4df523b3ef8480a35160018152f35b63f4d678b85f52601cfd5b82346100ed575f3660031901126100ed578051905f60018054908160011c9060018316928315610452575b602093848410811461043f5783885290811561042357506001146103cd575b505050829003601f01601f191682019267ffffffffffffffff8411838510176103ba57508291826103b6925282610887565b0390f35b604190634e487b7160e01b5f525260245ffd5b60015f908152929350837fb10e2d527612073b26eecdfd717e6a320cf44b4afac2b0732d9fcbe2b7fa0cf65b83851061040f5750505050830101848080610384565b8054888601830152930192849082016103f9565b60ff1916878501525050151560051b8401019050848080610384565b602289634e487b7160e01b5f525260245ffd5b91607f1691610365565b82346100ed5760203660031901126100ed576020906104796108ce565b6338377508600c525f5281600c20549051908152f35b82346100ed5760203660031901126100ed576020906104ac6108ce565b6387a211a2600c525f5281600c20549051908152f35b346100ed5760203660031901126100ed578035906387a211a2600c52335f526020600c209081549081841161032f575082900390556805345cdf77eb68f44c8181540390555f525f337fddf252ad1be2c89b69c2b068fc378daa952ba7f163c4a11628f55a4df523b3ef602083a3005b82346100ed575f3660031901126100ed5760209060a06105506108fa565b8381519101208251907f8b73c3c69bb8fe3d512ecc4cf759cc79239f7b179b0ffacaa9a75d522b39400f8252848201527fc89efdaa54c0f20c7adf612882df0950f5a951637e0307cdcb4c672f298b8bc683820152466060820152306080820152209051908152f35b82346100ed575f3660031901126100ed576020905160128152f35b82346100ed5760603660031901126100ed576105ee6108ce565b6105f66108e4565b604435908260601b6e22d473030f116ddee9f6b43ac78ba3330361067f575b6387a211a217600c5260209485600c209081549081851161032f575083900390555f52600c8481208054830190559084525160601c906001600160a01b03167fddf252ad1be2c89b69c2b068fc378daa952ba7f163c4a11628f55a4df523b3ef8480a35160018152f35b33602052637f5e9f208117600c526034600c209081549182196106a5575b509050610615565b8285116106bc57846387a211a2930390558761069d565b876313be252b5f52601cfd5b82346100ed575f3660031901126100ed576020906805345cdf77eb68f44c549051908152f35b82346100ed57806003193601126100ed576107076108ce565b602435906001600160a01b0381166e22d473030f116ddee9f6b43ac78ba318821915171561077b57602080945052637f5e9f20600c52335f52806034600c20555f52602c5160601c337f8c5be1e5ebec7d5bd14f71427d1e84f3dd0314c0f7b2291e5b200ac8c7c3b925845fa35160018152f35b83633f68539a5f52601cfd5b82346100ed575f3660031901126100ed576103b6906107a46108fa565b905191829182610887565b83346100ed575f3660031901126100ed575f60025460018160011c906001831692831561087d575b602093848410811461043f57838852908115610423575060011461082757505050829003601f01601f191682019267ffffffffffffffff8411838510176103ba57508291826103b6925282610887565b60025f908152929350837f405787fa12a823e0f2b7631cc41b3ba8828b3321ca811111fa75cd3aa3bb5ace5b8385106108695750505050830101848080610384565b805488860183015293019284908201610853565b91607f16916107d7565b602080825282518183018190529093925f5b8281106108ba57505060409293505f838284010152601f8019910116010190565b818101860151848201604001528501610899565b600435906001600160a01b03821682036100ed57565b602435906001600160a01b03821682036100ed57565b604051905f805460018160011c90600183169283156109f2575b60209384841081146109de578388529081156109c2575060011461096e575b505050829003601f01601f1916820167ffffffffffffffff81118382101761095a57604052565b634e487b7160e01b5f52604160045260245ffd5b5f808052929350837f290decd9548b62a8d60345a988386fc84ba6bc95484008f6362f93160ef3e5635b8385106109ae57505050508301015f8080610933565b805488860183015293019284908201610998565b60ff1916878501525050151560051b84010190505f8080610933565b634e487b7160e01b5f52602260045260245ffd5b91607f1691610914565b906001600160a01b0381166e22d473030f116ddee9f6b43ac78ba314610a3257602052637f5e9f20600c525f526034600c205490565b50505f199056fea2646970667358221220e904d54c27075ca588494729f102332c98b781091c469bd019e0e10ee715567864736f6c63430008180033","linkReferences":{}},"methodIdentifiers":{"DOMAIN_SEPARATOR()":"3644e515","allowance(address,address)":"dd62ed3e","approve(address,uint256)":"095ea7b3","balanceOf(address)":"70a08231","burn(uint256)":"42966c68","decimals()":"313ce567","metadataURI()":"03ee438c","name()":"06fdde03","nonces(address)":"7ecebe00","permit(address,address,uint256,uint256,uint8,bytes32,bytes32)":"d505accf","symbol()":"95d89b41","totalSupply()":"18160ddd","transfer(address,uint256)":"a9059cbb","transferFrom(address,address,uint256)":"23b872dd"},"id":29}