{"abi":[{"type":"constructor","inputs":[{"name":"_token0","type":"address","internalType":"address"},{"name":"_token1","type":"address","internalType":"address"},{"name":"_feeRouter","type":"address","internalType":"address"},{"name":"_startFeeBps","type":"uint256","internalType":"uint256"},{"name":"_endFeeBps","type":"uint256","internalType":"uint256"},{"name":"_feeDecayTarget","type":"uint256","internalType":"uint256"},{"name":"_tokIsToken0","type":"bool","internalType":"bool"}],"stateMutability":"nonpayable"},{"type":"function","name":"DOMAIN_SEPARATOR","inputs":[],"outputs":[{"name":"result","type":"bytes32","internalType":"bytes32"}],"stateMutability":"view"},{"type":"function","name":"allowance","inputs":[{"name":"owner","type":"address","internalType":"address"},{"name":"spender","type":"address","internalType":"address"}],"outputs":[{"name":"result","type":"uint256","internalType":"uint256"}],"stateMutability":"view"},{"type":"function","name":"approve","inputs":[{"name":"spender","type":"address","internalType":"address"},{"name":"amount","type":"uint256","internalType":"uint256"}],"outputs":[{"name":"","type":"bool","internalType":"bool"}],"stateMutability":"nonpayable"},{"type":"function","name":"balanceOf","inputs":[{"name":"owner","type":"address","internalType":"address"}],"outputs":[{"name":"result","type":"uint256","internalType":"uint256"}],"stateMutability":"view"},{"type":"function","name":"burn","inputs":[{"name":"to","type":"address","internalType":"address"}],"outputs":[{"name":"amt0","type":"uint256","internalType":"uint256"},{"name":"amt1","type":"uint256","internalType":"uint256"}],"stateMutability":"nonpayable"},{"type":"function","name":"currentFeeBps","inputs":[],"outputs":[{"name":"","type":"uint256","internalType":"uint256"}],"stateMutability":"view"},{"type":"function","name":"decimals","inputs":[],"outputs":[{"name":"","type":"uint8","internalType":"uint8"}],"stateMutability":"pure"},{"type":"function","name":"endFeeBps","inputs":[],"outputs":[{"name":"","type":"uint256","internalType":"uint256"}],"stateMutability":"view"},{"type":"function","name":"factory","inputs":[],"outputs":[{"name":"","type":"address","internalType":"address"}],"stateMutability":"view"},{"type":"function","name":"feeDecayTarget","inputs":[],"outputs":[{"name":"","type":"uint256","internalType":"uint256"}],"stateMutability":"view"},{"type":"function","name":"feeRouter","inputs":[],"outputs":[{"name":"","type":"address","internalType":"address"}],"stateMutability":"view"},{"type":"function","name":"getReserves","inputs":[],"outputs":[{"name":"r0","type":"uint112","internalType":"uint112"},{"name":"r1","type":"uint112","internalType":"uint112"},{"name":"blockTimestampLast","type":"uint32","internalType":"uint32"}],"stateMutability":"view"},{"type":"function","name":"initialSupply","inputs":[],"outputs":[{"name":"","type":"uint256","internalType":"uint256"}],"stateMutability":"view"},{"type":"function","name":"initialize","inputs":[{"name":"_token0","type":"address","internalType":"address"}],"outputs":[],"stateMutability":"nonpayable"},{"type":"function","name":"kLast","inputs":[],"outputs":[{"name":"","type":"uint256","internalType":"uint256"}],"stateMutability":"view"},{"type":"function","name":"mint","inputs":[{"name":"to","type":"address","internalType":"address"}],"outputs":[{"name":"liquidity","type":"uint256","internalType":"uint256"}],"stateMutability":"nonpayable"},{"type":"function","name":"name","inputs":[],"outputs":[{"name":"","type":"string","internalType":"string"}],"stateMutability":"pure"},{"type":"function","name":"nonces","inputs":[{"name":"owner","type":"address","internalType":"address"}],"outputs":[{"name":"result","type":"uint256","internalType":"uint256"}],"stateMutability":"view"},{"type":"function","name":"pMin","inputs":[],"outputs":[{"name":"","type":"uint256","internalType":"uint256"}],"stateMutability":"view"},{"type":"function","name":"permit","inputs":[{"name":"owner","type":"address","internalType":"address"},{"name":"spender","type":"address","internalType":"address"},{"name":"value","type":"uint256","internalType":"uint256"},{"name":"deadline","type":"uint256","internalType":"uint256"},{"name":"v","type":"uint8","internalType":"uint8"},{"name":"r","type":"bytes32","internalType":"bytes32"},{"name":"s","type":"bytes32","internalType":"bytes32"}],"outputs":[],"stateMutability":"nonpayable"},{"type":"function","name":"reserves","inputs":[],"outputs":[{"name":"r0","type":"uint112","internalType":"uint112"},{"name":"r1","type":"uint112","internalType":"uint112"},{"name":"blockTimestampLast","type":"uint32","internalType":"uint32"}],"stateMutability":"view"},{"type":"function","name":"startFeeBps","inputs":[],"outputs":[{"name":"","type":"uint256","internalType":"uint256"}],"stateMutability":"view"},{"type":"function","name":"swap","inputs":[{"name":"a0Out","type":"uint256","internalType":"uint256"},{"name":"a1Out","type":"uint256","internalType":"uint256"},{"name":"to","type":"address","internalType":"address"}],"outputs":[],"stateMutability":"nonpayable"},{"type":"function","name":"symbol","inputs":[],"outputs":[{"name":"","type":"string","internalType":"string"}],"stateMutability":"pure"},{"type":"function","name":"tokIsToken0","inputs":[],"outputs":[{"name":"","type":"bool","internalType":"bool"}],"stateMutability":"view"},{"type":"function","name":"token0","inputs":[],"outputs":[{"name":"","type":"address","internalType":"address"}],"stateMutability":"view"},{"type":"function","name":"token1","inputs":[],"outputs":[{"name":"","type":"address","internalType":"address"}],"stateMutability":"view"},{"type":"function","name":"totalSupply","inputs":[],"outputs":[{"name":"result","type":"uint256","internalType":"uint256"}],"stateMutability":"view"},{"type":"function","name":"transfer","inputs":[{"name":"to","type":"address","internalType":"address"},{"name":"amount","type":"uint256","internalType":"uint256"}],"outputs":[{"name":"","type":"bool","internalType":"bool"}],"stateMutability":"nonpayable"},{"type":"function","name":"transferFrom","inputs":[{"name":"from","type":"address","internalType":"address"},{"name":"to","type":"address","internalType":"address"},{"name":"amount","type":"uint256","internalType":"uint256"}],"outputs":[{"name":"","type":"bool","internalType":"bool"}],"stateMutability":"nonpayable"},{"type":"event","name":"Approval","inputs":[{"name":"owner","type":"address","indexed":true,"internalType":"address"},{"name":"spender","type":"address","indexed":true,"internalType":"address"},{"name":"amount","type":"uint256","indexed":false,"internalType":"uint256"}],"anonymous":false},{"type":"event","name":"Burn","inputs":[{"name":"sender","type":"address","indexed":true,"internalType":"address"},{"name":"amount0","type":"uint256","indexed":false,"internalType":"uint256"},{"name":"amount1","type":"uint256","indexed":false,"internalType":"uint256"},{"name":"to","type":"address","indexed":true,"internalType":"address"}],"anonymous":false},{"type":"event","name":"Mint","inputs":[{"name":"sender","type":"address","indexed":true,"internalType":"address"},{"name":"amount0","type":"uint256","indexed":false,"internalType":"uint256"},{"name":"amount1","type":"uint256","indexed":false,"internalType":"uint256"}],"anonymous":false},{"type":"event","name":"Swap","inputs":[{"name":"sender","type":"address","indexed":true,"internalType":"address"},{"name":"amount0In","type":"uint256","indexed":false,"internalType":"uint256"},{"name":"amount1In","type":"uint256","indexed":false,"internalType":"uint256"},{"name":"amount0Out","type":"uint256","indexed":false,"internalType":"uint256"},{"name":"amount1Out","type":"uint256","indexed":false,"internalType":"uint256"},{"name":"to","type":"address","indexed":true,"internalType":"address"}],"anonymous":false},{"type":"event","name":"Sync","inputs":[{"name":"reserve0","type":"uint112","indexed":false,"internalType":"uint112"},{"name":"reserve1","type":"uint112","indexed":false,"internalType":"uint112"}],"anonymous":false},{"type":"event","name":"Transfer","inputs":[{"name":"from","type":"address","indexed":true,"internalType":"address"},{"name":"to","type":"address","indexed":true,"internalType":"address"},{"name":"amount","type":"uint256","indexed":false,"internalType":"uint256"}],"anonymous":false},{"type":"error","name":"AllowanceOverflow","inputs":[]},{"type":"error","name":"AllowanceUnderflow","inputs":[]},{"type":"error","name":"InsufficientAllowance","inputs":[]},{"type":"error","name":"InsufficientBalance","inputs":[]},{"type":"error","name":"InvalidPermit","inputs":[]},{"type":"error","name":"Permit2AllowanceIsFixedAtInfinity","inputs":[]},{"type":"error","name":"PermitExpired","inputs":[]},{"type":"error","name":"Reentrancy","inputs":[]},{"type":"error","name":"TotalSupplyOverflow","inputs":[]}],"bytecode":{"object":"0x6101608060405234620002055760e08162002269803803809162000024828562000225565b83398101031262000205576200003a816200025d565b62000048602083016200025d565b9162000057604082016200025d565b60608201519360808301519360c060a0850151940151918215158303620002055733608052600280546001600160a01b0319166001600160a01b0384811691821790925560a083905260c09590955261010097885261012096875261014095865260e08490529362000197575b5050505060405191611ff6938462000273853960805184818161047501526105e9015260a05184818161041e01528181610546015281816107ed01528181610c9701528181610f1e01528181611070015281816115be0152611b3f015260c05184818161017d0152818161067601528181610ffc015281816113da0152611cb9015260e0518481816104bc0152818161062f015281816114e301526119c901525183818161169e0152611a7701525182818161161601528181611a9c0152611ad20152518181816101fb0152611a430152f35b602092156200021d57505b6004604051809481936318160ddd60e01b8352165afa90811562000212575f91620001d6575b506003555f808080620000c4565b90506020813d60201162000209575b81620001f46020938362000225565b810103126200020557515f620001c8565b5f80fd5b3d9150620001e5565b6040513d5f823e3d90fd5b9050620001a2565b601f909101601f19168101906001600160401b038211908210176200024957604052565b634e487b7160e01b5f52604160045260245ffd5b51906001600160a01b0382168203620002055756fe6080604090808252600480361015610015575f80fd5b5f3560e01c91826306fdde03146117ab575081630902f1ac1461175a578163095ea7b3146116c15781630c1e3847146116875781630dfe16811461165f57816318160ddd146116395781631e2f9931146115ff57816322950746146114c757816323b872dd146113a3578163313ce567146113885781633644e515146112d1578163378dc3dc146112b35781636a62784214610fb75781636d9a640a14610bbf57816370a0823114610b8c5781637464fc3d14610b6e57816375172a8b14610b315781637ecebe0014610afe57816389afcb441461077857816395d89b4114610735578163975f8f4614610719578163a9059cbb14610654578163ae0f15e014610618578163c45a0155146105d5578163c4d66de81461044d578163d21220a71461040a578163d505accf1461021e57508063d9f51a43146101e4578063dd62ed3e146101b05763f29ebf611461016a575f80fd5b346101ac575f3660031901126101ac57517f00000000000000000000000000000000000000000000000000000000000000006001600160a01b03168152602090f35b5f80fd5b50346101ac57806003193601126101ac576020906101dd6101cf61182c565b6101d7611842565b90611b63565b9051908152f35b50346101ac575f3660031901126101ac57602090517f00000000000000000000000000000000000000000000000000000000000000008152f35b82346101ac5760e03660031901126101ac5761023861182c565b90610241611842565b60443591606435926084359160ff831683036101ac576001600160a01b03938416956e22d473030f116ddee9f6b43ac78ba3871883191517156103fe5781519461028a86611888565b600886526704f7369746f204c560c41b6020809701528642116103f2578251911695869465383775081901600e52855f5260c087600c20938454937f8b73c3c69bb8fe3d512ecc4cf759cc79239f7b179b0ffacaa9a75d522b39400f8252848a83017f432403850d0c026bcf6eb0567acc5f7ed78017e4821d92ee99418a1819fb058981528d8985017fc89efdaa54c0f20c7adf612882df0950f5a951637e0307cdcb4c672f298b8bc68152606086019c8d469052608087019330855260a08820602e527f6e71edae12b1b97f4d1f60370fef10105fa2faae0126114a169c64845d6126c988525252898b525260a082015220604e526042602c205f5260ff16865260a435835260c435606052858060805f60015afa90873d51036103e6577f8c5be1e5ebec7d5bd14f71427d1e84f3dd0314c0f7b2291e5b200ac8c7c3b92597989950019055866303faf4f960a51b1790526034602c2055a3005b8963ddafbaef5f52601cfd5b88631a15a3cc5f52601cfd5b87633f68539a5f52601cfd5b82346101ac575f3660031901126101ac57517f00000000000000000000000000000000000000000000000000000000000000006001600160a01b03168152602090f35b9050346101ac576020806003193601126101ac5761046961182c565b6001600160a01b0392907f0000000000000000000000000000000000000000000000000000000000000000841633036105a45760025484811661056b576001600160a01b031916848216176002558291907f00000000000000000000000000000000000000000000000000000000000000001561054357905b85516318160ddd60e01b81529485928391165afa92831561053a57505f9261050c575b6003839055005b90809250813d8311610533575b61052381836118a4565b810103126101ac57515f80610505565b503d610519565b513d5f823e3d90fd5b507f0000000000000000000000000000000000000000000000000000000000000000906104e2565b855162461bcd60e51b815280840185905260136024820152721053149150511657d253925512505312569151606a1b6044820152606490fd5b5060649184519162461bcd60e51b8352820152600c60248201526b15539055551213d49256915160a21b6044820152fd5b82346101ac575f3660031901126101ac57517f00000000000000000000000000000000000000000000000000000000000000006001600160a01b03168152602090f35b82346101ac575f3660031901126101ac57602090517f000000000000000000000000000000000000000000000000000000000000000015158152f35b82346101ac57806003193601126101ac5761066d61182c565b602435906106b47f00000000000000000000000000000000000000000000000000000000000000006001600160a01b0390811690831690811490811561070f575b506118f7565b6387a211a2600c52335f5260209384600c2090815490818511610704575083900390555f5282600c208181540190558252600c5160601c335f80516020611fa18339815191528480a35160018152f35b63f4d678b85f52601cfd5b90503014866106ae565b82346101ac575f3660031901126101ac576020906101dd6119c7565b82346101ac575f3660031901126101ac5780516107749161075582611888565b600882526704f5349544f2d4c560c41b602083015251918291826117e5565b0390f35b9050346101ac57602090816003193601126101ac5761079561182c565b9168929eee149b4bd2126830815414610af2573081556107b36118c6565b9360018060a01b0380600254169587519685886024816370a0823160e01b94858252308c8301525afa978815610ae8575f98610ab9575b507f000000000000000000000000000000000000000000000000000000000000000090838216908a5198818a5230818b0152888a602481865afa998a15610aaf575f9a610a80575b506387a211a29384600c52305f5289600c20546001600160701b0396878c818351169201511661086191611cb4565b956805345cdf77eb68f44c9081549e8f9061087c9085611951565b9061088691611964565b9e8f9e6108939085611951565b9061089d91611964565b9d151580610a77575b15610a3457600c52305f528b600c208054808411610a2857938f8f93908f5f908f95976108fe94610903998260249d9c03905581815403905582525f80516020611fa1833981519152309183a3838d60025416611f2a565b611f2a565b898d886002541690519384809287825230868301525afa928d841561053a578b935f956109f4575b5090602491519586938492835230908301525afa9081156109ea575f916109b9575b6109579250611e90565b61099c575b50865191868352858584015216907fdccd412f0b1252819cb1fd330b93224ca42612892bb3f4f789976e6d81936496873392a33890558351928352820152f35b6109b0905f5490808260701c169116611951565b6001555f61095c565b90508782813d83116109e3575b6109d081836118a4565b810103126101ac5761095791519061094d565b503d6109c6565b8b513d5f823e3d90fd5b9450509183813d8311610a21575b610a0c81836118a4565b810103126101ac5791519189918d602461092b565b503d610a02565b8563f4d678b85f52601cfd5b8f5162461bcd60e51b81528086018e9052601d60248201527f494e53554646494349454e545f4c49515549444954595f4255524e45440000006044820152606490fd5b508d15156108a6565b9099508881813d8311610aa8575b610a9881836118a4565b810103126101ac5751985f610832565b503d610a8e565b8c513d5f823e3d90fd5b9097508581813d8311610ae1575b610ad181836118a4565b810103126101ac5751965f6107ea565b503d610ac7565b89513d5f823e3d90fd5b8263ab143c065f52601cfd5b82346101ac5760203660031901126101ac57602090610b1b61182c565b6338377508600c525f5281600c20549051908152f35b82346101ac575f3660031901126101ac575f5490516001600160701b038083168252607083901c16602082015260e09190911c6040820152606090f35b82346101ac575f3660031901126101ac576020906001549051908152f35b82346101ac5760203660031901126101ac57602090610ba961182c565b6387a211a2600c525f5281600c20549051908152f35b82346101ac5760603660031901126101ac576001600160a01b0391604435838116929091602480359282359290918686036101ac5768929eee149b4bd212689730895414610af25730895584159283158094610fae575b15610f6c57610c236118c6565b976001600160701b0394858a5116881080610f5d575b610c4290611982565b610f49575b8780610f18575b505081600254169085519384926370a0823160e01b908185523084860152848360209889935afa938415610f0e579086915f95610edd575b5082895180978193825230878301527f0000000000000000000000000000000000000000000000000000000000000000165afa938415610ed3575f94610ea4575b50610cd588878c5116611930565b831115610e9d57610cf2610cec89888d5116611930565b84611930565b995b858101610d048b89835116611930565b861115610e9657610d21610d1b8c8a845116611930565b87611930565b975b8c15801590610e8d575b15610e4b57610d3a6119c7565b612710808802888104821489151715610e39578f90610d5c84610d6293611951565b90611930565b91818a02918a8304148a151715610e39578392610d8c610d9e969593610d5c8f94610d9295611951565b90611951565b94511691511690611951565b906305f5e10091828102928184041490151715610e275710610e0157505090610dc691611e90565b825195865285015283015260608201527fd78ad95fa46c994b6551d0da85fc275fe613ce37657fb8d5e3d130840159d82260803392a3389055005b865162461bcd60e51b8152918201859052600190820152604b60f81b6044820152606490fd5b82601185634e487b7160e01b5f52525ffd5b86601189634e487b7160e01b5f52525ffd5b895162461bcd60e51b81528086018990526019818601527f494e53554646494349454e545f494e5055545f414d4f554e54000000000000006044820152606490fd5b50881515610d2d565b5f97610d23565b5f99610cf4565b9093508481813d8311610ecc575b610ebc81836118a4565b810103126101ac5751928c610cc7565b503d610eb2565b87513d5f823e3d90fd5b8281939296503d8311610f07575b610ef581836118a4565b810103126101ac57859051938e610c86565b503d610eeb565b88513d5f823e3d90fd5b610f42917f0000000000000000000000000000000000000000000000000000000000000000611f2a565b8a87610c4e565b610f5887828560025416611f2a565b610c47565b5060208a015186168910610c39565b606490601a84602088519362461bcd60e51b85528401528201527f494e53554646494349454e545f4f55545055545f414d4f554e540000000000006044820152fd5b50861515610c16565b9050346101ac57602091826003193601126101ac57610fd461182c565b9168929eee149b4bd2126890308254146112a8573082556001600160a01b03906110238583167f00000000000000000000000000000000000000000000000000000000000000008416146118f7565b61102b6118c6565b9180600254169285519388856024816370a0823160e01b9485825230898301525afa948515610ed3579089915f96611277575b506024885180958193825230888301527f0000000000000000000000000000000000000000000000000000000000000000165afa91821561126d575f9261123e575b506001600160701b03916110b78383511686611930565b94898301986110c9858b511684611930565b956110db86865116878d511690611cb4565b946805345cdf77eb68f44c9b8c549182155f146111f1575050611106611101898b611951565b611dac565b6103e71981019081116111de579b6103e8928383019283106111d3575092611174928e8e93611179989796556387a211a2600c5261dead5f5280600c20828154019055528d5f5f80516020611fa1833981519152600c5160601c9280a35b61116f821515611982565b611e38565b611e90565b6111b6575b508351918252858201527f4c209b5fc8ad50758f13e2e1088ba56a560dff690a1c6fef26394f4c03821c4f833392a238905551908152f35b6111ca905f5490808260701c169116611951565b6001555f61117e565b63e5cfe9575f52601cfd5b601183634e487b7160e01b5f525260245ffd5b6111799695949d506111749350908861121661121f61122694838f8861121691611951565b91511690611964565b948c611951565b8082101561123757505b809b611164565b9050611230565b9091508781813d8311611266575b61125681836118a4565b810103126101ac5751905f6110a0565b503d61124c565b86513d5f823e3d90fd5b8281939297503d83116112a1575b61128f81836118a4565b810103126101ac57889051945f61105e565b503d611285565b63ab143c065f52601cfd5b82346101ac575f3660031901126101ac576020906003549051908152f35b82346101ac575f3660031901126101ac57806704f7369746f204c560c41b60208093516112fd81611888565b60088152015260a081517f8b73c3c69bb8fe3d512ecc4cf759cc79239f7b179b0ffacaa9a75d522b39400f81527f432403850d0c026bcf6eb0567acc5f7ed78017e4821d92ee99418a1819fb0589848201527fc89efdaa54c0f20c7adf612882df0950f5a951637e0307cdcb4c672f298b8bc683820152466060820152306080820152209051908152f35b82346101ac575f3660031901126101ac576020905160128152f35b82346101ac5760603660031901126101ac576113bd61182c565b6113c5611842565b6001600160a01b03906044359061140a8184167f0000000000000000000000000000000000000000000000000000000000000000851681149081156114bd57506118f7565b8360601b6e22d473030f116ddee9f6b43ac78ba33303611474575b6387a211a217600c5260209586600c2090815490818511610704575083900390555f5284600c208181540190558452600c5160601c91165f80516020611fa18339815191528480a35160018152f35b33602052637f5e9f208117600c526034600c2090815491821961149a575b509050611425565b8285116114b157846387a211a29303905588611492565b886313be252b5f52601cfd5b90503014886106ae565b82346101ac575f3660031901126101ac576114e06118c6565b917f000000000000000000000000000000000000000000000000000000000000000080156115ea576001600160701b0380855116945b82156115e2576020015116905b156115ba576002546020906001600160a01b03165b84516318160ddd60e01b815293849182906001600160a01b03165afa9182156115b0575f92611579575b50926101dd916020946115736119c7565b92611bad565b9150926020823d6020116115a8575b81611595602093836118a4565b810103126101ac57905190926020611562565b3d9150611588565b83513d5f823e3d90fd5b60207f0000000000000000000000000000000000000000000000000000000000000000611538565b511690611523565b6001600160701b038060208601511694611516565b82346101ac575f3660031901126101ac57602090517f00000000000000000000000000000000000000000000000000000000000000008152f35b82346101ac575f3660031901126101ac576020906805345cdf77eb68f44c549051908152f35b82346101ac575f3660031901126101ac5760025490516001600160a01b039091168152602090f35b82346101ac575f3660031901126101ac57602090517f00000000000000000000000000000000000000000000000000000000000000008152f35b82346101ac57806003193601126101ac576116da61182c565b602435906001600160a01b0381166e22d473030f116ddee9f6b43ac78ba318821915171561174e57602080945052637f5e9f20600c52335f52806034600c20555f52602c5160601c337f8c5be1e5ebec7d5bd14f71427d1e84f3dd0314c0f7b2291e5b200ac8c7c3b925845fa35160018152f35b83633f68539a5f52601cfd5b82346101ac575f3660031901126101ac576117736118c6565b80516020808301519284015193516001600160701b039283168152919092169181019190915263ffffffff9091166040820152606090f35b8390346101ac575f3660031901126101ac57610774916117ca82611888565b600882526704f7369746f204c560c41b602083015251918291825b602080825282518183018190529093925f5b82811061181857505060409293505f838284010152601f8019910116010190565b8181018601518482016040015285016117f7565b600435906001600160a01b03821682036101ac57565b602435906001600160a01b03821682036101ac57565b6060810190811067ffffffffffffffff82111761187457604052565b634e487b7160e01b5f52604160045260245ffd5b6040810190811067ffffffffffffffff82111761187457604052565b90601f8019910116810190811067ffffffffffffffff82111761187457604052565b604051906118d382611858565b8160405f546001600160701b0380821684528160701c16602084015260e01c910152565b156118fe57565b60405162461bcd60e51b815260206004820152600a602482015269149154d5149250d5115160b21b6044820152606490fd5b9190820391821161193d57565b634e487b7160e01b5f52601160045260245ffd5b8181029291811591840414171561193d57565b811561196e570490565b634e487b7160e01b5f52601260045260245ffd5b1561198957565b60405162461bcd60e51b8152602060048201526016602482015275494e53554646494349454e545f4c495155494449545960501b6044820152606490fd5b7f000000000000000000000000000000000000000000000000000000000000000015611b39576002546004906020906001600160a01b03165b6040516318160ddd60e01b815292839182906001600160a01b03165afa908115611b2e575f91611afc575b506003549080821115611af457611a4191611930565b7f00000000000000000000000000000000000000000000000000000000000000009081811015611ace57610d5c611acb92611ac67f000000000000000000000000000000000000000000000000000000000000000093611ac17f000000000000000000000000000000000000000000000000000000000000000086611930565b611951565b611964565b90565b50507f000000000000000000000000000000000000000000000000000000000000000090565b50505f611a41565b90506020813d602011611b26575b81611b17602093836118a4565b810103126101ac57515f611a2b565b3d9150611b0a565b6040513d5f823e3d90fd5b600460207f0000000000000000000000000000000000000000000000000000000000000000611a00565b906001600160a01b0381166e22d473030f116ddee9f6b43ac78ba314611b9957602052637f5e9f20600c525f526034600c205490565b50505f1990565b9190820180921161193d57565b91908115611cac5781831015611c6d57611bd183611bcb8382611951565b93611930565b6127109485039085821161193d578181029181159183041417850215611c5957611c0085611c07920485611ba0565b9383611964565b03611c6657670de0b6b3a764000090828282029183818404149015170215611c59578280910482810292818404149015170215611c595704816126de9182810292818404149015170215611c59570490565b63ad251c275f526004601cfd5b5050505f90565b9192505081670de0b6b3a76400009182810292818404149015170215611c5957046126de80820290612710928391818404149015170215611c59570490565b505050505f90565b6001547f00000000000000000000000000000000000000000000000000000000000000006001600160a01b0381161580159594919390611d9c5782611cfa575b50505050565b611d10916001600160701b038091169116611951565b818111611d1e575b80611cf4565b611d2a611d3091611dac565b91611dac565b906805345cdf77eb68f44c54828211611d4a575b50611d18565b611d5890610d8c8484611930565b9060058102908082046005149015171561193d57611d7f92611d7991611ba0565b90611964565b80611d8c575b8080611d44565b611d9591611e38565b5f80611d85565b50509050611da657565b5f600155565b8070ffffffffffffffffffffffffffffffffff1060071b81811c68ffffffffffffffffff1060061b1781811c64ffffffffff1060051b1781811c62ffffff1060041b1760019060b56201000084831c0191831c1b0260121c80830401811c80830401811c80830401811c80830401811c80830401811c80830401811c80830401901c8080920410900390565b6805345cdf77eb68f44c805490838201918210611e8357556387a211a2600c525f526020600c20818154019055602052600c5160601c5f5f80516020611fa1833981519152602080a3565b63e5cfe9575f526004601cfd5b7f1c411e9a96e071241c2f21f7726b17ae89e3cab4c78be50e062b03a9fffbbad191611ec6611ec0604093611f7b565b91611f7b565b90825191611ed383611858565b6001600160701b038092169283815282821660208201528463ffffffff42169101528263ffffffff60e01b4260e01b16916001600160701b0360701b9060701b161717805f55835192835260701c166020820152a1565b919060145260345263a9059cbb60601b5f5260205f6044601082855af1908160015f51141615611f5d575b50505f603452565b3b153d171015611f6e575f80611f55565b6390b8ec185f526004601cfd5b600160701b811015611f93576001600160701b031690565b6335278d125f526004601cfdfeddf252ad1be2c89b69c2b068fc378daa952ba7f163c4a11628f55a4df523b3efa2646970667358221220fdb5fbf289eb1e5b7dd0d0bb0ad1679b2c4177e6a7babcf81971eea4c3862dfd64736f6c63430008180033","linkReferences":{}},"methodIdentifiers":{"DOMAIN_SEPARATOR()":"3644e515","allowance(address,address)":"dd62ed3e","approve(address,uint256)":"095ea7b3","balanceOf(address)":"70a08231","burn(address)":"89afcb44","currentFeeBps()":"975f8f46","decimals()":"313ce567","endFeeBps()":"1e2f9931","factory()":"c45a0155","feeDecayTarget()":"d9f51a43","feeRouter()":"f29ebf61","getReserves()":"0902f1ac","initialSupply()":"378dc3dc","initialize(address)":"c4d66de8","kLast()":"7464fc3d","mint(address)":"6a627842","name()":"06fdde03","nonces(address)":"7ecebe00","pMin()":"22950746","permit(address,address,uint256,uint256,uint8,bytes32,bytes32)":"d505accf","reserves()":"75172a8b","startFeeBps()":"0c1e3847","swap(uint256,uint256,address)":"6d9a640a","symbol()":"95d89b41","tokIsToken0()":"ae0f15e0","token0()":"0dfe1681","token1()":"d21220a7","totalSupply()":"18160ddd","transfer(address,uint256)":"a9059cbb","transferFrom(address,address,uint256)":"23b872dd"},"id":28}