{"abi":[{"type":"constructor","inputs":[{"name":"_token0","type":"address","internalType":"address"},{"name":"_token1","type":"address","internalType":"address"},{"name":"_startFeeBps","type":"uint256","internalType":"uint256"},{"name":"_endFeeBps","type":"uint256","internalType":"uint256"},{"name":"_feeDecayTarget","type":"uint256","internalType":"uint256"},{"name":"_tokIsToken0","type":"bool","internalType":"bool"}],"stateMutability":"nonpayable"},{"type":"function","name":"DOMAIN_SEPARATOR","inputs":[],"outputs":[{"name":"result","type":"bytes32","internalType":"bytes32"}],"stateMutability":"view"},{"type":"function","name":"allowance","inputs":[{"name":"owner","type":"address","internalType":"address"},{"name":"spender","type":"address","internalType":"address"}],"outputs":[{"name":"result","type":"uint256","internalType":"uint256"}],"stateMutability":"view"},{"type":"function","name":"approve","inputs":[{"name":"spender","type":"address","internalType":"address"},{"name":"amount","type":"uint256","internalType":"uint256"}],"outputs":[{"name":"","type":"bool","internalType":"bool"}],"stateMutability":"nonpayable"},{"type":"function","name":"balanceOf","inputs":[{"name":"owner","type":"address","internalType":"address"}],"outputs":[{"name":"result","type":"uint256","internalType":"uint256"}],"stateMutability":"view"},{"type":"function","name":"burn","inputs":[{"name":"to","type":"address","internalType":"address"}],"outputs":[{"name":"amt0","type":"uint256","internalType":"uint256"},{"name":"amt1","type":"uint256","internalType":"uint256"}],"stateMutability":"nonpayable"},{"type":"function","name":"collectFees","inputs":[],"outputs":[],"stateMutability":"nonpayable"},{"type":"function","name":"currentFeeBps","inputs":[],"outputs":[{"name":"","type":"uint256","internalType":"uint256"}],"stateMutability":"view"},{"type":"function","name":"decimals","inputs":[],"outputs":[{"name":"","type":"uint8","internalType":"uint8"}],"stateMutability":"pure"},{"type":"function","name":"endFeeBps","inputs":[],"outputs":[{"name":"","type":"uint256","internalType":"uint256"}],"stateMutability":"view"},{"type":"function","name":"factory","inputs":[],"outputs":[{"name":"","type":"address","internalType":"address"}],"stateMutability":"view"},{"type":"function","name":"feeDecayTarget","inputs":[],"outputs":[{"name":"","type":"uint256","internalType":"uint256"}],"stateMutability":"view"},{"type":"function","name":"feeRouter","inputs":[],"outputs":[{"name":"","type":"address","internalType":"address"}],"stateMutability":"view"},{"type":"function","name":"getReserves","inputs":[],"outputs":[{"name":"r0","type":"uint112","internalType":"uint112"},{"name":"r1","type":"uint112","internalType":"uint112"},{"name":"blockTimestampLast","type":"uint32","internalType":"uint32"}],"stateMutability":"view"},{"type":"function","name":"initialSupply","inputs":[],"outputs":[{"name":"","type":"uint256","internalType":"uint256"}],"stateMutability":"view"},{"type":"function","name":"kLast","inputs":[],"outputs":[{"name":"","type":"uint256","internalType":"uint256"}],"stateMutability":"view"},{"type":"function","name":"mint","inputs":[{"name":"to","type":"address","internalType":"address"}],"outputs":[{"name":"liquidity","type":"uint256","internalType":"uint256"}],"stateMutability":"nonpayable"},{"type":"function","name":"name","inputs":[],"outputs":[{"name":"","type":"string","internalType":"string"}],"stateMutability":"pure"},{"type":"function","name":"nonces","inputs":[{"name":"owner","type":"address","internalType":"address"}],"outputs":[{"name":"result","type":"uint256","internalType":"uint256"}],"stateMutability":"view"},{"type":"function","name":"pMin","inputs":[],"outputs":[{"name":"","type":"uint256","internalType":"uint256"}],"stateMutability":"view"},{"type":"function","name":"permit","inputs":[{"name":"owner","type":"address","internalType":"address"},{"name":"spender","type":"address","internalType":"address"},{"name":"value","type":"uint256","internalType":"uint256"},{"name":"deadline","type":"uint256","internalType":"uint256"},{"name":"v","type":"uint8","internalType":"uint8"},{"name":"r","type":"bytes32","internalType":"bytes32"},{"name":"s","type":"bytes32","internalType":"bytes32"}],"outputs":[],"stateMutability":"nonpayable"},{"type":"function","name":"reserves","inputs":[],"outputs":[{"name":"r0","type":"uint112","internalType":"uint112"},{"name":"r1","type":"uint112","internalType":"uint112"},{"name":"blockTimestampLast","type":"uint32","internalType":"uint32"}],"stateMutability":"view"},{"type":"function","name":"setFeeRouter","inputs":[{"name":"_feeRouter","type":"address","internalType":"address"}],"outputs":[],"stateMutability":"nonpayable"},{"type":"function","name":"startFeeBps","inputs":[],"outputs":[{"name":"","type":"uint256","internalType":"uint256"}],"stateMutability":"view"},{"type":"function","name":"swap","inputs":[{"name":"a0Out","type":"uint256","internalType":"uint256"},{"name":"a1Out","type":"uint256","internalType":"uint256"},{"name":"to","type":"address","internalType":"address"}],"outputs":[],"stateMutability":"nonpayable"},{"type":"function","name":"symbol","inputs":[],"outputs":[{"name":"","type":"string","internalType":"string"}],"stateMutability":"pure"},{"type":"function","name":"tokIsToken0","inputs":[],"outputs":[{"name":"","type":"bool","internalType":"bool"}],"stateMutability":"view"},{"type":"function","name":"token0","inputs":[],"outputs":[{"name":"","type":"address","internalType":"address"}],"stateMutability":"view"},{"type":"function","name":"token1","inputs":[],"outputs":[{"name":"","type":"address","internalType":"address"}],"stateMutability":"view"},{"type":"function","name":"totalSupply","inputs":[],"outputs":[{"name":"result","type":"uint256","internalType":"uint256"}],"stateMutability":"view"},{"type":"function","name":"transfer","inputs":[{"name":"to","type":"address","internalType":"address"},{"name":"amount","type":"uint256","internalType":"uint256"}],"outputs":[{"name":"","type":"bool","internalType":"bool"}],"stateMutability":"nonpayable"},{"type":"function","name":"transferFrom","inputs":[{"name":"from","type":"address","internalType":"address"},{"name":"to","type":"address","internalType":"address"},{"name":"amount","type":"uint256","internalType":"uint256"}],"outputs":[{"name":"","type":"bool","internalType":"bool"}],"stateMutability":"nonpayable"},{"type":"event","name":"Approval","inputs":[{"name":"owner","type":"address","indexed":true,"internalType":"address"},{"name":"spender","type":"address","indexed":true,"internalType":"address"},{"name":"amount","type":"uint256","indexed":false,"internalType":"uint256"}],"anonymous":false},{"type":"event","name":"Burn","inputs":[{"name":"sender","type":"address","indexed":true,"internalType":"address"},{"name":"amount0","type":"uint256","indexed":false,"internalType":"uint256"},{"name":"amount1","type":"uint256","indexed":false,"internalType":"uint256"},{"name":"to","type":"address","indexed":true,"internalType":"address"}],"anonymous":false},{"type":"event","name":"Mint","inputs":[{"name":"sender","type":"address","indexed":true,"internalType":"address"},{"name":"amount0","type":"uint256","indexed":false,"internalType":"uint256"},{"name":"amount1","type":"uint256","indexed":false,"internalType":"uint256"}],"anonymous":false},{"type":"event","name":"Swap","inputs":[{"name":"sender","type":"address","indexed":true,"internalType":"address"},{"name":"amount0In","type":"uint256","indexed":false,"internalType":"uint256"},{"name":"amount1In","type":"uint256","indexed":false,"internalType":"uint256"},{"name":"amount0Out","type":"uint256","indexed":false,"internalType":"uint256"},{"name":"amount1Out","type":"uint256","indexed":false,"internalType":"uint256"},{"name":"to","type":"address","indexed":true,"internalType":"address"}],"anonymous":false},{"type":"event","name":"Sync","inputs":[{"name":"reserve0","type":"uint112","indexed":false,"internalType":"uint112"},{"name":"reserve1","type":"uint112","indexed":false,"internalType":"uint112"}],"anonymous":false},{"type":"event","name":"Transfer","inputs":[{"name":"from","type":"address","indexed":true,"internalType":"address"},{"name":"to","type":"address","indexed":true,"internalType":"address"},{"name":"amount","type":"uint256","indexed":false,"internalType":"uint256"}],"anonymous":false},{"type":"error","name":"AllowanceOverflow","inputs":[]},{"type":"error","name":"AllowanceUnderflow","inputs":[]},{"type":"error","name":"InsufficientAllowance","inputs":[]},{"type":"error","name":"InsufficientBalance","inputs":[]},{"type":"error","name":"InvalidPermit","inputs":[]},{"type":"error","name":"Permit2AllowanceIsFixedAtInfinity","inputs":[]},{"type":"error","name":"PermitExpired","inputs":[]},{"type":"error","name":"Reentrancy","inputs":[]},{"type":"error","name":"TotalSupplyOverflow","inputs":[]}],"bytecode":{"object":"0x61016060409080825234620001f75760c081620023a1803803809162000026828562000254565b833981010312620001f7576200003c816200028c565b906020926200004d8483016200028c565b93818301519460608401519460a06080860151950151918215158303620001f7576001600160a01b039282841615158062000248575b15620002155790849291336080528260a0528160c052610100998a526101209889526101409788528060e0525f146200020d57505b60048551809481936318160ddd60e01b8352165afa91821562000203575f92620001cb575b505060035551916120ff9384620002a285396080518481816104e70152610539015260a0518481816107ba015281816109040152818161096f01528181610d1201528181611003015281816110fe01528181611658015281816117a90152611b33015260c05184818161040d0152818161080f0152818161092f015281816109c301528181610d5801528181610fd101528181611145015281816116f40152611c82015260e0518481816106350152818161160f0152611b090152518381816117ef0152611bca01525182818161174c01528181611bef0152611c200152518181816101e80152611b960152f35b90809250813d8311620001fb575b620001e5818362000254565b81010312620001f757515f80620000dd565b5f80fd5b503d620001d9565b83513d5f823e3d90fd5b9050620000b8565b855162461bcd60e51b815260048101869052600c60248201526b5a45524f5f4144445245535360a01b6044820152606490fd5b50838216151562000083565b601f909101601f19168101906001600160401b038211908210176200027857604052565b634e487b7160e01b5f52604160045260245ffd5b51906001600160a01b0382168203620001f75756fe6080806040526004361015610012575f80fd5b5f3560e01c90816306fdde03146118f3575080630902f1ac146118a1578063095ea7b3146118125780630c1e3847146117d85780630dfe16811461179457806318160ddd1461176f5780631e2f99311461173557806322950746146115f357806323b872dd146114ee578063313ce567146114d35780633644e51514611419578063378dc3dc146113fc5780636a627842146110885780636d9a640a14610c6757806370a0823114610c355780637464fc3d14610c1857806375172a8b14610bdb5780637ecebe0014610ba957806389afcb441461075f57806395d89b411461071b578063975f8f4614610701578063a9059cbb1461065a578063ae0f15e01461061e578063c267ada414610516578063c45a0155146104d2578063c87965721461043c578063d21220a7146103f8578063d505accf1461020b578063d9f51a43146101d1578063dd62ed3e1461019d5763f29ebf6114610171575f80fd5b34610199575f366003190112610199576002546040516001600160a01b039091168152602090f35b5f80fd5b346101995760403660031901126101995760206101c96101bb611974565b6101c361198a565b90611ca6565b604051908152f35b34610199575f3660031901126101995760206040517f00000000000000000000000000000000000000000000000000000000000000008152f35b346101995760e036600319011261019957610224611974565b61022c61198a565b604435916084359160643560ff84168403610199576001600160a01b03918216946e22d473030f116ddee9f6b43ac78ba3861881191517156103eb5760405192610275846119d0565b600884526704f7369746f204c560c41b6020809501528242116103de5760405194169465383775081901600e52855f5283600c209060c08254967f8b73c3c69bb8fe3d512ecc4cf759cc79239f7b179b0ffacaa9a75d522b39400f8152868101957f432403850d0c026bcf6eb0567acc5f7ed78017e4821d92ee99418a1819fb058987528860408301977fc89efdaa54c0f20c7adf612882df0950f5a951637e0307cdcb4c672f298b8bc689528c6060850199468b528d608087019330855260a08820602e527f6e71edae12b1b97f4d1f60370fef10105fa2faae0126114a169c64845d6126c9885252528789525260a082015220604e526042602c205f5260ff16845260a43560405260c435606052838060805f60015afa863d51036103d1577f8c5be1e5ebec7d5bd14f71427d1e84f3dd0314c0f7b2291e5b200ac8c7c3b92595019055856303faf4f960a51b176040526034602c2055a3005b63ddafbaef5f526004601cfd5b631a15a3cc5f526004601cfd5b633f68539a5f526004601cfd5b34610199575f366003190112610199576040517f00000000000000000000000000000000000000000000000000000000000000006001600160a01b03168152602090f35b34610199575f3660031901126101995768929eee149b4bd21268308154146104c55730815561047660018060a01b03600254163314611a46565b61047e611a0e565b6001600160701b03808251169061049d60208401928284511690611dcf565b506001546104aa57388455005b806104ba93511691511690611a91565b600155818080388455005b63ab143c065f526004601cfd5b34610199575f366003190112610199576040517f00000000000000000000000000000000000000000000000000000000000000006001600160a01b03168152602090f35b346101995760203660031901126101995761052f611974565b6001600160a01b037f0000000000000000000000000000000000000000000000000000000000000000811633036105ea57600254918183166105b75716908115610583576001600160a01b03191617600255005b60405162461bcd60e51b815260206004820152600c60248201526b5a45524f5f4144445245535360a01b6044820152606490fd5b60405162461bcd60e51b815260206004820152600b60248201526a1053149150511657d4d15560aa1b6044820152606490fd5b60405162461bcd60e51b815260206004820152600c60248201526b15539055551213d49256915160a21b6044820152606490fd5b34610199575f3660031901126101995760206040517f000000000000000000000000000000000000000000000000000000000000000015158152f35b3461019957604036600319011261019957610673611974565b6002546024359061069b906001600160a01b03848116911681149081156106f7575b50611a3f565b6387a211a2600c52335f5260209182600c2080548084116106ea5783900390555f5281600c208181540190558152600c5160601c335f805160206120aa8339815191528380a360405160018152f35b63f4d678b85f526004601cfd5b9050301484610695565b34610199575f3660031901126101995760206101c9611b07565b34610199575f3660031901126101995761075b60405161073a816119d0565b600881526704f5349544f2d4c560c41b60208201526040519182918261192d565b0390f35b3461019957602036600319011261019957610778611974565b3068929eee149b4bd2126854146104c5573068929eee149b4bd212685561079d611a0e565b6040516370a0823160e01b815230600482015291906020836024817f00000000000000000000000000000000000000000000000000000000000000006001600160a01b03165afa928315610ab4575f93610b75575b506040516370a0823160e01b8152306004820152916020836024817f00000000000000000000000000000000000000000000000000000000000000006001600160a01b03165afa928315610ab4575f93610b41575b506387a211a2600c52305f526108a261089661089661089b6108816020600c2054966001600160701b036020818351169201511690611dcf565b976805345cdf77eb68f44c5493849188611a91565b611aa4565b9585611a91565b9183151580610b38575b15610af3576387a211a2600c52305f526020600c2080548083116106ea578290039055806805345cdf77eb68f44c54036805345cdf77eb68f44c555f525f305f805160206120aa833981519152602083a361092883827f0000000000000000000000000000000000000000000000000000000000000000612033565b61095382827f0000000000000000000000000000000000000000000000000000000000000000612033565b6040516370a0823160e01b8152306004820152936020856024817f00000000000000000000000000000000000000000000000000000000000000006001600160a01b03165afa948515610ab4575f95610abf575b506040516370a0823160e01b81523060048201526020816024817f00000000000000000000000000000000000000000000000000000000000000006001600160a01b03165afa908115610ab4575f91610a81575b50610a0890604096611f99565b610a5f575b83519083825282602083015260018060a01b0316907fdccd412f0b1252819cb1fd330b93224ca42612892bb3f4f789976e6d81936496853392a33868929eee149b4bd212685582519182526020820152f35b610a795f546001600160701b03808260701c169116611a91565b600155610a0d565b90506020813d602011610aac575b81610a9c602093836119ec565b81010312610199575160406109fb565b3d9150610a8f565b6040513d5f823e3d90fd5b9094506020813d602011610aeb575b81610adb602093836119ec565b81010312610199575193856109a7565b3d9150610ace565b60405162461bcd60e51b815260206004820152601d60248201527f494e53554646494349454e545f4c49515549444954595f4255524e45440000006044820152606490fd5b508215156108ac565b9092506020813d602011610b6d575b81610b5d602093836119ec565b8101031261019957519184610847565b3d9150610b50565b9092506020813d602011610ba1575b81610b91602093836119ec565b81010312610199575191836107f2565b3d9150610b84565b3461019957602036600319011261019957610bc2611974565b6338377508600c525f52602080600c2054604051908152f35b34610199575f366003190112610199575f54604080516001600160701b038084168252607084901c16602082015260e09290921c90820152606090f35b34610199575f366003190112610199576020600154604051908152f35b3461019957602036600319011261019957610c4e611974565b6387a211a2600c525f52602080600c2054604051908152f35b346101995760603660031901126101995760246001600160a01b0360443581811691833590600435908484036101995768929eee149b4bd2126895308754146104c5573087558215918215809361107f575b1561103b57610cc6611a0e565b956001600160701b03938488511686108061102c575b610ce590611ac2565b610ffc575b8580610fcb575b50506040516370a0823160e01b8082523060048301526020939091848183817f000000000000000000000000000000000000000000000000000000000000000088165afa928315610ab45785915f94610f9a575b50826040518096819382523060048301527f0000000000000000000000000000000000000000000000000000000000000000165afa928315610ab4575f93610f6b575b50610d9686868a5116611a84565b821115610f6457610db3610dad87878b5116611a84565b83611a84565b975b848101610dc58988835116611a84565b851115610f5d57610de2610ddc8a89845116611a84565b86611a84565b965b8a15801590610f54575b15610f1057610dfb611b07565b612710808702878104821488151715610efd57610e2390610e1d8f8590611a91565b90611a84565b91818902918983041489151715610efd578392610e4c610e5e969593610e1d610e52948f611a91565b90611a91565b94511691511690611a91565b906305f5e10091828102928184041490151715610eea5710610ec3575090610e8591611f99565b604051948552840152604083015260608201527fd78ad95fa46c994b6551d0da85fc275fe613ce37657fb8d5e3d130840159d82260803392a3389055005b8360016064926040519262461bcd60e51b84526004840152820152604b60f81b6044820152fd5b82634e487b7160e01b5f5260116004525ffd5b86634e487b7160e01b5f5260116004525ffd5b60405162461bcd60e51b8152600481018890526019818601527f494e53554646494349454e545f494e5055545f414d4f554e54000000000000006044820152606490fd5b50871515610dee565b5f96610de4565b5f97610db5565b9092508381813d8311610f93575b610f8381836119ec565b810103126101995751918a610d88565b503d610f79565b8281939295503d8311610fc4575b610fb281836119ec565b8101031261019957849051928c610d45565b503d610fa8565b610ff5917f0000000000000000000000000000000000000000000000000000000000000000612033565b8885610cf1565b61102785827f0000000000000000000000000000000000000000000000000000000000000000612033565b610cea565b50602088015185168710610cdc565b60405162461bcd60e51b815260206004820152601a818401527f494e53554646494349454e545f4f55545055545f414d4f554e540000000000006044820152606490fd5b50841515610cb9565b3461019957602080600319360112610199576110a2611974565b68929eee149b4bd21268308154146104c5573081556001600160a01b0391808316806113ae57506805345cdf77eb68f44c54611373575b6110e1611a0e565b6040516370a0823160e01b808252306004830152919086816024817f00000000000000000000000000000000000000000000000000000000000000008a165afa928315610ab45787915f94611342575b5060246040518098819382523060048301527f0000000000000000000000000000000000000000000000000000000000000000165afa948515610ab4575f95611313575b506001600160701b039061118c8282511684611a84565b938782019661119e8489511682611a84565b946111b085855116868b511690611dcf565b936805345cdf77eb68f44c998a549182155f146112c95750506111db6111d6888a611a91565b611ec2565b6103e71981019081116112b557996103e8948583019283106112a85761124a95611245938d93556387a211a2600c5261dead5f528d600c208181540190558d528c5f5f805160206120aa833981519152600c5160601c9280a35b611240821515611ac2565b611f4e565b611f99565b61128b575b50604051918252848201527f4c209b5fc8ad50758f13e2e1088ba56a560dff690a1c6fef26394f4c03821c4f60403392a2389055604051908152f35b61129f905f5490808260701c169116611a91565b6001558561124f565b63e5cfe9575f526004601cfd5b634e487b7160e01b5f52601160045260245ffd5b61124a959b508291886112eb6112f46112fb94838f611245996112eb91611a91565b91511690611aa4565b948c611a91565b8082101561130c57505b809a611235565b9050611305565b9094508581813d831161133b575b61132b81836119ec565b8101031261019957519386611175565b503d611321565b8281939295503d831161136c575b61135a81836119ec565b81010312610199578690519288611131565b503d611350565b60405162461bcd60e51b81526004810185905260136024820152721053149150511657d253925512505312569151606a1b6044820152606490fd5b60025484169081036113ca576113c5903314611a46565b6110d9565b60405162461bcd60e51b815260206004820152600a602482015269149154d5149250d5115160b21b6044820152606490fd5b34610199575f366003190112610199576020600354604051908152f35b34610199575f366003190112610199576704f7369746f204c560c41b6020604051611443816119d0565b600881520152602060a06040517f8b73c3c69bb8fe3d512ecc4cf759cc79239f7b179b0ffacaa9a75d522b39400f81527f432403850d0c026bcf6eb0567acc5f7ed78017e4821d92ee99418a1819fb0589838201527fc89efdaa54c0f20c7adf612882df0950f5a951637e0307cdcb4c672f298b8bc6604082015246606082015230608082015220604051908152f35b34610199575f36600319011261019957602060405160128152f35b3461019957606036600319011261019957611507611974565b61150f61198a565b9060443560018060a01b039061153682600254168386169081149081156115e95750611a3f565b8260601b6e22d473030f116ddee9f6b43ac78ba3330361159f575b6387a211a217600c5260209384600c2080548084116106ea5783900390555f5283600c208181540190558352600c5160601c91165f805160206120aa8339815191528380a360405160018152f35b33602052637f5e9f208117600c526034600c209081549182196115c5575b509050611551565b8284116115dc57836387a211a293039055866115bd565b6313be252b5f526004601cfd5b9050301486610695565b34610199575f3660031901126101995761160b611a0e565b60047f00000000000000000000000000000000000000000000000000000000000000008015611720576001600160701b0380845116935b8215611718576020015116905b156116f05760207f00000000000000000000000000000000000000000000000000000000000000005b6040516318160ddd60e01b815293849182906001600160a01b03165afa918215610ab4575f926116b9575b60206101c98585856116b3611b07565b92611cf0565b9150916020823d6020116116e8575b816116d5602093836119ec565b81010312610199579051909160206116a3565b3d91506116c8565b60207f0000000000000000000000000000000000000000000000000000000000000000611678565b51169061164f565b6001600160701b038060208501511693611642565b34610199575f3660031901126101995760206040517f00000000000000000000000000000000000000000000000000000000000000008152f35b34610199575f3660031901126101995760206805345cdf77eb68f44c54604051908152f35b34610199575f366003190112610199576040517f00000000000000000000000000000000000000000000000000000000000000006001600160a01b03168152602090f35b34610199575f3660031901126101995760206040517f00000000000000000000000000000000000000000000000000000000000000008152f35b346101995760403660031901126101995761182b611974565b602435906001600160a01b0381166e22d473030f116ddee9f6b43ac78ba31882191517156103eb57602052637f5e9f20600c52335f52806034600c20555f52602c5160601c337f8c5be1e5ebec7d5bd14f71427d1e84f3dd0314c0f7b2291e5b200ac8c7c3b92560205fa3602060405160018152f35b34610199575f366003190112610199576118b9611a0e565b805160208083015160409384015184516001600160701b039485168152939091169183019190915263ffffffff1691810191909152606090f35b34610199575f366003190112610199578061191061075b926119d0565b600881526704f7369746f204c560c41b6020820152604051918291825b602080825282518183018190529093925f5b82811061196057505060409293505f838284010152601f8019910116010190565b81810186015184820160400152850161193f565b600435906001600160a01b038216820361019957565b602435906001600160a01b038216820361019957565b6060810190811067ffffffffffffffff8211176119bc57604052565b634e487b7160e01b5f52604160045260245ffd5b6040810190811067ffffffffffffffff8211176119bc57604052565b90601f8019910116810190811067ffffffffffffffff8211176119bc57604052565b60405190611a1b826119a0565b8160405f546001600160701b0380821684528160701c16602084015260e01c910152565b156113ca57565b15611a4d57565b60405162461bcd60e51b815260206004820152600f60248201526e27a7262cafa322a2afa927aaaa22a960891b6044820152606490fd5b919082039182116112b557565b818102929181159184041417156112b557565b8115611aae570490565b634e487b7160e01b5f52601260045260245ffd5b15611ac957565b60405162461bcd60e51b8152602060048201526016602482015275494e53554646494349454e545f4c495155494449545960501b6044820152606490fd5b7f000000000000000000000000000000000000000000000000000000000000000015611c7c57600460207f00000000000000000000000000000000000000000000000000000000000000005b6040516318160ddd60e01b815292839182906001600160a01b03165afa908115610ab4575f91611c4a575b506003549080821115611c4257611b9491611a84565b7f00000000000000000000000000000000000000000000000000000000000000009081811015611c1c57610e1d611c19926108967f000000000000000000000000000000000000000000000000000000000000000093611c147f000000000000000000000000000000000000000000000000000000000000000086611a84565b611a91565b90565b50507f000000000000000000000000000000000000000000000000000000000000000090565b50505f611b94565b90506020813d602011611c74575b81611c65602093836119ec565b8101031261019957515f611b7e565b3d9150611c58565b600460207f0000000000000000000000000000000000000000000000000000000000000000611b53565b906001600160a01b0381166e22d473030f116ddee9f6b43ac78ba314611cdc57602052637f5e9f20600c525f526034600c205490565b50505f1990565b919082018092116112b557565b9182811115611da95782611d0391611a84565b916127109384038481116112b5578481850291858304148515170215611d9c5784611d2f910482611ce3565b611d398383611a91565b91838115159182611dba575b5050611db157611d5491611aa4565b80821115611da957611d6591611a84565b81670de0b6b3a76400009182810292818404149015170215611d9c5704816126de9182810292818404149015170215611d9c570490565b63ad251c275f526004601cfd5b505050505f90565b50505050505f90565b611dc691925084611aa4565b1415835f611d45565b6002546001546001600160a01b03909116801580159594919390611eb25782611df9575b50505050565b611e0f916001600160701b038091169116611a91565b818111611e1d575b80611df3565b611e29611e2f91611ec2565b91611ec2565b906805345cdf77eb68f44c54828211611e49575b50611e17565b611e5790610e4c8484611a84565b906005810290808204600514901517156112b557611e7e92611e7891611ce3565b90611aa4565b6036810290808204603614901517156112b557600a900480611ea2575b8080611e43565b611eab91611f4e565b5f80611e9b565b50509050611ebc57565b5f600155565b8070ffffffffffffffffffffffffffffffffff1060071b81811c68ffffffffffffffffff1060061b1781811c64ffffffffff1060051b1781811c62ffffff1060041b1760019060b56201000084831c0191831c1b0260121c80830401811c80830401811c80830401811c80830401811c80830401811c80830401811c80830401901c8080920410900390565b6805345cdf77eb68f44c8054908382019182106112a857556387a211a2600c525f526020600c20818154019055602052600c5160601c5f5f805160206120aa833981519152602080a3565b7f1c411e9a96e071241c2f21f7726b17ae89e3cab4c78be50e062b03a9fffbbad191611fcf611fc9604093612084565b91612084565b90825191611fdc836119a0565b6001600160701b038092169283815282821660208201528463ffffffff42169101528263ffffffff60e01b4260e01b16916001600160701b0360701b9060701b161717805f55835192835260701c166020820152a1565b919060145260345263a9059cbb60601b5f5260205f6044601082855af1908160015f51141615612066575b50505f603452565b3b153d171015612077575f8061205e565b6390b8ec185f526004601cfd5b600160701b81101561209c576001600160701b031690565b6335278d125f526004601cfdfeddf252ad1be2c89b69c2b068fc378daa952ba7f163c4a11628f55a4df523b3efa26469706673582212201f883d4ac5fdeb68be91c55d526628378599de34d2c34d19101277f8fc8ff6b564736f6c63430008180033","linkReferences":{}},"methodIdentifiers":{"DOMAIN_SEPARATOR()":"3644e515","allowance(address,address)":"dd62ed3e","approve(address,uint256)":"095ea7b3","balanceOf(address)":"70a08231","burn(address)":"89afcb44","collectFees()":"c8796572","currentFeeBps()":"975f8f46","decimals()":"313ce567","endFeeBps()":"1e2f9931","factory()":"c45a0155","feeDecayTarget()":"d9f51a43","feeRouter()":"f29ebf61","getReserves()":"0902f1ac","initialSupply()":"378dc3dc","kLast()":"7464fc3d","mint(address)":"6a627842","name()":"06fdde03","nonces(address)":"7ecebe00","pMin()":"22950746","permit(address,address,uint256,uint256,uint8,bytes32,bytes32)":"d505accf","reserves()":"75172a8b","setFeeRouter(address)":"c267ada4","startFeeBps()":"0c1e3847","swap(uint256,uint256,address)":"6d9a640a","symbol()":"95d89b41","tokIsToken0()":"ae0f15e0","token0()":"0dfe1681","token1()":"d21220a7","totalSupply()":"18160ddd","transfer(address,uint256)":"a9059cbb","transferFrom(address,address,uint256)":"23b872dd"},"id":38}