{"abi":[{"type":"constructor","inputs":[{"name":"_token0","type":"address","internalType":"address"},{"name":"_token1","type":"address","internalType":"address"},{"name":"_feeRouter","type":"address","internalType":"address"},{"name":"_startFeeBps","type":"uint256","internalType":"uint256"},{"name":"_endFeeBps","type":"uint256","internalType":"uint256"},{"name":"_feeDecayTarget","type":"uint256","internalType":"uint256"},{"name":"_tokIsToken0","type":"bool","internalType":"bool"}],"stateMutability":"nonpayable"},{"type":"function","name":"DOMAIN_SEPARATOR","inputs":[],"outputs":[{"name":"result","type":"bytes32","internalType":"bytes32"}],"stateMutability":"view"},{"type":"function","name":"allowance","inputs":[{"name":"owner","type":"address","internalType":"address"},{"name":"spender","type":"address","internalType":"address"}],"outputs":[{"name":"result","type":"uint256","internalType":"uint256"}],"stateMutability":"view"},{"type":"function","name":"approve","inputs":[{"name":"spender","type":"address","internalType":"address"},{"name":"amount","type":"uint256","internalType":"uint256"}],"outputs":[{"name":"","type":"bool","internalType":"bool"}],"stateMutability":"nonpayable"},{"type":"function","name":"balanceOf","inputs":[{"name":"owner","type":"address","internalType":"address"}],"outputs":[{"name":"result","type":"uint256","internalType":"uint256"}],"stateMutability":"view"},{"type":"function","name":"burn","inputs":[{"name":"to","type":"address","internalType":"address"}],"outputs":[{"name":"amt0","type":"uint256","internalType":"uint256"},{"name":"amt1","type":"uint256","internalType":"uint256"}],"stateMutability":"nonpayable"},{"type":"function","name":"currentFeeBps","inputs":[],"outputs":[{"name":"","type":"uint256","internalType":"uint256"}],"stateMutability":"view"},{"type":"function","name":"decimals","inputs":[],"outputs":[{"name":"","type":"uint8","internalType":"uint8"}],"stateMutability":"pure"},{"type":"function","name":"endFeeBps","inputs":[],"outputs":[{"name":"","type":"uint256","internalType":"uint256"}],"stateMutability":"view"},{"type":"function","name":"factory","inputs":[],"outputs":[{"name":"","type":"address","internalType":"address"}],"stateMutability":"view"},{"type":"function","name":"feeDecayTarget","inputs":[],"outputs":[{"name":"","type":"uint256","internalType":"uint256"}],"stateMutability":"view"},{"type":"function","name":"feeRouter","inputs":[],"outputs":[{"name":"","type":"address","internalType":"address"}],"stateMutability":"view"},{"type":"function","name":"getReserves","inputs":[],"outputs":[{"name":"r0","type":"uint112","internalType":"uint112"},{"name":"r1","type":"uint112","internalType":"uint112"},{"name":"blockTimestampLast","type":"uint32","internalType":"uint32"}],"stateMutability":"view"},{"type":"function","name":"initialSupply","inputs":[],"outputs":[{"name":"","type":"uint256","internalType":"uint256"}],"stateMutability":"view"},{"type":"function","name":"initialize","inputs":[{"name":"_token0","type":"address","internalType":"address"}],"outputs":[],"stateMutability":"nonpayable"},{"type":"function","name":"kLast","inputs":[],"outputs":[{"name":"","type":"uint256","internalType":"uint256"}],"stateMutability":"view"},{"type":"function","name":"mint","inputs":[{"name":"to","type":"address","internalType":"address"}],"outputs":[{"name":"liquidity","type":"uint256","internalType":"uint256"}],"stateMutability":"nonpayable"},{"type":"function","name":"name","inputs":[],"outputs":[{"name":"","type":"string","internalType":"string"}],"stateMutability":"pure"},{"type":"function","name":"nonces","inputs":[{"name":"owner","type":"address","internalType":"address"}],"outputs":[{"name":"result","type":"uint256","internalType":"uint256"}],"stateMutability":"view"},{"type":"function","name":"pMin","inputs":[],"outputs":[{"name":"","type":"uint256","internalType":"uint256"}],"stateMutability":"view"},{"type":"function","name":"permit","inputs":[{"name":"owner","type":"address","internalType":"address"},{"name":"spender","type":"address","internalType":"address"},{"name":"value","type":"uint256","internalType":"uint256"},{"name":"deadline","type":"uint256","internalType":"uint256"},{"name":"v","type":"uint8","internalType":"uint8"},{"name":"r","type":"bytes32","internalType":"bytes32"},{"name":"s","type":"bytes32","internalType":"bytes32"}],"outputs":[],"stateMutability":"nonpayable"},{"type":"function","name":"reserves","inputs":[],"outputs":[{"name":"r0","type":"uint112","internalType":"uint112"},{"name":"r1","type":"uint112","internalType":"uint112"},{"name":"blockTimestampLast","type":"uint32","internalType":"uint32"}],"stateMutability":"view"},{"type":"function","name":"startFeeBps","inputs":[],"outputs":[{"name":"","type":"uint256","internalType":"uint256"}],"stateMutability":"view"},{"type":"function","name":"swap","inputs":[{"name":"a0Out","type":"uint256","internalType":"uint256"},{"name":"a1Out","type":"uint256","internalType":"uint256"},{"name":"to","type":"address","internalType":"address"}],"outputs":[],"stateMutability":"nonpayable"},{"type":"function","name":"symbol","inputs":[],"outputs":[{"name":"","type":"string","internalType":"string"}],"stateMutability":"pure"},{"type":"function","name":"tokIsToken0","inputs":[],"outputs":[{"name":"","type":"bool","internalType":"bool"}],"stateMutability":"view"},{"type":"function","name":"token0","inputs":[],"outputs":[{"name":"","type":"address","internalType":"address"}],"stateMutability":"view"},{"type":"function","name":"token1","inputs":[],"outputs":[{"name":"","type":"address","internalType":"address"}],"stateMutability":"view"},{"type":"function","name":"totalSupply","inputs":[],"outputs":[{"name":"result","type":"uint256","internalType":"uint256"}],"stateMutability":"view"},{"type":"function","name":"transfer","inputs":[{"name":"to","type":"address","internalType":"address"},{"name":"amount","type":"uint256","internalType":"uint256"}],"outputs":[{"name":"","type":"bool","internalType":"bool"}],"stateMutability":"nonpayable"},{"type":"function","name":"transferFrom","inputs":[{"name":"from","type":"address","internalType":"address"},{"name":"to","type":"address","internalType":"address"},{"name":"amount","type":"uint256","internalType":"uint256"}],"outputs":[{"name":"","type":"bool","internalType":"bool"}],"stateMutability":"nonpayable"},{"type":"event","name":"Approval","inputs":[{"name":"owner","type":"address","indexed":true,"internalType":"address"},{"name":"spender","type":"address","indexed":true,"internalType":"address"},{"name":"amount","type":"uint256","indexed":false,"internalType":"uint256"}],"anonymous":false},{"type":"event","name":"Transfer","inputs":[{"name":"from","type":"address","indexed":true,"internalType":"address"},{"name":"to","type":"address","indexed":true,"internalType":"address"},{"name":"amount","type":"uint256","indexed":false,"internalType":"uint256"}],"anonymous":false},{"type":"error","name":"AllowanceOverflow","inputs":[]},{"type":"error","name":"AllowanceUnderflow","inputs":[]},{"type":"error","name":"InsufficientAllowance","inputs":[]},{"type":"error","name":"InsufficientBalance","inputs":[]},{"type":"error","name":"InvalidPermit","inputs":[]},{"type":"error","name":"Permit2AllowanceIsFixedAtInfinity","inputs":[]},{"type":"error","name":"PermitExpired","inputs":[]},{"type":"error","name":"Reentrancy","inputs":[]},{"type":"error","name":"TotalSupplyOverflow","inputs":[]}],"bytecode":{"object":"0x6101608060405234620001fe5760e0816200214580380380916200002482856200021e565b833981010312620001fe576200003a8162000256565b620000486020830162000256565b91620000576040820162000256565b60608201519360808301519360c060a0850151940151918215158303620001fe5733608052600280546001600160a01b0319166001600160a01b0384811691821790925560a083905260c09590955261010097885261012096875261014095865260e08490529362000190575b5050505060405191611ed993846200026c853960805184818161047501526105e9015260a05184818161041e01528181610546015281816107f201528181610c5f01528181610eab01528181610ffb015281816114d60152611a57015260c05184818161017d0152818161067601528181610f880152611bd1015260e0518481816104bc0152818161062f015281816113fb01526118e10152518381816115b6015261198f01525182818161152e015281816119b401526119ea0152518181816101fb015261195b0152f35b602092156200021657505b6004604051809481936318160ddd60e01b8352165afa9081156200020b575f91620001cf575b506003555f808080620000c4565b90506020813d60201162000202575b81620001ed602093836200021e565b81010312620001fe57515f620001c1565b5f80fd5b3d9150620001de565b6040513d5f823e3d90fd5b90506200019b565b601f909101601f19168101906001600160401b038211908210176200024257604052565b634e487b7160e01b5f52604160045260245ffd5b51906001600160a01b0382168203620001fe5756fe6080604090808252600480361015610015575f80fd5b5f3560e01c91826306fdde03146116c3575081630902f1ac14611672578163095ea7b3146115d95781630c1e38471461159f5781630dfe16811461157757816318160ddd146115515781631e2f99311461151757816322950746146113df57816323b872dd146112fe578163313ce567146112e35781633644e5151461122c578163378dc3dc1461120e5781636a62784214610f445781636d9a640a14610b8d57816370a0823114610b5a5781637464fc3d14610b3c57816375172a8b14610aff5781637ecebe0014610acc57816389afcb441461077857816395d89b4114610735578163975f8f4614610719578163a9059cbb14610654578163ae0f15e014610618578163c45a0155146105d5578163c4d66de81461044d578163d21220a71461040a578163d505accf1461021e57508063d9f51a43146101e4578063dd62ed3e146101b05763f29ebf611461016a575f80fd5b346101ac575f3660031901126101ac57517f00000000000000000000000000000000000000000000000000000000000000006001600160a01b03168152602090f35b5f80fd5b50346101ac57806003193601126101ac576020906101dd6101cf611744565b6101d761175a565b90611a7b565b9051908152f35b50346101ac575f3660031901126101ac57602090517f00000000000000000000000000000000000000000000000000000000000000008152f35b82346101ac5760e03660031901126101ac57610238611744565b9061024161175a565b60443591606435926084359160ff831683036101ac576001600160a01b03938416956e22d473030f116ddee9f6b43ac78ba3871883191517156103fe5781519461028a866117a0565b600886526704f7369746f204c560c41b6020809701528642116103f2578251911695869465383775081901600e52855f5260c087600c20938454937f8b73c3c69bb8fe3d512ecc4cf759cc79239f7b179b0ffacaa9a75d522b39400f8252848a83017f432403850d0c026bcf6eb0567acc5f7ed78017e4821d92ee99418a1819fb058981528d8985017fc89efdaa54c0f20c7adf612882df0950f5a951637e0307cdcb4c672f298b8bc68152606086019c8d469052608087019330855260a08820602e527f6e71edae12b1b97f4d1f60370fef10105fa2faae0126114a169c64845d6126c988525252898b525260a082015220604e526042602c205f5260ff16865260a435835260c435606052858060805f60015afa90873d51036103e6577f8c5be1e5ebec7d5bd14f71427d1e84f3dd0314c0f7b2291e5b200ac8c7c3b92597989950019055866303faf4f960a51b1790526034602c2055a3005b8963ddafbaef5f52601cfd5b88631a15a3cc5f52601cfd5b87633f68539a5f52601cfd5b82346101ac575f3660031901126101ac57517f00000000000000000000000000000000000000000000000000000000000000006001600160a01b03168152602090f35b9050346101ac576020806003193601126101ac57610469611744565b6001600160a01b0392907f0000000000000000000000000000000000000000000000000000000000000000841633036105a45760025484811661056b576001600160a01b031916848216176002558291907f00000000000000000000000000000000000000000000000000000000000000001561054357905b85516318160ddd60e01b81529485928391165afa92831561053a57505f9261050c575b6003839055005b90809250813d8311610533575b61052381836117bc565b810103126101ac57515f80610505565b503d610519565b513d5f823e3d90fd5b507f0000000000000000000000000000000000000000000000000000000000000000906104e2565b855162461bcd60e51b815280840185905260136024820152721053149150511657d253925512505312569151606a1b6044820152606490fd5b5060649184519162461bcd60e51b8352820152600c60248201526b15539055551213d49256915160a21b6044820152fd5b82346101ac575f3660031901126101ac57517f00000000000000000000000000000000000000000000000000000000000000006001600160a01b03168152602090f35b82346101ac575f3660031901126101ac57602090517f000000000000000000000000000000000000000000000000000000000000000015158152f35b82346101ac57806003193601126101ac5761066d611744565b602435906106b47f00000000000000000000000000000000000000000000000000000000000000006001600160a01b0390811690831690811490811561070f575b5061180f565b6387a211a2600c52335f5260209384600c2090815490818511610704575083900390555f5282600c208181540190558252600c5160601c335f80516020611e848339815191528480a35160018152f35b63f4d678b85f52601cfd5b90503014866106ae565b82346101ac575f3660031901126101ac576020906101dd6118df565b82346101ac575f3660031901126101ac57805161077491610755826117a0565b600882526704f5349544f2d4c560c41b602083015251918291826116fd565b0390f35b9050346101ac576020806003193601126101ac57610794611744565b9068929eee149b4bd2126830815414610ac0573081556107b26117de565b60025486516370a0823160e01b80825230828901529096916001600160a01b03919086908990602490829086165afa9788156109b9575f98610a91575b507f000000000000000000000000000000000000000000000000000000000000000092828416928a5198838a5230838b0152888a602481885afa998a15610a87575f9a610a58575b506387a211a29586600c52305f5289600c20546001600160701b0398898c818351169201511661086691611bcc565b976805345cdf77eb68f44c9081549e8f906108819085611869565b9061088b9161187c565b9e8f9e6108989085611869565b906108a29161187c565b9d151580610a4f575b15610a0c57600c52305f528b600c208054808411610a0057938f8f93908f97939561090392610908978260249d9c9a0390558181540390555f525f305f80516020611e848339815191528a83a3838760025416611e0d565b611e0d565b600254168c519384809287825230868301525afa9283156109f65788925f946109c3575b506024908c519586938492835230908301525afa9081156109b9575f91610988575b6109589250611da8565b61096b575b503890558351928352820152f35b61097f905f5490808260701c169116611869565b6001555f61095d565b90508582813d83116109b2575b61099f81836117bc565b810103126101ac5761095891519061094e565b503d610995565b89513d5f823e3d90fd5b8381949295503d83116109ef575b6109db81836117bc565b810103126101ac576024889251939061092c565b503d6109d1565b8b513d5f823e3d90fd5b8763f4d678b85f52601cfd5b8f5162461bcd60e51b81528088018e9052601d60248201527f494e53554646494349454e545f4c49515549444954595f4255524e45440000006044820152606490fd5b508d15156108ab565b9099508881813d8311610a80575b610a7081836117bc565b810103126101ac5751985f610837565b503d610a66565b8c513d5f823e3d90fd5b9097508581813d8311610ab9575b610aa981836117bc565b810103126101ac5751965f6107ef565b503d610a9f565b8363ab143c065f52601cfd5b82346101ac5760203660031901126101ac57602090610ae9611744565b6338377508600c525f5281600c20549051908152f35b82346101ac575f3660031901126101ac575f5490516001600160701b038083168252607083901c16602082015260e09190911c6040820152606090f35b82346101ac575f3660031901126101ac576020906001549051908152f35b82346101ac5760203660031901126101ac57602090610b77611744565b6387a211a2600c525f5281600c20549051908152f35b9050346101ac5760603660031901126101ac57604435906001600160a01b03908035906024803584861686036101ac5768929eee149b4bd212689530875414610ac05730875584159182158093610f3b575b15610ef957610bec6117de565b916001600160701b039384845116881080610eea575b610c0b9061189a565b610ed6575b8180610ea5575b505086600254169289519687946370a0823160e01b908187523089880152868860209889935afa988915610a87575f99610e76575b508590878d51809c81938252308c8301527f0000000000000000000000000000000000000000000000000000000000000000165afa9889156109f6575f99610e47575b50610c9d8183865116611848565b881115610e4057610cb4610cba9183865116611848565b88611848565b84840192610ccb8184865116611848565b8a1115610e3857610ce2610ce89184865116611848565b8a611848565b905b8015801590610e2f575b15610dec57610d016118df565b61271091828b02908b820484148c151715610dda5790610d2483610d2a93611869565b90611848565b92828c02928c8404148c151715610dc85792610d54859493610d24610d5a94610d66999896611869565b90611869565b94511691511690611869565b906305f5e10091828102928184041490151715610db65710610d925785610d8d8686611da8565b389055005b865162461bcd60e51b815292830152600190820152604b60f81b6044820152606490fd5b83601186634e487b7160e01b5f52525ffd5b8860118b634e487b7160e01b5f52525ffd5b8960118c634e487b7160e01b5f52525ffd5b508a5162461bcd60e51b81528088018690526019818801527f494e53554646494349454e545f494e5055545f414d4f554e54000000000000006044820152606490fd5b50811515610cf4565b505f90610cea565b505f610cba565b9098508481813d8311610e6f575b610e5f81836117bc565b810103126101ac5751975f610c8f565b503d610e55565b9098508581813d8311610e9e575b610e8e81836117bc565b810103126101ac57519785610c4c565b503d610e84565b610ecf917f0000000000000000000000000000000000000000000000000000000000000000611e0d565b5f81610c17565b610ee587828a60025416611e0d565b610c10565b50602084015185168310610c02565b885162461bcd60e51b8152602081870152601a818601527f494e53554646494349454e545f4f55545055545f414d4f554e540000000000006044820152606490fd5b50801515610bdf565b9050346101ac57602091826003193601126101ac57610f61611744565b68929eee149b4bd212689030825414610ac0573082556001600160a01b0393610faf8286167f000000000000000000000000000000000000000000000000000000000000000087161461180f565b610fb76117de565b94806002541685519088826024816370a0823160e01b9485825230898301525afa918215611204579089915f936111d3575b506024885180958193825230888301527f0000000000000000000000000000000000000000000000000000000000000000165afa9182156111c9575f9261119a575b506001600160701b03936110428589511683611848565b9389890198611054878b511686611848565b61106588835116898d511690611bcc565b966805345cdf77eb68f44c9b8c549384155f1461114d5750506110909161108b91611869565b611cc4565b6103e719810190811161113a57996103e89283830192831061112f5750926110fe928b92611103979695556387a211a2600c5261dead5f528c600c208181540190558c528b5f5f80516020611e84833981519152600c5160601c9280a35b6110f982151561189a565b611d50565b611da8565b611112575b5038905551908152f35b611126905f5490808260701c169116611869565b6001555f611108565b63e5cfe9575f52601cfd5b601183634e487b7160e01b5f525260245ffd5b6111039897969d506110fe95508461117c611173928d6111736111829899829798611869565b9151169061187c565b95611869565b8082101561119357505b80996110ee565b905061118c565b9091508781813d83116111c2575b6111b281836117bc565b810103126101ac5751905f61102b565b503d6111a8565b86513d5f823e3d90fd5b8281939294503d83116111fd575b6111eb81836117bc565b810103126101ac57889051915f610fe9565b503d6111e1565b87513d5f823e3d90fd5b82346101ac575f3660031901126101ac576020906003549051908152f35b82346101ac575f3660031901126101ac57806704f7369746f204c560c41b6020809351611258816117a0565b60088152015260a081517f8b73c3c69bb8fe3d512ecc4cf759cc79239f7b179b0ffacaa9a75d522b39400f81527f432403850d0c026bcf6eb0567acc5f7ed78017e4821d92ee99418a1819fb0589848201527fc89efdaa54c0f20c7adf612882df0950f5a951637e0307cdcb4c672f298b8bc683820152466060820152306080820152209051908152f35b82346101ac575f3660031901126101ac576020905160128152f35b82346101ac5760603660031901126101ac57611318611744565b61132061175a565b604435908260601b6e22d473030f116ddee9f6b43ac78ba33303611396575b6387a211a217600c5260209485600c2090815490818511610704575083900390555f52600c8481208054830190559084525160601c906001600160a01b03165f80516020611e848339815191528480a35160018152f35b33602052637f5e9f208117600c526034600c209081549182196113bc575b50905061133f565b8285116113d357846387a211a293039055876113b4565b876313be252b5f52601cfd5b82346101ac575f3660031901126101ac576113f86117de565b917f00000000000000000000000000000000000000000000000000000000000000008015611502576001600160701b0380855116945b82156114fa576020015116905b156114d2576002546020906001600160a01b03165b84516318160ddd60e01b815293849182906001600160a01b03165afa9182156114c8575f92611491575b50926101dd9160209461148b6118df565b92611ac5565b9150926020823d6020116114c0575b816114ad602093836117bc565b810103126101ac5790519092602061147a565b3d91506114a0565b83513d5f823e3d90fd5b60207f0000000000000000000000000000000000000000000000000000000000000000611450565b51169061143b565b6001600160701b03806020860151169461142e565b82346101ac575f3660031901126101ac57602090517f00000000000000000000000000000000000000000000000000000000000000008152f35b82346101ac575f3660031901126101ac576020906805345cdf77eb68f44c549051908152f35b82346101ac575f3660031901126101ac5760025490516001600160a01b039091168152602090f35b82346101ac575f3660031901126101ac57602090517f00000000000000000000000000000000000000000000000000000000000000008152f35b82346101ac57806003193601126101ac576115f2611744565b602435906001600160a01b0381166e22d473030f116ddee9f6b43ac78ba318821915171561166657602080945052637f5e9f20600c52335f52806034600c20555f52602c5160601c337f8c5be1e5ebec7d5bd14f71427d1e84f3dd0314c0f7b2291e5b200ac8c7c3b925845fa35160018152f35b83633f68539a5f52601cfd5b82346101ac575f3660031901126101ac5761168b6117de565b80516020808301519284015193516001600160701b039283168152919092169181019190915263ffffffff9091166040820152606090f35b8390346101ac575f3660031901126101ac57610774916116e2826117a0565b600882526704f7369746f204c560c41b602083015251918291825b602080825282518183018190529093925f5b82811061173057505060409293505f838284010152601f8019910116010190565b81810186015184820160400152850161170f565b600435906001600160a01b03821682036101ac57565b602435906001600160a01b03821682036101ac57565b6060810190811067ffffffffffffffff82111761178c57604052565b634e487b7160e01b5f52604160045260245ffd5b6040810190811067ffffffffffffffff82111761178c57604052565b90601f8019910116810190811067ffffffffffffffff82111761178c57604052565b604051906117eb82611770565b8160405f546001600160701b0380821684528160701c16602084015260e01c910152565b1561181657565b60405162461bcd60e51b815260206004820152600a602482015269149154d5149250d5115160b21b6044820152606490fd5b9190820391821161185557565b634e487b7160e01b5f52601160045260245ffd5b8181029291811591840414171561185557565b8115611886570490565b634e487b7160e01b5f52601260045260245ffd5b156118a157565b60405162461bcd60e51b8152602060048201526016602482015275494e53554646494349454e545f4c495155494449545960501b6044820152606490fd5b7f000000000000000000000000000000000000000000000000000000000000000015611a51576002546004906020906001600160a01b03165b6040516318160ddd60e01b815292839182906001600160a01b03165afa908115611a46575f91611a14575b506003549080821115611a0c5761195991611848565b7f000000000000000000000000000000000000000000000000000000000000000090818110156119e657610d246119e3926119de7f0000000000000000000000000000000000000000000000000000000000000000936119d97f000000000000000000000000000000000000000000000000000000000000000086611848565b611869565b61187c565b90565b50507f000000000000000000000000000000000000000000000000000000000000000090565b50505f611959565b90506020813d602011611a3e575b81611a2f602093836117bc565b810103126101ac57515f611943565b3d9150611a22565b6040513d5f823e3d90fd5b600460207f0000000000000000000000000000000000000000000000000000000000000000611918565b906001600160a01b0381166e22d473030f116ddee9f6b43ac78ba314611ab157602052637f5e9f20600c525f526034600c205490565b50505f1990565b9190820180921161185557565b91908115611bc45781831015611b8557611ae983611ae38382611869565b93611848565b61271094850390858211611855578181029181159183041417850215611b7157611b1885611b1f920485611ab8565b938361187c565b03611b7e57670de0b6b3a764000090828282029183818404149015170215611b71578280910482810292818404149015170215611b715704816126de9182810292818404149015170215611b71570490565b63ad251c275f526004601cfd5b5050505f90565b9192505081670de0b6b3a76400009182810292818404149015170215611b7157046126de80820290612710928391818404149015170215611b71570490565b505050505f90565b6001547f00000000000000000000000000000000000000000000000000000000000000006001600160a01b0381161580159594919390611cb45782611c12575b50505050565b611c28916001600160701b038091169116611869565b818111611c36575b80611c0c565b611c42611c4891611cc4565b91611cc4565b906805345cdf77eb68f44c54828211611c62575b50611c30565b611c7090610d548484611848565b9060058102908082046005149015171561185557611c9792611c9191611ab8565b9061187c565b80611ca4575b8080611c5c565b611cad91611d50565b5f80611c9d565b50509050611cbe57565b5f600155565b8070ffffffffffffffffffffffffffffffffff1060071b81811c68ffffffffffffffffff1060061b1781811c64ffffffffff1060051b1781811c62ffffff1060041b1760019060b56201000084831c0191831c1b0260121c80830401811c80830401811c80830401811c80830401811c80830401811c80830401811c80830401901c8080920410900390565b6805345cdf77eb68f44c805490838201918210611d9b57556387a211a2600c525f526020600c20818154019055602052600c5160601c5f5f80516020611e84833981519152602080a3565b63e5cfe9575f526004601cfd5b611db4611dba91611e5e565b91611e5e565b90604051611dc781611770565b6001600160701b038092169182825283166020820152604063ffffffff421691015263ffffffff60e01b4260e01b16916001600160701b0360701b9060701b1617175f55565b919060145260345263a9059cbb60601b5f5260205f6044601082855af1908160015f51141615611e40575b50505f603452565b3b153d171015611e51575f80611e38565b6390b8ec185f526004601cfd5b600160701b811015611e76576001600160701b031690565b6335278d125f526004601cfdfeddf252ad1be2c89b69c2b068fc378daa952ba7f163c4a11628f55a4df523b3efa26469706673582212207fde9800f6a56644b962ec283e3eefc1fe9309a6301deb6effd7574635bfa50364736f6c63430008180033","linkReferences":{}},"methodIdentifiers":{"DOMAIN_SEPARATOR()":"3644e515","allowance(address,address)":"dd62ed3e","approve(address,uint256)":"095ea7b3","balanceOf(address)":"70a08231","burn(address)":"89afcb44","currentFeeBps()":"975f8f46","decimals()":"313ce567","endFeeBps()":"1e2f9931","factory()":"c45a0155","feeDecayTarget()":"d9f51a43","feeRouter()":"f29ebf61","getReserves()":"0902f1ac","initialSupply()":"378dc3dc","initialize(address)":"c4d66de8","kLast()":"7464fc3d","mint(address)":"6a627842","name()":"06fdde03","nonces(address)":"7ecebe00","pMin()":"22950746","permit(address,address,uint256,uint256,uint8,bytes32,bytes32)":"d505accf","reserves()":"75172a8b","startFeeBps()":"0c1e3847","swap(uint256,uint256,address)":"6d9a640a","symbol()":"95d89b41","tokIsToken0()":"ae0f15e0","token0()":"0dfe1681","token1()":"d21220a7","totalSupply()":"18160ddd","transfer(address,uint256)":"a9059cbb","transferFrom(address,address,uint256)":"23b872dd"},"id":28}