{"abi":[{"type":"constructor","inputs":[{"name":"_token0","type":"address","internalType":"address"},{"name":"_token1","type":"address","internalType":"address"},{"name":"_feeRouter","type":"address","internalType":"address"},{"name":"_startFeeBps","type":"uint256","internalType":"uint256"},{"name":"_endFeeBps","type":"uint256","internalType":"uint256"},{"name":"_feeDecayTarget","type":"uint256","internalType":"uint256"},{"name":"_tokIsToken0","type":"bool","internalType":"bool"}],"stateMutability":"nonpayable"},{"type":"function","name":"DOMAIN_SEPARATOR","inputs":[],"outputs":[{"name":"result","type":"bytes32","internalType":"bytes32"}],"stateMutability":"view"},{"type":"function","name":"allowance","inputs":[{"name":"owner","type":"address","internalType":"address"},{"name":"spender","type":"address","internalType":"address"}],"outputs":[{"name":"result","type":"uint256","internalType":"uint256"}],"stateMutability":"view"},{"type":"function","name":"approve","inputs":[{"name":"spender","type":"address","internalType":"address"},{"name":"amount","type":"uint256","internalType":"uint256"}],"outputs":[{"name":"","type":"bool","internalType":"bool"}],"stateMutability":"nonpayable"},{"type":"function","name":"balanceOf","inputs":[{"name":"owner","type":"address","internalType":"address"}],"outputs":[{"name":"result","type":"uint256","internalType":"uint256"}],"stateMutability":"view"},{"type":"function","name":"burn","inputs":[{"name":"to","type":"address","internalType":"address"}],"outputs":[{"name":"amt0","type":"uint256","internalType":"uint256"},{"name":"amt1","type":"uint256","internalType":"uint256"}],"stateMutability":"nonpayable"},{"type":"function","name":"collectFees","inputs":[],"outputs":[],"stateMutability":"nonpayable"},{"type":"function","name":"currentFeeBps","inputs":[],"outputs":[{"name":"","type":"uint256","internalType":"uint256"}],"stateMutability":"view"},{"type":"function","name":"decimals","inputs":[],"outputs":[{"name":"","type":"uint8","internalType":"uint8"}],"stateMutability":"pure"},{"type":"function","name":"endFeeBps","inputs":[],"outputs":[{"name":"","type":"uint256","internalType":"uint256"}],"stateMutability":"view"},{"type":"function","name":"factory","inputs":[],"outputs":[{"name":"","type":"address","internalType":"address"}],"stateMutability":"view"},{"type":"function","name":"feeDecayTarget","inputs":[],"outputs":[{"name":"","type":"uint256","internalType":"uint256"}],"stateMutability":"view"},{"type":"function","name":"feeRouter","inputs":[],"outputs":[{"name":"","type":"address","internalType":"address"}],"stateMutability":"view"},{"type":"function","name":"getReserves","inputs":[],"outputs":[{"name":"r0","type":"uint112","internalType":"uint112"},{"name":"r1","type":"uint112","internalType":"uint112"},{"name":"blockTimestampLast","type":"uint32","internalType":"uint32"}],"stateMutability":"view"},{"type":"function","name":"initialSupply","inputs":[],"outputs":[{"name":"","type":"uint256","internalType":"uint256"}],"stateMutability":"view"},{"type":"function","name":"initialize","inputs":[{"name":"_token0","type":"address","internalType":"address"}],"outputs":[],"stateMutability":"nonpayable"},{"type":"function","name":"kLast","inputs":[],"outputs":[{"name":"","type":"uint256","internalType":"uint256"}],"stateMutability":"view"},{"type":"function","name":"mint","inputs":[{"name":"to","type":"address","internalType":"address"}],"outputs":[{"name":"liquidity","type":"uint256","internalType":"uint256"}],"stateMutability":"nonpayable"},{"type":"function","name":"name","inputs":[],"outputs":[{"name":"","type":"string","internalType":"string"}],"stateMutability":"pure"},{"type":"function","name":"nonces","inputs":[{"name":"owner","type":"address","internalType":"address"}],"outputs":[{"name":"result","type":"uint256","internalType":"uint256"}],"stateMutability":"view"},{"type":"function","name":"pMin","inputs":[],"outputs":[{"name":"","type":"uint256","internalType":"uint256"}],"stateMutability":"view"},{"type":"function","name":"permit","inputs":[{"name":"owner","type":"address","internalType":"address"},{"name":"spender","type":"address","internalType":"address"},{"name":"value","type":"uint256","internalType":"uint256"},{"name":"deadline","type":"uint256","internalType":"uint256"},{"name":"v","type":"uint8","internalType":"uint8"},{"name":"r","type":"bytes32","internalType":"bytes32"},{"name":"s","type":"bytes32","internalType":"bytes32"}],"outputs":[],"stateMutability":"nonpayable"},{"type":"function","name":"reserves","inputs":[],"outputs":[{"name":"r0","type":"uint112","internalType":"uint112"},{"name":"r1","type":"uint112","internalType":"uint112"},{"name":"blockTimestampLast","type":"uint32","internalType":"uint32"}],"stateMutability":"view"},{"type":"function","name":"setFeeRouter","inputs":[{"name":"_feeRouter","type":"address","internalType":"address"}],"outputs":[],"stateMutability":"nonpayable"},{"type":"function","name":"startFeeBps","inputs":[],"outputs":[{"name":"","type":"uint256","internalType":"uint256"}],"stateMutability":"view"},{"type":"function","name":"swap","inputs":[{"name":"a0Out","type":"uint256","internalType":"uint256"},{"name":"a1Out","type":"uint256","internalType":"uint256"},{"name":"to","type":"address","internalType":"address"}],"outputs":[],"stateMutability":"nonpayable"},{"type":"function","name":"symbol","inputs":[],"outputs":[{"name":"","type":"string","internalType":"string"}],"stateMutability":"pure"},{"type":"function","name":"tokIsToken0","inputs":[],"outputs":[{"name":"","type":"bool","internalType":"bool"}],"stateMutability":"view"},{"type":"function","name":"token0","inputs":[],"outputs":[{"name":"","type":"address","internalType":"address"}],"stateMutability":"view"},{"type":"function","name":"token1","inputs":[],"outputs":[{"name":"","type":"address","internalType":"address"}],"stateMutability":"view"},{"type":"function","name":"totalSupply","inputs":[],"outputs":[{"name":"result","type":"uint256","internalType":"uint256"}],"stateMutability":"view"},{"type":"function","name":"transfer","inputs":[{"name":"to","type":"address","internalType":"address"},{"name":"amount","type":"uint256","internalType":"uint256"}],"outputs":[{"name":"","type":"bool","internalType":"bool"}],"stateMutability":"nonpayable"},{"type":"function","name":"transferFrom","inputs":[{"name":"from","type":"address","internalType":"address"},{"name":"to","type":"address","internalType":"address"},{"name":"amount","type":"uint256","internalType":"uint256"}],"outputs":[{"name":"","type":"bool","internalType":"bool"}],"stateMutability":"nonpayable"},{"type":"event","name":"Approval","inputs":[{"name":"owner","type":"address","indexed":true,"internalType":"address"},{"name":"spender","type":"address","indexed":true,"internalType":"address"},{"name":"amount","type":"uint256","indexed":false,"internalType":"uint256"}],"anonymous":false},{"type":"event","name":"Burn","inputs":[{"name":"sender","type":"address","indexed":true,"internalType":"address"},{"name":"amount0","type":"uint256","indexed":false,"internalType":"uint256"},{"name":"amount1","type":"uint256","indexed":false,"internalType":"uint256"},{"name":"to","type":"address","indexed":true,"internalType":"address"}],"anonymous":false},{"type":"event","name":"FeeRouterSet","inputs":[{"name":"oldRouter","type":"address","indexed":true,"internalType":"address"},{"name":"newRouter","type":"address","indexed":true,"internalType":"address"}],"anonymous":false},{"type":"event","name":"Mint","inputs":[{"name":"sender","type":"address","indexed":true,"internalType":"address"},{"name":"amount0","type":"uint256","indexed":false,"internalType":"uint256"},{"name":"amount1","type":"uint256","indexed":false,"internalType":"uint256"}],"anonymous":false},{"type":"event","name":"Swap","inputs":[{"name":"sender","type":"address","indexed":true,"internalType":"address"},{"name":"amount0In","type":"uint256","indexed":false,"internalType":"uint256"},{"name":"amount1In","type":"uint256","indexed":false,"internalType":"uint256"},{"name":"amount0Out","type":"uint256","indexed":false,"internalType":"uint256"},{"name":"amount1Out","type":"uint256","indexed":false,"internalType":"uint256"},{"name":"to","type":"address","indexed":true,"internalType":"address"}],"anonymous":false},{"type":"event","name":"Sync","inputs":[{"name":"reserve0","type":"uint112","indexed":false,"internalType":"uint112"},{"name":"reserve1","type":"uint112","indexed":false,"internalType":"uint112"}],"anonymous":false},{"type":"event","name":"Transfer","inputs":[{"name":"from","type":"address","indexed":true,"internalType":"address"},{"name":"to","type":"address","indexed":true,"internalType":"address"},{"name":"amount","type":"uint256","indexed":false,"internalType":"uint256"}],"anonymous":false},{"type":"error","name":"AllowanceOverflow","inputs":[]},{"type":"error","name":"AllowanceUnderflow","inputs":[]},{"type":"error","name":"InsufficientAllowance","inputs":[]},{"type":"error","name":"InsufficientBalance","inputs":[]},{"type":"error","name":"InvalidPermit","inputs":[]},{"type":"error","name":"Permit2AllowanceIsFixedAtInfinity","inputs":[]},{"type":"error","name":"PermitExpired","inputs":[]},{"type":"error","name":"Reentrancy","inputs":[]},{"type":"error","name":"TotalSupplyOverflow","inputs":[]}],"bytecode":{"object":"0x6101408060405234620001e65760e081620023e0803803809162000024828562000206565b833981010312620001e6576200003a816200023e565b9062000049602082016200023e565b9162000058604083016200023e565b60608301519160808401519460c060a0860151950151928315158403620001e6573360805260018060a01b0394858416918660018060a01b031991848360025416176002558560a0521690600354161760035560e0526101009687526101209586528360c05262000178575b60405161218c9086888362000254843960805183818161050801528181610616015261066e015260a051838181610419015281816105de015281816108ca01528181610d7401528181610ffb0152818161113b015281816116b40152611cb5015260c0518381816105510152818161072a015281816115d90152611b3f015260e0518381816117940152611bed01525182818161170c01528181611c120152611c480152518181816101f60152611bb90152f35b60209215620001fe57505b6004604051809481936318160ddd60e01b8352165afa908115620001f3575f91620001b7575b506004555f808080620000c4565b90506020813d602011620001ea575b81620001d56020938362000206565b81010312620001e657515f620001a9565b5f80fd5b3d9150620001c6565b6040513d5f823e3d90fd5b905062000183565b601f909101601f19168101906001600160401b038211908210176200022a57604052565b634e487b7160e01b5f52604160045260245ffd5b51906001600160a01b0382168203620001e65756fe6080604090808252600480361015610015575f80fd5b5f3560e01c91826306fdde03146118a1575081630902f1ac14611850578163095ea7b3146117b75781630c1e38471461177d5781630dfe16811461175557816318160ddd1461172f5781631e2f9931146116f557816322950746146115bd57816323b872dd146114b5578163313ce5671461149a5781633644e515146113e3578163378dc3dc146113c75781636a627842146110945781636d9a640a14610c9c57816370a0823114610c695781637464fc3d14610c4b57816375172a8b14610c0e5781637ecebe0014610bdb57816389afcb441461085557816395d89b4114610812578163975f8f46146107f6578163a9059cbb1461074f578163ae0f15e014610713578163c267ada414610645578163c45a015514610602578163c4d66de8146104de578163c879657214610448578163d21220a714610405578163d505accf1461021957508063d9f51a43146101df578063dd62ed3e146101ab5763f29ebf6114610180575f80fd5b346101a7575f3660031901126101a75760035490516001600160a01b039091168152602090f35b5f80fd5b50346101a757806003193601126101a7576020906101d86101ca611922565b6101d2611938565b90611d14565b9051908152f35b50346101a7575f3660031901126101a757602090517f00000000000000000000000000000000000000000000000000000000000000008152f35b82346101a75760e03660031901126101a757610233611922565b9061023c611938565b60443591606435926084359160ff831683036101a7576001600160a01b03938416956e22d473030f116ddee9f6b43ac78ba3871883191517156103f9578151946102858661197e565b600886526704f7369746f204c560c41b6020809701528642116103ed578251911695869465383775081901600e52855f5260c087600c20938454937f8b73c3c69bb8fe3d512ecc4cf759cc79239f7b179b0ffacaa9a75d522b39400f8252848a83017f432403850d0c026bcf6eb0567acc5f7ed78017e4821d92ee99418a1819fb058981528d8985017fc89efdaa54c0f20c7adf612882df0950f5a951637e0307cdcb4c672f298b8bc68152606086019c8d469052608087019330855260a08820602e527f6e71edae12b1b97f4d1f60370fef10105fa2faae0126114a169c64845d6126c988525252898b525260a082015220604e526042602c205f5260ff16865260a435835260c435606052858060805f60015afa90873d51036103e1577f8c5be1e5ebec7d5bd14f71427d1e84f3dd0314c0f7b2291e5b200ac8c7c3b92597989950019055866303faf4f960a51b1790526034602c2055a3005b8963ddafbaef5f52601cfd5b88631a15a3cc5f52601cfd5b87633f68539a5f52601cfd5b82346101a7575f3660031901126101a757517f00000000000000000000000000000000000000000000000000000000000000006001600160a01b03168152602090f35b346101a7575f3660031901126101a75768929eee149b4bd2126890308254146104d3575030815561048460018060a01b03600354163314611a26565b61048c6119bc565b6001600160701b0380825116906104ab60208401928284511690611e4f565b506001546104b857388455005b806104c893511691511690611ac7565b600155818080388455005b63ab143c065f52601cfd5b9050346101a75760203660031901126101a7576104f9611922565b6001600160a01b039061052f337f0000000000000000000000000000000000000000000000000000000000000000841614611cd9565b60025461053e83821615611a64565b6001600160a01b031916818316176002557f0000000000000000000000000000000000000000000000000000000000000000156105d9576020905b838551809481936318160ddd60e01b8352165afa9283156105d057505f9261059f575055005b9091506020813d6020116105c8575b816105bb6020938361199a565b810103126101a757519055005b3d91506105ae565b513d5f823e3d90fd5b5060207f0000000000000000000000000000000000000000000000000000000000000000610579565b82346101a7575f3660031901126101a757517f00000000000000000000000000000000000000000000000000000000000000006001600160a01b03168152602090f35b82346101a75760203660031901126101a75761065f611922565b6001600160a01b0390610695337f0000000000000000000000000000000000000000000000000000000000000000841614611cd9565b6003549382851693846106e25750501680926bffffffffffffffffffffffff60a01b16176003557fe7f2ec24c1dc728e0b1df4cd4a80b136f2b519236115f081809e6b8b0becc0f65f80a3005b906020606492519162461bcd60e51b8352820152600b60248201526a1053149150511657d4d15560aa1b6044820152fd5b82346101a7575f3660031901126101a757602090517f000000000000000000000000000000000000000000000000000000000000000015158152f35b82346101a757806003193601126101a757610768611922565b6003546024359190610791906001600160a01b03808416911681149081156107ec575b506119ed565b6387a211a2600c52335f5260209384600c20908154908185116107e1575083900390555f5282600c208181540190558252600c5160601c335f805160206121378339815191528480a35160018152f35b63f4d678b85f52601cfd5b905030148661078b565b82346101a7575f3660031901126101a7576020906101d8611b3d565b82346101a7575f3660031901126101a7578051610851916108328261197e565b600882526704f5349544f2d4c560c41b602083015251918291826118db565b0390f35b9050346101a757602090816003193601126101a757610872611922565b9168929eee149b4bd2126830815414610bcf573081556108906119bc565b9360018060a01b0380600254169587519685886024816370a0823160e01b94858252308c8301525afa978815610bc5575f98610b96575b507f000000000000000000000000000000000000000000000000000000000000000090838216908a5198818a5230818b0152888a602481865afa998a15610b8c575f9a610b5d575b506387a211a29384600c52305f5289600c20546001600160701b0396878c818351169201511661093e91611e4f565b956805345cdf77eb68f44c9081549e8f906109599085611ac7565b9061096391611ada565b9e8f9e6109709085611ac7565b9061097a91611ada565b9d151580610b54575b15610b1157600c52305f528b600c208054808411610b0557938f8f93908f5f908f95976109db946109e0998260249d9c03905581815403905582525f80516020612137833981519152309183a3838d600254166120c0565b6120c0565b898d886002541690519384809287825230868301525afa928d84156105d0578b935f95610ad1575b5090602491519586938492835230908301525afa908115610ac7575f91610a96575b610a349250612026565b610a79575b50865191868352858584015216907fdccd412f0b1252819cb1fd330b93224ca42612892bb3f4f789976e6d81936496873392a33890558351928352820152f35b610a8d905f5490808260701c169116611ac7565b6001555f610a39565b90508782813d8311610ac0575b610aad818361199a565b810103126101a757610a34915190610a2a565b503d610aa3565b8b513d5f823e3d90fd5b9450509183813d8311610afe575b610ae9818361199a565b810103126101a75791519189918d6024610a08565b503d610adf565b8563f4d678b85f52601cfd5b8f5162461bcd60e51b81528086018e9052601d60248201527f494e53554646494349454e545f4c49515549444954595f4255524e45440000006044820152606490fd5b508d1515610983565b9099508881813d8311610b85575b610b75818361199a565b810103126101a75751985f61090f565b503d610b6b565b8c513d5f823e3d90fd5b9097508581813d8311610bbe575b610bae818361199a565b810103126101a75751965f6108c7565b503d610ba4565b89513d5f823e3d90fd5b8263ab143c065f52601cfd5b82346101a75760203660031901126101a757602090610bf8611922565b6338377508600c525f5281600c20549051908152f35b82346101a7575f3660031901126101a7575f5490516001600160701b038083168252607083901c16602082015260e09190911c6040820152606090f35b82346101a7575f3660031901126101a7576020906001549051908152f35b82346101a75760203660031901126101a757602090610c86611922565b6387a211a2600c525f5281600c20549051908152f35b82346101a75760603660031901126101a7576001600160a01b0391604435838116929091602480359282359290918686036101a75768929eee149b4bd212689730895414610bcf573089558415928315809461108b575b1561104957610d006119bc565b976001600160701b0394858a511688108061103a575b610d1f90611af8565b611026575b8780610ff5575b505081600254169085519384926370a0823160e01b908185523084860152848360209889935afa938415610feb579086915f95610fba575b5082895180978193825230878301527f0000000000000000000000000000000000000000000000000000000000000000165afa938415610fb0575f94610f81575b50610db288878c5116611aa6565b831115610f7a57610dcf610dc989888d5116611aa6565b84611aa6565b995b858101610de18b89835116611aa6565b861115610f7357610dfe610df88c8a845116611aa6565b87611aa6565b975b8c15801590610f6a575b15610f2857610e17611b3d565b612710808802888104821489151715610f16578f90610e3984610e3f93611ac7565b90611aa6565b91818a02918a8304148a151715610f16578392610e69610e7b969593610e398f94610e6f95611ac7565b90611ac7565b94511691511690611ac7565b906305f5e10091828102928184041490151715610f045710610ede57505090610ea391612026565b825195865285015283015260608201527fd78ad95fa46c994b6551d0da85fc275fe613ce37657fb8d5e3d130840159d82260803392a3389055005b865162461bcd60e51b8152918201859052600190820152604b60f81b6044820152606490fd5b82601185634e487b7160e01b5f52525ffd5b86601189634e487b7160e01b5f52525ffd5b895162461bcd60e51b81528086018990526019818601527f494e53554646494349454e545f494e5055545f414d4f554e54000000000000006044820152606490fd5b50881515610e0a565b5f97610e00565b5f99610dd1565b9093508481813d8311610fa9575b610f99818361199a565b810103126101a75751928c610da4565b503d610f8f565b87513d5f823e3d90fd5b8281939296503d8311610fe4575b610fd2818361199a565b810103126101a757859051938e610d63565b503d610fc8565b88513d5f823e3d90fd5b61101f917f00000000000000000000000000000000000000000000000000000000000000006120c0565b8a87610d2b565b611035878285600254166120c0565b610d24565b5060208a015186168910610d16565b606490601a84602088519362461bcd60e51b85528401528201527f494e53554646494349454e545f4f55545055545f414d4f554e540000000000006044820152fd5b50861515610cf3565b9050346101a757602091826003193601126101a7576110b1611922565b9168929eee149b4bd2126890308254146104d3573082556001600160a01b03908482168061137357506110ee6805345cdf77eb68f44c5415611a64565b6110f66119bc565b9180600254169285519388856024816370a0823160e01b9485825230898301525afa948515610fb0579089915f96611342575b506024885180958193825230888301527f0000000000000000000000000000000000000000000000000000000000000000165afa918215611338575f92611309575b506001600160701b03916111828383511686611aa6565b9489830198611194858b511684611aa6565b956111a686865116878d511690611e4f565b946805345cdf77eb68f44c9b8c549182155f146112bc5750506111d16111cc898b611ac7565b611f42565b6103e71981019081116112a9579b6103e89283830192831061129e57509261123f928e8e93611244989796556387a211a2600c5261dead5f5280600c20828154019055528d5f5f80516020612137833981519152600c5160601c9280a35b61123a821515611af8565b611fce565b612026565b611281575b508351918252858201527f4c209b5fc8ad50758f13e2e1088ba56a560dff690a1c6fef26394f4c03821c4f833392a238905551908152f35b611295905f5490808260701c169116611ac7565b6001555f611249565b63e5cfe9575f52601cfd5b601183634e487b7160e01b5f525260245ffd5b6112449695949d5061123f935090886112e16112ea6112f194838f886112e191611ac7565b91511690611ada565b948c611ac7565b8082101561130257505b809b61122f565b90506112fb565b9091508781813d8311611331575b611321818361199a565b810103126101a75751905f61116b565b503d611317565b86513d5f823e3d90fd5b8281939297503d831161136c575b61135a818361199a565b810103126101a757889051945f611129565b503d611350565b600354831690810361138f5761138a903314611a26565b6110ee565b845162461bcd60e51b81526020818401818152600a9181019190915269149154d5149250d5115160b21b604082015281906060010390fd5b82346101a7575f3660031901126101a757602091549051908152f35b82346101a7575f3660031901126101a757806704f7369746f204c560c41b602080935161140f8161197e565b60088152015260a081517f8b73c3c69bb8fe3d512ecc4cf759cc79239f7b179b0ffacaa9a75d522b39400f81527f432403850d0c026bcf6eb0567acc5f7ed78017e4821d92ee99418a1819fb0589848201527fc89efdaa54c0f20c7adf612882df0950f5a951637e0307cdcb4c672f298b8bc683820152466060820152306080820152209051908152f35b82346101a7575f3660031901126101a7576020905160128152f35b82346101a75760603660031901126101a7576114cf611922565b6114d7611938565b6003546001600160a01b0391604435916115009082851690851681149081156115b357506119ed565b8360601b6e22d473030f116ddee9f6b43ac78ba3330361156a575b6387a211a217600c5260209586600c20908154908185116107e1575083900390555f5284600c208181540190558452600c5160601c91165f805160206121378339815191528480a35160018152f35b33602052637f5e9f208117600c526034600c20908154918219611590575b50905061151b565b8285116115a757846387a211a29303905588611588565b886313be252b5f52601cfd5b905030148861078b565b82346101a7575f3660031901126101a7576115d66119bc565b917f000000000000000000000000000000000000000000000000000000000000000080156116e0576001600160701b0380855116945b82156116d8576020015116905b156116b0576002546020906001600160a01b03165b84516318160ddd60e01b815293849182906001600160a01b03165afa9182156116a6575f9261166f575b50926101d891602094611669611b3d565b92611d5e565b9150926020823d60201161169e575b8161168b6020938361199a565b810103126101a757905190926020611658565b3d915061167e565b83513d5f823e3d90fd5b60207f000000000000000000000000000000000000000000000000000000000000000061162e565b511690611619565b6001600160701b03806020860151169461160c565b82346101a7575f3660031901126101a757602090517f00000000000000000000000000000000000000000000000000000000000000008152f35b82346101a7575f3660031901126101a7576020906805345cdf77eb68f44c549051908152f35b82346101a7575f3660031901126101a75760025490516001600160a01b039091168152602090f35b82346101a7575f3660031901126101a757602090517f00000000000000000000000000000000000000000000000000000000000000008152f35b82346101a757806003193601126101a7576117d0611922565b602435906001600160a01b0381166e22d473030f116ddee9f6b43ac78ba318821915171561184457602080945052637f5e9f20600c52335f52806034600c20555f52602c5160601c337f8c5be1e5ebec7d5bd14f71427d1e84f3dd0314c0f7b2291e5b200ac8c7c3b925845fa35160018152f35b83633f68539a5f52601cfd5b82346101a7575f3660031901126101a7576118696119bc565b80516020808301519284015193516001600160701b039283168152919092169181019190915263ffffffff9091166040820152606090f35b8390346101a7575f3660031901126101a757610851916118c08261197e565b600882526704f7369746f204c560c41b602083015251918291825b602080825282518183018190529093925f5b82811061190e57505060409293505f838284010152601f8019910116010190565b8181018601518482016040015285016118ed565b600435906001600160a01b03821682036101a757565b602435906001600160a01b03821682036101a757565b6060810190811067ffffffffffffffff82111761196a57604052565b634e487b7160e01b5f52604160045260245ffd5b6040810190811067ffffffffffffffff82111761196a57604052565b90601f8019910116810190811067ffffffffffffffff82111761196a57604052565b604051906119c98261194e565b8160405f546001600160701b0380821684528160701c16602084015260e01c910152565b156119f457565b60405162461bcd60e51b815260206004820152600a602482015269149154d5149250d5115160b21b6044820152606490fd5b15611a2d57565b60405162461bcd60e51b815260206004820152600f60248201526e27a7262cafa322a2afa927aaaa22a960891b6044820152606490fd5b15611a6b57565b60405162461bcd60e51b81526020600482015260136024820152721053149150511657d253925512505312569151606a1b6044820152606490fd5b91908203918211611ab357565b634e487b7160e01b5f52601160045260245ffd5b81810292918115918404141715611ab357565b8115611ae4570490565b634e487b7160e01b5f52601260045260245ffd5b15611aff57565b60405162461bcd60e51b8152602060048201526016602482015275494e53554646494349454e545f4c495155494449545960501b6044820152606490fd5b7f000000000000000000000000000000000000000000000000000000000000000015611caf576002546004906020906001600160a01b03165b6040516318160ddd60e01b815292839182906001600160a01b03165afa908115611ca4575f91611c72575b506004549080821115611c6a57611bb791611aa6565b7f00000000000000000000000000000000000000000000000000000000000000009081811015611c4457610e39611c4192611c3c7f000000000000000000000000000000000000000000000000000000000000000093611c377f000000000000000000000000000000000000000000000000000000000000000086611aa6565b611ac7565b611ada565b90565b50507f000000000000000000000000000000000000000000000000000000000000000090565b50505f611bb7565b90506020813d602011611c9c575b81611c8d6020938361199a565b810103126101a757515f611ba1565b3d9150611c80565b6040513d5f823e3d90fd5b600460207f0000000000000000000000000000000000000000000000000000000000000000611b76565b15611ce057565b60405162461bcd60e51b815260206004820152600c60248201526b15539055551213d49256915160a21b6044820152606490fd5b906001600160a01b0381166e22d473030f116ddee9f6b43ac78ba314611d4a57602052637f5e9f20600c525f526034600c205490565b50505f1990565b91908201809211611ab357565b909181811115611e475781611d7291611aa6565b91612710938403848111611ab3578481850291858304148515170215611e1c5784611d9e910483611d51565b91611da98282611ac7565b90828115159182611e32575b5050611e2957670de0b6b3a764000092808483029285818504149015170215611e1c57839104049081811115611e29578391611df091611aa6565b82810292818404149015170215611e1c5704816126de9182810292818404149015170215611e1c570490565b63ad251c275f526004601cfd5b50505050505f90565b611e3e91925083611ada565b1415825f611db5565b505050505f90565b6003546001546001600160a01b03909116801580159594919390611f325782611e79575b50505050565b611e8f916001600160701b038091169116611ac7565b818111611e9d575b80611e73565b611ea9611eaf91611f42565b91611f42565b906805345cdf77eb68f44c54828211611ec9575b50611e97565b611ed790610e698484611aa6565b90600581029080820460051490151715611ab357611efe92611ef891611d51565b90611ada565b603681029080820460361490151715611ab357600a900480611f22575b8080611ec3565b611f2b91611fce565b5f80611f1b565b50509050611f3c57565b5f600155565b8070ffffffffffffffffffffffffffffffffff1060071b81811c68ffffffffffffffffff1060061b1781811c64ffffffffff1060051b1781811c62ffffff1060041b1760019060b56201000084831c0191831c1b0260121c80830401811c80830401811c80830401811c80830401811c80830401811c80830401811c80830401901c8080920410900390565b6805345cdf77eb68f44c80549083820191821061201957556387a211a2600c525f526020600c20818154019055602052600c5160601c5f5f80516020612137833981519152602080a3565b63e5cfe9575f526004601cfd5b7f1c411e9a96e071241c2f21f7726b17ae89e3cab4c78be50e062b03a9fffbbad19161205c612056604093612111565b91612111565b908251916120698361194e565b6001600160701b038092169283815282821660208201528463ffffffff42169101528263ffffffff60e01b4260e01b16916001600160701b0360701b9060701b161717805f55835192835260701c166020820152a1565b919060145260345263a9059cbb60601b5f5260205f6044601082855af1908160015f511416156120f3575b50505f603452565b3b153d171015612104575f806120eb565b6390b8ec185f526004601cfd5b600160701b811015612129576001600160701b031690565b6335278d125f526004601cfdfeddf252ad1be2c89b69c2b068fc378daa952ba7f163c4a11628f55a4df523b3efa2646970667358221220c3b203c9ccf2be7a03dc677f19aada51b949f3c0815f0543f2ac81a47ffc1a9f64736f6c63430008180033","linkReferences":{}},"methodIdentifiers":{"DOMAIN_SEPARATOR()":"3644e515","allowance(address,address)":"dd62ed3e","approve(address,uint256)":"095ea7b3","balanceOf(address)":"70a08231","burn(address)":"89afcb44","collectFees()":"c8796572","currentFeeBps()":"975f8f46","decimals()":"313ce567","endFeeBps()":"1e2f9931","factory()":"c45a0155","feeDecayTarget()":"d9f51a43","feeRouter()":"f29ebf61","getReserves()":"0902f1ac","initialSupply()":"378dc3dc","initialize(address)":"c4d66de8","kLast()":"7464fc3d","mint(address)":"6a627842","name()":"06fdde03","nonces(address)":"7ecebe00","pMin()":"22950746","permit(address,address,uint256,uint256,uint8,bytes32,bytes32)":"d505accf","reserves()":"75172a8b","setFeeRouter(address)":"c267ada4","startFeeBps()":"0c1e3847","swap(uint256,uint256,address)":"6d9a640a","symbol()":"95d89b41","tokIsToken0()":"ae0f15e0","token0()":"0dfe1681","token1()":"d21220a7","totalSupply()":"18160ddd","transfer(address,uint256)":"a9059cbb","transferFrom(address,address,uint256)":"23b872dd"},"id":28}