{"abi":[{"type":"constructor","inputs":[{"name":"_treasury","type":"address","internalType":"address"}],"stateMutability":"nonpayable"},{"type":"function","name":"collectFees","inputs":[],"outputs":[],"stateMutability":"nonpayable"},{"type":"function","name":"factory","inputs":[],"outputs":[{"name":"","type":"address","internalType":"address"}],"stateMutability":"view"},{"type":"function","name":"pair","inputs":[],"outputs":[{"name":"","type":"address","internalType":"address"}],"stateMutability":"view"},{"type":"function","name":"principalLp","inputs":[],"outputs":[{"name":"","type":"uint256","internalType":"uint256"}],"stateMutability":"view"},{"type":"function","name":"setPrincipalLp","inputs":[{"name":"_pair","type":"address","internalType":"address"}],"outputs":[],"stateMutability":"nonpayable"},{"type":"function","name":"treasury","inputs":[],"outputs":[{"name":"","type":"address","internalType":"address"}],"stateMutability":"view"},{"type":"event","name":"FeesCollected","inputs":[{"name":"tokBurned","type":"uint256","indexed":false,"internalType":"uint256"},{"name":"qtCollected","type":"uint256","indexed":false,"internalType":"uint256"}],"anonymous":false},{"type":"event","name":"PrincipalLpSet","inputs":[{"name":"amount","type":"uint256","indexed":false,"internalType":"uint256"}],"anonymous":false},{"type":"error","name":"Reentrancy","inputs":[]}],"bytecode":{"object":"0x60c03461008457601f6108c938819003918201601f19168301916001600160401b038311848410176100885780849260209460405283398101031261008457516001600160a01b0381168103610084576080523360a05260405161082c908161009d82396080518181816102c001526104ff015260a05181818160b001526102580152f35b5f80fd5b634e487b7160e01b5f52604160045260245ffdfe6080604090808252600480361015610015575f80fd5b5f3560e01c91826361d027b3146102ae57508163a8aa1b3114610287578163c45a015514610244578163c879657214610205578163f417eeee14610083575063f940cc6214610062575f80fd5b3461007f575f36600319011261007f576020906001549051908152f35b5f80fd5b823461007f576020908160031936011261007f5782356001600160a01b03818116949185900361007f57807f00000000000000000000000000000000000000000000000000000000000000001633036101d4575f549081166101a457908484926bffffffffffffffffffffffff60a01b16175f5560248351809681936370a0823160e01b835230908301525afa90811561019b575f9161014c575b7f2ea9c9328aec9748fc2135960eb57952273644edeff91ead3b12e90ec4e658fc93508160015551908152a1005b90508183813d8311610194575b61016381836102ef565b8101031261007f577f2ea9c9328aec9748fc2135960eb57952273644edeff91ead3b12e90ec4e658fc92519061011e565b503d610159565b513d5f823e3d90fd5b5082606492519162461bcd60e51b8352820152600b60248201526a1053149150511657d4d15560aa1b6044820152fd5b5082606492519162461bcd60e51b8352820152600c60248201526b4f4e4c595f464143544f525960a01b6044820152fd5b3461007f575f36600319011261007f5768929eee149b4bd212689030825414610239575030815561023461035c565b389055005b63ab143c065f52601cfd5b823461007f575f36600319011261007f57517f00000000000000000000000000000000000000000000000000000000000000006001600160a01b03168152602090f35b823461007f575f36600319011261007f575f5490516001600160a01b039091168152602090f35b3461007f575f36600319011261007f577f00000000000000000000000000000000000000000000000000000000000000006001600160a01b03168152602090f35b90601f8019910116810190811067ffffffffffffffff82111761031157604052565b634e487b7160e01b5f52604160045260245ffd5b9081602091031261007f5751801515810361007f5790565b9081602091031261007f57516001600160a01b038116810361007f5790565b5f8054604080516370a0823160e01b815230600480830191909152949391926024926001600160a01b0392602092841683828781845afa9182156107ec575f926107bd575b5060015491828111156107b1578281039281841161079f57612328808502948504149114171561078d578060448a5f87946127108c51978896879563a9059cbb60e01b8752860152048b8401525af1801561076657610770575b505f85848254168682518094819363226bf2d160e21b83528d30908401525af1948515610766575f915f96610730575b50845f54169487519663057078af60e51b885285888c818a5afa978815610726575f986106f7575b5087156106ae578851630dfe168160e01b815286818d818b5afa908115610642578c9188915f91610691575b50985b8a1561064c578b5163d21220a760e01b815292839182905afa908115610642575f91610615575b50935b881561060e5780985b156106065750955b87610596575b505050836104fd575b50507f49d512bf9cb224241c05691e73eb9fab078cf350c7dbcbcf66788f1fc0cc8b0b9495508351928352820152a1565b7f0000000000000000000000000000000000000000000000000000000000000000601452603484905263a9059cbb60601b825282826044601082855af1908160018451141615610579575b50507f49d512bf9cb224241c05691e73eb9fab078cf350c7dbcbcf66788f1fc0cc8b0b95965060345285945f6104cc565b3b153d17101561058a578680610548565b6390b8ec18879152601cfd5b1690813b1561007f575f87828c838c519687948593630852cd8d60e31b85528401525af180156105fc576105cb575b806104c3565b9091925067ffffffffffffffff82116105ea575085525f905f806105c5565b634e487b7160e01b5f90815260418a52fd5b88513d5f823e3d90fd5b9050956104bd565b81986104b5565b6106359150873d891161063b575b61062d81836102ef565b81019061033d565b5f6104a9565b503d610623565b8a513d5f823e3d90fd5b8b51630dfe168160e01b815292839182905afa908115610642575f91610674575b50936104ac565b61068b9150873d891161063b5761062d81836102ef565b5f61066d565b6106a89150823d841161063b5761062d81836102ef565b5f61047f565b885163d21220a760e01b815286818d818b5afa908115610642578c9188915f916106da575b5098610482565b6106f19150823d841161063b5761062d81836102ef565b5f6106d3565b610718919850863d881161071f575b61071081836102ef565b810190610325565b965f610453565b503d610706565b89513d5f823e3d90fd5b87809297508193503d831161075f575b61074a81836102ef565b8101031261007f57828151910151945f61042b565b503d610740565b86513d5f823e3d90fd5b61078690833d851161071f5761071081836102ef565b505f6103fb565b8560118a634e487b7160e01b5f52525ffd5b8760118c634e487b7160e01b5f52525ffd5b50505050505050509050565b9091508381813d83116107e5575b6107d581836102ef565b8101031261007f5751905f6103a1565b503d6107cb565b87513d5f823e3d90fdfea26469706673582212201ef1a7ed7fcfda7b66ab91005e6118c0a73a06815502ae119e45da5542a220f164736f6c63430008180033","linkReferences":{}},"methodIdentifiers":{"collectFees()":"c8796572","factory()":"c45a0155","pair()":"a8aa1b31","principalLp()":"f940cc62","setPrincipalLp(address)":"f417eeee","treasury()":"61d027b3"},"id":26}