{"abi":[{"type":"constructor","inputs":[{"name":"_treasury","type":"address","internalType":"address"}],"stateMutability":"nonpayable"},{"type":"function","name":"collectFees","inputs":[],"outputs":[],"stateMutability":"nonpayable"},{"type":"function","name":"factory","inputs":[],"outputs":[{"name":"","type":"address","internalType":"address"}],"stateMutability":"view"},{"type":"function","name":"pair","inputs":[],"outputs":[{"name":"","type":"address","internalType":"address"}],"stateMutability":"view"},{"type":"function","name":"principalLp","inputs":[],"outputs":[{"name":"","type":"uint256","internalType":"uint256"}],"stateMutability":"view"},{"type":"function","name":"setPrincipalLp","inputs":[{"name":"_pair","type":"address","internalType":"address"}],"outputs":[],"stateMutability":"nonpayable"},{"type":"function","name":"treasury","inputs":[],"outputs":[{"name":"","type":"address","internalType":"address"}],"stateMutability":"view"},{"type":"event","name":"FeesCollected","inputs":[{"name":"tokBurned","type":"uint256","indexed":false,"internalType":"uint256"},{"name":"qtCollected","type":"uint256","indexed":false,"internalType":"uint256"}],"anonymous":false},{"type":"event","name":"Initialized","inputs":[{"name":"pair","type":"address","indexed":false,"internalType":"address"},{"name":"reserve0","type":"uint256","indexed":false,"internalType":"uint256"},{"name":"reserve1","type":"uint256","indexed":false,"internalType":"uint256"}],"anonymous":false},{"type":"error","name":"Reentrancy","inputs":[]}],"bytecode":{"object":"0x60c03461008457601f610a0e38819003918201601f19168301916001600160401b038311848410176100885780849260209460405283398101031261008457516001600160a01b0381168103610084576080523360a052604051610971908161009d82396080518181816102cb01526104f3015260a05181818160b101526102630152f35b5f80fd5b634e487b7160e01b5f52604160045260245ffdfe6080604090808252600480361015610015575f80fd5b5f3560e01c91826361d027b3146102b957508163a8aa1b3114610292578163c45a01551461024f578163c879657214610210578163f417eeee14610083575063f940cc6214610062575f80fd5b3461007f575f36600319011261007f576020906001549051908152f35b5f80fd5b90503461007f576020908160031936011261007f5780356001600160a01b03818116939184900361007f57807f00000000000000000000000000000000000000000000000000000000000000001633036101de575f549081166101ad576001600160a01b03191683175f5583516370a0823160e01b815230928101929092528082602481865afa9182156101a3575f92610152575b7f0f91882b50d9330af0b1d4998e6af7f2eaee90ce7e77ea54fea089af166d021d6060855f888787816001558251948552840152820152a1005b908093925081813d831161019c575b61016b81836102fa565b8101031261007f575190917f0f91882b50d9330af0b1d4998e6af7f2eaee90ce7e77ea54fea089af166d021d610118565b503d610161565b84513d5f823e3d90fd5b845162461bcd60e51b8152808401839052600b60248201526a1053149150511657d4d15560aa1b6044820152606490fd5b845162461bcd60e51b8152808401839052600c60248201526b4f4e4c595f464143544f525960a01b6044820152606490fd5b3461007f575f36600319011261007f5768929eee149b4bd212689030825414610244575030815561023f61037d565b389055005b63ab143c065f52601cfd5b823461007f575f36600319011261007f57517f00000000000000000000000000000000000000000000000000000000000000006001600160a01b03168152602090f35b823461007f575f36600319011261007f575f5490516001600160a01b039091168152602090f35b3461007f575f36600319011261007f577f00000000000000000000000000000000000000000000000000000000000000006001600160a01b03168152602090f35b90601f8019910116810190811067ffffffffffffffff82111761031c57604052565b634e487b7160e01b5f52604160045260245ffd5b9081602091031261007f5751801515810361007f5790565b919082604091031261007f576020825192015190565b9081602091031261007f57516001600160a01b038116810361007f5790565b5f805460408051637464fc3d60e01b81526004949391926001600160a01b039081169290916020919082818981885afa908115610882575f9161090e575b506107dc575b84516370a0823160e01b815230888201526024949083818781855afa90811561076a575f916107af575b50600154808211156107a357810390811161079157845f54169087519163a9059cbb60e01b83528a8301528682015283816044815f865af1801561076a57610774575b50855163226bf2d160e21b81523089820152868187815f865af195861561076a575f915f97610739575b50875163057078af60e51b81529185838c81875afa92831561068f575f9361070a575b5082156107045796955b87610606575b5050846104c5575b5050507f49d512bf9cb224241c05691e73eb9fab078cf350c7dbcbcf66788f1fc0cc8b0b9495508351928352820152a1565b88918491156105c257875163d21220a760e01b815292839182905afa9081156105b857829161058b575b505b7f0000000000000000000000000000000000000000000000000000000000000000601452603484905263a9059cbb60601b825282826044601082855af190816001845114161561056e575b50507f49d512bf9cb224241c05691e73eb9fab078cf350c7dbcbcf66788f1fc0cc8b0b95965060345285945f80610493565b3b153d17101561057f57868061053c565b6390b8ec18879152601cfd5b6105ab9150833d85116105b1575b6105a381836102fa565b81019061035e565b5f6104ef565b503d610599565b86513d84823e3d90fd5b8751630dfe168160e01b815292839182905afa9081156105b85782916105e9575b506104f1565b6106009150833d85116105b1576105a381836102fa565b5f6105e3565b82156106c0578851630dfe168160e01b815286818d81885afa9081156106b6575f91610699575b505b1690813b1561007f575f88828d838d519687948593630852cd8d60e31b85528401525af1801561068f571561048b579091935067ffffffffffffffff821161067d575086525f915f8061048b565b634e487b7160e01b5f90815260418b52fd5b89513d5f823e3d90fd5b6106b09150873d89116105b1576105a381836102fa565b5f61062d565b8a513d5f823e3d90fd5b885163d21220a760e01b815286818d81885afa9081156106b6575f916106e7575b5061062f565b6106fe9150873d89116105b1576105a381836102fa565b5f6106e1565b95610485565b61072b919350863d8811610732575b61072381836102fa565b810190610330565b915f61047b565b503d610719565b90965061075c9150873d8911610763575b61075481836102fa565b810190610348565b955f610458565b503d61074a565b87513d5f823e3d90fd5b61078a90843d86116107325761072381836102fa565b505f61042e565b8560118a634e487b7160e01b5f52525ffd5b50505050505050509050565b90508381813d83116107d5575b6107c681836102fa565b8101031261007f57515f6103eb565b503d6107bc565b84516370a0823160e01b815230888201528281602481885afa908115610882575f916108e1575b5060015410156108a957845163a9059cbb60e01b81528781018590526001602482015282816044815f895af180156108825761088c575b50845163226bf2d160e21b8152308882015285816024815f895af1801561088257610866575b506103c1565b61087c90863d88116107635761075481836102fa565b50610860565b86513d5f823e3d90fd5b6108a290833d85116107325761072381836102fa565b505f61083a565b845162461bcd60e51b815280880183905260126024820152714e4f5f4c505f544f5f53414352494649434560701b6044820152606490fd5b90508281813d8311610907575b6108f881836102fa565b8101031261007f57515f610803565b503d6108ee565b90508281813d8311610934575b61092581836102fa565b8101031261007f57515f6103bb565b503d61091b56fea2646970667358221220374350067b472f950922c4b6e085d9c7df0f4a1451ee12970bc9b15331f66c8f64736f6c63430008180033","linkReferences":{}},"methodIdentifiers":{"collectFees()":"c8796572","factory()":"c45a0155","pair()":"a8aa1b31","principalLp()":"f940cc62","setPrincipalLp(address)":"f417eeee","treasury()":"61d027b3"},"id":32}