{"abi":[{"type":"function","name":"collectFees","inputs":[{"name":"pair","type":"address","internalType":"address"}],"outputs":[],"stateMutability":"nonpayable"},{"type":"function","name":"principalLp","inputs":[{"name":"","type":"address","internalType":"address"}],"outputs":[{"name":"","type":"uint256","internalType":"uint256"}],"stateMutability":"view"},{"type":"function","name":"setPrincipalLp","inputs":[{"name":"pair","type":"address","internalType":"address"}],"outputs":[],"stateMutability":"nonpayable"},{"type":"error","name":"Reentrancy","inputs":[]}],"bytecode":{"object":"0x6080806040523461001657610629908161001b8239f35b5f80fdfe6080604081815260049182361015610015575f80fd5b5f3560e01c9081639c3260131461016c57508063a480ca79146101185763f417eeee14610040575f80fd5b346100d3576020806003193601126100d35782356001600160a01b038116908190036100d357805f525f8252825f20546100e8578251936370a0823160e01b855230908501528184602481845afa9384156100de575f946100a9575b505f908152908190522055005b918091945082813d83116100d7575b6100c281836101a3565b810103126100d3579051925f61009c565b5f80fd5b503d6100b8565b83513d5f823e3d90fd5b50905162461bcd60e51b815291820152600b60248201526a1053149150511657d4d15560aa1b6044820152606490fd5b82346100d35760203660031901126100d35780356001600160a01b03811681036100d35768929eee149b4bd212689130835414610161575061015c90308355610210565b389055005b63ab143c065f52601cfd5b905082346100d35760203660031901126100d357356001600160a01b03811692908390036100d3576020925f525f83525f20548152f35b90601f8019910116810190811067ffffffffffffffff8211176101c557604052565b634e487b7160e01b5f52604160045260245ffd5b908160209103126100d3575180151581036100d35790565b908160209103126100d357516001600160a01b03811681036100d35790565b60018060a01b0380911660408051906370a0823160e01b82526004925f94308585015260209260249484818781875afa908115610423575f916105c6575b50835f525f8552815f2054808211156105bb5781039081116105a95781519063a9059cbb60e01b825284888301528682015284816044815f885af180156104235761058c575b50805163226bf2d160e21b8152308782015294818682815f885af1928315610423575f965f94610557575b50825163057078af60e51b81529386858a81895afa94851561054d575f9561051e575b5084156104d5578351630dfe168160e01b815287818b818a5afa908115610469578a9189915f916104b8575b50975b871561047357865163d21220a760e01b815292839182905afa908115610469575f9161043c575b50975b85156104355780955b1561042d5750945b846103ba575b505050505080610364575b5050505050565b61dead60145260345263a9059cbb60601b8452836044601082855af190816001855114161561039e575b5050506034525f8080808061035d565b3b153d1710156103af57808061038e565b6390b8ec188252601cfd5b1692833b156100d3575f9382859285519687938492630852cd8d60e31b84528d8401525af18015610423576103f1575b8080610352565b909192965067ffffffffffffffff83116104115750525f935f80806103ea565b634e487b7160e01b5f90815260418752fd5b82513d5f823e3d90fd5b90509461034c565b8195610344565b61045c9150883d8a11610462575b61045481836101a3565b8101906101f1565b5f610338565b503d61044a565b85513d5f823e3d90fd5b8651630dfe168160e01b815292839182905afa908115610469575f9161049b575b509761033b565b6104b29150883d8a116104625761045481836101a3565b5f610494565b6104cf9150823d84116104625761045481836101a3565b5f61030e565b835163d21220a760e01b815287818b818a5afa908115610469578a9189915f91610501575b5097610311565b6105189150823d84116104625761045481836101a3565b5f6104fa565b61053f919550873d8911610546575b61053781836101a3565b8101906101d9565b935f6102e2565b503d61052d565b84513d5f823e3d90fd5b965092508186813d8111610585575b61057081836101a3565b810103126100d357848651960151925f6102bf565b503d610566565b6105a290853d87116105465761053781836101a3565b505f610294565b85601188634e487b7160e01b5f52525ffd5b505050505050505050565b90508481813d83116105ec575b6105dd81836101a3565b810103126100d357515f61024e565b503d6105d356fea2646970667358221220ff109070fcf8867fbcf1d5c127a0854b51449603b5fdc2ef89ac36036607b0a664736f6c63430008180033","linkReferences":{}},"methodIdentifiers":{"collectFees(address)":"a480ca79","principalLp(address)":"9c326013","setPrincipalLp(address)":"f417eeee"},"id":26}