{"abi":[{"type":"constructor","inputs":[{"name":"_treasury","type":"address","internalType":"address"},{"name":"_pair","type":"address","internalType":"address"}],"stateMutability":"nonpayable"},{"type":"function","name":"collectFees","inputs":[],"outputs":[],"stateMutability":"nonpayable"},{"type":"function","name":"factory","inputs":[],"outputs":[{"name":"","type":"address","internalType":"address"}],"stateMutability":"view"},{"type":"function","name":"pair","inputs":[],"outputs":[{"name":"","type":"address","internalType":"address"}],"stateMutability":"view"},{"type":"function","name":"treasury","inputs":[],"outputs":[{"name":"","type":"address","internalType":"address"}],"stateMutability":"view"},{"type":"event","name":"FeesCollected","inputs":[{"name":"tokBurned","type":"uint256","indexed":false,"internalType":"uint256"},{"name":"qtCollected","type":"uint256","indexed":false,"internalType":"uint256"}],"anonymous":false}],"bytecode":{"object":"0x60e03461009357601f61072038819003918201601f19168301916001600160401b0383118484101761009757808492604094855283398101031261009357610052602061004b836100ab565b92016100ab565b906080523360a05260c05260405161066090816100c082396080518181816101000152610362015260a05181607b015260c05181818160bf01526101ba0152f35b5f80fd5b634e487b7160e01b5f52604160045260245ffd5b51906001600160a01b03821682036100935756fe6080806040526004361015610012575f80fd5b5f3560e01c90816361d027b3146100ee57508063a8aa1b31146100aa578063c45a0155146100665763c879657214610048575f80fd5b34610062575f366003190112610062576100606101b0565b005b5f80fd5b34610062575f366003190112610062576040517f00000000000000000000000000000000000000000000000000000000000000006001600160a01b03168152602090f35b34610062575f366003190112610062576040517f00000000000000000000000000000000000000000000000000000000000000006001600160a01b03168152602090f35b34610062575f366003190112610062577f00000000000000000000000000000000000000000000000000000000000000006001600160a01b03168152602090f35b67ffffffffffffffff811161014357604052565b634e487b7160e01b5f52604160045260245ffd5b90601f8019910116810190811067ffffffffffffffff82111761014357604052565b90816020910312610062575180151581036100625790565b9081602091031261006257516001600160a01b03811681036100625790565b6001600160a01b037f000000000000000000000000000000000000000000000000000000000000000081169190823b156100625760409081519363643cb2b960e11b85525f6004955f81888183875af180156106205761060f575b5083516370a0823160e01b81523087820152602091908281602481875afa9081156105b15782916105e2575b5080156105d85785519063a9059cbb60e01b825284898301526024820152828160448185885af180156105b1576105bb575b50845163226bf2d160e21b81523088820152858160248185885af19485156105b1578291839661057b575b50865163057078af60e51b81529584878b81895afa968715610571578497610542575b5086156104f9578751630dfe168160e01b815285818c818a5afa90811561048d578b91879187916104dc575b50975b8915610497578a5163d21220a760e01b815292839182905afa90811561048d578591610460575b50925b87156104595780975b156104515750945b866103f9575b505083610360575b50507f49d512bf9cb224241c05691e73eb9fab078cf350c7dbcbcf66788f1fc0cc8b0b9495508351928352820152a1565b7f0000000000000000000000000000000000000000000000000000000000000000601452603484905263a9059cbb60601b825282826044601082855af19081600184511416156103dc575b50507f49d512bf9cb224241c05691e73eb9fab078cf350c7dbcbcf66788f1fc0cc8b0b95965060345285945f61032f565b3b153d1710156103ed5786806103ab565b6390b8ec18879152601cfd5b16803b1561044d57828660248b838b519586948593630852cd8d60e31b85528401525af180156104435790839115610327576104349061012f565b61043f57815f610327565b5080fd5b87513d85823e3d90fd5b8280fd5b905094610321565b8197610319565b6104809150863d8811610486575b6104788183610157565b810190610191565b5f61030d565b503d61046e565b89513d87823e3d90fd5b8a51630dfe168160e01b815292839182905afa90811561048d5785916104bf575b5092610310565b6104d69150863d8811610486576104788183610157565b5f6104b8565b6104f39150823d8411610486576104788183610157565b5f6102e3565b875163d21220a760e01b815285818c818a5afa90811561048d578b9187918791610525575b50976102e6565b61053c9150823d8411610486576104788183610157565b5f61051e565b610563919750853d871161056a575b61055b8183610157565b810190610179565b955f6102b7565b503d610551565b88513d86823e3d90fd5b87809297508193503d83116105aa575b6105958183610157565b8101031261043f57828151910151945f610294565b503d61058b565b86513d84823e3d90fd5b6105d190833d851161056a5761055b8183610157565b505f610269565b5050505050509050565b90508281813d8311610608575b6105f98183610157565b8101031261043f57515f610237565b503d6105ef565b610619915061012f565b5f8061020b565b85513d5f823e3d90fdfea2646970667358221220b8769195ed2bbf91c9c17e52851cb83aefa8bf2f71801247e30bac9962167ccf64736f6c63430008180033","linkReferences":{}},"methodIdentifiers":{"collectFees()":"c8796572","factory()":"c45a0155","pair()":"a8aa1b31","treasury()":"61d027b3"},"id":26}