{"abi":[{"type":"constructor","inputs":[{"name":"_treasury","type":"address","internalType":"address"}],"stateMutability":"nonpayable"},{"type":"function","name":"collectFees","inputs":[{"name":"pair","type":"address","internalType":"address"}],"outputs":[],"stateMutability":"nonpayable"},{"type":"function","name":"factory","inputs":[],"outputs":[{"name":"","type":"address","internalType":"address"}],"stateMutability":"view"},{"type":"function","name":"principalLp","inputs":[{"name":"","type":"address","internalType":"address"}],"outputs":[{"name":"","type":"uint256","internalType":"uint256"}],"stateMutability":"view"},{"type":"function","name":"setPrincipalLp","inputs":[{"name":"pair","type":"address","internalType":"address"}],"outputs":[],"stateMutability":"nonpayable"},{"type":"function","name":"treasury","inputs":[],"outputs":[{"name":"","type":"address","internalType":"address"}],"stateMutability":"view"},{"type":"event","name":"FeesCollected","inputs":[{"name":"pair","type":"address","indexed":true,"internalType":"address"},{"name":"tokBurned","type":"uint256","indexed":false,"internalType":"uint256"},{"name":"qtCollected","type":"uint256","indexed":false,"internalType":"uint256"}],"anonymous":false},{"type":"event","name":"PrincipalLpSet","inputs":[{"name":"pair","type":"address","indexed":true,"internalType":"address"},{"name":"amount","type":"uint256","indexed":false,"internalType":"uint256"}],"anonymous":false},{"type":"error","name":"Reentrancy","inputs":[]}],"bytecode":{"object":"0x60c03461008457601f61087338819003918201601f19168301916001600160401b038311848410176100885780849260209460405283398101031261008457516001600160a01b0381168103610084576080523360a0526040516107d6908161009d82396080518181816102af01526104cb015260a051818181608101526101e10152f35b5f80fd5b634e487b7160e01b5f52604160045260245ffdfe608060409080825260049081361015610016575f80fd5b5f3560e01c90816361d027b31461029d575080639c32601314610264578063a480ca7914610210578063c45a0155146101cd5763f417eeee14610057575f80fd5b3461015a5760208060031936011261015a5781356001600160a01b03818116949185900361015a577f000000000000000000000000000000000000000000000000000000000000000016330361019d57835f525f8252805f205461016e578051926370a0823160e01b845230908401528183602481875afa908115610165575f91610112575b7f04a08f9c7d12aa54d5224eca5a32d95838b6e759498f709f8f839d0c6a8cb7199350845f525f835281815f205551908152a2005b90508183813d831161015e575b61012981836102de565b8101031261015a577f04a08f9c7d12aa54d5224eca5a32d95838b6e759498f709f8f839d0c6a8cb7199251906100dd565b5f80fd5b503d61011f565b513d5f823e3d90fd5b5162461bcd60e51b815291820152600b60248201526a1053149150511657d4d15560aa1b604482015260649150fd5b5162461bcd60e51b815291820152600c60248201526b4f4e4c595f464143544f525960a01b604482015260649150fd5b823461015a575f36600319011261015a57517f00000000000000000000000000000000000000000000000000000000000000006001600160a01b03168152602090f35b503461015a57602036600319011261015a5780356001600160a01b038116810361015a5768929eee149b4bd21268913083541461025957506102549030835561034b565b389055005b63ab143c065f52601cfd5b503461015a57602036600319011261015a57356001600160a01b038116919082900361015a576020915f525f8252805f20549051908152f35b3461015a575f36600319011261015a577f00000000000000000000000000000000000000000000000000000000000000006001600160a01b03168152602090f35b90601f8019910116810190811067ffffffffffffffff82111761030057604052565b634e487b7160e01b5f52604160045260245ffd5b9081602091031261015a5751801515810361015a5790565b9081602091031261015a57516001600160a01b038116810361015a5790565b604080516370a0823160e01b81523060048083019190915293926001600160a01b0390811692916024906020905f90828185818a5afa90811561072e575f91610773575b50865f525f8352855f2054808211156107675781039081116107555785519063a9059cbb60e01b8252878a8301528482015282816044815f8b5af1801561072e57610738575b50845163226bf2d160e21b81523089820152858185815f8b5af193841561072e575f915f956106f8575b50865163057078af60e51b81529584878c818c5afa9687156105c8575f976106c9575b508615610684578751630dfe168160e01b815285818d818d5afa90811561067a575f9161065d575b50955b871561061857885163d21220a760e01b815286818e818e5afa90811561060e575f916105e1575b50935b88156105da5780985b156105d25750955b87610562575b505050836104c9575b50507f2e4fb6077d4acf86e12bb7411fb82b2b3eaa6a49787f4b1e17b423e7ea841169949596508351928352820152a2565b7f0000000000000000000000000000000000000000000000000000000000000000601452603484905263a9059cbb60601b825282826044601082855af1908160018451141615610545575b505060345294955085947f2e4fb6077d4acf86e12bb7411fb82b2b3eaa6a49787f4b1e17b423e7ea8411695f610497565b3b153d171015610556578780610514565b6390b8ec18889152601cfd5b1690813b1561015a575f87828d838c519687948593630852cd8d60e31b85528401525af180156105c857610597575b8061048e565b9091925067ffffffffffffffff82116105b6575085525f905f80610591565b634e487b7160e01b5f90815260418b52fd5b88513d5f823e3d90fd5b905095610488565b8198610480565b6106019150873d8911610607575b6105f981836102de565b81019061032c565b5f610474565b503d6105ef565b8a513d5f823e3d90fd5b8851630dfe168160e01b815286818e818e5afa90811561060e575f91610640575b5093610477565b6106579150873d8911610607576105f981836102de565b5f610639565b6106749150863d8811610607576105f981836102de565b5f61044a565b89513d5f823e3d90fd5b875163d21220a760e01b815285818d818d5afa90811561067a575f916106ac575b509561044d565b6106c39150863d8811610607576105f981836102de565b5f6106a5565b6106ea919750853d87116106f1575b6106e281836102de565b810190610314565b955f610422565b503d6106d8565b87809296508193503d8311610727575b61071281836102de565b8101031261015a57828151910151935f6103ff565b503d610708565b86513d5f823e3d90fd5b61074e90833d85116106f1576106e281836102de565b505f6103d5565b8360118a634e487b7160e01b5f52525ffd5b50505050505050509050565b90508281813d8311610799575b61078a81836102de565b8101031261015a57515f61038f565b503d61078056fea2646970667358221220fd54288d13d2d57b9197a47f2d56a4e6e5e79ef47b19c4453012f70d8f9c49b664736f6c63430008180033","linkReferences":{}},"methodIdentifiers":{"collectFees(address)":"a480ca79","factory()":"c45a0155","principalLp(address)":"9c326013","setPrincipalLp(address)":"f417eeee","treasury()":"61d027b3"},"id":26}