{"abi":[{"type":"constructor","inputs":[{"name":"_collateralToken","type":"address","internalType":"address"},{"name":"_pair","type":"address","internalType":"address"},{"name":"_lenderVault","type":"address","internalType":"address"}],"stateMutability":"nonpayable"},{"type":"function","name":"CLOSE_FACTOR","inputs":[],"outputs":[{"name":"","type":"uint256","internalType":"uint256"}],"stateMutability":"view"},{"type":"function","name":"COLLATERAL_FACTOR","inputs":[],"outputs":[{"name":"","type":"uint256","internalType":"uint256"}],"stateMutability":"view"},{"type":"function","name":"LIQUIDATION_INCENTIVE","inputs":[],"outputs":[{"name":"","type":"uint256","internalType":"uint256"}],"stateMutability":"view"},{"type":"function","name":"accountBorrows","inputs":[{"name":"","type":"address","internalType":"address"}],"outputs":[{"name":"principal","type":"uint256","internalType":"uint256"},{"name":"interestIndex","type":"uint256","internalType":"uint256"}],"stateMutability":"view"},{"type":"function","name":"borrow","inputs":[{"name":"amount","type":"uint256","internalType":"uint256"}],"outputs":[],"stateMutability":"nonpayable"},{"type":"function","name":"collateralBalances","inputs":[{"name":"","type":"address","internalType":"address"}],"outputs":[{"name":"","type":"uint256","internalType":"uint256"}],"stateMutability":"view"},{"type":"function","name":"collateralToken","inputs":[],"outputs":[{"name":"","type":"address","internalType":"address"}],"stateMutability":"view"},{"type":"function","name":"depositCollateral","inputs":[{"name":"amount","type":"uint256","internalType":"uint256"}],"outputs":[],"stateMutability":"nonpayable"},{"type":"function","name":"getAccountHealth","inputs":[{"name":"account","type":"address","internalType":"address"}],"outputs":[{"name":"collateral","type":"uint256","internalType":"uint256"},{"name":"debt","type":"uint256","internalType":"uint256"},{"name":"healthy","type":"bool","internalType":"bool"}],"stateMutability":"view"},{"type":"function","name":"lenderVault","inputs":[],"outputs":[{"name":"","type":"address","internalType":"address"}],"stateMutability":"view"},{"type":"function","name":"liquidate","inputs":[{"name":"borrower","type":"address","internalType":"address"},{"name":"repayAmount","type":"uint256","internalType":"uint256"}],"outputs":[],"stateMutability":"nonpayable"},{"type":"function","name":"pair","inputs":[],"outputs":[{"name":"","type":"address","internalType":"address"}],"stateMutability":"view"},{"type":"function","name":"repay","inputs":[{"name":"amount","type":"uint256","internalType":"uint256"}],"outputs":[],"stateMutability":"nonpayable"},{"type":"function","name":"withdrawCollateral","inputs":[{"name":"amount","type":"uint256","internalType":"uint256"}],"outputs":[],"stateMutability":"nonpayable"},{"type":"event","name":"Liquidate","inputs":[{"name":"liquidator","type":"address","indexed":true,"internalType":"address"},{"name":"borrower","type":"address","indexed":true,"internalType":"address"},{"name":"repayAmount","type":"uint256","indexed":false,"internalType":"uint256"},{"name":"collateralSeized","type":"uint256","indexed":false,"internalType":"uint256"}],"anonymous":false},{"type":"error","name":"Reentrancy","inputs":[]}],"bytecode":{"object":"0x60e0346100ef57601f61159938819003918201601f19168301916001600160401b038311848410176100f3578084926060946040528339810103126100ef5761004781610107565b90610060604061005960208401610107565b9201610107565b9160805260a05260c05260405161147d908161011c82396080518181816107d301528181610a1101528181610ac40152610be2015260a05181818161063401528181610b080152818161116601526112f1015260c05181818161011b0152818161027801528181610551015281816109a101528181610b6501528181610c7601528181610f3a015261110c0152f35b5f80fd5b634e487b7160e01b5f52604160045260245ffd5b51906001600160a01b03821682036100ef5756fe6080604081815260049081361015610015575f80fd5b5f925f3560e01c90816306876d1914610f285750806317f49e0514610f0c57806329bc969d14610ed6578063371fd8e614610c3d5780634dab4dc014610c205780636112fe2e14610b37578063a8aa1b3114610af3578063b2016bd414610aaf578063bad4a01f14610973578063bcbaf48714610505578063c5ebeaec1461023f578063c66c144a14610222578063d40e8f4a146101dc5763e59e8018146100bb575f80fd5b346101d8576020806003193601126101d4576100d5610f69565b6001600160a01b03818116808752600180855285882086519397929186916100fc86610fa7565b8054865201549781850198895287519384809263aa5af0fd60e01b82527f0000000000000000000000000000000000000000000000000000000000000000165afa9182156101ca578892610190575b5087528684529584902054945160609661016f9291908161018057505051916110b9565b918351948552840152151590820152f35b61018a9251611096565b916110b9565b929150968483813d83116101c3575b6101a98183610fc3565b810103126101bf5791519196909190606061014b565b5f80fd5b503d61019f565b86513d8a823e3d90fd5b8380fd5b8280fd5b83823461021e57602036600319011261021e579081906001600160a01b03610202610f69565b1681526001602052206001815491015482519182526020820152f35b5080fd5b83823461021e578160031936011261021e57602090516129048152f35b5090346101d857602090816003193601126101d45780359268929eee149b4bd2126893308554146104f957308555856001600160a01b037f00000000000000000000000000000000000000000000000000000000000000008116803b156101d857845163a6afed9560e01b81528381888183865af18015610488579084916104e5575b50503383526001875284832060018651916102dc83610fa7565b805483520154888201908152865163aa5af0fd60e01b8152919089838a81875afa9283156104db579087929187946104a1575b509161032a91600193518581155f1461049257505051611089565b9187519261033784610fa7565b8352898301908152338652818a52878620925183555191015561036161035c336110b9565b61103d565b803b156101d857845163317afabb60e21b8152868101859052838160248183865af18015610488579188918895949361046d575b5086516338d52e0f60e01b815297889182905afa95861561046357908291889594939761042d575b5090604492918651978895869463a9059cbb60e01b865233908601526024850152165af190811561042457506103f6575b505038905580f35b8161041592903d1061041d575b61040d8183610fc3565b810190611004565b505f806103ee565b503d610403565b513d86823e3d90fd5b6044939291975061045390863d881161045c575b61044b8183610fc3565b810190610fe5565b969091926103bd565b503d610441565b85513d84823e3d90fd5b61047b919550849250610f7f565b61021e578686935f610395565b86513d86823e3d90fd5b61049c9251611096565b611089565b9250925094508881813d83116104d4575b6104bc8183610fc3565b810103126101bf57518a94909186919061032a61030f565b503d6104b2565b88513d88823e3d90fd5b6104ee90610f7f565b6101d857825f6102c2565b8263ab143c068752601cfd5b5090346101d857816003193601126101d85761051f610f69565b906024359068929eee149b4bd21268933085541461096757308555610543846110b9565b610932576001600160a01b037f0000000000000000000000000000000000000000000000000000000000000000811694853b1561092e57825163a6afed9560e01b8152889081818781838c5af18015610463579084939291610915575b505016948588526020936001855283892060018551916105bf83610fa7565b805483520154868201908152855163aa5af0fd60e01b8152919087838581885afa92831561090b578c936108dc575b505182816108cd575050515b61138897888202612710809a84830414841517021561086e5789900490818111156108c55750975b865163114a83a360e11b8152888186817f00000000000000000000000000000000000000000000000000000000000000008b165afa9081156108bb578d9161088e575b5061066e6112e2565b808211156108865750905b61290481818c02918c8304148c1517021561087a570481670de0b6b3a7640000918281029281840414901517021561086e57908c959493929104958a86528589526106c98887205488111561103d565b87516338d52e0f60e01b815289818681895afa908115610864578a91610722918991610847575b508a516323b872dd60e01b815233888201908152306020820152604081018f90529094859384928c9291849160600190565b0393165af180156104db57600192610741928c9261082a575b5061101c565b9187519261074e84610fa7565b83528883019081528a8652818952878620925183555191015582865284832061077885825461101c565b9055813b156101d85786602484928388519586948593631b8fec7360e11b85528401525af1801561082057610808575b50507ff3fa0eaee8f258c23b013654df25d1527f98a5c7ccd5e951dd77caca400ef972926107f782337f000000000000000000000000000000000000000000000000000000000000000061127d565b82519485528401523392a338905580f35b61081190610f7f565b61081c57865f6107a8565b8680fd5b84513d84823e3d90fd5b610840908c8d3d1061041d5761040d8183610fc3565b505f61073b565b61085e9150833d851161045c5761044b8183610fc3565b5f6106f0565b89513d89823e3d90fd5b8463ad251c278e52601cfd5b8563ad251c278f52601cfd5b905090610679565b90508881813d83116108b4575b6108a58183610fc3565b810103126101bf57515f610665565b503d61089b565b88513d8f823e3d90fd5b905097610622565b6108d79251611096565b6105fa565b9092508781813d8311610904575b6108f48183610fc3565b810103126101bf5751915f6105ee565b503d6108ea565b87513d8e823e3d90fd5b61092191929350610f7f565b61092e578190885f6105a0565b8780fd5b906020606492519162461bcd60e51b8352820152600f60248201526e4143434f554e545f4845414c54485960881b6044820152fd5b5063ab143c068552601cfd5b50346101d85760203660031901126101d85781359068929eee149b4bd212689230845414610aa457308455847f00000000000000000000000000000000000000000000000000000000000000006001600160a01b0316803b1561021e578180918486518094819363a6afed9560e01b83525af1801561082057610a8c575b50508151606084815230845233901b602c526323b872dd60601b600c52907f00000000000000000000000000000000000000000000000000000000000000006020876064601c82855af1908160018951141615610a70575b50505090610a6891856060528152338552846020528420918254611089565b905538905580f35b3b153d171015610a81578080610a49565b637939f4248652601cfd5b610a9590610f7f565b610aa057845f6109f1565b8480fd5b63ab143c068552601cfd5b83823461021e578160031936011261021e57517f00000000000000000000000000000000000000000000000000000000000000006001600160a01b03168152602090f35b83823461021e578160031936011261021e57517f00000000000000000000000000000000000000000000000000000000000000006001600160a01b03168152602090f35b50346101d85760203660031901126101d857813568929eee149b4bd212689230845414610aa45730845584907f00000000000000000000000000000000000000000000000000000000000000006001600160a01b031690813b156101d857845163a6afed9560e01b81529183918391829084905af1801561082057610c0c575b5050610c0691338552846020528420610bd182825461101c565b9055610bdf61035c336110b9565b337f000000000000000000000000000000000000000000000000000000000000000061127d565b38905580f35b610c1590610f7f565b6101d457835f610bb7565b83823461021e578160031936011261021e57602090516113888152f35b509190346101bf57602092836003193601126101bf5781359068929eee149b4bd212689230845414610ecb573084556001600160a01b037f0000000000000000000000000000000000000000000000000000000000000000811693843b156101bf57835163a6afed9560e01b81525f818581838a5af18015610ec157610eac575b5096869796959633875260018252848720906001865192610cde84610fa7565b805484520154838301908152865163aa5af0fd60e01b81529290848488818c5afa938415610e5a578a94610e7a575b50518381610e6a57505051905b81811115610e64575080935b86516338d52e0f60e01b815290848288818c5afa918215610e5a57610d8492888c88948a948294610e3b575b508c516323b872dd60e01b81523393810193845230602085015260408401959095529395869485939091849160600190565b0393165af18015610e315785600194938593610da493610e1b575061101c565b93875194610db186610fa7565b8552808501928352338a52528588209251835551910155833b15610aa057602485928385519687948593631b8fec7360e11b85528401525af1908115610e125750610dfe57505038905580f35b610e0790610f7f565b61021e57815f6103ee565b513d84823e3d90fd5b61084090883d8a1161041d5761040d8183610fc3565b87513d8b823e3d90fd5b610e53919450863d881161045c5761044b8183610fc3565b925f610d52565b88513d8c823e3d90fd5b93610d26565b610e749251611096565b90610d1a565b995092508389813d8111610ea5575b610e938183610fc3565b810103126101bf578a9851925f610d0d565b503d610e89565b610eb891969750610f7f565b5f95945f610cbe565b85513d5f823e3d90fd5b63ab143c065f52601cfd5b50346101bf5760203660031901126101bf576020906001600160a01b03610efb610f69565b165f525f8252805f20549051908152f35b50346101bf575f3660031901126101bf5760209051611f408152f35b346101bf575f3660031901126101bf577f00000000000000000000000000000000000000000000000000000000000000006001600160a01b03168152602090f35b600435906001600160a01b03821682036101bf57565b67ffffffffffffffff8111610f9357604052565b634e487b7160e01b5f52604160045260245ffd5b6040810190811067ffffffffffffffff821117610f9357604052565b90601f8019910116810190811067ffffffffffffffff821117610f9357604052565b908160209103126101bf57516001600160a01b03811681036101bf5790565b908160209103126101bf575180151581036101bf5790565b9190820391821161102957565b634e487b7160e01b5f52601160045260245ffd5b1561104457565b60405162461bcd60e51b815260206004820152601760248201527f494e53554646494349454e545f434f4c4c41544552414c0000000000000000006044820152606490fd5b9190820180921161102957565b81810291811591830414178202156110ac570490565b63ad251c275f526004601cfd5b6001600160a01b039081165f81815260016020908152604091829020825191906110e283610fa7565b60018154918285520154908284019182521561127257835163aa5af0fd60e01b81529082826004817f00000000000000000000000000000000000000000000000000000000000000008b165afa918215610ec1575f92611240575b50928291600494519081155f1461123057505051955b845163114a83a360e11b815293849182907f0000000000000000000000000000000000000000000000000000000000000000165afa8015611226575f906111f9575b5f92506111a06112e2565b80821184146111f15750935b8252525f20549080820290670de0b6b3a76400009283918184041490151702156110ac5704611f40808202906127109283918184041490151702156110ac5704101590565b9050936111ac565b508082813d831161121f575b61120f8183610fc3565b810103126101bf575f9151611195565b503d611205565b83513d5f823e3d90fd5b61123a9251611096565b95611153565b9150928282813d831161126b575b6112588183610fc3565b810103126101bf5790519092600461113d565b503d61124e565b505050505050600190565b919060145260345263a9059cbb60601b5f5260205f6044601082855af1908160015f511416156112b0575b50505f603452565b3b153d1710156112c1575f806112a8565b6390b8ec185f526004601cfd5b51906001600160701b03821682036101bf57565b604051630240bc6b60e21b81527f00000000000000000000000000000000000000000000000000000000000000006001600160a01b0316606082600481845afa9081156113de575f925f926113e9575b509060206004926040519384809263057078af60e51b82525afa9182156113de575f926113b6575b506001600160701b039192835f146113ad57828116935b156113a55750165b811561139f5781670de0b6b3a764000091828102928184041490151702156110ac570490565b50505f90565b905016611379565b82821693611371565b6001600160701b0392506113d89060203d60201161041d5761040d8183610fc3565b9161135a565b6040513d5f823e3d90fd5b925090506060823d60601161143f575b8161140660609383610fc3565b810103126101bf57611417826112ce565b906040611426602085016112ce565b93015163ffffffff8116036101bf579091906020611332565b3d91506113f956fea2646970667358221220c069017e602d2f2f3be354c588030a1bcdf35c0e6b721dc099a0a4c37c56d24864736f6c63430008180033","linkReferences":{}},"methodIdentifiers":{"CLOSE_FACTOR()":"4dab4dc0","COLLATERAL_FACTOR()":"17f49e05","LIQUIDATION_INCENTIVE()":"c66c144a","accountBorrows(address)":"d40e8f4a","borrow(uint256)":"c5ebeaec","collateralBalances(address)":"29bc969d","collateralToken()":"b2016bd4","depositCollateral(uint256)":"bad4a01f","getAccountHealth(address)":"e59e8018","lenderVault()":"06876d19","liquidate(address,uint256)":"bcbaf487","pair()":"a8aa1b31","repay(uint256)":"371fd8e6","withdrawCollateral(uint256)":"6112fe2e"},"id":25}