{"abi":[{"type":"constructor","inputs":[{"name":"_collateralToken","type":"address","internalType":"address"},{"name":"_pair","type":"address","internalType":"address"},{"name":"_lenderVault","type":"address","internalType":"address"}],"stateMutability":"nonpayable"},{"type":"function","name":"GRACE_PERIOD","inputs":[],"outputs":[{"name":"","type":"uint256","internalType":"uint256"}],"stateMutability":"view"},{"type":"function","name":"RECOVERY_BONUS_BPS","inputs":[],"outputs":[{"name":"","type":"uint256","internalType":"uint256"}],"stateMutability":"view"},{"type":"function","name":"accountBorrows","inputs":[{"name":"","type":"address","internalType":"address"}],"outputs":[{"name":"principal","type":"uint256","internalType":"uint256"},{"name":"interestIndex","type":"uint256","internalType":"uint256"},{"name":"lastHealthy","type":"uint256","internalType":"uint256"}],"stateMutability":"view"},{"type":"function","name":"borrow","inputs":[{"name":"amount","type":"uint256","internalType":"uint256"}],"outputs":[],"stateMutability":"nonpayable"},{"type":"function","name":"collateralBalances","inputs":[{"name":"","type":"address","internalType":"address"}],"outputs":[{"name":"","type":"uint256","internalType":"uint256"}],"stateMutability":"view"},{"type":"function","name":"collateralToken","inputs":[],"outputs":[{"name":"","type":"address","internalType":"address"}],"stateMutability":"view"},{"type":"function","name":"depositCollateral","inputs":[{"name":"amount","type":"uint256","internalType":"uint256"}],"outputs":[],"stateMutability":"nonpayable"},{"type":"function","name":"getAccountState","inputs":[{"name":"account","type":"address","internalType":"address"}],"outputs":[{"name":"collateral","type":"uint256","internalType":"uint256"},{"name":"debt","type":"uint256","internalType":"uint256"},{"name":"isHealthy","type":"bool","internalType":"bool"},{"name":"timeUntilRecoverable","type":"uint256","internalType":"uint256"}],"stateMutability":"view"},{"type":"function","name":"isPositionHealthy","inputs":[{"name":"account","type":"address","internalType":"address"}],"outputs":[{"name":"","type":"bool","internalType":"bool"}],"stateMutability":"view"},{"type":"function","name":"lenderVault","inputs":[],"outputs":[{"name":"","type":"address","internalType":"address"}],"stateMutability":"view"},{"type":"function","name":"pair","inputs":[],"outputs":[{"name":"","type":"address","internalType":"address"}],"stateMutability":"view"},{"type":"function","name":"recover","inputs":[{"name":"account","type":"address","internalType":"address"}],"outputs":[],"stateMutability":"nonpayable"},{"type":"function","name":"repay","inputs":[{"name":"amount","type":"uint256","internalType":"uint256"}],"outputs":[],"stateMutability":"nonpayable"},{"type":"function","name":"withdrawCollateral","inputs":[{"name":"amount","type":"uint256","internalType":"uint256"}],"outputs":[],"stateMutability":"nonpayable"},{"type":"event","name":"PositionClosed","inputs":[{"name":"account","type":"address","indexed":true,"internalType":"address"},{"name":"repaid","type":"uint256","indexed":false,"internalType":"uint256"}],"anonymous":false},{"type":"event","name":"PositionOpened","inputs":[{"name":"account","type":"address","indexed":true,"internalType":"address"},{"name":"collateral","type":"uint256","indexed":false,"internalType":"uint256"},{"name":"debt","type":"uint256","indexed":false,"internalType":"uint256"}],"anonymous":false},{"type":"event","name":"Recovered","inputs":[{"name":"account","type":"address","indexed":true,"internalType":"address"},{"name":"collateralSwapped","type":"uint256","indexed":false,"internalType":"uint256"},{"name":"debtRepaid","type":"uint256","indexed":false,"internalType":"uint256"},{"name":"bonus","type":"uint256","indexed":false,"internalType":"uint256"}],"anonymous":false},{"type":"error","name":"Reentrancy","inputs":[]}],"bytecode":{"object":"0x60e0346200016357601f62001e0138819003918201601f19168301916001600160401b03831184841017620001675780849260609460405283398101031262000163576200004d816200017b565b906200006a604062000062602084016200017b565b92016200017b565b9160805260a05260c052604051611c7090816200019182396080518181816105c7015281816106f0015281816109b40152611105015260a0518181816101d9015281816107350152818161101501528181611066015281816110e40152818161116e015281816111c701528181611589015281816115e20152611a2a015260c05181818161017401528181610571015281816107e20152818161092101528181610aa601528181610ea901528181610eec01528181610f970152818161122101528181611271015281816112c20152818161130e0152818161142e01528181611479015281816114c40152818161184f01526119ea0152f35b5f80fd5b634e487b7160e01b5f52604160045260245ffd5b51906001600160a01b0382168203620001635756fe6080806040526004361015610012575f80fd5b5f905f3560e01c90816306876d191461183d575080630cd865ec14610e6c57806329bc969d14610e30578063371fd8e614610a6d5780636112fe2e146108f25780639ee2735b14610764578063a8aa1b311461071f578063b2016bd4146106da578063bad4a01f14610541578063bafca75e14610506578063c1a287e2146104e8578063c5ebeaec1461013d578063d40e8f4a146100d65763d698eb76146100b8575f80fd5b346100d357806003193601126100d357602060405160648152f35b80fd5b50346100d35760203660031901126100d3576004356001600160a01b0381169081900361013957906040918152600160205220805461013560026001840154930154604051938493846040919493926060820195825260208201520152565b0390f35b5080fd5b50346100d3576020806003193601126101395760043568929eee149b4bd2126891308354146104db573083556001600160a01b03917f0000000000000000000000000000000000000000000000000000000000000000831690813b156103e75760405163a6afed9560e01b81528690818160048183885af180156104d0576104bc575b5050826004946040519586809263114a83a360e11b82527f0000000000000000000000000000000000000000000000000000000000000000165afa9384156103c557869461048d575b50338652858352604086205484810294670de0b6b3a76400009182918188041490151702156104805733875260018452604087209060405161024a816118a6565b825481526002600184015493878301948552015460408201526040519263aa5af0fd60e01b84528684600481895afa938415610475578a94610442575b5051838161043257505051955b0461029f83876118e4565b116103f85760026102b083876118e4565b91604051926102be846118a6565b83528583019081526040830190428252338a526001875260408a209351845551600184015551910155813b156103e75760405163317afabb60e21b81526004810182905286808260248183885af19182156103eb5785926103d0575b50506040516338d52e0f60e01b815292839060049082905afa80156103c5578161035191610362948991610398575b503390611be9565b3386528583526040862054936118e4565b906040519283528201527fc491b8e6940cb48fcf9cf813c35e2d45fad221af7d5f4ce18d77dc576e5bf22060403392a238905580f35b6103b89150863d88116103be575b6103b081836118c2565b810190611967565b5f610349565b503d6103a6565b6040513d88823e3d90fd5b6103db91925061187e565b6103e75782865f61031a565b8580fd5b50604051903d90823e3d90fd5b60405162461bcd60e51b8152600481018590526012602482015271455843454544535f504d494e5f56414c554560701b6044820152606490fd5b61043c9251611bd3565b95610294565b9093508681813d831161046e575b61045a81836118c2565b8101031261046a5751925f610287565b5f80fd5b503d610450565b6040513d8c823e3d90fd5b63ad251c2787526004601cfd5b9093508281813d83116104b5575b6104a581836118c2565b8101031261046a5751925f610209565b503d61049b565b6104c59061187e565b6103e757855f6101c0565b6040513d84823e3d90fd5b63ab143c0684526004601cfd5b50346100d357806003193601126100d35760206040516203f4808152f35b50346100d35760203660031901126100d357600435906001600160a01b03821682036100d357602061053783611993565b6040519015158152f35b50346100d357602080600319360112610139576004359068929eee149b4bd2126891308354146104db57308355837f00000000000000000000000000000000000000000000000000000000000000006001600160a01b0316803b156101395781809160046040518094819363a6afed9560e01b83525af180156104d0576106c2575b50507f00000000000000000000000000000000000000000000000000000000000000006040519082606052306040523360601b602c526323b872dd60601b600c5283866064601c82855af19081600188511416156106a4575b50508460605260405233845283825261063a604085209182546118e4565b90553383526001815260408320604051610653816118a6565b604060028354938484526001810154868501520154910152151580610695575b61067f575b5038905580f35b600190338452524260026040842001555f610678565b5061069f33611993565b610673565b3b153d1710156106b5575f8061061c565b637939f42485526004601cfd5b6106cb9061187e565b6106d657835f6105c3565b8380fd5b50346100d357806003193601126100d3576040517f00000000000000000000000000000000000000000000000000000000000000006001600160a01b03168152602090f35b50346100d357806003193601126100d3576040517f00000000000000000000000000000000000000000000000000000000000000006001600160a01b03168152602090f35b50346100d357602080600319360112610139576004356001600160a01b03818116918281036108ee57849285528484526040852054936001815260408620926004604051946107b2866118a6565b80548652836002600183015492828901938452015493604088019485526040519384809263aa5af0fd60e01b82527f0000000000000000000000000000000000000000000000000000000000000000165afa9182156108e35789926108b4575b5051908161089f575050610827845193611993565b1580948195610894575b50610852575b50608095506040519485528401521560408301526060820152f35b516203f4808101809111610880576080965080421015610837576108799194504290611986565b925f610837565b634e487b7160e01b87526011600452602487fd5b90505115155f610831565b610827916108ae918751611bd3565b93611993565b9091508381813d83116108dc575b6108cc81836118c2565b8101031261046a5751905f610812565b503d6108c2565b6040513d8b823e3d90fd5b8480fd5b50346100d3576020806003193601126101395760043568929eee149b4bd2126891308354146104db57308355837f00000000000000000000000000000000000000000000000000000000000000006001600160a01b0316803b156101395781809160046040518094819363a6afed9560e01b83525af180156104d057610a59575b5050338452600181526040842054610a2257338452838152816040852054106109de5790836109d89233825252604084206109af828254611986565b9055337f0000000000000000000000000000000000000000000000000000000000000000611be9565b38905580f35b6064906040519062461bcd60e51b82526004820152601760248201527f494e53554646494349454e545f434f4c4c41544552414c0000000000000000006044820152fd5b6064906040519062461bcd60e51b82526004820152601060248201526f13d55514d5105391125391d7d111509560821b6044820152fd5b610a629061187e565b6106d657835f610973565b50346100d3576020806003193601126101395760043568929eee149b4bd2126891308354146104db573083556001600160a01b039184907f000000000000000000000000000000000000000000000000000000000000000084811691823b156106d65760405163a6afed9560e01b8152848160048183885af1908115610d29578591610e1c575b50503384526001958686526040852096604051610b10816118a6565b885481526002828a0154998983019a8b52015490604081019182526040519963aa5af0fd60e01b8b52898b6004818b5afa9a8b156108e357899b610de9575b50518a81610dd957505051935b84811115610dd3575083985b6040516338d52e0f60e01b808252958a826004818c5afa9182156104755786928d8d928d92610db1575b506064908d60405196879485936323b872dd60e01b85523360048601523060248601526044850152165af1918215610475578c92610d94575b50818103610d34575050505060025f9133885280895282604089209181835582015501555b6040519182528582600481875afa8015610d2957610c4a9386899389958294610d0a575b5060405163095ea7b360e01b81526001600160a01b03909316600484015260248301949094529094859384929183906044820190565b0393165af18015610cff57610cd2575b50803b1561013957818091602460405180948193631b8fec7360e11b83528960048401525af180156104d057610cbe575b50507fa9e0cdf27a7965d21573ebb808fbcb2c2a1cfd656e1ecf3f82549437b4740677906040519283523392a238905580f35b610cc79061187e565b6106d657835f610c8b565b610cf190843d8611610cf8575b610ce981836118c2565b81019061194f565b505f610c5a565b503d610cdf565b6040513d85823e3d90fd5b610d22919450863d88116103be576103b081836118c2565b925f610c14565b6040513d87823e3d90fd5b6002939491610d4291611986565b93610d4c33611993565b15610d8d575042915b60405194610d62866118a6565b85528a850190815260408501928352338a52818b5260408a2094518555519084015551910155610bf0565b5191610d55565b610daa908c8d3d10610cf857610ce981836118c2565b505f610bcb565b6064919250610dcc90843d86116103be576103b081836118c2565b9190610b92565b98610b68565b610de39251611bd3565b93610b5c565b8a80929c50819a503d8311610e15575b610e0381836118c2565b8101031261046a578b9751995f610b4f565b503d610df9565b610e259061187e565b6106d657835f610af4565b50346100d35760203660031901126100d3576004356001600160a01b038116908190036101395781604091602093528083522054604051908152f35b503461046a57602036600319011261046a576004356001600160a01b038116810361046a5768929eee149b4bd212689030825414611830573082557f00000000000000000000000000000000000000000000000000000000000000006001600160a01b03163b1561046a5760405163a6afed9560e01b81525f81600481837f00000000000000000000000000000000000000000000000000000000000000006001600160a01b03165af1801561182557611812575b506001600160a01b038116835260016020526040808420905190610f44826118a6565b80548252600260018201549160208401928352015460408301908152610f6984611993565b6117da57516203f48081018091116117c657421061178d5760405163aa5af0fd60e01b8152906020826004817f00000000000000000000000000000000000000000000000000000000000000006001600160a01b03165afa9182156103c5578692611759575b5051908161174a575050515b6001600160a01b0382168452602084905260408420549182151580611741575b1561170957604051630240bc6b60e21b81526060816004817f00000000000000000000000000000000000000000000000000000000000000006001600160a01b03165afa9081156103c557869087926116d6575b5060405163057078af60e51b8152916020836004817f00000000000000000000000000000000000000000000000000000000000000006001600160a01b03165afa9283156116cb5788936116a1575b506001600160a01b038416808952600160208181526040808c205f80825593810184905560020192909255918a529089905288208890556001600160701b0390611129877f00000000000000000000000000000000000000000000000000000000000000007f0000000000000000000000000000000000000000000000000000000000000000611be9565b831561169857818316925b841561168f575016905b81860291868304148615171561167b5785611158916118e4565b90811561166757049081156116325715611587577f00000000000000000000000000000000000000000000000000000000000000006001600160a01b03163b156103e7576040516336cd320560e11b8152600481018790526024810182905230604482015286908181606481837f00000000000000000000000000000000000000000000000000000000000000006001600160a01b03165af180156104d057611573575b50505b82811190811561156c57835b6040516338d52e0f60e01b8152916020836004817f00000000000000000000000000000000000000000000000000000000000000006001600160a01b03165afa9283156108e357899361154b575b5060405163095ea7b360e01b81526001600160a01b037f000000000000000000000000000000000000000000000000000000000000000016600482015260248101879052602081806044810103818d6001600160a01b0389165af180156104755761152c575b507f00000000000000000000000000000000000000000000000000000000000000006001600160a01b03163b1561150d57604051631b8fec7360e11b81526004810187905289908181602481837f00000000000000000000000000000000000000000000000000000000000000006001600160a01b03165af180156104d057611518575b50508582111561151157886113588784611986565b80611477575b50936113b9575b505060408051958652602086019490945250918301919091526001600160a01b0316907f03fc2d4f2e2e4e84069307a4d3a9b7ad25d93e2026627031a87b54a1c61907ce9080606081015b0390a238905580f35b6113c4929350611986565b90606482026127109081606485830414851517021561146a57916114177f03fc2d4f2e2e4e84069307a4d3a9b7ad25d93e2026627031a87b54a1c61907ce969594926113b0940480938161145a57611986565b80611428575b508193949550611365565b611453917f000000000000000000000000000000000000000000000000000000000000000090611be9565b5f8061141d565b611465823386611be9565b611986565b63ad251c2789526004601cfd5b7f00000000000000000000000000000000000000000000000000000000000000006001600160a01b03163b156101395760405163763c209760e11b815260048101919091528181602481837f00000000000000000000000000000000000000000000000000000000000000006001600160a01b03165af180156104d0571561135e576115029061187e565b61150d57885f61135e565b8880fd5b8880611358565b6115219061187e565b61150d57885f611343565b6115449060203d602011610cf857610ce981836118c2565b505f6112bf565b61156591935060203d6020116103be576103b081836118c2565b915f611259565b809361120b565b61157c9061187e565b6103e757855f6111fc565b7f00000000000000000000000000000000000000000000000000000000000000006001600160a01b03163b156103e7576040516336cd320560e11b8152600481018290526024810187905230604482015286908181606481837f00000000000000000000000000000000000000000000000000000000000000006001600160a01b03165af180156104d05761161e575b50506111ff565b6116279061187e565b6103e757855f611617565b60405162461bcd60e51b815260206004820152600d60248201526c222aa9aa2fa827a9a4aa24a7a760991b6044820152606490fd5b634e487b7160e01b88526012600452602488fd5b634e487b7160e01b88526011600452602488fd5b9050169061113e565b81811692611134565b6001600160701b039193506116c49060203d602011610cf857610ce981836118c2565b929061109e565b6040513d8a823e3d90fd5b90506116fa915060603d606011611702575b6116f281836118c2565b810190611919565b50905f61104f565b503d6116e8565b60405162461bcd60e51b815260206004820152601060248201526f24a72b20a624a22fa827a9a4aa24a7a760811b6044820152606490fd5b50811515610ffb565b6117549251611bd3565b610fdb565b9091506020813d602011611785575b81611775602093836118c2565b8101031261046a5751905f610fcf565b3d9150611768565b60405162461bcd60e51b815260206004820152601160248201527011d49050d157d393d517d1561412549151607a1b6044820152606490fd5b634e487b7160e01b86526011600452602486fd5b60405162461bcd60e51b815260206004820152601060248201526f504f534954494f4e5f4845414c54485960801b6044820152606490fd5b61181d91935061187e565b5f915f610f21565b6040513d5f823e3d90fd5b63ab143c065f526004601cfd5b3461046a575f36600319011261046a577f00000000000000000000000000000000000000000000000000000000000000006001600160a01b03168152602090f35b67ffffffffffffffff811161189257604052565b634e487b7160e01b5f52604160045260245ffd5b6060810190811067ffffffffffffffff82111761189257604052565b90601f8019910116810190811067ffffffffffffffff82111761189257604052565b919082018092116118f157565b634e487b7160e01b5f52601160045260245ffd5b51906001600160701b038216820361046a57565b9081606091031261046a5761192d81611905565b91604061193c60208401611905565b92015163ffffffff8116810361046a5790565b9081602091031261046a5751801515810361046a5790565b9081602091031261046a57516001600160a01b038116810361046a5790565b919082039182116118f157565b60018060a01b03809116805f52602090600182526040805f208151906119b8826118a6565b8054808352600260018301549287850193845201548484015215611bc857825163aa5af0fd60e01b81529085826004817f00000000000000000000000000000000000000000000000000000000000000008b165afa918215611bbe575f92611b8f575b50519081611b7f57505051935b7f0000000000000000000000000000000000000000000000000000000000000000168151630240bc6b60e21b8152606081600481855afa918215611b4d57908560049493925f925f94611b57575b50845163057078af60e51b815295869182905afa938415611b4d575f94611b23575b506001600160701b0391908415611b1a57828116945b15611b125750165b8215611b0857670de0b6b3a764000094838683029287818504149015170215611afb5785935f9204948252525f205482810292818404149015170215611afb57041190565b63ad251c275f526004601cfd5b5050505050505f90565b905016611ab6565b82821694611aae565b6001600160701b0392919450611b4590873d8911610cf857610ce981836118c2565b939091611a98565b83513d5f823e3d90fd5b909350611b7491925060603d606011611702576116f281836118c2565b50919091925f611a76565b611b899251611bd3565b93611a28565b9091508581813d8311611bb7575b611ba781836118c2565b8101031261046a5751905f611a1b565b503d611b9d565b84513d5f823e3d90fd5b505050505050600190565b8181029181159183041417820215611afb570490565b919060145260345263a9059cbb60601b5f5260205f6044601082855af1908160015f51141615611c1c575b50505f603452565b3b153d171015611c2d575f80611c14565b6390b8ec185f526004601cfdfea26469706673582212208f16d90d06a488b691b4009035baa16eae19ba595e2e59558d1721387a3259bc64736f6c63430008180033","linkReferences":{}},"methodIdentifiers":{"GRACE_PERIOD()":"c1a287e2","RECOVERY_BONUS_BPS()":"d698eb76","accountBorrows(address)":"d40e8f4a","borrow(uint256)":"c5ebeaec","collateralBalances(address)":"29bc969d","collateralToken()":"b2016bd4","depositCollateral(uint256)":"bad4a01f","getAccountState(address)":"9ee2735b","isPositionHealthy(address)":"bafca75e","lenderVault()":"06876d19","pair()":"a8aa1b31","recover(address)":"0cd865ec","repay(uint256)":"371fd8e6","withdrawCollateral(uint256)":"6112fe2e"},"id":35}