{"abi":[{"type":"constructor","inputs":[{"name":"_collateralToken","type":"address","internalType":"address"},{"name":"_pair","type":"address","internalType":"address"},{"name":"_lenderVault","type":"address","internalType":"address"}],"stateMutability":"nonpayable"},{"type":"function","name":"GRACE_PERIOD","inputs":[],"outputs":[{"name":"","type":"uint256","internalType":"uint256"}],"stateMutability":"view"},{"type":"function","name":"RECOVERY_BONUS_BPS","inputs":[],"outputs":[{"name":"","type":"uint256","internalType":"uint256"}],"stateMutability":"view"},{"type":"function","name":"accountBorrows","inputs":[{"name":"","type":"address","internalType":"address"}],"outputs":[{"name":"principal","type":"uint256","internalType":"uint256"},{"name":"interestIndex","type":"uint256","internalType":"uint256"}],"stateMutability":"view"},{"type":"function","name":"borrow","inputs":[{"name":"amount","type":"uint256","internalType":"uint256"}],"outputs":[],"stateMutability":"nonpayable"},{"type":"function","name":"collateralBalances","inputs":[{"name":"","type":"address","internalType":"address"}],"outputs":[{"name":"","type":"uint256","internalType":"uint256"}],"stateMutability":"view"},{"type":"function","name":"collateralToken","inputs":[],"outputs":[{"name":"","type":"address","internalType":"address"}],"stateMutability":"view"},{"type":"function","name":"depositCollateral","inputs":[{"name":"amount","type":"uint256","internalType":"uint256"}],"outputs":[],"stateMutability":"nonpayable"},{"type":"function","name":"getAccountState","inputs":[{"name":"account","type":"address","internalType":"address"}],"outputs":[{"name":"collateral","type":"uint256","internalType":"uint256"},{"name":"debt","type":"uint256","internalType":"uint256"},{"name":"isHealthy","type":"bool","internalType":"bool"},{"name":"isOTM","type":"bool","internalType":"bool"},{"name":"timeUntilRecoverable","type":"uint256","internalType":"uint256"}],"stateMutability":"view"},{"type":"function","name":"isPositionHealthy","inputs":[{"name":"account","type":"address","internalType":"address"}],"outputs":[{"name":"","type":"bool","internalType":"bool"}],"stateMutability":"view"},{"type":"function","name":"lenderVault","inputs":[],"outputs":[{"name":"","type":"address","internalType":"address"}],"stateMutability":"view"},{"type":"function","name":"markOTM","inputs":[{"name":"account","type":"address","internalType":"address"}],"outputs":[],"stateMutability":"nonpayable"},{"type":"function","name":"otmPositions","inputs":[{"name":"","type":"address","internalType":"address"}],"outputs":[{"name":"markTime","type":"uint256","internalType":"uint256"},{"name":"isOTM","type":"bool","internalType":"bool"}],"stateMutability":"view"},{"type":"function","name":"pair","inputs":[],"outputs":[{"name":"","type":"address","internalType":"address"}],"stateMutability":"view"},{"type":"function","name":"recover","inputs":[{"name":"account","type":"address","internalType":"address"}],"outputs":[],"stateMutability":"nonpayable"},{"type":"function","name":"repay","inputs":[{"name":"amount","type":"uint256","internalType":"uint256"}],"outputs":[],"stateMutability":"nonpayable"},{"type":"function","name":"withdrawCollateral","inputs":[{"name":"amount","type":"uint256","internalType":"uint256"}],"outputs":[],"stateMutability":"nonpayable"},{"type":"event","name":"MarkedOTM","inputs":[{"name":"account","type":"address","indexed":true,"internalType":"address"},{"name":"markTime","type":"uint256","indexed":false,"internalType":"uint256"}],"anonymous":false},{"type":"event","name":"PositionClosed","inputs":[{"name":"account","type":"address","indexed":true,"internalType":"address"},{"name":"repaid","type":"uint256","indexed":false,"internalType":"uint256"}],"anonymous":false},{"type":"event","name":"PositionOpened","inputs":[{"name":"account","type":"address","indexed":true,"internalType":"address"},{"name":"collateral","type":"uint256","indexed":false,"internalType":"uint256"},{"name":"debt","type":"uint256","indexed":false,"internalType":"uint256"}],"anonymous":false},{"type":"event","name":"Recovered","inputs":[{"name":"account","type":"address","indexed":true,"internalType":"address"},{"name":"collateralSwapped","type":"uint256","indexed":false,"internalType":"uint256"},{"name":"debtRepaid","type":"uint256","indexed":false,"internalType":"uint256"},{"name":"bonus","type":"uint256","indexed":false,"internalType":"uint256"}],"anonymous":false},{"type":"error","name":"Reentrancy","inputs":[]}],"bytecode":{"object":"0x60e034620000fa57601f62001ca038819003918201601f19168301916001600160401b03831184841017620000fe57808492606094604052833981010312620000fa576200004d8162000112565b906200006a6040620000626020840162000112565b920162000112565b9160805260a05260c052604051611b7890816200012882396080518181816106860152818161085c01528181610b4d01526110ad015260a051818181610219015281816108a0015281816110870152611932015260c0518181816101b9015281816106160152818161093e01528181610abe01528181610c5001528181610f600152818161175f01526118f20152f35b5f80fd5b634e487b7160e01b5f52604160045260245ffd5b51906001600160a01b0382168203620000fa5756fe6080604081815260049182361015610015575f80fd5b5f925f3560e01c91826306876d191461174d575081630cd865ec14610f1d57816329bc969d14610ee4578163371fd8e614610c155781636112fe2e14610a8c5781639ee2735b146108cf578163a8aa1b311461088b578163b2016bd414610847578163b2aaa1541461072e578163bad4a01f146105e6578163bafca75e146105a9578163c1a287e21461058b578163c5ebeaec14610181578163c877bf2b14610138578163d40e8f4a146100f0575063d698eb76146100d2575f80fd5b346100ec57816003193601126100ec576020905160648152f35b5080fd5b90503461013457602036600319011261013457356001600160a01b038116908190036101345791819281526001602052206001815491015482519182526020820152f35b8280fd5b90503461013457602036600319011261013457356001600160a01b0381169081900361013457918192815260026020522060ff6001825492015416825191825215156020820152f35b90503461013457602091826003193601126105875781359268929eee149b4bd21268933085541461057b573085556001600160a01b037f000000000000000000000000000000000000000000000000000000000000000081169490853b1561057757845163a6afed9560e01b8152889081818581838c5af1801561046a57610563575b5050845163114a83a360e11b815295848784817f000000000000000000000000000000000000000000000000000000000000000086165afa96871561055957899761052a575b503389528885528589205487810297670de0b6b3a7640000918291818b0414901517021561051e57338a5260018652868a2090600188519261028b846117b6565b805484520154878301908152885163aa5af0fd60e01b8152929088848881885afa938415610514578d946104e1575b505183816104d157505051985b046102d2868a6117f4565b11610499579089929160016102e7878b6117f4565b918951926102f4846117b6565b83528883019081523386528189528986209251835551910155600286525f60018885208281550155803b1561013457865163317afabb60e21b8152848101869052838160248183865af1801561048f5791879186959493610474575b5088516338d52e0f60e01b815295869182905afa93841561046a5792826103a89592889588959461043b575b50895163a9059cbb60e01b81523393810193845260208401959095529395869485939091849160400190565b0393165af1801561043157916103f2917fc491b8e6940cb48fcf9cf813c35e2d45fad221af7d5f4ce18d77dc576e5bf220959493610404575b5033885287835283882054956117f4565b9082519485528401523392a238905580f35b61042390843d861161042a575b61041b81836117d2565b81019061185f565b505f6103e1565b503d610411565b84513d89823e3d90fd5b61045c919450863d8811610463575b61045481836117d2565b810190611884565b925f61037c565b503d61044a565b87513d84823e3d90fd5b61048291955084925061178e565b6100ec578584935f610350565b88513d86823e3d90fd5b865162461bcd60e51b81528085018790526012602482015271455843454544535f504d494e5f56414c554560701b6044820152606490fd5b6104db9251611adb565b986102c7565b9093508881813d831161050d575b6104f981836117d2565b810103126105095751925f6102ba565b5f80fd5b503d6104ef565b8a513d8f823e3d90fd5b8363ad251c278b52601cfd5b9096508481813d8311610552575b61054281836117d2565b810103126105095751955f61024a565b503d610538565b86513d8b823e3d90fd5b61056c9061178e565b61057757875f610204565b8780fd5b8363ab143c068752601cfd5b8380fd5b5050346100ec57816003193601126100ec57602090516203f4808152f35b9050346101345760203660031901126101345735916001600160a01b03831683036105e357506105da6020926118a3565b90519015158152f35b80fd5b919050346101345760203660031901126101345781359068929eee149b4bd21268923084541461072357308455847f00000000000000000000000000000000000000000000000000000000000000006001600160a01b0316803b156100ec578180918486518094819363a6afed9560e01b83525af1801561071957610701575b50508151606084815230845233901b602c526323b872dd60601b600c52907f00000000000000000000000000000000000000000000000000000000000000006020876064601c82855af19081600189511416156106e5575b505050906106dd918560605281523385528460205284209182546117f4565b905538905580f35b3b153d1710156106f65780806106be565b637939f4248652601cfd5b61070a9061178e565b61071557845f610666565b8480fd5b84513d84823e3d90fd5b63ab143c068552601cfd5b9190503461013457602090816003193601126105875782356001600160a01b038116939084810361084357610762906118a3565b61080f578385526002835260ff60018387200154166107dd575090817f8f17989de614b609a275ea9f16bd81d93bcc76f661c680aae38bebb3f59d27e892516107aa816117b6565b4281526001838201918183528688526002855283882090518155019051151560ff8019835416911617905551428152a280f35b82606492519162461bcd60e51b8352820152600e60248201526d1053149150511657d3505492d15160921b6044820152fd5b82606492519162461bcd60e51b8352820152601060248201526f504f534954494f4e5f4845414c54485960801b6044820152fd5b8580fd5b5050346100ec57816003193601126100ec57517f00000000000000000000000000000000000000000000000000000000000000006001600160a01b03168152602090f35b5050346100ec57816003193601126100ec57517f00000000000000000000000000000000000000000000000000000000000000006001600160a01b03168152602090f35b8284346105e357602090816003193601126105e3576001600160a01b0392843584811690818103610587578394828552848152878486205497600183528587209083600188519361091f856117b6565b8054855201549181840192835288519485809263aa5af0fd60e01b82527f0000000000000000000000000000000000000000000000000000000000000000165afa908115610a82578891610a51575b5161098393509081610a4157505051926118a3565b92855260028152838520948451610999816117b6565b60ff600188549889845201541615158097818584015281610a17575b506109db575b505060a09750835196875286015215159084015260608301526080820152f35b519196506203f4808201918210610a04575060a097506109fc904290611877565b9488806109bb565b634e487b7160e01b815260118952602490fd5b90506203f4808101809111610a2e5742108b6109b5565b634e487b7160e01b835260118b52602483fd5b610a4b9251611adb565b926118a3565b90508383813d8311610a7b575b610a6881836117d2565b810103126105095761098392519061096e565b503d610a5e565b87513d8a823e3d90fd5b9190503461013457602090816003193601126105875782359168929eee149b4bd212689330855414610c0a57308555857f00000000000000000000000000000000000000000000000000000000000000006001600160a01b0316803b156100ec578180918487518094819363a6afed9560e01b83525af18015610c0057610bec575b50503386526001825282862054610bb857338652858252838387205410610b7757509084610b719392338252528420610b48828254611877565b9055337f0000000000000000000000000000000000000000000000000000000000000000611af1565b38905580f35b915162461bcd60e51b815291820152601760248201527f494e53554646494349454e545f434f4c4c41544552414c0000000000000000006044820152606490fd5b915162461bcd60e51b815291820152601060248201526f13d55514d5105391125391d7d111509560821b6044820152606490fd5b610bf59061178e565b61084357855f610b0e565b85513d84823e3d90fd5b63ab143c068652601cfd5b90503461013457602091826003193601126105875781359268929eee149b4bd21268933085541461057b573085556001600160a01b039386917f000000000000000000000000000000000000000000000000000000000000000086169190823b1561058757855163a6afed9560e01b81528481848183885af18015610eda57908591610ec6575b505033845260018086528685209181885193610cb7856117b6565b805485520154878401908152885163aa5af0fd60e01b81529390888587818a5afa948515610e74578895610e94575b50518481610e8457505051905b81811115610e7e575080985b88516338d52e0f60e01b8152888187818a5afa908115610e74579089918991610e57575b5060648c8a8d5195869485936323b872dd60e01b8552338d8601523060248601526044850152165af18015610e4d57908a9291610e30575b50818103610dfb5750505f9150338552808652818188872082815501553385526002865286852082815501555b813b156101345785602484928388519586948593631b8fec7360e11b85528401525af1801561071957610de7575b50507fa9e0cdf27a7965d21573ebb808fbcb2c2a1cfd656e1ecf3f82549437b474067791519283523392a238905580f35b610df09061178e565b61071557845f610db6565b90610e0591611877565b91875192610e12846117b6565b83528683019081523386528187528786209251835551910155610d88565b610e4690893d8b1161042a5761041b81836117d2565b505f610d5b565b89513d89823e3d90fd5b610e6e9150823d84116104635761045481836117d2565b5f610d23565b8a513d8a823e3d90fd5b98610cff565b610e8e9251611adb565b90610cf3565b975093508787813d8111610ebf575b610ead81836117d2565b81010312610509578b9651935f610ce6565b503d610ea3565b610ecf9061178e565b61058757835f610c9c565b87513d87823e3d90fd5b90503461013457602036600319011261013457356001600160a01b03811690819003610134578282916020945280845220549051908152f35b9190503461050957602080600319360112610509576001600160a01b03833581811693908490036105095768929eee149b4bd212689430865414611742573086557f00000000000000000000000000000000000000000000000000000000000000009383851691823b1561050957835163a6afed9560e01b81525f81838183885af1801561173857611725575b5086895260028252838920948451610fc1816117b6565b8654815260ff60018098015416158015858301526116f157516203f48081018091116116de5742106116a657878a52858352848a2086865191611003836117b6565b805483520154848201908152865163aa5af0fd60e01b815290858286818a5afa91821561169c578d9261166d575b5051908161165d57505051965b888b528a8452858b205497881597881580611654575b1561161e57905f8d928c845280885281818b862082815501558c8452838852838a812055600288528984208281550155837f00000000000000000000000000000000000000000000000000000000000000006110d18c827f0000000000000000000000000000000000000000000000000000000000000000611af1565b16885199630240bc6b60e21b8b5260608b8881855afa801561161457849b85916115de575b508a5163057078af60e51b81529b898d8a81875afa9c8d156115d457869d6115aa575b508c916001600160701b039183156115a157828116935b15611598575016915b8b51634bafc7a360e11b81528a818b81885afa96871561158d579661155e575b50612710958603868111611548578e9181889284029384041417021561153a57859004908282029282840414821517156115255790611197916117f4565b9081156115115704998a156114de578e91901561148857803b156100ec578180606489828f958f5196879586946336cd320560e11b865285015260248401523060448401525af1801561147e57611466575b50505b80891198891561145e578d82985b8a516338d52e0f60e01b81529689888a81855afa978815611408578a918a8e8e93879c61142f575b505163095ea7b360e01b81526001600160a01b038b1691810191825260208201939093529192918391908290879082906040015b03928d165af1801561140857611412575b50803b156100ec578a51631b8fec7360e11b81528881018b9052828160248183865af18015611408579083916113f4575b5050898411156113ee576112ac8a85611877565b80611398575b5050996112f7575b8d8d8d7f03fc2d4f2e2e4e84069307a4d3a9b7ad25d93e2026627031a87b54a1c61907ce60608f8f8f8f8f8251948552840152820152a238905580f35b611305929394959950611877565b9660648802908260648a8404148a1517021561138d5750916113586060989694927f03fc2d4f2e2e4e84069307a4d3a9b7ad25d93e2026627031a87b54a1c61907ce9a9896940480978161137d57611877565b908161136c575b83959799859799506112ba565b61137592611af1565b5f808061135f565b611388823387611af1565b611877565b63ad251c278d52601cfd5b813b1561013457829060248a838f51958694859363763c209760e11b85528401525af180156113e4576113cc575b806112b2565b6113d59061178e565b6113e0578d5f6113c6565b8d80fd5b8b513d84823e3d90fd5b816112ac565b6113fd9061178e565b6100ec57815f611298565b8c513d85823e3d90fd5b611428908a3d8c1161042a5761041b81836117d2565b505f611267565b8b919c50859493926114518992611256983d89116104635761045481836117d2565b9d92509293949550611222565b8d81986111fa565b61146f9061178e565b61147a578c5f6111e9565b8c80fd5b8a513d84823e3d90fd5b803b156100ec5781809160648d8d5194859384926336cd320560e11b84528d8401528160248401523060448401525af1801561147e576114ca575b50506111ec565b6114d39061178e565b61147a578c5f6114c3565b895162461bcd60e51b8152808801899052600d60248201526c222aa9aa2fa827a9a4aa24a7a760991b6044820152606490fd5b50634e487b7160e01b8f526012875260248ffd5b5050634e487b7160e01b8f526011875260248ffd5b508f63ad251c27899152601cfd5b50505060248f601189634e487b7160e01b835252fd5b9095508981813d8311611586575b61157681836117d2565b810103126105095751945f611159565b503d61156c565b8d51903d90823e3d90fd5b90501691611139565b82821693611130565b6001600160701b0391929d506115cc908b3d8d1161042a5761041b81836117d2565b9c9190611119565b8c513d88823e3d90fd5b9050611603919b5060603d60601161160d575b6115fb81836117d2565b810190611829565b509a909a5f6110f6565b503d6115f1565b8a513d86823e3d90fd5b875162461bcd60e51b8152808601879052601060248201526f24a72b20a624a22fa827a9a4aa24a7a760811b6044820152606490fd5b50811515611054565b6116679251611adb565b9661103e565b9091508581813d8311611695575b61168581836117d2565b810103126105095751905f611031565b503d61167b565b88513d8f823e3d90fd5b5060649184519162461bcd60e51b8352820152601360248201527247524143455f504552494f445f41435449564560681b6044820152fd5b634e487b7160e01b8b526011835260248bfd5b855162461bcd60e51b8152808401859052600e60248201526d4e4f545f4d41524b45445f4f544d60901b6044820152606490fd5b61173091995061178e565b5f975f610faa565b85513d5f823e3d90fd5b63ab143c065f52601cfd5b34610509575f366003190112610509577f00000000000000000000000000000000000000000000000000000000000000006001600160a01b03168152602090f35b67ffffffffffffffff81116117a257604052565b634e487b7160e01b5f52604160045260245ffd5b6040810190811067ffffffffffffffff8211176117a257604052565b90601f8019910116810190811067ffffffffffffffff8211176117a257604052565b9190820180921161180157565b634e487b7160e01b5f52601160045260245ffd5b51906001600160701b038216820361050957565b908160609103126105095761183d81611815565b91604061184c60208401611815565b92015163ffffffff811681036105095790565b90816020910312610509575180151581036105095790565b9190820391821161180157565b9081602091031261050957516001600160a01b03811681036105095790565b60018060a01b03809116805f52602090600182526040805f208151906118c8826117b6565b600181549182845201549085830191825215611ad057825163aa5af0fd60e01b81529085826004817f00000000000000000000000000000000000000000000000000000000000000008b165afa918215611ac6575f92611a97575b50519081611a8757505051935b7f0000000000000000000000000000000000000000000000000000000000000000168151630240bc6b60e21b8152606081600481855afa918215611a5557908560049493925f925f94611a5f575b50845163057078af60e51b815295869182905afa938415611a55575f94611a2b575b506001600160701b0391908415611a2257828116945b15611a1a5750165b8215611a1057670de0b6b3a764000094838683029287818504149015170215611a035785935f9204948252525f205482810292818404149015170215611a0357041190565b63ad251c275f526004601cfd5b5050505050505f90565b9050166119be565b828216946119b6565b6001600160701b0392919450611a4d90873d891161042a5761041b81836117d2565b9390916119a0565b83513d5f823e3d90fd5b909350611a7c91925060603d60601161160d576115fb81836117d2565b50919091925f61197e565b611a919251611adb565b93611930565b9091508581813d8311611abf575b611aaf81836117d2565b810103126105095751905f611923565b503d611aa5565b84513d5f823e3d90fd5b505050505050600190565b8181029181159183041417820215611a03570490565b919060145260345263a9059cbb60601b5f5260205f6044601082855af1908160015f51141615611b24575b50505f603452565b3b153d171015611b35575f80611b1c565b6390b8ec185f526004601cfdfea264697066735822122007d45c49e531ea01282bff777b7138956f768d9ddf82c08ed550d9d0f8e012d364736f6c63430008180033","linkReferences":{}},"methodIdentifiers":{"GRACE_PERIOD()":"c1a287e2","RECOVERY_BONUS_BPS()":"d698eb76","accountBorrows(address)":"d40e8f4a","borrow(uint256)":"c5ebeaec","collateralBalances(address)":"29bc969d","collateralToken()":"b2016bd4","depositCollateral(uint256)":"bad4a01f","getAccountState(address)":"9ee2735b","isPositionHealthy(address)":"bafca75e","lenderVault()":"06876d19","markOTM(address)":"b2aaa154","otmPositions(address)":"c877bf2b","pair()":"a8aa1b31","recover(address)":"0cd865ec","repay(uint256)":"371fd8e6","withdrawCollateral(uint256)":"6112fe2e"},"id":25}