{"abi":[{"type":"constructor","inputs":[{"name":"_collateralToken","type":"address","internalType":"address"},{"name":"_pair","type":"address","internalType":"address"},{"name":"_lenderVault","type":"address","internalType":"address"}],"stateMutability":"nonpayable"},{"type":"function","name":"GRACE_PERIOD","inputs":[],"outputs":[{"name":"","type":"uint256","internalType":"uint256"}],"stateMutability":"view"},{"type":"function","name":"RECOVERY_BONUS_BPS","inputs":[],"outputs":[{"name":"","type":"uint256","internalType":"uint256"}],"stateMutability":"view"},{"type":"function","name":"accountBorrows","inputs":[{"name":"","type":"address","internalType":"address"}],"outputs":[{"name":"principal","type":"uint256","internalType":"uint256"},{"name":"interestIndex","type":"uint256","internalType":"uint256"}],"stateMutability":"view"},{"type":"function","name":"borrow","inputs":[{"name":"amount","type":"uint256","internalType":"uint256"}],"outputs":[],"stateMutability":"nonpayable"},{"type":"function","name":"collateralBalances","inputs":[{"name":"","type":"address","internalType":"address"}],"outputs":[{"name":"","type":"uint256","internalType":"uint256"}],"stateMutability":"view"},{"type":"function","name":"collateralToken","inputs":[],"outputs":[{"name":"","type":"address","internalType":"address"}],"stateMutability":"view"},{"type":"function","name":"depositCollateral","inputs":[{"name":"amount","type":"uint256","internalType":"uint256"}],"outputs":[],"stateMutability":"nonpayable"},{"type":"function","name":"getAccountState","inputs":[{"name":"account","type":"address","internalType":"address"}],"outputs":[{"name":"collateral","type":"uint256","internalType":"uint256"},{"name":"debt","type":"uint256","internalType":"uint256"},{"name":"isHealthy","type":"bool","internalType":"bool"},{"name":"isOTM","type":"bool","internalType":"bool"},{"name":"timeUntilRecoverable","type":"uint256","internalType":"uint256"}],"stateMutability":"view"},{"type":"function","name":"isPositionHealthy","inputs":[{"name":"account","type":"address","internalType":"address"}],"outputs":[{"name":"","type":"bool","internalType":"bool"}],"stateMutability":"view"},{"type":"function","name":"lenderVault","inputs":[],"outputs":[{"name":"","type":"address","internalType":"address"}],"stateMutability":"view"},{"type":"function","name":"markOTM","inputs":[{"name":"account","type":"address","internalType":"address"}],"outputs":[],"stateMutability":"nonpayable"},{"type":"function","name":"otmPositions","inputs":[{"name":"","type":"address","internalType":"address"}],"outputs":[{"name":"markTime","type":"uint256","internalType":"uint256"},{"name":"isOTM","type":"bool","internalType":"bool"}],"stateMutability":"view"},{"type":"function","name":"pair","inputs":[],"outputs":[{"name":"","type":"address","internalType":"address"}],"stateMutability":"view"},{"type":"function","name":"recover","inputs":[{"name":"account","type":"address","internalType":"address"}],"outputs":[],"stateMutability":"nonpayable"},{"type":"function","name":"repay","inputs":[{"name":"amount","type":"uint256","internalType":"uint256"}],"outputs":[],"stateMutability":"nonpayable"},{"type":"function","name":"withdrawCollateral","inputs":[{"name":"amount","type":"uint256","internalType":"uint256"}],"outputs":[],"stateMutability":"nonpayable"},{"type":"event","name":"MarkedOTM","inputs":[{"name":"account","type":"address","indexed":true,"internalType":"address"},{"name":"markTime","type":"uint256","indexed":false,"internalType":"uint256"}],"anonymous":false},{"type":"event","name":"PositionClosed","inputs":[{"name":"account","type":"address","indexed":true,"internalType":"address"},{"name":"repaid","type":"uint256","indexed":false,"internalType":"uint256"}],"anonymous":false},{"type":"event","name":"PositionOpened","inputs":[{"name":"account","type":"address","indexed":true,"internalType":"address"},{"name":"collateral","type":"uint256","indexed":false,"internalType":"uint256"},{"name":"debt","type":"uint256","indexed":false,"internalType":"uint256"}],"anonymous":false},{"type":"event","name":"Recovered","inputs":[{"name":"account","type":"address","indexed":true,"internalType":"address"},{"name":"collateralSwapped","type":"uint256","indexed":false,"internalType":"uint256"},{"name":"debtRepaid","type":"uint256","indexed":false,"internalType":"uint256"},{"name":"bonus","type":"uint256","indexed":false,"internalType":"uint256"}],"anonymous":false},{"type":"error","name":"Reentrancy","inputs":[]}],"bytecode":{"object":"0x60e034620000fa57601f62001ca738819003918201601f19168301916001600160401b03831184841017620000fe57808492606094604052833981010312620000fa576200004d8162000112565b906200006a6040620000626020840162000112565b920162000112565b9160805260a05260c052604051611b7f90816200012882396080518181816105b80152818161078001528181610a7101526110b4015260a05181818161021e015281816107c40152818161108e0152611939015260c0518181816101b90152818161054801528181610862015281816109e201528181610b7501528181610f670152818161176601526118f90152f35b5f80fd5b634e487b7160e01b5f52604160045260245ffd5b51906001600160a01b0382168203620000fa5756fe6080604081815260049182361015610015575f80fd5b5f925f3560e01c91826306876d1914611754575081630cd865ec14610f2457816329bc969d14610eeb578163371fd8e614610b395781636112fe2e146109b05781639ee2735b146107f3578163a8aa1b31146107af578163b2016bd41461076b578163b2aaa15414610656578163bad4a01f14610518578163bafca75e146104db578163c1a287e2146104bd578163c5ebeaec14610181578163c877bf2b14610138578163d40e8f4a146100f0575063d698eb76146100d2575f80fd5b346100ec57816003193601126100ec576020905160648152f35b5080fd5b90503461013457602036600319011261013457356001600160a01b038116908190036101345791819281526001602052206001815491015482519182526020820152f35b8280fd5b90503461013457602036600319011261013457356001600160a01b0381169081900361013457918192815260026020522060ff6001825492015416825191825215156020820152f35b90503461013457602091826003193601126104b95781359068929eee149b4bd2126893308554146104ad573085556001600160a01b037f0000000000000000000000000000000000000000000000000000000000000000811690813b1561049f57835163a6afed9560e01b815288908181898183885af180156104a357918893918693610483575b5050855163114a83a360e11b815297889182907f0000000000000000000000000000000000000000000000000000000000000000165afa95861561047957889661044a575b503388528783528388205486810296670de0b6b3a7640000918291818a0414901517021561043e573389526001845284892090600186519261028f846117bd565b805484520154858301908152865163aa5af0fd60e01b8152929086848681895afa938415610434578c94610401575b505183816103f157505051975b046102d687896117fb565b116103b9579088929160016102eb888a6117fb565b918751926102f8846117bd565b83528683019081523386528187528786209251835551910155600284525f60018685208281550155813b15610134578560248492838851958694859363317afabb60e21b85528401525af180156103af57610397575b50506103857fc491b8e6940cb48fcf9cf813c35e2d45fad221af7d5f4ce18d77dc576e5bf2209333885287835283882054956117fb565b9082519485528401523392a238905580f35b6103a090611795565b6103ab57855f61034e565b8580fd5b84513d84823e3d90fd5b845162461bcd60e51b81528083018590526012602482015271455843454544535f504d494e5f56414c554560701b6044820152606490fd5b6103fb9251611ae2565b976102cb565b9093508681813d831161042d575b61041981836117d9565b810103126104295751925f6102be565b5f80fd5b503d61040f565b88513d8e823e3d90fd5b5063ad251c278852601cfd5b9095508281813d8311610472575b61046281836117d9565b810103126104295751945f61024e565b503d610458565b84513d8a823e3d90fd5b909250610491919350611795565b61049f57828691895f610209565b8780fd5b86513d84823e3d90fd5b8363ab143c068752601cfd5b8380fd5b5050346100ec57816003193601126100ec57602090516203f4808152f35b9050346101345760203660031901126101345735916001600160a01b0383168303610515575061050c6020926118aa565b90519015158152f35b80fd5b919050346101345760203660031901126101345781359068929eee149b4bd21268923084541461064b57308455847f00000000000000000000000000000000000000000000000000000000000000006001600160a01b0316803b156100ec578180918486518094819363a6afed9560e01b83525af180156103af57610633575b50508151606084815230845233901b602c526323b872dd60601b600c52907f00000000000000000000000000000000000000000000000000000000000000006020876064601c82855af1908160018951141615610617575b5050509061060f918560605281523385528460205284209182546117fb565b905538905580f35b3b153d1710156106285780806105f0565b637939f4248652601cfd5b61063c90611795565b61064757845f610598565b8480fd5b63ab143c068552601cfd5b9190503461013457602090816003193601126104b95782356001600160a01b03811693908481036103ab5761068a906118aa565b610737578385526002835260ff6001838720015416610705575090817f8f17989de614b609a275ea9f16bd81d93bcc76f661c680aae38bebb3f59d27e892516106d2816117bd565b4281526001838201918183528688526002855283882090518155019051151560ff8019835416911617905551428152a280f35b82606492519162461bcd60e51b8352820152600e60248201526d1053149150511657d3505492d15160921b6044820152fd5b82606492519162461bcd60e51b8352820152601060248201526f504f534954494f4e5f4845414c54485960801b6044820152fd5b5050346100ec57816003193601126100ec57517f00000000000000000000000000000000000000000000000000000000000000006001600160a01b03168152602090f35b5050346100ec57816003193601126100ec57517f00000000000000000000000000000000000000000000000000000000000000006001600160a01b03168152602090f35b8284346105155760209081600319360112610515576001600160a01b03928435848116908181036104b95783948285528481528784862054976001835285872090836001885193610843856117bd565b8054855201549181840192835288519485809263aa5af0fd60e01b82527f0000000000000000000000000000000000000000000000000000000000000000165afa9081156109a6578891610975575b516108a79350908161096557505051926118aa565b928552600281528385209484516108bd816117bd565b60ff60018854988984520154161515809781858401528161093b575b506108ff575b505060a09750835196875286015215159084015260608301526080820152f35b519196506203f4808201918210610928575060a0975061092090429061187e565b9488806108df565b634e487b7160e01b815260118952602490fd5b90506203f48081018091116109525742108b6108d9565b634e487b7160e01b835260118b52602483fd5b61096f9251611ae2565b926118aa565b90508383813d831161099f575b61098c81836117d9565b81010312610429576108a7925190610892565b503d610982565b87513d8a823e3d90fd5b9190503461013457602090816003193601126104b95782359168929eee149b4bd212689330855414610b2e57308555857f00000000000000000000000000000000000000000000000000000000000000006001600160a01b0316803b156100ec578180918487518094819363a6afed9560e01b83525af18015610b2457610b10575b50503386526001825282862054610adc57338652858252838387205410610a9b57509084610a959392338252528420610a6c82825461187e565b9055337f0000000000000000000000000000000000000000000000000000000000000000611af8565b38905580f35b915162461bcd60e51b815291820152601760248201527f494e53554646494349454e545f434f4c4c41544552414c0000000000000000006044820152606490fd5b915162461bcd60e51b815291820152601060248201526f13d55514d5105391125391d7d111509560821b6044820152606490fd5b610b1990611795565b6103ab57855f610a32565b85513d84823e3d90fd5b63ab143c068652601cfd5b9190503461013457602090816003193601126104b95782359168929eee149b4bd212689330855414610b2e573085556001600160a01b039386917f00000000000000000000000000000000000000000000000000000000000000008681169290833b1561064757865163a6afed9560e01b81528581858183895af18015610dfb57908691610ed7575b505033855260019788875287862089895191610bdd836117bd565b805483520154888201908152895163aa5af0fd60e01b81529190898388818b5afa928315610ecd578993610e9b575b50518281610e8b57505051935b84811115610e85575083995b89516338d52e0f60e01b80825295908a8189818c5afa908115610e5757908b8e8a8f94898f918296610e61575b506064939495965196879586946323b872dd60e01b865233908601523060248601526044850152165af18015610e5757908d9291610e3a575b50818103610e055750505f915033885280895281818b8a2082815501553388526002895289882082815501555b875192835286838581885afa928315610dfb57928792878b93610d11968294610dcc575b508b5163095ea7b360e01b81526001600160a01b03909316888401908152602081019590955291958694859391849160400190565b0393165af18015610dc257610d95575b50813b156101345785602484928388519586948593631b8fec7360e11b85528401525af180156103af57610d81575b50507fa9e0cdf27a7965d21573ebb808fbcb2c2a1cfd656e1ecf3f82549437b474067791519283523392a238905580f35b610d8a90611795565b61064757845f610d50565b610db490853d8711610dbb575b610dac81836117d9565b810190611866565b505f610d21565b503d610da2565b86513d86823e3d90fd5b610ded919450863d8811610df4575b610de581836117d9565b81019061188b565b925f610cdc565b503d610ddb565b88513d88823e3d90fd5b90610e0f9161187e565b918a5192610e1c846117bd565b8352898301908152338952818a528a89209251835551910155610cb8565b610e50908c8d3d10610dbb57610dac81836117d9565b505f610c8b565b8c513d8c823e3d90fd5b859650610e7d90606495963d8911610df457610de581836117d9565b959493610c52565b99610c25565b610e959251611ae2565b93610c19565b985091508888813d8111610ec6575b610eb481836117d9565b81010312610429578c9751915f610c0c565b503d610eaa565b8b513d8b823e3d90fd5b610ee090611795565b61064757845f610bc2565b90503461013457602036600319011261013457356001600160a01b03811690819003610134578282916020945280845220549051908152f35b9190503461042957602080600319360112610429576001600160a01b03833581811693908490036104295768929eee149b4bd212689430865414611749573086557f00000000000000000000000000000000000000000000000000000000000000009383851691823b1561042957835163a6afed9560e01b81525f81838183885af1801561173f5761172c575b5086895260028252838920948451610fc8816117bd565b8654815260ff60018098015416158015858301526116f857516203f48081018091116116e55742106116ad57878a52858352848a208686519161100a836117bd565b805483520154848201908152865163aa5af0fd60e01b815290858286818a5afa9182156116a3578d92611674575b5051908161166457505051965b888b528a8452858b20549788159788158061165b575b1561162557905f8d928c845280885281818b862082815501558c8452838852838a812055600288528984208281550155837f00000000000000000000000000000000000000000000000000000000000000006110d88c827f0000000000000000000000000000000000000000000000000000000000000000611af8565b16885199630240bc6b60e21b8b5260608b8881855afa801561161b57849b85916115e5575b508a5163057078af60e51b81529b898d8a81875afa9c8d156115db57869d6115b1575b508c916001600160701b039183156115a857828116935b1561159f575016915b8b51634bafc7a360e11b81528a818b81885afa9687156115945796611565575b5061271095860386811161154f578e91818892840293840414170215611541578590049082820292828404148215171561152c579061119e916117fb565b9081156115185704998a156114e5578e91901561148f57803b156100ec578180606489828f958f5196879586946336cd320560e11b865285015260248401523060448401525af180156114855761146d575b50505b808911988915611465578d82985b8a516338d52e0f60e01b81529689888a81855afa97881561140f578a918a8e8e93879c611436575b505163095ea7b360e01b81526001600160a01b038b1691810191825260208201939093529192918391908290879082906040015b03928d165af1801561140f57611419575b50803b156100ec578a51631b8fec7360e11b81528881018b9052828160248183865af1801561140f579083916113fb575b5050898411156113f5576112b38a8561187e565b8061139f575b5050996112fe575b8d8d8d7f03fc2d4f2e2e4e84069307a4d3a9b7ad25d93e2026627031a87b54a1c61907ce60608f8f8f8f8f8251948552840152820152a238905580f35b61130c92939495995061187e565b9660648802908260648a8404148a1517021561139457509161135f6060989694927f03fc2d4f2e2e4e84069307a4d3a9b7ad25d93e2026627031a87b54a1c61907ce9a989694048097816113845761187e565b9081611373575b83959799859799506112c1565b61137c92611af8565b5f8080611366565b61138f823387611af8565b61187e565b63ad251c278d52601cfd5b813b1561013457829060248a838f51958694859363763c209760e11b85528401525af180156113eb576113d3575b806112b9565b6113dc90611795565b6113e7578d5f6113cd565b8d80fd5b8b513d84823e3d90fd5b816112b3565b61140490611795565b6100ec57815f61129f565b8c513d85823e3d90fd5b61142f908a3d8c11610dbb57610dac81836117d9565b505f61126e565b8b919c5085949392611458899261125d983d8911610df457610de581836117d9565b9d92509293949550611229565b8d8198611201565b61147690611795565b611481578c5f6111f0565b8c80fd5b8a513d84823e3d90fd5b803b156100ec5781809160648d8d5194859384926336cd320560e11b84528d8401528160248401523060448401525af18015611485576114d1575b50506111f3565b6114da90611795565b611481578c5f6114ca565b895162461bcd60e51b8152808801899052600d60248201526c222aa9aa2fa827a9a4aa24a7a760991b6044820152606490fd5b50634e487b7160e01b8f526012875260248ffd5b5050634e487b7160e01b8f526011875260248ffd5b508f63ad251c27899152601cfd5b50505060248f601189634e487b7160e01b835252fd5b9095508981813d831161158d575b61157d81836117d9565b810103126104295751945f611160565b503d611573565b8d51903d90823e3d90fd5b90501691611140565b82821693611137565b6001600160701b0391929d506115d3908b3d8d11610dbb57610dac81836117d9565b9c9190611120565b8c513d88823e3d90fd5b905061160a919b5060603d606011611614575b61160281836117d9565b810190611830565b509a909a5f6110fd565b503d6115f8565b8a513d86823e3d90fd5b875162461bcd60e51b8152808601879052601060248201526f24a72b20a624a22fa827a9a4aa24a7a760811b6044820152606490fd5b5081151561105b565b61166e9251611ae2565b96611045565b9091508581813d831161169c575b61168c81836117d9565b810103126104295751905f611038565b503d611682565b88513d8f823e3d90fd5b5060649184519162461bcd60e51b8352820152601360248201527247524143455f504552494f445f41435449564560681b6044820152fd5b634e487b7160e01b8b526011835260248bfd5b855162461bcd60e51b8152808401859052600e60248201526d4e4f545f4d41524b45445f4f544d60901b6044820152606490fd5b611737919950611795565b5f975f610fb1565b85513d5f823e3d90fd5b63ab143c065f52601cfd5b34610429575f366003190112610429577f00000000000000000000000000000000000000000000000000000000000000006001600160a01b03168152602090f35b67ffffffffffffffff81116117a957604052565b634e487b7160e01b5f52604160045260245ffd5b6040810190811067ffffffffffffffff8211176117a957604052565b90601f8019910116810190811067ffffffffffffffff8211176117a957604052565b9190820180921161180857565b634e487b7160e01b5f52601160045260245ffd5b51906001600160701b038216820361042957565b90816060910312610429576118448161181c565b9160406118536020840161181c565b92015163ffffffff811681036104295790565b90816020910312610429575180151581036104295790565b9190820391821161180857565b9081602091031261042957516001600160a01b03811681036104295790565b60018060a01b03809116805f52602090600182526040805f208151906118cf826117bd565b600181549182845201549085830191825215611ad757825163aa5af0fd60e01b81529085826004817f00000000000000000000000000000000000000000000000000000000000000008b165afa918215611acd575f92611a9e575b50519081611a8e57505051935b7f0000000000000000000000000000000000000000000000000000000000000000168151630240bc6b60e21b8152606081600481855afa918215611a5c57908560049493925f925f94611a66575b50845163057078af60e51b815295869182905afa938415611a5c575f94611a32575b506001600160701b0391908415611a2957828116945b15611a215750165b8215611a1757670de0b6b3a764000094838683029287818504149015170215611a0a5785935f9204948252525f205482810292818404149015170215611a0a57041190565b63ad251c275f526004601cfd5b5050505050505f90565b9050166119c5565b828216946119bd565b6001600160701b0392919450611a5490873d8911610dbb57610dac81836117d9565b9390916119a7565b83513d5f823e3d90fd5b909350611a8391925060603d6060116116145761160281836117d9565b50919091925f611985565b611a989251611ae2565b93611937565b9091508581813d8311611ac6575b611ab681836117d9565b810103126104295751905f61192a565b503d611aac565b84513d5f823e3d90fd5b505050505050600190565b8181029181159183041417820215611a0a570490565b919060145260345263a9059cbb60601b5f5260205f6044601082855af1908160015f51141615611b2b575b50505f603452565b3b153d171015611b3c575f80611b23565b6390b8ec185f526004601cfdfea2646970667358221220148c9530d01ce530520ebde2af8cb6f9c4797a39604db80d7bd931a3e804ac3164736f6c63430008180033","linkReferences":{}},"methodIdentifiers":{"GRACE_PERIOD()":"c1a287e2","RECOVERY_BONUS_BPS()":"d698eb76","accountBorrows(address)":"d40e8f4a","borrow(uint256)":"c5ebeaec","collateralBalances(address)":"29bc969d","collateralToken()":"b2016bd4","depositCollateral(uint256)":"bad4a01f","getAccountState(address)":"9ee2735b","isPositionHealthy(address)":"bafca75e","lenderVault()":"06876d19","markOTM(address)":"b2aaa154","otmPositions(address)":"c877bf2b","pair()":"a8aa1b31","recover(address)":"0cd865ec","repay(uint256)":"371fd8e6","withdrawCollateral(uint256)":"6112fe2e"},"id":25}