{"abi":[{"type":"constructor","inputs":[{"name":"_collateralToken","type":"address","internalType":"address"},{"name":"_pair","type":"address","internalType":"address"},{"name":"_lenderVault","type":"address","internalType":"address"}],"stateMutability":"nonpayable"},{"type":"function","name":"CLOSE_FACTOR","inputs":[],"outputs":[{"name":"","type":"uint256","internalType":"uint256"}],"stateMutability":"view"},{"type":"function","name":"COLLATERAL_FACTOR","inputs":[],"outputs":[{"name":"","type":"uint256","internalType":"uint256"}],"stateMutability":"view"},{"type":"function","name":"LIQUIDATION_INCENTIVE","inputs":[],"outputs":[{"name":"","type":"uint256","internalType":"uint256"}],"stateMutability":"view"},{"type":"function","name":"accountBorrows","inputs":[{"name":"","type":"address","internalType":"address"}],"outputs":[{"name":"principal","type":"uint256","internalType":"uint256"},{"name":"interestIndex","type":"uint256","internalType":"uint256"}],"stateMutability":"view"},{"type":"function","name":"borrow","inputs":[{"name":"amount","type":"uint256","internalType":"uint256"}],"outputs":[],"stateMutability":"nonpayable"},{"type":"function","name":"collateralBalances","inputs":[{"name":"","type":"address","internalType":"address"}],"outputs":[{"name":"","type":"uint256","internalType":"uint256"}],"stateMutability":"view"},{"type":"function","name":"collateralToken","inputs":[],"outputs":[{"name":"","type":"address","internalType":"address"}],"stateMutability":"view"},{"type":"function","name":"depositCollateral","inputs":[{"name":"amount","type":"uint256","internalType":"uint256"}],"outputs":[],"stateMutability":"nonpayable"},{"type":"function","name":"getAccountHealth","inputs":[{"name":"account","type":"address","internalType":"address"}],"outputs":[{"name":"collateral","type":"uint256","internalType":"uint256"},{"name":"debt","type":"uint256","internalType":"uint256"},{"name":"healthy","type":"bool","internalType":"bool"}],"stateMutability":"view"},{"type":"function","name":"lenderVault","inputs":[],"outputs":[{"name":"","type":"address","internalType":"address"}],"stateMutability":"view"},{"type":"function","name":"liquidate","inputs":[{"name":"borrower","type":"address","internalType":"address"},{"name":"repayAmount","type":"uint256","internalType":"uint256"}],"outputs":[],"stateMutability":"nonpayable"},{"type":"function","name":"pair","inputs":[],"outputs":[{"name":"","type":"address","internalType":"address"}],"stateMutability":"view"},{"type":"function","name":"repay","inputs":[{"name":"amount","type":"uint256","internalType":"uint256"}],"outputs":[],"stateMutability":"nonpayable"},{"type":"function","name":"withdrawCollateral","inputs":[{"name":"amount","type":"uint256","internalType":"uint256"}],"outputs":[],"stateMutability":"nonpayable"},{"type":"error","name":"Reentrancy","inputs":[]}],"bytecode":{"object":"0x60e0346100ef57601f61154938819003918201601f19168301916001600160401b038311848410176100f3578084926060946040528339810103126100ef5761004781610107565b90610060604061005960208401610107565b9201610107565b9160805260a05260c05260405161142d908161011c82396080518181816107b801528181610a0001528181610ab90152610bd7015260a05181818161063401528181610afd0152818161112c01526112a1015260c05181818161011b01528181610278015281816105530152818161099001528181610b5a01528181610c6501528181610f0001526110d20152f35b5f80fd5b634e487b7160e01b5f52604160045260245ffd5b51906001600160a01b03821682036100ef5756fe6080604081815260049081361015610015575f80fd5b5f925f3560e01c90816306876d1914610eee5750806317f49e0514610ed257806329bc969d14610e9c578063371fd8e614610c2c5780634dab4dc014610c0f5780636112fe2e14610b2c578063a8aa1b3114610ae8578063b2016bd414610aa4578063bad4a01f14610962578063bcbaf48714610505578063c5ebeaec1461023f578063c66c144a14610222578063d40e8f4a146101dc5763e59e8018146100bb575f80fd5b346101d8576020806003193601126101d4576100d5610f2f565b6001600160a01b03818116808752600180855285882086519397929186916100fc86610f6d565b8054865201549781850198895287519384809263aa5af0fd60e01b82527f0000000000000000000000000000000000000000000000000000000000000000165afa9182156101ca578892610190575b5087528684529584902054945160609661016f92919081610180575050519161107f565b918351948552840152151590820152f35b61018a925161105c565b9161107f565b929150968483813d83116101c3575b6101a98183610f89565b810103126101bf5791519196909190606061014b565b5f80fd5b503d61019f565b86513d8a823e3d90fd5b8380fd5b8280fd5b83823461021e57602036600319011261021e579081906001600160a01b03610202610f2f565b1681526001602052206001815491015482519182526020820152f35b5080fd5b83823461021e578160031936011261021e57602090516129048152f35b5090346101d857602090816003193601126101d45780359268929eee149b4bd2126893308554146104f957308555856001600160a01b037f00000000000000000000000000000000000000000000000000000000000000008116803b156101d857845163a6afed9560e01b81528381888183865af18015610488579084916104e5575b50503383526001875284832060018651916102dc83610f6d565b805483520154888201908152865163aa5af0fd60e01b8152919089838a81875afa9283156104db579087929187946104a1575b509161032a91600193518581155f146104925750505161104f565b9187519261033784610f6d565b8352898301908152338652818a52878620925183555191015561036161035c3361107f565b611003565b803b156101d857845163317afabb60e21b8152868101859052838160248183865af18015610488579188918895949361046d575b5086516338d52e0f60e01b815297889182905afa95861561046357908291889594939761042d575b5090604492918651978895869463a9059cbb60e01b865233908601526024850152165af190811561042457506103f6575b505038905580f35b8161041592903d1061041d575b61040d8183610f89565b810190610fca565b505f806103ee565b503d610403565b513d86823e3d90fd5b6044939291975061045390863d881161045c575b61044b8183610f89565b810190610fab565b969091926103bd565b503d610441565b85513d84823e3d90fd5b61047b919550849250610f45565b61021e578686935f610395565b86513d86823e3d90fd5b61049c925161105c565b61104f565b9250925094508881813d83116104d4575b6104bc8183610f89565b810103126101bf57518a94909186919061032a61030f565b503d6104b2565b88513d88823e3d90fd5b6104ee90610f45565b6101d857825f6102c2565b8263ab143c068752601cfd5b5082903461021e578060031936011261021e57610520610f2f565b926024359368929eee149b4bd212689230845414610956573084556105448261107f565b610922576001600160a01b03927f0000000000000000000000000000000000000000000000000000000000000000841692833b1561091457825163a6afed9560e01b81528781848183895af180156109185786929189916108fb575b5050168087526020600181528388209160018551936105be85610f6d565b805485520154828401908152855163aa5af0fd60e01b81529390838587818b5afa9485156108f1578b956108c2575b505184816108b257505051925b6113889a8b8502612710809d8783041487151702156108a6578c9004908181111561089e5750935b865163114a83a360e11b8152848188817f00000000000000000000000000000000000000000000000000000000000000008e165afa908115610894578c91610867575b5061066e611292565b8082101561085f57509b5b612904818188029188830414881517021561085357049b670de0b6b3a76400008d15818f028f9004821417820215610853578c9d9c9a9b9c020499838a528985526106c9888b20548c1115611003565b87516338d52e0f60e01b815290858289818d5afa9182156108495761072792898d89948b94829461082a575b508d516323b872dd60e01b81523393810193845230602085015260408401959095529395869485939091849160600190565b0393165af1801561082057866001938c9796959361074a93610803575b50610fe2565b9288519361075785610f6d565b8452848401918252855281845287852092518355519101555282852061077e878254610fe2565b9055833b156107ff57602485928385519687948593631b8fec7360e11b85528401525af19081156107f657506107e2575b50506107dc90337f000000000000000000000000000000000000000000000000000000000000000061122d565b38905580f35b6107eb90610f45565b6101d85782846107af565b513d84823e3d90fd5b8480fd5b61081990883d8a1161041d5761040d8183610f89565b505f610744565b88513d8c823e3d90fd5b610842919450863d881161045c5761044b8183610f89565b925f6106f5565b89513d8d823e3d90fd5b8763ad251c278e52601cfd5b90509b610679565b90508481813d831161088d575b61087e8183610f89565b810103126101bf57518d610665565b503d610874565b88513d8e823e3d90fd5b905093610622565b8663ad251c278d52601cfd5b6108bc925161105c565b926105fa565b9094508381813d83116108ea575b6108da8183610f89565b810103126101bf5751938c6105ed565b503d6108d0565b87513d8d823e3d90fd5b61090791929350610f45565b610914578490878a6105a0565b8680fd5b84513d8a823e3d90fd5b5162461bcd60e51b8152602081840152600f60248201526e4143434f554e545f4845414c54485960881b6044820152606490fd5b8263ab143c068652601cfd5b50346101d85760203660031901126101d85781359068929eee149b4bd212689230845414610a9957308455847f00000000000000000000000000000000000000000000000000000000000000006001600160a01b0316803b1561021e578180918486518094819363a6afed9560e01b83525af18015610a8f57610a7b575b50508151606084815230845233901b602c526323b872dd60601b600c52907f00000000000000000000000000000000000000000000000000000000000000006020876064601c82855af1908160018951141615610a5f575b50505090610a579185606052815233855284602052842091825461104f565b905538905580f35b3b153d171015610a70578080610a38565b637939f4248652601cfd5b610a8490610f45565b6107ff57845f6109e0565b84513d84823e3d90fd5b63ab143c068552601cfd5b83823461021e578160031936011261021e57517f00000000000000000000000000000000000000000000000000000000000000006001600160a01b03168152602090f35b83823461021e578160031936011261021e57517f00000000000000000000000000000000000000000000000000000000000000006001600160a01b03168152602090f35b50346101d85760203660031901126101d857813568929eee149b4bd212689230845414610a995730845584907f00000000000000000000000000000000000000000000000000000000000000006001600160a01b031690813b156101d857845163a6afed9560e01b81529183918391829084905af18015610a8f57610bfb575b50506107dc91338552846020528420610bc6828254610fe2565b9055610bd461035c3361107f565b337f000000000000000000000000000000000000000000000000000000000000000061122d565b610c0490610f45565b6101d457835f610bac565b83823461021e578160031936011261021e57602090516113888152f35b509190346101bf57602092836003193601126101bf5781359068929eee149b4bd212689230845414610e91573084556001600160a01b037f0000000000000000000000000000000000000000000000000000000000000000811693843b156101bf57835163a6afed9560e01b81525f818581838a5af18015610e8757610e72575b5096869796959633875260018252848720906001865192610ccd84610f6d565b805484520154838301908152865163aa5af0fd60e01b81529290848488818c5afa938415610820578a94610e40575b50518381610e3057505051905b81811115610e2a575080935b86516338d52e0f60e01b815290848288818c5afa91821561082057610d7392888c88948a948294610e0b575b508c516323b872dd60e01b81523393810193845230602085015260408401959095529395869485939091849160600190565b0393165af18015610e015785600194938593610d93936108035750610fe2565b93875194610da086610f6d565b8552808501928352338a52528588209251835551910155833b156107ff57602485928385519687948593631b8fec7360e11b85528401525af19081156107f65750610ded57505038905580f35b610df690610f45565b61021e57815f6103ee565b87513d8b823e3d90fd5b610e23919450863d881161045c5761044b8183610f89565b925f610d41565b93610d15565b610e3a925161105c565b90610d09565b995092508389813d8111610e6b575b610e598183610f89565b810103126101bf578a9851925f610cfc565b503d610e4f565b610e7e91969750610f45565b5f95945f610cad565b85513d5f823e3d90fd5b63ab143c065f52601cfd5b50346101bf5760203660031901126101bf576020906001600160a01b03610ec1610f2f565b165f525f8252805f20549051908152f35b50346101bf575f3660031901126101bf5760209051611f408152f35b346101bf575f3660031901126101bf577f00000000000000000000000000000000000000000000000000000000000000006001600160a01b03168152602090f35b600435906001600160a01b03821682036101bf57565b67ffffffffffffffff8111610f5957604052565b634e487b7160e01b5f52604160045260245ffd5b6040810190811067ffffffffffffffff821117610f5957604052565b90601f8019910116810190811067ffffffffffffffff821117610f5957604052565b908160209103126101bf57516001600160a01b03811681036101bf5790565b908160209103126101bf575180151581036101bf5790565b91908203918211610fef57565b634e487b7160e01b5f52601160045260245ffd5b1561100a57565b60405162461bcd60e51b815260206004820152601760248201527f494e53554646494349454e545f434f4c4c41544552414c0000000000000000006044820152606490fd5b91908201809211610fef57565b8181029181159183041417820215611072570490565b63ad251c275f526004601cfd5b6001600160a01b039081165f81815260016020908152604091829020825193906110a885610f6d565b60018154918287520154908386019182521561122257835163aa5af0fd60e01b81529083826004817f00000000000000000000000000000000000000000000000000000000000000008b165afa918215610e87575f926111f0575b50948391600496519081155f146111e057505051955b845163114a83a360e11b815295869182907f0000000000000000000000000000000000000000000000000000000000000000165afa9384156111d6575f946111a5575b50905f918252525f20549080820290670de0b6b3a76400009283918184041490151702156110725704611f40808202906127109283918184041490151702156110725704101590565b918091945082813d83116111cf575b6111be8183610f89565b810103126101bf579051925f61115c565b503d6111b4565b83513d5f823e3d90fd5b6111ea925161105c565b95611119565b9150948382813d831161121b575b6112088183610f89565b810103126101bf57905190946004611103565b503d6111fe565b505050505050600190565b919060145260345263a9059cbb60601b5f5260205f6044601082855af1908160015f51141615611260575b50505f603452565b3b153d171015611271575f80611258565b6390b8ec185f526004601cfd5b51906001600160701b03821682036101bf57565b604051630240bc6b60e21b81527f00000000000000000000000000000000000000000000000000000000000000006001600160a01b0316606082600481845afa90811561138e575f925f92611399575b509060206004926040519384809263057078af60e51b82525afa91821561138e575f92611366575b506001600160701b039192835f1461135d57828116935b156113555750165b811561134f5781670de0b6b3a76400009182810292818404149015170215611072570490565b50505f90565b905016611329565b82821693611321565b6001600160701b0392506113889060203d60201161041d5761040d8183610f89565b9161130a565b6040513d5f823e3d90fd5b925090506060823d6060116113ef575b816113b660609383610f89565b810103126101bf576113c78261127e565b9060406113d66020850161127e565b93015163ffffffff8116036101bf5790919060206112e2565b3d91506113a956fea264697066735822122091c3f70ce9b872a7888f7b1abba991fbc7a89ac4b5b09c398e0ae8ec4a2c97ae64736f6c63430008180033","linkReferences":{}},"methodIdentifiers":{"CLOSE_FACTOR()":"4dab4dc0","COLLATERAL_FACTOR()":"17f49e05","LIQUIDATION_INCENTIVE()":"c66c144a","accountBorrows(address)":"d40e8f4a","borrow(uint256)":"c5ebeaec","collateralBalances(address)":"29bc969d","collateralToken()":"b2016bd4","depositCollateral(uint256)":"bad4a01f","getAccountHealth(address)":"e59e8018","lenderVault()":"06876d19","liquidate(address,uint256)":"bcbaf487","pair()":"a8aa1b31","repay(uint256)":"371fd8e6","withdrawCollateral(uint256)":"6112fe2e"},"id":25}